{
  "contractName": "Token",
  "abi": [
    {
      "inputs": [
        {
          "internalType": "string",
          "name": "name",
          "type": "string"
        },
        {
          "internalType": "string",
          "name": "symbol",
          "type": "string"
        }
      ],
      "stateMutability": "nonpayable",
      "type": "constructor"
    },
    {
      "anonymous": false,
      "inputs": [
        {
          "indexed": true,
          "internalType": "address",
          "name": "owner",
          "type": "address"
        },
        {
          "indexed": true,
          "internalType": "address",
          "name": "approved",
          "type": "address"
        },
        {
          "indexed": true,
          "internalType": "uint256",
          "name": "tokenId",
          "type": "uint256"
        }
      ],
      "name": "Approval",
      "type": "event"
    },
    {
      "anonymous": false,
      "inputs": [
        {
          "indexed": true,
          "internalType": "address",
          "name": "owner",
          "type": "address"
        },
        {
          "indexed": true,
          "internalType": "address",
          "name": "operator",
          "type": "address"
        },
        {
          "indexed": false,
          "internalType": "bool",
          "name": "approved",
          "type": "bool"
        }
      ],
      "name": "ApprovalForAll",
      "type": "event"
    },
    {
      "anonymous": false,
      "inputs": [
        {
          "indexed": true,
          "internalType": "address",
          "name": "previousOwner",
          "type": "address"
        },
        {
          "indexed": true,
          "internalType": "address",
          "name": "newOwner",
          "type": "address"
        }
      ],
      "name": "OwnershipTransferred",
      "type": "event"
    },
    {
      "anonymous": false,
      "inputs": [
        {
          "indexed": true,
          "internalType": "address",
          "name": "from",
          "type": "address"
        },
        {
          "indexed": true,
          "internalType": "address",
          "name": "to",
          "type": "address"
        },
        {
          "indexed": true,
          "internalType": "uint256",
          "name": "tokenId",
          "type": "uint256"
        }
      ],
      "name": "Transfer",
      "type": "event"
    },
    {
      "inputs": [
        {
          "internalType": "address",
          "name": "to",
          "type": "address"
        },
        {
          "internalType": "uint256",
          "name": "tokenId",
          "type": "uint256"
        }
      ],
      "name": "approve",
      "outputs": [],
      "stateMutability": "nonpayable",
      "type": "function"
    },
    {
      "inputs": [
        {
          "internalType": "address",
          "name": "owner",
          "type": "address"
        }
      ],
      "name": "balanceOf",
      "outputs": [
        {
          "internalType": "uint256",
          "name": "",
          "type": "uint256"
        }
      ],
      "stateMutability": "view",
      "type": "function",
      "constant": true
    },
    {
      "inputs": [
        {
          "internalType": "uint256",
          "name": "tokenId",
          "type": "uint256"
        }
      ],
      "name": "getApproved",
      "outputs": [
        {
          "internalType": "address",
          "name": "",
          "type": "address"
        }
      ],
      "stateMutability": "view",
      "type": "function",
      "constant": true
    },
    {
      "inputs": [
        {
          "internalType": "address",
          "name": "owner",
          "type": "address"
        },
        {
          "internalType": "address",
          "name": "operator",
          "type": "address"
        }
      ],
      "name": "isApprovedForAll",
      "outputs": [
        {
          "internalType": "bool",
          "name": "",
          "type": "bool"
        }
      ],
      "stateMutability": "view",
      "type": "function",
      "constant": true
    },
    {
      "inputs": [],
      "name": "name",
      "outputs": [
        {
          "internalType": "string",
          "name": "",
          "type": "string"
        }
      ],
      "stateMutability": "view",
      "type": "function",
      "constant": true
    },
    {
      "inputs": [],
      "name": "owner",
      "outputs": [
        {
          "internalType": "address",
          "name": "",
          "type": "address"
        }
      ],
      "stateMutability": "view",
      "type": "function",
      "constant": true
    },
    {
      "inputs": [
        {
          "internalType": "uint256",
          "name": "tokenId",
          "type": "uint256"
        }
      ],
      "name": "ownerOf",
      "outputs": [
        {
          "internalType": "address",
          "name": "",
          "type": "address"
        }
      ],
      "stateMutability": "view",
      "type": "function",
      "constant": true
    },
    {
      "inputs": [],
      "name": "renounceOwnership",
      "outputs": [],
      "stateMutability": "nonpayable",
      "type": "function"
    },
    {
      "inputs": [
        {
          "internalType": "address",
          "name": "from",
          "type": "address"
        },
        {
          "internalType": "address",
          "name": "to",
          "type": "address"
        },
        {
          "internalType": "uint256",
          "name": "tokenId",
          "type": "uint256"
        }
      ],
      "name": "safeTransferFrom",
      "outputs": [],
      "stateMutability": "nonpayable",
      "type": "function"
    },
    {
      "inputs": [
        {
          "internalType": "address",
          "name": "from",
          "type": "address"
        },
        {
          "internalType": "address",
          "name": "to",
          "type": "address"
        },
        {
          "internalType": "uint256",
          "name": "tokenId",
          "type": "uint256"
        },
        {
          "internalType": "bytes",
          "name": "_data",
          "type": "bytes"
        }
      ],
      "name": "safeTransferFrom",
      "outputs": [],
      "stateMutability": "nonpayable",
      "type": "function"
    },
    {
      "inputs": [
        {
          "internalType": "address",
          "name": "operator",
          "type": "address"
        },
        {
          "internalType": "bool",
          "name": "approved",
          "type": "bool"
        }
      ],
      "name": "setApprovalForAll",
      "outputs": [],
      "stateMutability": "nonpayable",
      "type": "function"
    },
    {
      "inputs": [
        {
          "internalType": "bytes4",
          "name": "interfaceId",
          "type": "bytes4"
        }
      ],
      "name": "supportsInterface",
      "outputs": [
        {
          "internalType": "bool",
          "name": "",
          "type": "bool"
        }
      ],
      "stateMutability": "view",
      "type": "function",
      "constant": true
    },
    {
      "inputs": [],
      "name": "symbol",
      "outputs": [
        {
          "internalType": "string",
          "name": "",
          "type": "string"
        }
      ],
      "stateMutability": "view",
      "type": "function",
      "constant": true
    },
    {
      "inputs": [
        {
          "internalType": "uint256",
          "name": "tokenId",
          "type": "uint256"
        }
      ],
      "name": "tokenURI",
      "outputs": [
        {
          "internalType": "string",
          "name": "",
          "type": "string"
        }
      ],
      "stateMutability": "view",
      "type": "function",
      "constant": true
    },
    {
      "inputs": [
        {
          "internalType": "address",
          "name": "from",
          "type": "address"
        },
        {
          "internalType": "address",
          "name": "to",
          "type": "address"
        },
        {
          "internalType": "uint256",
          "name": "tokenId",
          "type": "uint256"
        }
      ],
      "name": "transferFrom",
      "outputs": [],
      "stateMutability": "nonpayable",
      "type": "function"
    },
    {
      "inputs": [
        {
          "internalType": "address",
          "name": "newOwner",
          "type": "address"
        }
      ],
      "name": "transferOwnership",
      "outputs": [],
      "stateMutability": "nonpayable",
      "type": "function"
    },
    {
      "inputs": [
        {
          "internalType": "uint8",
          "name": "price",
          "type": "uint8"
        },
        {
          "internalType": "uint8[]",
          "name": "parts",
          "type": "uint8[]"
        }
      ],
      "name": "mint",
      "outputs": [],
      "stateMutability": "nonpayable",
      "type": "function"
    },
    {
      "inputs": [
        {
          "internalType": "uint8[]",
          "name": "partsOne",
          "type": "uint8[]"
        },
        {
          "internalType": "uint256",
          "name": "tokenIdOne",
          "type": "uint256"
        },
        {
          "internalType": "uint8[]",
          "name": "partsTwo",
          "type": "uint8[]"
        },
        {
          "internalType": "address",
          "name": "senderInvit",
          "type": "address"
        },
        {
          "internalType": "uint256",
          "name": "tokenIdTwo",
          "type": "uint256"
        }
      ],
      "name": "reproduce",
      "outputs": [],
      "stateMutability": "nonpayable",
      "type": "function"
    },
    {
      "inputs": [
        {
          "internalType": "uint256",
          "name": "tokenId",
          "type": "uint256"
        }
      ],
      "name": "getTokenDetails",
      "outputs": [
        {
          "components": [
            {
              "internalType": "uint8",
              "name": "price",
              "type": "uint8"
            },
            {
              "internalType": "uint8",
              "name": "numberReproduce",
              "type": "uint8"
            },
            {
              "internalType": "uint8[]",
              "name": "parts",
              "type": "uint8[]"
            },
            {
              "internalType": "uint8",
              "name": "tokenIdReproducable",
              "type": "uint8"
            },
            {
              "internalType": "bool",
              "name": "inSell",
              "type": "bool"
            },
            {
              "internalType": "bool",
              "name": "egg",
              "type": "bool"
            },
            {
              "internalType": "uint256",
              "name": "createdAt",
              "type": "uint256"
            }
          ],
          "internalType": "struct Token.Mystic",
          "name": "",
          "type": "tuple"
        }
      ],
      "stateMutability": "view",
      "type": "function",
      "constant": true
    },
    {
      "inputs": [
        {
          "internalType": "uint256",
          "name": "tokenId",
          "type": "uint256"
        },
        {
          "internalType": "uint8",
          "name": "tokenIdReproducable",
          "type": "uint8"
        },
        {
          "internalType": "bool",
          "name": "add",
          "type": "bool"
        }
      ],
      "name": "addSubInvitation",
      "outputs": [],
      "stateMutability": "nonpayable",
      "type": "function"
    },
    {
      "inputs": [
        {
          "internalType": "address",
          "name": "user",
          "type": "address"
        }
      ],
      "name": "getAllTokensForUser",
      "outputs": [
        {
          "internalType": "uint256[]",
          "name": "",
          "type": "uint256[]"
        }
      ],
      "stateMutability": "view",
      "type": "function",
      "constant": true
    },
    {
      "inputs": [
        {
          "internalType": "address",
          "name": "contactAddr",
          "type": "address"
        },
        {
          "internalType": "uint256",
          "name": "tokenId",
          "type": "uint256"
        },
        {
          "internalType": "uint256",
          "name": "amount",
          "type": "uint256"
        },
        {
          "internalType": "bool",
          "name": "purchase",
          "type": "bool"
        }
      ],
      "name": "purchaseAndTransfer",
      "outputs": [],
      "stateMutability": "payable",
      "type": "function",
      "payable": true
    },
    {
      "inputs": [
        {
          "internalType": "uint256",
          "name": "tokenId",
          "type": "uint256"
        },
        {
          "internalType": "bool",
          "name": "sellable",
          "type": "bool"
        },
        {
          "internalType": "bool",
          "name": "egg",
          "type": "bool"
        }
      ],
      "name": "params",
      "outputs": [],
      "stateMutability": "nonpayable",
      "type": "function"
    }
  ],
  "bytecode": "0x60806040526000600755600060085560006009553480156200002057600080fd5b50604051620047b3380380620047b3833981810160405281019062000046919062000294565b818181600090805190602001906200006092919062000172565b5080600190805190602001906200007992919062000172565b5050506200009c62000090620000a460201b60201c565b620000ac60201b60201c565b505062000438565b600033905090565b6000600660009054906101000a900473ffffffffffffffffffffffffffffffffffffffff16905081600660006101000a81548173ffffffffffffffffffffffffffffffffffffffff021916908373ffffffffffffffffffffffffffffffffffffffff1602179055508173ffffffffffffffffffffffffffffffffffffffff168173ffffffffffffffffffffffffffffffffffffffff167f8be0079c531659141344cd1fd0a4f28419497f9722a3daafe3b4186f6b6457e060405160405180910390a35050565b8280546200018090620003a4565b90600052602060002090601f016020900481019282620001a45760008555620001f0565b82601f10620001bf57805160ff1916838001178555620001f0565b82800160010185558215620001f0579182015b82811115620001ef578251825591602001919060010190620001d2565b5b509050620001ff919062000203565b5090565b5b808211156200021e57600081600090555060010162000204565b5090565b60006200023962000233846200033b565b62000307565b9050828152602081018484840111156200025257600080fd5b6200025f8482856200036e565b509392505050565b600082601f8301126200027957600080fd5b81516200028b84826020860162000222565b91505092915050565b60008060408385031215620002a857600080fd5b600083015167ffffffffffffffff811115620002c357600080fd5b620002d18582860162000267565b925050602083015167ffffffffffffffff811115620002ef57600080fd5b620002fd8582860162000267565b9150509250929050565b6000604051905081810181811067ffffffffffffffff8211171562000331576200033062000409565b5b8060405250919050565b600067ffffffffffffffff82111562000359576200035862000409565b5b601f19601f8301169050602081019050919050565b60005b838110156200038e57808201518184015260208101905062000371565b838111156200039e576000848401525b50505050565b60006002820490506001821680620003bd57607f821691505b60208210811415620003d457620003d3620003da565b5b50919050565b7f4e487b7100000000000000000000000000000000000000000000000000000000600052602260045260246000fd5b7f4e487b7100000000000000000000000000000000000000000000000000000000600052604160045260246000fd5b61436b80620004486000396000f3fe6080604052600436106101405760003560e01c806382de8fe9116100b6578063c1e037281161006f578063c1e0372814610456578063c87b56dd14610493578063e144c76f146104d0578063e65ac0d8146104ec578063e985e9c514610515578063f2fde38b1461055257610140565b806382de8fe914610348578063851fb2bd146103855780638da5cb5b146103ae57806395d89b41146103d9578063a22cb46514610404578063b88d4fde1461042d57610140565b8063340350a011610108578063340350a01461023c57806342842e0e146102655780636352211e1461028e57806370a08231146102cb578063715018a6146103085780638082d3301461031f57610140565b806301ffc9a71461014557806306fdde0314610182578063081812fc146101ad578063095ea7b3146101ea57806323b872dd14610213575b600080fd5b34801561015157600080fd5b5061016c60048036038101906101679190612f37565b61057b565b6040516101799190613ade565b60405180910390f35b34801561018e57600080fd5b5061019761065d565b6040516101a49190613af9565b60405180910390f35b3480156101b957600080fd5b506101d460048036038101906101cf9190612f89565b6106ef565b6040516101e19190613a55565b60405180910390f35b3480156101f657600080fd5b50610211600480360381019061020c9190612df1565b610774565b005b34801561021f57600080fd5b5061023a60048036038101906102359190612ceb565b61088c565b005b34801561024857600080fd5b50610263600480360381019061025e9190613050565b6108ec565b005b34801561027157600080fd5b5061028c60048036038101906102879190612ceb565b610a52565b005b34801561029a57600080fd5b506102b560048036038101906102b09190612f89565b610a72565b6040516102c29190613a55565b60405180910390f35b3480156102d757600080fd5b506102f260048036038101906102ed9190612c86565b610b24565b6040516102ff9190613ddd565b60405180910390f35b34801561031457600080fd5b5061031d610bdc565b005b34801561032b57600080fd5b5061034660048036038101906103419190612e90565b610c64565b005b34801561035457600080fd5b5061036f600480360381019061036a9190612c86565b611102565b60405161037c9190613abc565b60405180910390f35b34801561039157600080fd5b506103ac60048036038101906103a79190612fb2565b6112ca565b005b3480156103ba57600080fd5b506103c36113a1565b6040516103d09190613a55565b60405180910390f35b3480156103e557600080fd5b506103ee6113cb565b6040516103fb9190613af9565b60405180910390f35b34801561041057600080fd5b5061042b60048036038101906104269190612db5565b61145d565b005b34801561043957600080fd5b50610454600480360381019061044f9190612d3a565b611473565b005b34801561046257600080fd5b5061047d60048036038101906104789190612f89565b6114d5565b60405161048a9190613dbb565b60405180910390f35b34801561049f57600080fd5b506104ba60048036038101906104b59190612f89565b611617565b6040516104c79190613af9565b60405180910390f35b6104ea60048036038101906104e59190612e2d565b6116be565b005b3480156104f857600080fd5b50610513600480360381019061050e9190613001565b611ad8565b005b34801561052157600080fd5b5061053c60048036038101906105379190612caf565b611b56565b6040516105499190613ade565b60405180910390f35b34801561055e57600080fd5b5061057960048036038101906105749190612c86565b611bea565b005b60007f80ac58cd000000000000000000000000000000000000000000000000000000007bffffffffffffffffffffffffffffffffffffffffffffffffffffffff1916827bffffffffffffffffffffffffffffffffffffffffffffffffffffffff1916148061064657507f5b5e139f000000000000000000000000000000000000000000000000000000007bffffffffffffffffffffffffffffffffffffffffffffffffffffffff1916827bffffffffffffffffffffffffffffffffffffffffffffffffffffffff1916145b80610656575061065582611ce2565b5b9050919050565b60606000805461066c90614149565b80601f016020809104026020016040519081016040528092919081815260200182805461069890614149565b80156106e55780601f106106ba576101008083540402835291602001916106e5565b820191906000526020600020905b8154815290600101906020018083116106c857829003601f168201915b5050505050905090565b60006106fa82611d4c565b610739576040517f08c379a000000000000000000000000000000000000000000000000000000000815260040161073090613c9b565b60405180910390fd5b6004600083815260200190815260200160002060009054906101000a900473ffffffffffffffffffffffffffffffffffffffff169050919050565b600061077f82610a72565b90508073ffffffffffffffffffffffffffffffffffffffff168373ffffffffffffffffffffffffffffffffffffffff1614156107f0576040517f08c379a00000000000000000000000000000000000000000000000000000000081526004016107e790613d3b565b60405180910390fd5b8073ffffffffffffffffffffffffffffffffffffffff1661080f611db8565b73ffffffffffffffffffffffffffffffffffffffff16148061083e575061083d81610838611db8565b611b56565b5b61087d576040517f08c379a000000000000000000000000000000000000000000000000000000000815260040161087490613bfb565b60405180910390fd5b6108878383611dc0565b505050565b61089d610897611db8565b82611e79565b6108dc576040517f08c379a00000000000000000000000000000000000000000000000000000000081526004016108d390613d7b565b60405180910390fd5b6108e7838383611f57565b505050565b6040518060e001604052808360ff168152602001600060ff168152602001828152602001600060ff16815260200160001515815260200160011515815260200142815250600a6000600754815260200190815260200160002060008201518160000160006101000a81548160ff021916908360ff16021790555060208201518160000160016101000a81548160ff021916908360ff16021790555060408201518160010190805190602001906109a39291906129fc565b5060608201518160020160006101000a81548160ff021916908360ff16021790555060808201518160020160016101000a81548160ff02191690831515021790555060a08201518160020160026101000a81548160ff02191690831515021790555060c08201518160030155905050610a1e336007546121b3565b60076000815480929190610a319061417b565b919050555060086000815480929190610a499061417b565b91905055505050565b610a6d83838360405180602001604052806000815250611473565b505050565b6000806002600084815260200190815260200160002060009054906101000a900473ffffffffffffffffffffffffffffffffffffffff169050600073ffffffffffffffffffffffffffffffffffffffff168173ffffffffffffffffffffffffffffffffffffffff161415610b1b576040517f08c379a0000000000000000000000000000000000000000000000000000000008152600401610b1290613c3b565b60405180910390fd5b80915050919050565b60008073ffffffffffffffffffffffffffffffffffffffff168273ffffffffffffffffffffffffffffffffffffffff161415610b95576040517f08c379a0000000000000000000000000000000000000000000000000000000008152600401610b8c90613c1b565b60405180910390fd5b600360008373ffffffffffffffffffffffffffffffffffffffff1673ffffffffffffffffffffffffffffffffffffffff168152602001908152602001600020549050919050565b610be4611db8565b73ffffffffffffffffffffffffffffffffffffffff16610c026113a1565b73ffffffffffffffffffffffffffffffffffffffff1614610c58576040517f08c379a0000000000000000000000000000000000000000000000000000000008152600401610c4f90613cbb565b60405180910390fd5b610c6260006121d1565b565b6000600a6000868152602001908152602001600020600301541415610cbe576040517f08c379a0000000000000000000000000000000000000000000000000000000008152600401610cb590613b3b565b60405180910390fd5b6000600a6000838152602001908152602001600020600301541415610d18576040517f08c379a0000000000000000000000000000000000000000000000000000000008152600401610d0f90613b3b565b60405180910390fd5b83600a600083815260200190815260200160002060020160009054906101000a900460ff1660ff16148015610d8057503373ffffffffffffffffffffffffffffffffffffffff16610d6885610a72565b73ffffffffffffffffffffffffffffffffffffffff16145b8015610dbf57508173ffffffffffffffffffffffffffffffffffffffff16610da782610a72565b73ffffffffffffffffffffffffffffffffffffffff16145b156110fb576040518060e00160405280600a600087815260200190815260200160002060000160009054906101000a900460ff1660ff1681526020016001600a600088815260200190815260200160002060000160019054906101000a900460ff16610e2b9190613f90565b60ff168152602001868152602001600060ff16815260200160001515815260200160011515815260200142815250600a6000600754815260200190815260200160002060008201518160000160006101000a81548160ff021916908360ff16021790555060208201518160000160016101000a81548160ff021916908360ff1602179055506040820151816001019080519060200190610ecc9291906129fc565b5060608201518160020160006101000a81548160ff021916908360ff16021790555060808201518160020160016101000a81548160ff02191690831515021790555060a08201518160020160026101000a81548160ff02191690831515021790555060c08201518160030155905050610f47336007546121b3565b60076000815480929190610f5a9061417b565b91905055506040518060e00160405280600a600084815260200190815260200160002060000160009054906101000a900460ff1660ff1681526020016001600a600085815260200190815260200160002060000160019054906101000a900460ff16610fc69190613f90565b60ff168152602001848152602001600060ff16815260200160001515815260200160011515815260200142815250600a6000600754815260200190815260200160002060008201518160000160006101000a81548160ff021916908360ff16021790555060208201518160000160016101000a81548160ff021916908360ff16021790555060408201518160010190805190602001906110679291906129fc565b5060608201518160020160006101000a81548160ff021916908360ff16021790555060808201518160020160016101000a81548160ff02191690831515021790555060a08201518160020160026101000a81548160ff02191690831515021790555060c082015181600301559050506110e2826007546121b3565b600760008154809291906110f59061417b565b91905055505b5050505050565b6060600061110f83610b24565b9050600081141561119257600067ffffffffffffffff81111561115b577f4e487b7100000000000000000000000000000000000000000000000000000000600052604160045260246000fd5b6040519080825280602002602001820160405280156111895781602001602082028036833780820191505090505b509150506112c5565b60008167ffffffffffffffff8111156111d4577f4e487b7100000000000000000000000000000000000000000000000000000000600052604160045260246000fd5b6040519080825280602002602001820160405280156112025781602001602082028036833780820191505090505b509050600060075490506000805b828110156112bc578673ffffffffffffffffffffffffffffffffffffffff1661123882610a72565b73ffffffffffffffffffffffffffffffffffffffff1614156112a9578084838151811061128e577f4e487b7100000000000000000000000000000000000000000000000000000000600052603260045260246000fd5b60200260200101818152505081806112a59061417b565b9250505b80806112b49061417b565b915050611210565b83955050505050505b919050565b3373ffffffffffffffffffffffffffffffffffffffff166112ea84610a72565b73ffffffffffffffffffffffffffffffffffffffff1614611340576040517f08c379a000000000000000000000000000000000000000000000000000000000815260040161133790613d9b565b60405180910390fd5b81600a600085815260200190815260200160002060020160016101000a81548160ff02191690831515021790555080600a600085815260200190815260200160002060020160026101000a81548160ff021916908315150217905550505050565b6000600660009054906101000a900473ffffffffffffffffffffffffffffffffffffffff16905090565b6060600180546113da90614149565b80601f016020809104026020016040519081016040528092919081815260200182805461140690614149565b80156114535780601f1061142857610100808354040283529160200191611453565b820191906000526020600020905b81548152906001019060200180831161143657829003601f168201915b5050505050905090565b61146f611468611db8565b8383612297565b5050565b61148461147e611db8565b83611e79565b6114c3576040517f08c379a00000000000000000000000000000000000000000000000000000000081526004016114ba90613d7b565b60405180910390fd5b6114cf84848484612404565b50505050565b6114dd612aa3565b600a60008381526020019081526020016000206040518060e00160405290816000820160009054906101000a900460ff1660ff1660ff1681526020016000820160019054906101000a900460ff1660ff1660ff168152602001600182018054806020026020016040519081016040528092919081815260200182805480156115aa57602002820191906000526020600020906000905b82829054906101000a900460ff1660ff16815260200190600101906020826000010492830192600103820291508084116115735790505b505050505081526020016002820160009054906101000a900460ff1660ff1660ff1681526020016002820160019054906101000a900460ff161515151581526020016002820160029054906101000a900460ff161515151581526020016003820154815250509050919050565b606061162282611d4c565b611661576040517f08c379a000000000000000000000000000000000000000000000000000000000815260040161165890613d1b565b60405180910390fd5b600061166b612460565b9050600081511161168b57604051806020016040528060008152506116b6565b8061169584612477565b6040516020016116a6929190613a31565b6040516020818303038152906040525b915050919050565b346009546116cc9190613f3a565b6009819055506000600a60008581526020019081526020016000206040518060e00160405290816000820160009054906101000a900460ff1660ff1660ff1681526020016000820160019054906101000a900460ff1660ff1660ff168152602001600182018054806020026020016040519081016040528092919081815260200182805480156117a157602002820191906000526020600020906000905b82829054906101000a900460ff1660ff168152602001906001019060208260000104928301926001038202915080841161176a5790505b505050505081526020016002820160009054906101000a900460ff1660ff1660ff1681526020016002820160019054906101000a900460ff161515151581526020016002820160029054906101000a900460ff161515151581526020016003820154815250509050600083146118675782816000015160ff166118249190613ff8565b341015611866576040517f08c379a000000000000000000000000000000000000000000000000000000000815260040161185d90613cfb565b60405180910390fd5b5b816118725784611874565b335b73ffffffffffffffffffffffffffffffffffffffff1661189385610a72565b73ffffffffffffffffffffffffffffffffffffffff1614156118ea576040517f08c379a00000000000000000000000000000000000000000000000000000000081526004016118e190613c5b565b60405180910390fd5b6000611901836118fa57866118fc565b335b610b24565b905060008167ffffffffffffffff811115611945577f4e487b7100000000000000000000000000000000000000000000000000000000600052604160045260246000fd5b6040519080825280602002602001820160405280156119735781602001602082028036833780820191505090505b509050600060075490506000805b82811015611a2657866119945789611996565b335b73ffffffffffffffffffffffffffffffffffffffff166119b582610a72565b73ffffffffffffffffffffffffffffffffffffffff161480156119ff575060001515600a600083815260200190815260200160002060020160029054906101000a900460ff161515145b15611a13578180611a0f9061417b565b9250505b8080611a1e9061417b565b915050611981565b6001821115611a6a576040517f08c379a0000000000000000000000000000000000000000000000000000000008152600401611a6190613d5b565b60405180910390fd5b6000600a600083815260200190815260200160002060020160016101000a81548160ff021916908315150217905550611acc87611aa75733611aa9565b8a5b88611ab4578b611ab6565b335b8b60405180602001604052806000815250612404565b50505050505050505050565b3373ffffffffffffffffffffffffffffffffffffffff16611af884610a72565b73ffffffffffffffffffffffffffffffffffffffff161415611b515780611b20576000611b22565b815b600a600085815260200190815260200160002060020160006101000a81548160ff021916908360ff1602179055505b505050565b6000600560008473ffffffffffffffffffffffffffffffffffffffff1673ffffffffffffffffffffffffffffffffffffffff16815260200190815260200160002060008373ffffffffffffffffffffffffffffffffffffffff1673ffffffffffffffffffffffffffffffffffffffff16815260200190815260200160002060009054906101000a900460ff16905092915050565b611bf2611db8565b73ffffffffffffffffffffffffffffffffffffffff16611c106113a1565b73ffffffffffffffffffffffffffffffffffffffff1614611c66576040517f08c379a0000000000000000000000000000000000000000000000000000000008152600401611c5d90613cbb565b60405180910390fd5b600073ffffffffffffffffffffffffffffffffffffffff168173ffffffffffffffffffffffffffffffffffffffff161415611cd6576040517f08c379a0000000000000000000000000000000000000000000000000000000008152600401611ccd90613b5b565b60405180910390fd5b611cdf816121d1565b50565b60007f01ffc9a7000000000000000000000000000000000000000000000000000000007bffffffffffffffffffffffffffffffffffffffffffffffffffffffff1916827bffffffffffffffffffffffffffffffffffffffffffffffffffffffff1916149050919050565b60008073ffffffffffffffffffffffffffffffffffffffff166002600084815260200190815260200160002060009054906101000a900473ffffffffffffffffffffffffffffffffffffffff1673ffffffffffffffffffffffffffffffffffffffff1614159050919050565b600033905090565b816004600083815260200190815260200160002060006101000a81548173ffffffffffffffffffffffffffffffffffffffff021916908373ffffffffffffffffffffffffffffffffffffffff160217905550808273ffffffffffffffffffffffffffffffffffffffff16611e3383610a72565b73ffffffffffffffffffffffffffffffffffffffff167f8c5be1e5ebec7d5bd14f71427d1e84f3dd0314c0f7b2291e5b200ac8c7c3b92560405160405180910390a45050565b6000611e8482611d4c565b611ec3576040517f08c379a0000000000000000000000000000000000000000000000000000000008152600401611eba90613bdb565b60405180910390fd5b6000611ece83610a72565b90508073ffffffffffffffffffffffffffffffffffffffff168473ffffffffffffffffffffffffffffffffffffffff161480611f3d57508373ffffffffffffffffffffffffffffffffffffffff16611f25846106ef565b73ffffffffffffffffffffffffffffffffffffffff16145b80611f4e5750611f4d8185611b56565b5b91505092915050565b8273ffffffffffffffffffffffffffffffffffffffff16611f7782610a72565b73ffffffffffffffffffffffffffffffffffffffff1614611fcd576040517f08c379a0000000000000000000000000000000000000000000000000000000008152600401611fc490613cdb565b60405180910390fd5b600073ffffffffffffffffffffffffffffffffffffffff168273ffffffffffffffffffffffffffffffffffffffff16141561203d576040517f08c379a000000000000000000000000000000000000000000000000000000000815260040161203490613b9b565b60405180910390fd5b612048838383612624565b612053600082611dc0565b6001600360008573ffffffffffffffffffffffffffffffffffffffff1673ffffffffffffffffffffffffffffffffffffffff16815260200190815260200160002060008282546120a39190614052565b925050819055506001600360008473ffffffffffffffffffffffffffffffffffffffff1673ffffffffffffffffffffffffffffffffffffffff16815260200190815260200160002060008282546120fa9190613f3a565b92505081905550816002600083815260200190815260200160002060006101000a81548173ffffffffffffffffffffffffffffffffffffffff021916908373ffffffffffffffffffffffffffffffffffffffff160217905550808273ffffffffffffffffffffffffffffffffffffffff168473ffffffffffffffffffffffffffffffffffffffff167fddf252ad1be2c89b69c2b068fc378daa952ba7f163c4a11628f55a4df523b3ef60405160405180910390a4505050565b6121cd828260405180602001604052806000815250612629565b5050565b6000600660009054906101000a900473ffffffffffffffffffffffffffffffffffffffff16905081600660006101000a81548173ffffffffffffffffffffffffffffffffffffffff021916908373ffffffffffffffffffffffffffffffffffffffff1602179055508173ffffffffffffffffffffffffffffffffffffffff168173ffffffffffffffffffffffffffffffffffffffff167f8be0079c531659141344cd1fd0a4f28419497f9722a3daafe3b4186f6b6457e060405160405180910390a35050565b8173ffffffffffffffffffffffffffffffffffffffff168373ffffffffffffffffffffffffffffffffffffffff161415612306576040517f08c379a00000000000000000000000000000000000000000000000000000000081526004016122fd90613bbb565b60405180910390fd5b80600560008573ffffffffffffffffffffffffffffffffffffffff1673ffffffffffffffffffffffffffffffffffffffff16815260200190815260200160002060008473ffffffffffffffffffffffffffffffffffffffff1673ffffffffffffffffffffffffffffffffffffffff16815260200190815260200160002060006101000a81548160ff0219169083151502179055508173ffffffffffffffffffffffffffffffffffffffff168373ffffffffffffffffffffffffffffffffffffffff167f17307eab39ab6107e8899845ad3d59bd9653f200f220920489ca2b5937696c31836040516123f79190613ade565b60405180910390a3505050565b61240f848484611f57565b61241b84848484612684565b61245a576040517f08c379a000000000000000000000000000000000000000000000000000000000815260040161245190613b1b565b60405180910390fd5b50505050565b606060405180602001604052806000815250905090565b606060008214156124bf576040518060400160405280600181526020017f3000000000000000000000000000000000000000000000000000000000000000815250905061261f565b600082905060005b600082146124f15780806124da9061417b565b915050600a826124ea9190613fc7565b91506124c7565b60008167ffffffffffffffff811115612533577f4e487b7100000000000000000000000000000000000000000000000000000000600052604160045260246000fd5b6040519080825280601f01601f1916602001820160405280156125655781602001600182028036833780820191505090505b5090505b600085146126185760018261257e9190614052565b9150600a8561258d91906141c4565b60306125999190613f3a565b60f81b8183815181106125d5577f4e487b7100000000000000000000000000000000000000000000000000000000600052603260045260246000fd5b60200101907effffffffffffffffffffffffffffffffffffffffffffffffffffffffffffff1916908160001a905350600a856126119190613fc7565b9450612569565b8093505050505b919050565b505050565b612633838361281b565b6126406000848484612684565b61267f576040517f08c379a000000000000000000000000000000000000000000000000000000000815260040161267690613b1b565b60405180910390fd5b505050565b60006126a58473ffffffffffffffffffffffffffffffffffffffff166129e9565b1561280e578373ffffffffffffffffffffffffffffffffffffffff1663150b7a026126ce611db8565b8786866040518563ffffffff1660e01b81526004016126f09493929190613a70565b602060405180830381600087803b15801561270a57600080fd5b505af192505050801561273b57506040513d601f19601f820116820180604052508101906127389190612f60565b60015b6127be573d806000811461276b576040519150601f19603f3d011682016040523d82523d6000602084013e612770565b606091505b506000815114156127b6576040517f08c379a00000000000000000000000000000000000000000000000000000000081526004016127ad90613b1b565b60405180910390fd5b805181602001fd5b63150b7a0260e01b7bffffffffffffffffffffffffffffffffffffffffffffffffffffffff1916817bffffffffffffffffffffffffffffffffffffffffffffffffffffffff191614915050612813565b600190505b949350505050565b600073ffffffffffffffffffffffffffffffffffffffff168273ffffffffffffffffffffffffffffffffffffffff16141561288b576040517f08c379a000000000000000000000000000000000000000000000000000000000815260040161288290613c7b565b60405180910390fd5b61289481611d4c565b156128d4576040517f08c379a00000000000000000000000000000000000000000000000000000000081526004016128cb90613b7b565b60405180910390fd5b6128e060008383612624565b6001600360008473ffffffffffffffffffffffffffffffffffffffff1673ffffffffffffffffffffffffffffffffffffffff16815260200190815260200160002060008282546129309190613f3a565b92505081905550816002600083815260200190815260200160002060006101000a81548173ffffffffffffffffffffffffffffffffffffffff021916908373ffffffffffffffffffffffffffffffffffffffff160217905550808273ffffffffffffffffffffffffffffffffffffffff16600073ffffffffffffffffffffffffffffffffffffffff167fddf252ad1be2c89b69c2b068fc378daa952ba7f163c4a11628f55a4df523b3ef60405160405180910390a45050565b600080823b905060008111915050919050565b82805482825590600052602060002090601f01602090048101928215612a925791602002820160005b83821115612a6357835183826101000a81548160ff021916908360ff1602179055509260200192600101602081600001049283019260010302612a25565b8015612a905782816101000a81549060ff0219169055600101602081600001049283019260010302612a63565b505b509050612a9f9190612aed565b5090565b6040518060e00160405280600060ff168152602001600060ff16815260200160608152602001600060ff168152602001600015158152602001600015158152602001600081525090565b5b80821115612b06576000816000905550600101612aee565b5090565b6000612b1d612b1884613e29565b613df8565b90508083825260208201905082856020860282011115612b3c57600080fd5b60005b85811015612b6c5781612b528882612c71565b845260208401935060208301925050600181019050612b3f565b5050509392505050565b6000612b89612b8484613e55565b613df8565b905082815260208101848484011115612ba157600080fd5b612bac848285614107565b509392505050565b600081359050612bc3816142c2565b92915050565b600082601f830112612bda57600080fd5b8135612bea848260208601612b0a565b91505092915050565b600081359050612c02816142d9565b92915050565b600081359050612c17816142f0565b92915050565b600081519050612c2c816142f0565b92915050565b600082601f830112612c4357600080fd5b8135612c53848260208601612b76565b91505092915050565b600081359050612c6b81614307565b92915050565b600081359050612c808161431e565b92915050565b600060208284031215612c9857600080fd5b6000612ca684828501612bb4565b91505092915050565b60008060408385031215612cc257600080fd5b6000612cd085828601612bb4565b9250506020612ce185828601612bb4565b9150509250929050565b600080600060608486031215612d0057600080fd5b6000612d0e86828701612bb4565b9350506020612d1f86828701612bb4565b9250506040612d3086828701612c5c565b9150509250925092565b60008060008060808587031215612d5057600080fd5b6000612d5e87828801612bb4565b9450506020612d6f87828801612bb4565b9350506040612d8087828801612c5c565b925050606085013567ffffffffffffffff811115612d9d57600080fd5b612da987828801612c32565b91505092959194509250565b60008060408385031215612dc857600080fd5b6000612dd685828601612bb4565b9250506020612de785828601612bf3565b9150509250929050565b60008060408385031215612e0457600080fd5b6000612e1285828601612bb4565b9250506020612e2385828601612c5c565b9150509250929050565b60008060008060808587031215612e4357600080fd5b6000612e5187828801612bb4565b9450506020612e6287828801612c5c565b9350506040612e7387828801612c5c565b9250506060612e8487828801612bf3565b91505092959194509250565b600080600080600060a08688031215612ea857600080fd5b600086013567ffffffffffffffff811115612ec257600080fd5b612ece88828901612bc9565b9550506020612edf88828901612c5c565b945050604086013567ffffffffffffffff811115612efc57600080fd5b612f0888828901612bc9565b9350506060612f1988828901612bb4565b9250506080612f2a88828901612c5c565b9150509295509295909350565b600060208284031215612f4957600080fd5b6000612f5784828501612c08565b91505092915050565b600060208284031215612f7257600080fd5b6000612f8084828501612c1d565b91505092915050565b600060208284031215612f9b57600080fd5b6000612fa984828501612c5c565b91505092915050565b600080600060608486031215612fc757600080fd5b6000612fd586828701612c5c565b9350506020612fe686828701612bf3565b9250506040612ff786828701612bf3565b9150509250925092565b60008060006060848603121561301657600080fd5b600061302486828701612c5c565b935050602061303586828701612c71565b925050604061304686828701612bf3565b9150509250925092565b6000806040838503121561306357600080fd5b600061307185828601612c71565b925050602083013567ffffffffffffffff81111561308e57600080fd5b61309a85828601612bc9565b9150509250929050565b60006130b08383613a04565b60208301905092915050565b60006130c88383613a22565b60208301905092915050565b6130dd81614086565b82525050565b60006130ee82613ea5565b6130f88185613eeb565b935061310383613e85565b8060005b8381101561313457815161311b88826130a4565b975061312683613ed1565b925050600181019050613107565b5085935050505092915050565b600061314c82613eb0565b6131568185613efc565b935061316183613e95565b8060005b8381101561319257815161317988826130bc565b975061318483613ede565b925050600181019050613165565b5085935050505092915050565b6131a881614098565b82525050565b6131b781614098565b82525050565b60006131c882613ebb565b6131d28185613f0d565b93506131e2818560208601614116565b6131eb816142b1565b840191505092915050565b600061320182613ec6565b61320b8185613f1e565b935061321b818560208601614116565b613224816142b1565b840191505092915050565b600061323a82613ec6565b6132448185613f2f565b9350613254818560208601614116565b80840191505092915050565b600061326d603283613f1e565b91507f4552433732313a207472616e7366657220746f206e6f6e20455243373231526560008301527f63656976657220696d706c656d656e74657200000000000000000000000000006020830152604082019050919050565b60006132d3601083613f1e565b91507f4d7973746963206e6f74206578697374000000000000000000000000000000006000830152602082019050919050565b6000613313602683613f1e565b91507f4f776e61626c653a206e6577206f776e657220697320746865207a65726f206160008301527f64647265737300000000000000000000000000000000000000000000000000006020830152604082019050919050565b6000613379601c83613f1e565b91507f4552433732313a20746f6b656e20616c7265616479206d696e746564000000006000830152602082019050919050565b60006133b9602483613f1e565b91507f4552433732313a207472616e7366657220746f20746865207a65726f2061646460008301527f72657373000000000000000000000000000000000000000000000000000000006020830152604082019050919050565b600061341f601983613f1e565b91507f4552433732313a20617070726f766520746f2063616c6c6572000000000000006000830152602082019050919050565b600061345f602c83613f1e565b91507f4552433732313a206f70657261746f7220717565727920666f72206e6f6e657860008301527f697374656e7420746f6b656e00000000000000000000000000000000000000006020830152604082019050919050565b60006134c5603883613f1e565b91507f4552433732313a20617070726f76652063616c6c6572206973206e6f74206f7760008301527f6e6572206e6f7220617070726f76656420666f7220616c6c00000000000000006020830152604082019050919050565b600061352b602a83613f1e565b91507f4552433732313a2062616c616e636520717565727920666f7220746865207a6560008301527f726f2061646472657373000000000000000000000000000000000000000000006020830152604082019050919050565b6000613591602983613f1e565b91507f4552433732313a206f776e657220717565727920666f72206e6f6e657869737460008301527f656e7420746f6b656e00000000000000000000000000000000000000000000006020830152604082019050919050565b60006135f7600d83613f1e565b91507f416c7265616479204f776e6564000000000000000000000000000000000000006000830152602082019050919050565b6000613637602083613f1e565b91507f4552433732313a206d696e7420746f20746865207a65726f20616464726573736000830152602082019050919050565b6000613677602c83613f1e565b91507f4552433732313a20617070726f76656420717565727920666f72206e6f6e657860008301527f697374656e7420746f6b656e00000000000000000000000000000000000000006020830152604082019050919050565b60006136dd602083613f1e565b91507f4f776e61626c653a2063616c6c6572206973206e6f7420746865206f776e65726000830152602082019050919050565b600061371d602983613f1e565b91507f4552433732313a207472616e73666572206f6620746f6b656e2074686174206960008301527f73206e6f74206f776e00000000000000000000000000000000000000000000006020830152604082019050919050565b6000613783601783613f1e565b91507f496e73756666696369656e7420666f6e64732073656e740000000000000000006000830152602082019050919050565b60006137c3602f83613f1e565b91507f4552433732314d657461646174613a2055524920717565727920666f72206e6f60008301527f6e6578697374656e7420746f6b656e00000000000000000000000000000000006020830152604082019050919050565b6000613829602183613f1e565b91507f4552433732313a20617070726f76616c20746f2063757272656e74206f776e6560008301527f72000000000000000000000000000000000000000000000000000000000000006020830152604082019050919050565b600061388f601583613f1e565b91507f416c726561647920686176652061206d797374696300000000000000000000006000830152602082019050919050565b60006138cf603183613f1e565b91507f4552433732313a207472616e736665722063616c6c6572206973206e6f74206f60008301527f776e6572206e6f7220617070726f7665640000000000000000000000000000006020830152604082019050919050565b6000613935600f83613f1e565b91507f4e6f7420596f7572206d797374696300000000000000000000000000000000006000830152602082019050919050565b600060e0830160008301516139806000860182613a22565b5060208301516139936020860182613a22565b50604083015184820360408601526139ab8282613141565b91505060608301516139c06060860182613a22565b5060808301516139d3608086018261319f565b5060a08301516139e660a086018261319f565b5060c08301516139f960c0860182613a04565b508091505092915050565b613a0d816140f0565b82525050565b613a1c816140f0565b82525050565b613a2b816140fa565b82525050565b6000613a3d828561322f565b9150613a49828461322f565b91508190509392505050565b6000602082019050613a6a60008301846130d4565b92915050565b6000608082019050613a8560008301876130d4565b613a9260208301866130d4565b613a9f6040830185613a13565b8181036060830152613ab181846131bd565b905095945050505050565b60006020820190508181036000830152613ad681846130e3565b905092915050565b6000602082019050613af360008301846131ae565b92915050565b60006020820190508181036000830152613b1381846131f6565b905092915050565b60006020820190508181036000830152613b3481613260565b9050919050565b60006020820190508181036000830152613b54816132c6565b9050919050565b60006020820190508181036000830152613b7481613306565b9050919050565b60006020820190508181036000830152613b948161336c565b9050919050565b60006020820190508181036000830152613bb4816133ac565b9050919050565b60006020820190508181036000830152613bd481613412565b9050919050565b60006020820190508181036000830152613bf481613452565b9050919050565b60006020820190508181036000830152613c14816134b8565b9050919050565b60006020820190508181036000830152613c348161351e565b9050919050565b60006020820190508181036000830152613c5481613584565b9050919050565b60006020820190508181036000830152613c74816135ea565b9050919050565b60006020820190508181036000830152613c948161362a565b9050919050565b60006020820190508181036000830152613cb48161366a565b9050919050565b60006020820190508181036000830152613cd4816136d0565b9050919050565b60006020820190508181036000830152613cf481613710565b9050919050565b60006020820190508181036000830152613d1481613776565b9050919050565b60006020820190508181036000830152613d34816137b6565b9050919050565b60006020820190508181036000830152613d548161381c565b9050919050565b60006020820190508181036000830152613d7481613882565b9050919050565b60006020820190508181036000830152613d94816138c2565b9050919050565b60006020820190508181036000830152613db481613928565b9050919050565b60006020820190508181036000830152613dd58184613968565b905092915050565b6000602082019050613df26000830184613a13565b92915050565b6000604051905081810181811067ffffffffffffffff82111715613e1f57613e1e614282565b5b8060405250919050565b600067ffffffffffffffff821115613e4457613e43614282565b5b602082029050602081019050919050565b600067ffffffffffffffff821115613e7057613e6f614282565b5b601f19601f8301169050602081019050919050565b6000819050602082019050919050565b6000819050602082019050919050565b600081519050919050565b600081519050919050565b600081519050919050565b600081519050919050565b6000602082019050919050565b6000602082019050919050565b600082825260208201905092915050565b600082825260208201905092915050565b600082825260208201905092915050565b600082825260208201905092915050565b600081905092915050565b6000613f45826140f0565b9150613f50836140f0565b9250827fffffffffffffffffffffffffffffffffffffffffffffffffffffffffffffffff03821115613f8557613f846141f5565b5b828201905092915050565b6000613f9b826140fa565b9150613fa6836140fa565b92508260ff03821115613fbc57613fbb6141f5565b5b828201905092915050565b6000613fd2826140f0565b9150613fdd836140f0565b925082613fed57613fec614224565b5b828204905092915050565b6000614003826140f0565b915061400e836140f0565b9250817fffffffffffffffffffffffffffffffffffffffffffffffffffffffffffffffff0483118215151615614047576140466141f5565b5b828202905092915050565b600061405d826140f0565b9150614068836140f0565b92508282101561407b5761407a6141f5565b5b828203905092915050565b6000614091826140d0565b9050919050565b60008115159050919050565b60007fffffffff0000000000000000000000000000000000000000000000000000000082169050919050565b600073ffffffffffffffffffffffffffffffffffffffff82169050919050565b6000819050919050565b600060ff82169050919050565b82818337600083830152505050565b60005b83811015614134578082015181840152602081019050614119565b83811115614143576000848401525b50505050565b6000600282049050600182168061416157607f821691505b6020821081141561417557614174614253565b5b50919050565b6000614186826140f0565b91507fffffffffffffffffffffffffffffffffffffffffffffffffffffffffffffffff8214156141b9576141b86141f5565b5b600182019050919050565b60006141cf826140f0565b91506141da836140f0565b9250826141ea576141e9614224565b5b828206905092915050565b7f4e487b7100000000000000000000000000000000000000000000000000000000600052601160045260246000fd5b7f4e487b7100000000000000000000000000000000000000000000000000000000600052601260045260246000fd5b7f4e487b7100000000000000000000000000000000000000000000000000000000600052602260045260246000fd5b7f4e487b7100000000000000000000000000000000000000000000000000000000600052604160045260246000fd5b6000601f19601f8301169050919050565b6142cb81614086565b81146142d657600080fd5b50565b6142e281614098565b81146142ed57600080fd5b50565b6142f9816140a4565b811461430457600080fd5b50565b614310816140f0565b811461431b57600080fd5b50565b614327816140fa565b811461433257600080fd5b5056fea264697066735822122026a5cd32e39a88a3c2e9395f92c26d525458e7d4a6a9187a5e3bb3e7bc1f613b64736f6c63430008000033",
  "immutableReferences": {},
  "source": "pragma solidity 0.8.0;\r\n\r\nimport '../node_modules/@openzeppelin/contracts/token/ERC721/ERC721.sol';\r\nimport '../node_modules/@openzeppelin/contracts/access/Ownable.sol';\r\n\r\ncontract Token is ERC721, Ownable{\r\n    struct  Mystic {\r\n        uint8 price;\r\n        uint8 numberReproduce;\r\n        uint8[] parts;\r\n        uint8 tokenIdReproducable;\r\n        bool inSell;\r\n        bool egg;\r\n        uint256 createdAt;\r\n    }\r\n    \r\n    uint256 nextId = 0;\r\n    uint256 nbrMystic = 0;\r\n    uint256 balance = 0;\r\n\r\n    mapping( uint256 => Mystic ) private _tokenDetails;\r\n\r\n    constructor(string memory name, string memory symbol) ERC721(name, symbol){ }\r\n\r\n    function mint(uint8 price, uint8[] memory parts) public  {//onlyOwner\r\n        _tokenDetails[nextId] = Mystic(price,0,parts,0,false,true,block.timestamp);\r\n        _safeMint(msg.sender, nextId);\r\n        nextId++;nbrMystic++;\r\n    }\r\n\r\n    /**\r\n    Quand meurs de veillesse ou jeter le burn\r\n     */\r\n    // function burn(uint256 tokenId) public{\r\n    //     _burn(tokenId);\r\n    //     nbrMystic--;\r\n    // }\r\n    \r\n    /*\r\n    faire l'alatoire depuis le front et mttre dans parts one et parts two\r\n    */\r\n    function reproduce( uint8[] memory partsOne, uint256 tokenIdOne, uint8[] memory partsTwo, address senderInvit, uint256 tokenIdTwo) public {\r\n        require(_tokenDetails[tokenIdOne].createdAt != 0,\"Mystic not exist\");\r\n        require(_tokenDetails[tokenIdTwo].createdAt != 0,\"Mystic not exist\");\r\n        \r\n        if(_tokenDetails[tokenIdTwo].tokenIdReproducable == tokenIdOne && ownerOf(tokenIdOne) == msg.sender && ownerOf(tokenIdTwo) == senderInvit){\r\n            _tokenDetails[nextId] = Mystic(_tokenDetails[tokenIdOne].price,_tokenDetails[tokenIdOne].numberReproduce+1,partsOne,0,false,true,block.timestamp);\r\n            _safeMint(msg.sender, nextId);\r\n            nextId++;\r\n\r\n            _tokenDetails[nextId] = Mystic(_tokenDetails[tokenIdTwo].price,_tokenDetails[tokenIdTwo].numberReproduce+1,partsTwo,0,false,true,block.timestamp);\r\n            _safeMint(senderInvit, nextId);\r\n            nextId++;\r\n        }\r\n    }\r\n\r\n    function getTokenDetails(uint256 tokenId) public view returns (Mystic memory){\r\n        return _tokenDetails[tokenId];\r\n    }\r\n\r\n    function addSubInvitation(uint256 tokenId, uint8 tokenIdReproducable, bool add) public {\r\n        if(ownerOf(tokenId) == msg.sender) _tokenDetails[tokenId].tokenIdReproducable = (add?tokenIdReproducable:0);\r\n    }\r\n\r\n    function getAllTokensForUser(address user) public view returns (uint256[] memory){\r\n        uint256 tokenCount = balanceOf(user);\r\n        if(tokenCount == 0){\r\n            return new uint256[](0);\r\n        }\r\n        else{\r\n            uint[] memory result = new uint256[](tokenCount);\r\n            uint256 totalMystics = nextId;\r\n            uint256 resultIndex = 0;\r\n            uint256 i;\r\n            for(i = 0; i < totalMystics; i++){\r\n                if(ownerOf(i) == user){\r\n                    result[resultIndex] = i;\r\n                    resultIndex++;\r\n                }\r\n            }\r\n            return result;\r\n        }\r\n    }\r\n\r\n    /*function transfer(address to, uint256 tokenId) public {\r\n        require(_tokenDetails[tokenId].createdAt != 0,\"Mystic not exist\");\r\n        require(ownerOf(tokenId) == msg.sender,\"Not Your mystic\");\r\n        require(ownerOf(tokenId) != to, \"User already owned this mystic\");\r\n        uint256 tokenCount = balanceOf(to);\r\n        if(tokenCount == 0){\r\n            _safeTransfer(msg.sender, to, tokenId, \"\");\r\n        }\r\n        else{\r\n            uint[] memory result = new uint256[](tokenCount);\r\n            uint256 totalMystics = nextId;\r\n            uint256 resultIndex = 0;\r\n            uint256 i;\r\n            for(i = 0; i < totalMystics; i++){\r\n                if(ownerOf(i) == to && _tokenDetails[i].egg == false){\r\n                    resultIndex++;\r\n                }\r\n            }\r\n            require(resultIndex <= 1, \"User already have a mystic\");\r\n            _safeTransfer(msg.sender, to, tokenId, \"\");\r\n        }\r\n    }\r\n\r\n    function purchase(address contactAddr, uint256 tokenId, uint256 amount) external payable {\r\n        balance = balance+msg.value;\r\n        Mystic memory mystic = _tokenDetails[tokenId];\r\n        require(msg.value >= mystic.price * amount, \"insufficient fonds sent\");\r\n        require(ownerOf(tokenId) != msg.sender, \"Already Owned\");\r\n        uint256 tokenCount = balanceOf(msg.sender);\r\n        if(tokenCount == 0){\r\n            _safeTransfer(contactAddr, msg.sender, tokenId, \"\");\r\n        }\r\n        else{\r\n            uint[] memory result = new uint256[](tokenCount);\r\n            uint256 totalMystics = nextId;\r\n            uint256 resultIndex = 0;\r\n            uint256 i;\r\n            for(i = 0; i < totalMystics; i++){\r\n                if(ownerOf(i) == msg.sender && _tokenDetails[i].egg == false){\r\n                    resultIndex++;\r\n                }\r\n            }\r\n            require(resultIndex <= 1, \"Already have a mystic\");\r\n            _safeTransfer(contactAddr, msg.sender, tokenId, \"\");\r\n        }\r\n    }*/\r\n\r\n    function purchaseAndTransfer(address contactAddr, uint256 tokenId, uint256 amount,bool purchase) external payable {\r\n        balance = balance+msg.value;\r\n        Mystic memory mystic = _tokenDetails[tokenId];\r\n        if(amount != 0) require(msg.value >= mystic.price * amount, \"Insufficient fonds sent\");\r\n        require(ownerOf(tokenId) != (purchase?msg.sender:contactAddr), \"Already Owned\");\r\n        uint256 tokenCount = balanceOf((purchase?msg.sender:contactAddr));\r\n        uint[] memory result = new uint256[](tokenCount);\r\n        uint256 totalMystics = nextId;\r\n        uint256 resultIndex = 0;\r\n        uint256 i;\r\n        for(i = 0; i < totalMystics; i++){\r\n            if(ownerOf(i) == (purchase?msg.sender:contactAddr) && _tokenDetails[i].egg == false){\r\n                resultIndex++;\r\n            }\r\n        }\r\n        require(resultIndex <= 1, \"Already have a mystic\");\r\n        _tokenDetails[i].inSell=false;\r\n        _safeTransfer((purchase?contactAddr:msg.sender), (purchase?msg.sender:contactAddr), tokenId, \"\");\r\n    }\r\n\r\n    function params(uint256 tokenId,bool sellable,bool egg) public {\r\n        require(ownerOf(tokenId) == msg.sender,\"Not Your mystic\");\r\n        _tokenDetails[tokenId].inSell = sellable;\r\n        _tokenDetails[tokenId].egg = egg;\r\n    }\r\n\r\n}",
  "sourcePath": "C:\\laragon\\www\\testNft\\contracts\\Token.sol",
  "compiler": {
    "name": "solc",
    "version": "0.8.0+commit.c7dfd78e.Emscripten.clang"
  },
  "schemaVersion": "3.4.4",
  "updatedAt": "2022-01-09T14:12:49.392Z",
  "networkType": "ethereum",
  "devdoc": {
    "kind": "dev",
    "methods": {
      "approve(address,uint256)": {
        "details": "See {IERC721-approve}."
      },
      "balanceOf(address)": {
        "details": "See {IERC721-balanceOf}."
      },
      "getApproved(uint256)": {
        "details": "See {IERC721-getApproved}."
      },
      "isApprovedForAll(address,address)": {
        "details": "See {IERC721-isApprovedForAll}."
      },
      "name()": {
        "details": "See {IERC721Metadata-name}."
      },
      "owner()": {
        "details": "Returns the address of the current owner."
      },
      "ownerOf(uint256)": {
        "details": "See {IERC721-ownerOf}."
      },
      "renounceOwnership()": {
        "details": "Leaves the contract without owner. It will not be possible to call `onlyOwner` functions anymore. Can only be called by the current owner. NOTE: Renouncing ownership will leave the contract without an owner, thereby removing any functionality that is only available to the owner."
      },
      "safeTransferFrom(address,address,uint256)": {
        "details": "See {IERC721-safeTransferFrom}."
      },
      "safeTransferFrom(address,address,uint256,bytes)": {
        "details": "See {IERC721-safeTransferFrom}."
      },
      "setApprovalForAll(address,bool)": {
        "details": "See {IERC721-setApprovalForAll}."
      },
      "supportsInterface(bytes4)": {
        "details": "See {IERC165-supportsInterface}."
      },
      "symbol()": {
        "details": "See {IERC721Metadata-symbol}."
      },
      "tokenURI(uint256)": {
        "details": "See {IERC721Metadata-tokenURI}."
      },
      "transferFrom(address,address,uint256)": {
        "details": "See {IERC721-transferFrom}."
      },
      "transferOwnership(address)": {
        "details": "Transfers ownership of the contract to a new account (`newOwner`). Can only be called by the current owner."
      }
    },
    "version": 1
  },
  "userdoc": {
    "kind": "user",
    "methods": {
      "reproduce(uint8[],uint256,uint8[],address,uint256)": {
        "notice": "Quand meurs de veillesse ou jeter le burn"
      }
    },
    "version": 1
  }
}