{
  "contractName": "TokenDelegable",
  "abi": [
    {
      "inputs": [
        {
          "internalType": "string",
          "name": "name",
          "type": "string"
        },
        {
          "internalType": "string",
          "name": "symbol",
          "type": "string"
        }
      ],
      "stateMutability": "nonpayable",
      "type": "constructor"
    },
    {
      "anonymous": false,
      "inputs": [
        {
          "indexed": true,
          "internalType": "address",
          "name": "owner",
          "type": "address"
        },
        {
          "indexed": true,
          "internalType": "address",
          "name": "approved",
          "type": "address"
        },
        {
          "indexed": true,
          "internalType": "uint256",
          "name": "tokenId",
          "type": "uint256"
        }
      ],
      "name": "Approval",
      "type": "event"
    },
    {
      "anonymous": false,
      "inputs": [
        {
          "indexed": true,
          "internalType": "address",
          "name": "owner",
          "type": "address"
        },
        {
          "indexed": true,
          "internalType": "address",
          "name": "operator",
          "type": "address"
        },
        {
          "indexed": false,
          "internalType": "bool",
          "name": "approved",
          "type": "bool"
        }
      ],
      "name": "ApprovalForAll",
      "type": "event"
    },
    {
      "anonymous": false,
      "inputs": [
        {
          "indexed": true,
          "internalType": "address",
          "name": "previousOwner",
          "type": "address"
        },
        {
          "indexed": true,
          "internalType": "address",
          "name": "newOwner",
          "type": "address"
        }
      ],
      "name": "OwnershipTransferred",
      "type": "event"
    },
    {
      "anonymous": false,
      "inputs": [
        {
          "indexed": true,
          "internalType": "address",
          "name": "from",
          "type": "address"
        },
        {
          "indexed": true,
          "internalType": "address",
          "name": "to",
          "type": "address"
        },
        {
          "indexed": true,
          "internalType": "uint256",
          "name": "tokenId",
          "type": "uint256"
        }
      ],
      "name": "Transfer",
      "type": "event"
    },
    {
      "inputs": [
        {
          "internalType": "address",
          "name": "to",
          "type": "address"
        },
        {
          "internalType": "uint256",
          "name": "tokenId",
          "type": "uint256"
        }
      ],
      "name": "approve",
      "outputs": [],
      "stateMutability": "nonpayable",
      "type": "function"
    },
    {
      "inputs": [
        {
          "internalType": "address",
          "name": "owner",
          "type": "address"
        }
      ],
      "name": "balanceOf",
      "outputs": [
        {
          "internalType": "uint256",
          "name": "",
          "type": "uint256"
        }
      ],
      "stateMutability": "view",
      "type": "function"
    },
    {
      "inputs": [
        {
          "internalType": "uint256",
          "name": "tokenId",
          "type": "uint256"
        }
      ],
      "name": "getApproved",
      "outputs": [
        {
          "internalType": "address",
          "name": "",
          "type": "address"
        }
      ],
      "stateMutability": "view",
      "type": "function"
    },
    {
      "inputs": [
        {
          "internalType": "address",
          "name": "owner",
          "type": "address"
        },
        {
          "internalType": "address",
          "name": "operator",
          "type": "address"
        }
      ],
      "name": "isApprovedForAll",
      "outputs": [
        {
          "internalType": "bool",
          "name": "",
          "type": "bool"
        }
      ],
      "stateMutability": "view",
      "type": "function"
    },
    {
      "inputs": [],
      "name": "name",
      "outputs": [
        {
          "internalType": "string",
          "name": "",
          "type": "string"
        }
      ],
      "stateMutability": "view",
      "type": "function"
    },
    {
      "inputs": [],
      "name": "owner",
      "outputs": [
        {
          "internalType": "address",
          "name": "",
          "type": "address"
        }
      ],
      "stateMutability": "view",
      "type": "function"
    },
    {
      "inputs": [
        {
          "internalType": "uint256",
          "name": "tokenId",
          "type": "uint256"
        }
      ],
      "name": "ownerOf",
      "outputs": [
        {
          "internalType": "address",
          "name": "",
          "type": "address"
        }
      ],
      "stateMutability": "view",
      "type": "function"
    },
    {
      "inputs": [],
      "name": "renounceOwnership",
      "outputs": [],
      "stateMutability": "nonpayable",
      "type": "function"
    },
    {
      "inputs": [
        {
          "internalType": "address",
          "name": "from",
          "type": "address"
        },
        {
          "internalType": "address",
          "name": "to",
          "type": "address"
        },
        {
          "internalType": "uint256",
          "name": "tokenId",
          "type": "uint256"
        }
      ],
      "name": "safeTransferFrom",
      "outputs": [],
      "stateMutability": "nonpayable",
      "type": "function"
    },
    {
      "inputs": [
        {
          "internalType": "address",
          "name": "from",
          "type": "address"
        },
        {
          "internalType": "address",
          "name": "to",
          "type": "address"
        },
        {
          "internalType": "uint256",
          "name": "tokenId",
          "type": "uint256"
        },
        {
          "internalType": "bytes",
          "name": "_data",
          "type": "bytes"
        }
      ],
      "name": "safeTransferFrom",
      "outputs": [],
      "stateMutability": "nonpayable",
      "type": "function"
    },
    {
      "inputs": [
        {
          "internalType": "address",
          "name": "operator",
          "type": "address"
        },
        {
          "internalType": "bool",
          "name": "approved",
          "type": "bool"
        }
      ],
      "name": "setApprovalForAll",
      "outputs": [],
      "stateMutability": "nonpayable",
      "type": "function"
    },
    {
      "inputs": [
        {
          "internalType": "bytes4",
          "name": "interfaceId",
          "type": "bytes4"
        }
      ],
      "name": "supportsInterface",
      "outputs": [
        {
          "internalType": "bool",
          "name": "",
          "type": "bool"
        }
      ],
      "stateMutability": "view",
      "type": "function"
    },
    {
      "inputs": [],
      "name": "symbol",
      "outputs": [
        {
          "internalType": "string",
          "name": "",
          "type": "string"
        }
      ],
      "stateMutability": "view",
      "type": "function"
    },
    {
      "inputs": [
        {
          "internalType": "uint256",
          "name": "tokenId",
          "type": "uint256"
        }
      ],
      "name": "tokenURI",
      "outputs": [
        {
          "internalType": "string",
          "name": "",
          "type": "string"
        }
      ],
      "stateMutability": "view",
      "type": "function"
    },
    {
      "inputs": [
        {
          "internalType": "address",
          "name": "from",
          "type": "address"
        },
        {
          "internalType": "address",
          "name": "to",
          "type": "address"
        },
        {
          "internalType": "uint256",
          "name": "tokenId",
          "type": "uint256"
        }
      ],
      "name": "transferFrom",
      "outputs": [],
      "stateMutability": "nonpayable",
      "type": "function"
    },
    {
      "inputs": [
        {
          "internalType": "address",
          "name": "newOwner",
          "type": "address"
        }
      ],
      "name": "transferOwnership",
      "outputs": [],
      "stateMutability": "nonpayable",
      "type": "function"
    },
    {
      "inputs": [
        {
          "internalType": "address",
          "name": "sender",
          "type": "address"
        },
        {
          "internalType": "uint8[]",
          "name": "params8",
          "type": "uint8[]"
        },
        {
          "internalType": "uint256[]",
          "name": "params256",
          "type": "uint256[]"
        }
      ],
      "name": "mint",
      "outputs": [],
      "stateMutability": "payable",
      "type": "function"
    },
    {
      "inputs": [
        {
          "internalType": "uint256",
          "name": "tokenId",
          "type": "uint256"
        }
      ],
      "name": "burn",
      "outputs": [],
      "stateMutability": "nonpayable",
      "type": "function"
    },
    {
      "inputs": [
        {
          "internalType": "address",
          "name": "from",
          "type": "address"
        },
        {
          "internalType": "address",
          "name": "to",
          "type": "address"
        },
        {
          "internalType": "uint256",
          "name": "tokenId",
          "type": "uint256"
        }
      ],
      "name": "transfer",
      "outputs": [],
      "stateMutability": "nonpayable",
      "type": "function"
    },
    {
      "inputs": [
        {
          "internalType": "uint256",
          "name": "tokenId",
          "type": "uint256"
        }
      ],
      "name": "getTokenDetails",
      "outputs": [
        {
          "components": [
            {
              "internalType": "bool",
              "name": "inSell",
              "type": "bool"
            },
            {
              "internalType": "bool",
              "name": "egg",
              "type": "bool"
            },
            {
              "internalType": "uint8[]",
              "name": "params8",
              "type": "uint8[]"
            },
            {
              "internalType": "uint256[]",
              "name": "params256",
              "type": "uint256[]"
            }
          ],
          "internalType": "struct TokenDelegable.Mystic",
          "name": "",
          "type": "tuple"
        }
      ],
      "stateMutability": "view",
      "type": "function"
    },
    {
      "inputs": [
        {
          "internalType": "address",
          "name": "user",
          "type": "address"
        }
      ],
      "name": "getAllTokensForUser",
      "outputs": [
        {
          "internalType": "uint256[]",
          "name": "",
          "type": "uint256[]"
        }
      ],
      "stateMutability": "view",
      "type": "function"
    },
    {
      "inputs": [
        {
          "internalType": "uint256",
          "name": "tokenId",
          "type": "uint256"
        }
      ],
      "name": "getOwnerOf",
      "outputs": [
        {
          "internalType": "address",
          "name": "",
          "type": "address"
        }
      ],
      "stateMutability": "view",
      "type": "function"
    },
    {
      "inputs": [
        {
          "components": [
            {
              "internalType": "bool",
              "name": "inSell",
              "type": "bool"
            },
            {
              "internalType": "bool",
              "name": "egg",
              "type": "bool"
            },
            {
              "internalType": "uint8[]",
              "name": "params8",
              "type": "uint8[]"
            },
            {
              "internalType": "uint256[]",
              "name": "params256",
              "type": "uint256[]"
            }
          ],
          "internalType": "struct TokenDelegable.Mystic",
          "name": "mysticTemp",
          "type": "tuple"
        },
        {
          "internalType": "uint256",
          "name": "tokenId",
          "type": "uint256"
        },
        {
          "internalType": "address",
          "name": "owner",
          "type": "address"
        }
      ],
      "name": "updateToken",
      "outputs": [],
      "stateMutability": "nonpayable",
      "type": "function"
    },
    {
      "inputs": [
        {
          "internalType": "string",
          "name": "keyParams",
          "type": "string"
        },
        {
          "internalType": "uint256",
          "name": "valueParams",
          "type": "uint256"
        }
      ],
      "name": "setParamsContract",
      "outputs": [],
      "stateMutability": "nonpayable",
      "type": "function"
    },
    {
      "inputs": [
        {
          "internalType": "string",
          "name": "keyParams",
          "type": "string"
        }
      ],
      "name": "getParamsContract",
      "outputs": [
        {
          "internalType": "uint256",
          "name": "",
          "type": "uint256"
        }
      ],
      "stateMutability": "view",
      "type": "function"
    },
    {
      "inputs": [
        {
          "internalType": "address",
          "name": "_adress",
          "type": "address"
        }
      ],
      "name": "setAdressDelegateContract",
      "outputs": [],
      "stateMutability": "nonpayable",
      "type": "function"
    }
  ],
  "bytecode": "0x60806040523480156200001157600080fd5b5060405162004798380380620047988339818101604052810190620000379190620002cd565b8181816000908051906020019062000051929190620001ab565b5080600190805190602001906200006a929190620001ab565b5050506200008d62000081620000dd60201b60201c565b620000e560201b60201c565b600060086040516200009f90620003db565b90815260200160405180910390208190555060006008604051620000c390620003c4565b90815260200160405180910390208190555050506200052e565b600033905090565b6000600660009054906101000a900473ffffffffffffffffffffffffffffffffffffffff16905081600660006101000a81548173ffffffffffffffffffffffffffffffffffffffff021916908373ffffffffffffffffffffffffffffffffffffffff1602179055508173ffffffffffffffffffffffffffffffffffffffff168173ffffffffffffffffffffffffffffffffffffffff167f8be0079c531659141344cd1fd0a4f28419497f9722a3daafe3b4186f6b6457e060405160405180910390a35050565b828054620001b9906200049a565b90600052602060002090601f016020900481019282620001dd576000855562000229565b82601f10620001f857805160ff191683800117855562000229565b8280016001018555821562000229579182015b82811115620002285782518255916020019190600101906200020b565b5b5090506200023891906200023c565b5090565b5b80821115620002575760008160009055506001016200023d565b5090565b6000620002726200026c8462000426565b620003f2565b9050828152602081018484840111156200028b57600080fd5b6200029884828562000464565b509392505050565b600082601f830112620002b257600080fd5b8151620002c48482602086016200025b565b91505092915050565b60008060408385031215620002e157600080fd5b600083015167ffffffffffffffff811115620002fc57600080fd5b6200030a85828601620002a0565b925050602083015167ffffffffffffffff8111156200032857600080fd5b6200033685828601620002a0565b9150509250929050565b60006200034f60098362000459565b91507f6e62724d797374696300000000000000000000000000000000000000000000006000830152600982019050919050565b60006200039160068362000459565b91507f6e657874496400000000000000000000000000000000000000000000000000006000830152600682019050919050565b6000620003d18262000340565b9150819050919050565b6000620003e88262000382565b9150819050919050565b6000604051905081810181811067ffffffffffffffff821117156200041c576200041b620004ff565b5b8060405250919050565b600067ffffffffffffffff821115620004445762000443620004ff565b5b601f19601f8301169050602081019050919050565b600081905092915050565b60005b838110156200048457808201518184015260208101905062000467565b8381111562000494576000848401525b50505050565b60006002820490506001821680620004b357607f821691505b60208210811415620004ca57620004c9620004d0565b5b50919050565b7f4e487b7100000000000000000000000000000000000000000000000000000000600052602260045260246000fd5b7f4e487b7100000000000000000000000000000000000000000000000000000000600052604160045260246000fd5b61425a806200053e6000396000f3fe6080604052600436106101815760003560e01c806382de8fe9116100d1578063beabacc81161008a578063e985e9c511610064578063e985e9c5146105a0578063ea4edda2146105dd578063f26bf0b7146105f9578063f2fde38b1461063657610181565b8063beabacc8146104fd578063c1e0372814610526578063c87b56dd1461056357610181565b806382de8fe9146103db57806383638710146104185780638da5cb5b1461045557806395d89b4114610480578063a22cb465146104ab578063b88d4fde146104d457610181565b806342842e0e1161013e5780635105d171116101185780635105d171146103215780636352211e1461034a57806370a0823114610387578063715018a6146103c457610181565b806342842e0e146102a657806342966c68146102cf57806348972034146102f857610181565b806301ffc9a71461018657806306fdde03146101c3578063081812fc146101ee578063095ea7b31461022b57806323b872dd146102545780633cb119441461027d575b600080fd5b34801561019257600080fd5b506101ad60048036038101906101a89190612e49565b61065f565b6040516101ba9190613a27565b60405180910390f35b3480156101cf57600080fd5b506101d8610741565b6040516101e59190613a42565b60405180910390f35b3480156101fa57600080fd5b5061021560048036038101906102109190612f97565b6107d3565b604051610222919061399e565b60405180910390f35b34801561023757600080fd5b50610252600480360381019061024d9190612e0d565b610858565b005b34801561026057600080fd5b5061027b60048036038101906102769190612c88565b610970565b005b34801561028957600080fd5b506102a4600480360381019061029f9190612edc565b6109d0565b005b3480156102b257600080fd5b506102cd60048036038101906102c89190612c88565b610a73565b005b3480156102db57600080fd5b506102f660048036038101906102f19190612f97565b610a93565b005b34801561030457600080fd5b5061031f600480360381019061031a9190612c23565b610b61565b005b34801561032d57600080fd5b5061034860048036038101906103439190612f30565b610c21565b005b34801561035657600080fd5b50610371600480360381019061036c9190612f97565b610d2d565b60405161037e919061399e565b60405180910390f35b34801561039357600080fd5b506103ae60048036038101906103a99190612c23565b610ddf565b6040516103bb9190613cc6565b60405180910390f35b3480156103d057600080fd5b506103d9610e97565b005b3480156103e757600080fd5b5061040260048036038101906103fd9190612c23565b610f1f565b60405161040f9190613a05565b60405180910390f35b34801561042457600080fd5b5061043f600480360381019061043a9190612f97565b611191565b60405161044c919061399e565b60405180910390f35b34801561046157600080fd5b5061046a6111a3565b604051610477919061399e565b60405180910390f35b34801561048c57600080fd5b506104956111cd565b6040516104a29190613a42565b60405180910390f35b3480156104b757600080fd5b506104d260048036038101906104cd9190612dd1565b61125f565b005b3480156104e057600080fd5b506104fb60048036038101906104f69190612cd7565b611275565b005b34801561050957600080fd5b50610524600480360381019061051f9190612c88565b6112d7565b005b34801561053257600080fd5b5061054d60048036038101906105489190612f97565b611387565b60405161055a9190613ca4565b60405180910390f35b34801561056f57600080fd5b5061058a60048036038101906105859190612f97565b611550565b6040516105979190613a42565b60405180910390f35b3480156105ac57600080fd5b506105c760048036038101906105c29190612c4c565b6115f7565b6040516105d49190613a27565b60405180910390f35b6105f760048036038101906105f29190612d52565b61168b565b005b34801561060557600080fd5b50610620600480360381019061061b9190612e9b565b61187d565b60405161062d9190613cc6565b60405180910390f35b34801561064257600080fd5b5061065d60048036038101906106589190612c23565b6118a5565b005b60007f80ac58cd000000000000000000000000000000000000000000000000000000007bffffffffffffffffffffffffffffffffffffffffffffffffffffffff1916827bffffffffffffffffffffffffffffffffffffffffffffffffffffffff1916148061072a57507f5b5e139f000000000000000000000000000000000000000000000000000000007bffffffffffffffffffffffffffffffffffffffffffffffffffffffff1916827bffffffffffffffffffffffffffffffffffffffffffffffffffffffff1916145b8061073a57506107398261199d565b5b9050919050565b60606000805461075090614038565b80601f016020809104026020016040519081016040528092919081815260200182805461077c90614038565b80156107c95780601f1061079e576101008083540402835291602001916107c9565b820191906000526020600020905b8154815290600101906020018083116107ac57829003601f168201915b5050505050905090565b60006107de82611a07565b61081d576040517f08c379a000000000000000000000000000000000000000000000000000000000815260040161081490613bc4565b60405180910390fd5b6004600083815260200190815260200160002060009054906101000a900473ffffffffffffffffffffffffffffffffffffffff169050919050565b600061086382610d2d565b90508073ffffffffffffffffffffffffffffffffffffffff168373ffffffffffffffffffffffffffffffffffffffff1614156108d4576040517f08c379a00000000000000000000000000000000000000000000000000000000081526004016108cb90613c44565b60405180910390fd5b8073ffffffffffffffffffffffffffffffffffffffff166108f3611a73565b73ffffffffffffffffffffffffffffffffffffffff16148061092257506109218161091c611a73565b6115f7565b5b610961576040517f08c379a000000000000000000000000000000000000000000000000000000000815260040161095890613b44565b60405180910390fd5b61096b8383611a7b565b505050565b61098161097b611a73565b82611b34565b6109c0576040517f08c379a00000000000000000000000000000000000000000000000000000000081526004016109b790613c64565b60405180910390fd5b6109cb838383611c12565b505050565b6109d8611a73565b73ffffffffffffffffffffffffffffffffffffffff166109f66111a3565b73ffffffffffffffffffffffffffffffffffffffff1614610a4c576040517f08c379a0000000000000000000000000000000000000000000000000000000008152600401610a4390613be4565b60405180910390fd5b80600883604051610a5d9190613939565b9081526020016040518091039020819055505050565b610a8e83838360405180602001604052806000815250611275565b505050565b600760009054906101000a900473ffffffffffffffffffffffffffffffffffffffff1673ffffffffffffffffffffffffffffffffffffffff163373ffffffffffffffffffffffffffffffffffffffff1614610b23576040517f08c379a0000000000000000000000000000000000000000000000000000000008152600401610b1a90613ac4565b60405180910390fd5b610b2c81611e6e565b6008604051610b3a90613974565b90815260200160405180910390206000815480929190610b599061400e565b919050555050565b610b69611a73565b73ffffffffffffffffffffffffffffffffffffffff16610b876111a3565b73ffffffffffffffffffffffffffffffffffffffff1614610bdd576040517f08c379a0000000000000000000000000000000000000000000000000000000008152600401610bd490613be4565b60405180910390fd5b80600760006101000a81548173ffffffffffffffffffffffffffffffffffffffff021916908373ffffffffffffffffffffffffffffffffffffffff16021790555050565b8073ffffffffffffffffffffffffffffffffffffffff16610c4183610d2d565b73ffffffffffffffffffffffffffffffffffffffff1614610c97576040517f08c379a0000000000000000000000000000000000000000000000000000000008152600401610c8e90613c84565b60405180910390fd5b826009600084815260200190815260200160002060008201518160000160006101000a81548160ff02191690831515021790555060208201518160000160016101000a81548160ff0219169083151502179055506040820151816001019080519060200190610d079291906127c8565b506060820151816002019080519060200190610d2492919061286f565b50905050505050565b6000806002600084815260200190815260200160002060009054906101000a900473ffffffffffffffffffffffffffffffffffffffff169050600073ffffffffffffffffffffffffffffffffffffffff168173ffffffffffffffffffffffffffffffffffffffff161415610dd6576040517f08c379a0000000000000000000000000000000000000000000000000000000008152600401610dcd90613b84565b60405180910390fd5b80915050919050565b60008073ffffffffffffffffffffffffffffffffffffffff168273ffffffffffffffffffffffffffffffffffffffff161415610e50576040517f08c379a0000000000000000000000000000000000000000000000000000000008152600401610e4790613b64565b60405180910390fd5b600360008373ffffffffffffffffffffffffffffffffffffffff1673ffffffffffffffffffffffffffffffffffffffff168152602001908152602001600020549050919050565b610e9f611a73565b73ffffffffffffffffffffffffffffffffffffffff16610ebd6111a3565b73ffffffffffffffffffffffffffffffffffffffff1614610f13576040517f08c379a0000000000000000000000000000000000000000000000000000000008152600401610f0a90613be4565b60405180910390fd5b610f1d6000611f7f565b565b6060600760009054906101000a900473ffffffffffffffffffffffffffffffffffffffff1673ffffffffffffffffffffffffffffffffffffffff163373ffffffffffffffffffffffffffffffffffffffff1614610fb1576040517f08c379a0000000000000000000000000000000000000000000000000000000008152600401610fa890613ac4565b60405180910390fd5b6000610fbc83610ddf565b9050600081141561103f57600067ffffffffffffffff811115611008577f4e487b7100000000000000000000000000000000000000000000000000000000600052604160045260246000fd5b6040519080825280602002602001820160405280156110365781602001602082028036833780820191505090505b5091505061118c565b60008167ffffffffffffffff811115611081577f4e487b7100000000000000000000000000000000000000000000000000000000600052604160045260246000fd5b6040519080825280602002602001820160405280156110af5781602001602082028036833780820191505090505b509050600060086040516110c290613989565b90815260200160405180910390205490506000805b82811015611183578673ffffffffffffffffffffffffffffffffffffffff166110ff82610d2d565b73ffffffffffffffffffffffffffffffffffffffff1614156111705780848381518110611155577f4e487b7100000000000000000000000000000000000000000000000000000000600052603260045260246000fd5b602002602001018181525050818061116c9061406a565b9250505b808061117b9061406a565b9150506110d7565b83955050505050505b919050565b600061119c82610d2d565b9050919050565b6000600660009054906101000a900473ffffffffffffffffffffffffffffffffffffffff16905090565b6060600180546111dc90614038565b80601f016020809104026020016040519081016040528092919081815260200182805461120890614038565b80156112555780601f1061122a57610100808354040283529160200191611255565b820191906000526020600020905b81548152906001019060200180831161123857829003601f168201915b5050505050905090565b61127161126a611a73565b8383612045565b5050565b611286611280611a73565b83611b34565b6112c5576040517f08c379a00000000000000000000000000000000000000000000000000000000081526004016112bc90613c64565b60405180910390fd5b6112d1848484846121b2565b50505050565b600760009054906101000a900473ffffffffffffffffffffffffffffffffffffffff1673ffffffffffffffffffffffffffffffffffffffff163373ffffffffffffffffffffffffffffffffffffffff1614611367576040517f08c379a000000000000000000000000000000000000000000000000000000000815260040161135e90613ac4565b60405180910390fd5b611382838383604051806020016040528060008152506121b2565b505050565b61138f6128bc565b600760009054906101000a900473ffffffffffffffffffffffffffffffffffffffff1673ffffffffffffffffffffffffffffffffffffffff163373ffffffffffffffffffffffffffffffffffffffff161461141f576040517f08c379a000000000000000000000000000000000000000000000000000000000815260040161141690613ac4565b60405180910390fd5b600960008381526020019081526020016000206040518060800160405290816000820160009054906101000a900460ff161515151581526020016000820160019054906101000a900460ff16151515158152602001600182018054806020026020016040519081016040528092919081815260200182805480156114e857602002820191906000526020600020906000905b82829054906101000a900460ff1660ff16815260200190600101906020826000010492830192600103820291508084116114b15790505b505050505081526020016002820180548060200260200160405190810160405280929190818152602001828054801561154057602002820191906000526020600020905b81548152602001906001019080831161152c575b5050505050815250509050919050565b606061155b82611a07565b61159a576040517f08c379a000000000000000000000000000000000000000000000000000000000815260040161159190613c24565b60405180910390fd5b60006115a461220e565b905060008151116115c457604051806020016040528060008152506115ef565b806115ce84612225565b6040516020016115df929190613950565b6040516020818303038152906040525b915050919050565b6000600560008473ffffffffffffffffffffffffffffffffffffffff1673ffffffffffffffffffffffffffffffffffffffff16815260200190815260200160002060008373ffffffffffffffffffffffffffffffffffffffff1673ffffffffffffffffffffffffffffffffffffffff16815260200190815260200160002060009054906101000a900460ff16905092915050565b600760009054906101000a900473ffffffffffffffffffffffffffffffffffffffff1673ffffffffffffffffffffffffffffffffffffffff163373ffffffffffffffffffffffffffffffffffffffff161461171b576040517f08c379a000000000000000000000000000000000000000000000000000000000815260040161171290613ac4565b60405180910390fd5b60405180608001604052806000151581526020016001151581526020018381526020018281525060096000600860405161175490613989565b908152602001604051809103902054815260200190815260200160002060008201518160000160006101000a81548160ff02191690831515021790555060208201518160000160016101000a81548160ff02191690831515021790555060408201518160010190805190602001906117cd9291906127c8565b5060608201518160020190805190602001906117ea92919061286f565b5090505061181483600860405161180090613989565b9081526020016040518091039020546123d2565b600860405161182290613989565b908152602001604051809103902060008154809291906118419061406a565b9190505550600860405161185490613974565b908152602001604051809103902060008154809291906118739061406a565b9190505550505050565b600060088260405161188f9190613939565b9081526020016040518091039020549050919050565b6118ad611a73565b73ffffffffffffffffffffffffffffffffffffffff166118cb6111a3565b73ffffffffffffffffffffffffffffffffffffffff1614611921576040517f08c379a000000000000000000000000000000000000000000000000000000000815260040161191890613be4565b60405180910390fd5b600073ffffffffffffffffffffffffffffffffffffffff168173ffffffffffffffffffffffffffffffffffffffff161415611991576040517f08c379a000000000000000000000000000000000000000000000000000000000815260040161198890613a84565b60405180910390fd5b61199a81611f7f565b50565b60007f01ffc9a7000000000000000000000000000000000000000000000000000000007bffffffffffffffffffffffffffffffffffffffffffffffffffffffff1916827bffffffffffffffffffffffffffffffffffffffffffffffffffffffff1916149050919050565b60008073ffffffffffffffffffffffffffffffffffffffff166002600084815260200190815260200160002060009054906101000a900473ffffffffffffffffffffffffffffffffffffffff1673ffffffffffffffffffffffffffffffffffffffff1614159050919050565b600033905090565b816004600083815260200190815260200160002060006101000a81548173ffffffffffffffffffffffffffffffffffffffff021916908373ffffffffffffffffffffffffffffffffffffffff160217905550808273ffffffffffffffffffffffffffffffffffffffff16611aee83610d2d565b73ffffffffffffffffffffffffffffffffffffffff167f8c5be1e5ebec7d5bd14f71427d1e84f3dd0314c0f7b2291e5b200ac8c7c3b92560405160405180910390a45050565b6000611b3f82611a07565b611b7e576040517f08c379a0000000000000000000000000000000000000000000000000000000008152600401611b7590613b24565b60405180910390fd5b6000611b8983610d2d565b90508073ffffffffffffffffffffffffffffffffffffffff168473ffffffffffffffffffffffffffffffffffffffff161480611bf857508373ffffffffffffffffffffffffffffffffffffffff16611be0846107d3565b73ffffffffffffffffffffffffffffffffffffffff16145b80611c095750611c0881856115f7565b5b91505092915050565b8273ffffffffffffffffffffffffffffffffffffffff16611c3282610d2d565b73ffffffffffffffffffffffffffffffffffffffff1614611c88576040517f08c379a0000000000000000000000000000000000000000000000000000000008152600401611c7f90613c04565b60405180910390fd5b600073ffffffffffffffffffffffffffffffffffffffff168273ffffffffffffffffffffffffffffffffffffffff161415611cf8576040517f08c379a0000000000000000000000000000000000000000000000000000000008152600401611cef90613ae4565b60405180910390fd5b611d038383836123f0565b611d0e600082611a7b565b6001600360008573ffffffffffffffffffffffffffffffffffffffff1673ffffffffffffffffffffffffffffffffffffffff1681526020019081526020016000206000828254611d5e9190613f17565b925050819055506001600360008473ffffffffffffffffffffffffffffffffffffffff1673ffffffffffffffffffffffffffffffffffffffff1681526020019081526020016000206000828254611db59190613e90565b92505081905550816002600083815260200190815260200160002060006101000a81548173ffffffffffffffffffffffffffffffffffffffff021916908373ffffffffffffffffffffffffffffffffffffffff160217905550808273ffffffffffffffffffffffffffffffffffffffff168473ffffffffffffffffffffffffffffffffffffffff167fddf252ad1be2c89b69c2b068fc378daa952ba7f163c4a11628f55a4df523b3ef60405160405180910390a4505050565b6000611e7982610d2d565b9050611e87816000846123f0565b611e92600083611a7b565b6001600360008373ffffffffffffffffffffffffffffffffffffffff1673ffffffffffffffffffffffffffffffffffffffff1681526020019081526020016000206000828254611ee29190613f17565b925050819055506002600083815260200190815260200160002060006101000a81549073ffffffffffffffffffffffffffffffffffffffff021916905581600073ffffffffffffffffffffffffffffffffffffffff168273ffffffffffffffffffffffffffffffffffffffff167fddf252ad1be2c89b69c2b068fc378daa952ba7f163c4a11628f55a4df523b3ef60405160405180910390a45050565b6000600660009054906101000a900473ffffffffffffffffffffffffffffffffffffffff16905081600660006101000a81548173ffffffffffffffffffffffffffffffffffffffff021916908373ffffffffffffffffffffffffffffffffffffffff1602179055508173ffffffffffffffffffffffffffffffffffffffff168173ffffffffffffffffffffffffffffffffffffffff167f8be0079c531659141344cd1fd0a4f28419497f9722a3daafe3b4186f6b6457e060405160405180910390a35050565b8173ffffffffffffffffffffffffffffffffffffffff168373ffffffffffffffffffffffffffffffffffffffff1614156120b4576040517f08c379a00000000000000000000000000000000000000000000000000000000081526004016120ab90613b04565b60405180910390fd5b80600560008573ffffffffffffffffffffffffffffffffffffffff1673ffffffffffffffffffffffffffffffffffffffff16815260200190815260200160002060008473ffffffffffffffffffffffffffffffffffffffff1673ffffffffffffffffffffffffffffffffffffffff16815260200190815260200160002060006101000a81548160ff0219169083151502179055508173ffffffffffffffffffffffffffffffffffffffff168373ffffffffffffffffffffffffffffffffffffffff167f17307eab39ab6107e8899845ad3d59bd9653f200f220920489ca2b5937696c31836040516121a59190613a27565b60405180910390a3505050565b6121bd848484611c12565b6121c9848484846123f5565b612208576040517f08c379a00000000000000000000000000000000000000000000000000000000081526004016121ff90613a64565b60405180910390fd5b50505050565b606060405180602001604052806000815250905090565b6060600082141561226d576040518060400160405280600181526020017f300000000000000000000000000000000000000000000000000000000000000081525090506123cd565b600082905060005b6000821461229f5780806122889061406a565b915050600a826122989190613ee6565b9150612275565b60008167ffffffffffffffff8111156122e1577f4e487b7100000000000000000000000000000000000000000000000000000000600052604160045260246000fd5b6040519080825280601f01601f1916602001820160405280156123135781602001600182028036833780820191505090505b5090505b600085146123c65760018261232c9190613f17565b9150600a8561233b91906140b3565b60306123479190613e90565b60f81b818381518110612383577f4e487b7100000000000000000000000000000000000000000000000000000000600052603260045260246000fd5b60200101907effffffffffffffffffffffffffffffffffffffffffffffffffffffffffffff1916908160001a905350600a856123bf9190613ee6565b9450612317565b8093505050505b919050565b6123ec82826040518060200160405280600081525061258c565b5050565b505050565b60006124168473ffffffffffffffffffffffffffffffffffffffff166125e7565b1561257f578373ffffffffffffffffffffffffffffffffffffffff1663150b7a0261243f611a73565b8786866040518563ffffffff1660e01b815260040161246194939291906139b9565b602060405180830381600087803b15801561247b57600080fd5b505af19250505080156124ac57506040513d601f19601f820116820180604052508101906124a99190612e72565b60015b61252f573d80600081146124dc576040519150601f19603f3d011682016040523d82523d6000602084013e6124e1565b606091505b50600081511415612527576040517f08c379a000000000000000000000000000000000000000000000000000000000815260040161251e90613a64565b60405180910390fd5b805181602001fd5b63150b7a0260e01b7bffffffffffffffffffffffffffffffffffffffffffffffffffffffff1916817bffffffffffffffffffffffffffffffffffffffffffffffffffffffff191614915050612584565b600190505b949350505050565b61259683836125fa565b6125a360008484846123f5565b6125e2576040517f08c379a00000000000000000000000000000000000000000000000000000000081526004016125d990613a64565b60405180910390fd5b505050565b600080823b905060008111915050919050565b600073ffffffffffffffffffffffffffffffffffffffff168273ffffffffffffffffffffffffffffffffffffffff16141561266a576040517f08c379a000000000000000000000000000000000000000000000000000000000815260040161266190613ba4565b60405180910390fd5b61267381611a07565b156126b3576040517f08c379a00000000000000000000000000000000000000000000000000000000081526004016126aa90613aa4565b60405180910390fd5b6126bf600083836123f0565b6001600360008473ffffffffffffffffffffffffffffffffffffffff1673ffffffffffffffffffffffffffffffffffffffff168152602001908152602001600020600082825461270f9190613e90565b92505081905550816002600083815260200190815260200160002060006101000a81548173ffffffffffffffffffffffffffffffffffffffff021916908373ffffffffffffffffffffffffffffffffffffffff160217905550808273ffffffffffffffffffffffffffffffffffffffff16600073ffffffffffffffffffffffffffffffffffffffff167fddf252ad1be2c89b69c2b068fc378daa952ba7f163c4a11628f55a4df523b3ef60405160405180910390a45050565b82805482825590600052602060002090601f0160209004810192821561285e5791602002820160005b8382111561282f57835183826101000a81548160ff021916908360ff16021790555092602001926001016020816000010492830192600103026127f1565b801561285c5782816101000a81549060ff021916905560010160208160000104928301926001030261282f565b505b50905061286b91906128e8565b5090565b8280548282559060005260206000209081019282156128ab579160200282015b828111156128aa57825182559160200191906001019061288f565b5b5090506128b891906128e8565b5090565b604051806080016040528060001515815260200160001515815260200160608152602001606081525090565b5b808211156129015760008160009055506001016128e9565b5090565b600061291861291384613d12565b613ce1565b9050808382526020820190508285602086028201111561293757600080fd5b60005b85811015612967578161294d8882612bf9565b84526020840193506020830192505060018101905061293a565b5050509392505050565b600061298461297f84613d3e565b613ce1565b905080838252602082019050828560208602820111156129a357600080fd5b60005b858110156129d357816129b98882612c0e565b8452602084019350602083019250506001810190506129a6565b5050509392505050565b60006129f06129eb84613d6a565b613ce1565b905082815260208101848484011115612a0857600080fd5b612a13848285613fcc565b509392505050565b6000612a2e612a2984613d9a565b613ce1565b905082815260208101848484011115612a4657600080fd5b612a51848285613fcc565b509392505050565b600081359050612a68816141b1565b92915050565b600082601f830112612a7f57600080fd5b8135612a8f848260208601612905565b91505092915050565b600082601f830112612aa957600080fd5b8135612ab9848260208601612971565b91505092915050565b600081359050612ad1816141c8565b92915050565b600081359050612ae6816141df565b92915050565b600081519050612afb816141df565b92915050565b600082601f830112612b1257600080fd5b8135612b228482602086016129dd565b91505092915050565b600082601f830112612b3c57600080fd5b8135612b4c848260208601612a1b565b91505092915050565b600060808284031215612b6757600080fd5b612b716080613ce1565b90506000612b8184828501612ac2565b6000830152506020612b9584828501612ac2565b602083015250604082013567ffffffffffffffff811115612bb557600080fd5b612bc184828501612a98565b604083015250606082013567ffffffffffffffff811115612be157600080fd5b612bed84828501612a6e565b60608301525092915050565b600081359050612c08816141f6565b92915050565b600081359050612c1d8161420d565b92915050565b600060208284031215612c3557600080fd5b6000612c4384828501612a59565b91505092915050565b60008060408385031215612c5f57600080fd5b6000612c6d85828601612a59565b9250506020612c7e85828601612a59565b9150509250929050565b600080600060608486031215612c9d57600080fd5b6000612cab86828701612a59565b9350506020612cbc86828701612a59565b9250506040612ccd86828701612bf9565b9150509250925092565b60008060008060808587031215612ced57600080fd5b6000612cfb87828801612a59565b9450506020612d0c87828801612a59565b9350506040612d1d87828801612bf9565b925050606085013567ffffffffffffffff811115612d3a57600080fd5b612d4687828801612b01565b91505092959194509250565b600080600060608486031215612d6757600080fd5b6000612d7586828701612a59565b935050602084013567ffffffffffffffff811115612d9257600080fd5b612d9e86828701612a98565b925050604084013567ffffffffffffffff811115612dbb57600080fd5b612dc786828701612a6e565b9150509250925092565b60008060408385031215612de457600080fd5b6000612df285828601612a59565b9250506020612e0385828601612ac2565b9150509250929050565b60008060408385031215612e2057600080fd5b6000612e2e85828601612a59565b9250506020612e3f85828601612bf9565b9150509250929050565b600060208284031215612e5b57600080fd5b6000612e6984828501612ad7565b91505092915050565b600060208284031215612e8457600080fd5b6000612e9284828501612aec565b91505092915050565b600060208284031215612ead57600080fd5b600082013567ffffffffffffffff811115612ec757600080fd5b612ed384828501612b2b565b91505092915050565b60008060408385031215612eef57600080fd5b600083013567ffffffffffffffff811115612f0957600080fd5b612f1585828601612b2b565b9250506020612f2685828601612bf9565b9150509250929050565b600080600060608486031215612f4557600080fd5b600084013567ffffffffffffffff811115612f5f57600080fd5b612f6b86828701612b55565b9350506020612f7c86828701612bf9565b9250506040612f8d86828701612a59565b9150509250925092565b600060208284031215612fa957600080fd5b6000612fb784828501612bf9565b91505092915050565b6000612fcc838361390c565b60208301905092915050565b6000612fe4838361392a565b60208301905092915050565b612ff981613f4b565b82525050565b600061300a82613dea565b6130148185613e30565b935061301f83613dca565b8060005b838110156130505781516130378882612fc0565b975061304283613e16565b925050600181019050613023565b5085935050505092915050565b600061306882613dea565b6130728185613e41565b935061307d83613dca565b8060005b838110156130ae5781516130958882612fc0565b97506130a083613e16565b925050600181019050613081565b5085935050505092915050565b60006130c682613df5565b6130d08185613e52565b93506130db83613dda565b8060005b8381101561310c5781516130f38882612fd8565b97506130fe83613e23565b9250506001810190506130df565b5085935050505092915050565b61312281613f5d565b82525050565b61313181613f5d565b82525050565b600061314282613e00565b61314c8185613e63565b935061315c818560208601613fdb565b613165816141a0565b840191505092915050565b600061317b82613e0b565b6131858185613e74565b9350613195818560208601613fdb565b61319e816141a0565b840191505092915050565b60006131b482613e0b565b6131be8185613e85565b93506131ce818560208601613fdb565b80840191505092915050565b60006131e7603283613e74565b91507f4552433732313a207472616e7366657220746f206e6f6e20455243373231526560008301527f63656976657220696d706c656d656e74657200000000000000000000000000006020830152604082019050919050565b600061324d602683613e74565b91507f4f776e61626c653a206e6577206f776e657220697320746865207a65726f206160008301527f64647265737300000000000000000000000000000000000000000000000000006020830152604082019050919050565b60006132b3601c83613e74565b91507f4552433732313a20746f6b656e20616c7265616479206d696e746564000000006000830152602082019050919050565b60006132f3600983613e85565b91507f6e62724d797374696300000000000000000000000000000000000000000000006000830152600982019050919050565b6000613333601a83613e74565b91507f4e6f7420676f6f642064656c656761746520636f6e74726163740000000000006000830152602082019050919050565b6000613373602483613e74565b91507f4552433732313a207472616e7366657220746f20746865207a65726f2061646460008301527f72657373000000000000000000000000000000000000000000000000000000006020830152604082019050919050565b60006133d9601983613e74565b91507f4552433732313a20617070726f766520746f2063616c6c6572000000000000006000830152602082019050919050565b6000613419600683613e85565b91507f6e657874496400000000000000000000000000000000000000000000000000006000830152600682019050919050565b6000613459602c83613e74565b91507f4552433732313a206f70657261746f7220717565727920666f72206e6f6e657860008301527f697374656e7420746f6b656e00000000000000000000000000000000000000006020830152604082019050919050565b60006134bf603883613e74565b91507f4552433732313a20617070726f76652063616c6c6572206973206e6f74206f7760008301527f6e6572206e6f7220617070726f76656420666f7220616c6c00000000000000006020830152604082019050919050565b6000613525602a83613e74565b91507f4552433732313a2062616c616e636520717565727920666f7220746865207a6560008301527f726f2061646472657373000000000000000000000000000000000000000000006020830152604082019050919050565b600061358b602983613e74565b91507f4552433732313a206f776e657220717565727920666f72206e6f6e657869737460008301527f656e7420746f6b656e00000000000000000000000000000000000000000000006020830152604082019050919050565b60006135f1602083613e74565b91507f4552433732313a206d696e7420746f20746865207a65726f20616464726573736000830152602082019050919050565b6000613631602c83613e74565b91507f4552433732313a20617070726f76656420717565727920666f72206e6f6e657860008301527f697374656e7420746f6b656e00000000000000000000000000000000000000006020830152604082019050919050565b6000613697602083613e74565b91507f4f776e61626c653a2063616c6c6572206973206e6f7420746865206f776e65726000830152602082019050919050565b60006136d7602983613e74565b91507f4552433732313a207472616e73666572206f6620746f6b656e2074686174206960008301527f73206e6f74206f776e00000000000000000000000000000000000000000000006020830152604082019050919050565b600061373d602f83613e74565b91507f4552433732314d657461646174613a2055524920717565727920666f72206e6f60008301527f6e6578697374656e7420746f6b656e00000000000000000000000000000000006020830152604082019050919050565b60006137a3602183613e74565b91507f4552433732313a20617070726f76616c20746f2063757272656e74206f776e6560008301527f72000000000000000000000000000000000000000000000000000000000000006020830152604082019050919050565b6000613809603183613e74565b91507f4552433732313a207472616e736665722063616c6c6572206973206e6f74206f60008301527f776e6572206e6f7220617070726f7665640000000000000000000000000000006020830152604082019050919050565b600061386f600f83613e74565b91507f4e6f7420596f7572206d797374696300000000000000000000000000000000006000830152602082019050919050565b60006080830160008301516138ba6000860182613119565b5060208301516138cd6020860182613119565b50604083015184820360408601526138e582826130bb565b915050606083015184820360608601526138ff8282612fff565b9150508091505092915050565b61391581613fb5565b82525050565b61392481613fb5565b82525050565b61393381613fbf565b82525050565b600061394582846131a9565b915081905092915050565b600061395c82856131a9565b915061396882846131a9565b91508190509392505050565b600061397f826132e6565b9150819050919050565b60006139948261340c565b9150819050919050565b60006020820190506139b36000830184612ff0565b92915050565b60006080820190506139ce6000830187612ff0565b6139db6020830186612ff0565b6139e8604083018561391b565b81810360608301526139fa8184613137565b905095945050505050565b60006020820190508181036000830152613a1f818461305d565b905092915050565b6000602082019050613a3c6000830184613128565b92915050565b60006020820190508181036000830152613a5c8184613170565b905092915050565b60006020820190508181036000830152613a7d816131da565b9050919050565b60006020820190508181036000830152613a9d81613240565b9050919050565b60006020820190508181036000830152613abd816132a6565b9050919050565b60006020820190508181036000830152613add81613326565b9050919050565b60006020820190508181036000830152613afd81613366565b9050919050565b60006020820190508181036000830152613b1d816133cc565b9050919050565b60006020820190508181036000830152613b3d8161344c565b9050919050565b60006020820190508181036000830152613b5d816134b2565b9050919050565b60006020820190508181036000830152613b7d81613518565b9050919050565b60006020820190508181036000830152613b9d8161357e565b9050919050565b60006020820190508181036000830152613bbd816135e4565b9050919050565b60006020820190508181036000830152613bdd81613624565b9050919050565b60006020820190508181036000830152613bfd8161368a565b9050919050565b60006020820190508181036000830152613c1d816136ca565b9050919050565b60006020820190508181036000830152613c3d81613730565b9050919050565b60006020820190508181036000830152613c5d81613796565b9050919050565b60006020820190508181036000830152613c7d816137fc565b9050919050565b60006020820190508181036000830152613c9d81613862565b9050919050565b60006020820190508181036000830152613cbe81846138a2565b905092915050565b6000602082019050613cdb600083018461391b565b92915050565b6000604051905081810181811067ffffffffffffffff82111715613d0857613d07614171565b5b8060405250919050565b600067ffffffffffffffff821115613d2d57613d2c614171565b5b602082029050602081019050919050565b600067ffffffffffffffff821115613d5957613d58614171565b5b602082029050602081019050919050565b600067ffffffffffffffff821115613d8557613d84614171565b5b601f19601f8301169050602081019050919050565b600067ffffffffffffffff821115613db557613db4614171565b5b601f19601f8301169050602081019050919050565b6000819050602082019050919050565b6000819050602082019050919050565b600081519050919050565b600081519050919050565b600081519050919050565b600081519050919050565b6000602082019050919050565b6000602082019050919050565b600082825260208201905092915050565b600082825260208201905092915050565b600082825260208201905092915050565b600082825260208201905092915050565b600082825260208201905092915050565b600081905092915050565b6000613e9b82613fb5565b9150613ea683613fb5565b9250827fffffffffffffffffffffffffffffffffffffffffffffffffffffffffffffffff03821115613edb57613eda6140e4565b5b828201905092915050565b6000613ef182613fb5565b9150613efc83613fb5565b925082613f0c57613f0b614113565b5b828204905092915050565b6000613f2282613fb5565b9150613f2d83613fb5565b925082821015613f4057613f3f6140e4565b5b828203905092915050565b6000613f5682613f95565b9050919050565b60008115159050919050565b60007fffffffff0000000000000000000000000000000000000000000000000000000082169050919050565b600073ffffffffffffffffffffffffffffffffffffffff82169050919050565b6000819050919050565b600060ff82169050919050565b82818337600083830152505050565b60005b83811015613ff9578082015181840152602081019050613fde565b83811115614008576000848401525b50505050565b600061401982613fb5565b9150600082141561402d5761402c6140e4565b5b600182039050919050565b6000600282049050600182168061405057607f821691505b6020821081141561406457614063614142565b5b50919050565b600061407582613fb5565b91507fffffffffffffffffffffffffffffffffffffffffffffffffffffffffffffffff8214156140a8576140a76140e4565b5b600182019050919050565b60006140be82613fb5565b91506140c983613fb5565b9250826140d9576140d8614113565b5b828206905092915050565b7f4e487b7100000000000000000000000000000000000000000000000000000000600052601160045260246000fd5b7f4e487b7100000000000000000000000000000000000000000000000000000000600052601260045260246000fd5b7f4e487b7100000000000000000000000000000000000000000000000000000000600052602260045260246000fd5b7f4e487b7100000000000000000000000000000000000000000000000000000000600052604160045260246000fd5b6000601f19601f8301169050919050565b6141ba81613f4b565b81146141c557600080fd5b50565b6141d181613f5d565b81146141dc57600080fd5b50565b6141e881613f69565b81146141f357600080fd5b50565b6141ff81613fb5565b811461420a57600080fd5b50565b61421681613fbf565b811461422157600080fd5b5056fea26469706673582212201fb6dc5fdd5b7966961086d94bf4cb92f1c8a019101f0042e546eb65013f5b4464736f6c63430008000033",
  "immutableReferences": {},
  "source": "pragma solidity 0.8.0;\r\n\r\nimport '@openzeppelin/contracts/token/ERC721/ERC721.sol';\r\nimport '@openzeppelin/contracts/access/Ownable.sol';\r\n\r\ncontract DelegateContract is Ownable {\r\n\r\n    constructor(address _addressContract) {\r\n        addressContract = _addressContract;\r\n        paramsContract[\"nextId\"] = TokenDelegable(addressContract).getParamsContract(\"nextId\");\r\n     }\r\n\r\n    address addressContract;\r\n    mapping( string => uint ) paramsContract;\r\n\r\n    function priceEgg(uint256 price, uint8 typeEgg) public onlyOwner {\r\n        if(typeEgg==1) paramsContract[\"priceEggOne\"] = price;\r\n        if(typeEgg==2) paramsContract[\"priceEggTwo\"] = price;\r\n        if(typeEgg==3) paramsContract[\"priceEggThree\"] = price;\r\n    }\r\n\r\n    function random(uint8 maxNumber) public returns (uint8) {\r\n        uint256 randomnumber = uint256(keccak256(abi.encodePacked(block.timestamp, msg.sender, paramsContract[\"nonce\"]))) % maxNumber;\r\n        randomnumber = randomnumber ;\r\n        paramsContract[\"nonce\"]++;\r\n        return uint8(randomnumber);\r\n    }\r\n\r\n    function setParamsDelegate(string memory keyParams, uint256 valueParams ) external {\r\n        TokenDelegable contrat = TokenDelegable(addressContract);\r\n        contrat.setParamsContract(keyParams, valueParams);\r\n    }\r\n\r\n    function mintDelegate(uint8 typeMint) public payable{\r\n\r\n        uint8 bonus = 0;\r\n        require(typeMint == 1 || typeMint == 2 || typeMint == 3,\"Type not good\");\r\n        if(typeMint == 1){require(msg.value >= paramsContract[\"priceEggOne\"],\"More ETH required\");bonus = 8;}\r\n        if(typeMint == 2){require(msg.value >= paramsContract[\"priceEggTwo\"],\"More ETH required\");bonus = 4;}\r\n        if(typeMint == 3){require(msg.value >= paramsContract[\"priceEggThree\"],\"More ETH required\");bonus = 0;}\r\n        uint8[] memory randomParts = new uint8[](6);\r\n        uint256[] memory randomParams = new uint256[](10);\r\n        randomParts[0] = random(4)+bonus;\r\n        randomParts[1] = random(4)+bonus;\r\n        randomParts[2] = random(4)+bonus;\r\n        randomParts[3] = random(4)+bonus;\r\n        randomParts[4] = random(4)+bonus;\r\n        randomParts[5] = random(4)+bonus;\r\n        randomParams[0] = block.timestamp;\r\n        randomParams[1] = msg.value;\r\n        randomParams[2] = 0;//idreproduce\r\n        randomParams[3] = 0;//mother\r\n        randomParams[4] = 0;//father\r\n        randomParams[5] = 0;//nbrreproduce\r\n        //_tokenDetails[nextId] = Mystic(0,0,0,randomParts,false,true,block.timestamp,msg.value,0);\r\n        //_safeMint(msg.sender, nextId);\r\n        paramsContract[\"nextId\"]++;\r\n\r\n        TokenDelegable contrat = TokenDelegable(addressContract);\r\n        contrat.mint(msg.sender, randomParts, randomParams);\r\n    }\r\n\r\n    \r\n    function paramsMystic(uint256 tokenId,bool sellable,bool egg, uint8 tokenIdReproducable) public {\r\n        \r\n        TokenDelegable contrat = TokenDelegable(addressContract);\r\n        TokenDelegable.Mystic memory mysticTemp =  contrat.getTokenDetails(tokenId);\r\n        mysticTemp.inSell = sellable;\r\n        if(mysticTemp.egg != egg) mysticTemp.params256[0] = block.timestamp;\r\n        mysticTemp.egg = egg;\r\n        mysticTemp.params256[1] = tokenIdReproducable;\r\n\r\n        contrat.updateToken(mysticTemp,tokenId,msg.sender);\r\n    }\r\n\r\n    function purchaseAndTransfer(address contactAddr, uint256 tokenId, uint256 amount,bool purchase) external payable {\r\n        TokenDelegable contrat = TokenDelegable(addressContract);\r\n        TokenDelegable.Mystic memory mystic =  contrat.getTokenDetails(tokenId);\r\n        if(amount != 0) require(msg.value >= mystic.params256[1] * amount, \"Insufficient fonds sent\");\r\n        require(contrat.getOwnerOf(tokenId) != (purchase?msg.sender:contactAddr), \"Already Owned\");\r\n        uint256[] memory resultIndex = contrat.getAllTokensForUser(msg.sender);\r\n        require(resultIndex.length <= 1, \"Already have a mystic\");\r\n        mystic.inSell=false;\r\n        contrat.updateToken(mystic,tokenId,msg.sender);\r\n        contrat.transfer((purchase?contactAddr:msg.sender), (purchase?msg.sender:contactAddr), tokenId);\r\n    }\r\n\r\n    \r\n    /*\r\n    faire l'alatoire depuis le front et mttre dans parts one et parts two\r\n    */\r\n    function reproduce( uint8[] memory partsOne, uint256 tokenIdOne, uint8[] memory partsTwo, address senderInvit, uint256 tokenIdTwo) public {\r\n\r\n        TokenDelegable contrat = TokenDelegable(addressContract);\r\n        TokenDelegable.Mystic memory mysticOne =  contrat.getTokenDetails(tokenIdOne);\r\n        TokenDelegable.Mystic memory mysticTwo =  contrat.getTokenDetails(tokenIdTwo);\r\n\r\n        require(mysticOne.params256[0] != 0 && mysticTwo.params256[0] != 0,\"Mystic not exist\");\r\n        require((tokenIdOne != mysticTwo.params256[3] && tokenIdOne != mysticTwo.params256[4] && tokenIdTwo != mysticOne.params256[3] && tokenIdOne != mysticOne.params256[4] && mysticOne.params256[4] != mysticTwo.params256[4] && mysticOne.params256[4] != mysticTwo.params256[3] && mysticOne.params256[3] != mysticTwo.params256[4] && mysticOne.params256[3] != mysticTwo.params256[3]) || (mysticTwo.params256[3] == 0 && mysticTwo.params256[4] == 0 && mysticOne.params256[3] == 0 && mysticOne.params256[4] == 0) ,\"Parently too close\");\r\n        require(mysticTwo.params256[2] == tokenIdOne && contrat.getOwnerOf(tokenIdOne) == msg.sender && contrat.getOwnerOf(tokenIdTwo) == senderInvit && mysticTwo.params256[5] < 3 && mysticOne.params256[5] < 3 ,\"Too many reproduce time\");\r\n\r\n        \r\n        uint8[] memory randomParts = new uint8[](6);\r\n        uint256[] memory randomParams = new uint256[](10);\r\n        randomParts[0] = random(2)==0?mysticOne.params8[0]:mysticTwo.params8[0];\r\n        randomParts[1] = random(2)==0?mysticOne.params8[1]:mysticTwo.params8[1];\r\n        randomParts[2] = random(2)==0?mysticOne.params8[2]:mysticTwo.params8[2];\r\n        randomParts[3] = random(2)==0?mysticOne.params8[3]:mysticTwo.params8[3];\r\n        randomParts[4] = random(2)==0?mysticOne.params8[4]:mysticTwo.params8[4];\r\n        randomParts[5] = random(2)==0?mysticOne.params8[5]:mysticTwo.params8[5];\r\n        randomParams[0] = block.timestamp;\r\n        randomParams[1] = mysticOne.params256[1];\r\n        randomParams[2] = 0;//idreproduce\r\n        randomParams[3] = tokenIdOne;//mother\r\n        randomParams[4] = tokenIdTwo;//father\r\n        randomParams[5] = 0;//nbrreproduce\r\n\r\n        \r\n        contrat.mint(msg.sender, randomParts, randomParams);paramsContract[\"nextId\"]++;\r\n        randomParts[0] = random(2)==0?mysticOne.params8[0]:mysticTwo.params8[0];\r\n        randomParts[1] = random(2)==0?mysticOne.params8[1]:mysticTwo.params8[1];\r\n        randomParts[2] = random(2)==0?mysticOne.params8[2]:mysticTwo.params8[2];\r\n        randomParts[3] = random(2)==0?mysticOne.params8[3]:mysticTwo.params8[3];\r\n        randomParts[4] = random(2)==0?mysticOne.params8[4]:mysticTwo.params8[4];\r\n        randomParts[5] = random(2)==0?mysticOne.params8[5]:mysticTwo.params8[5];\r\n        contrat.mint(senderInvit, randomParts, randomParams);paramsContract[\"nextId\"]++;\r\n        \r\n        mysticOne.params256[5]++;\r\n        mysticTwo.params256[5]++;\r\n        mysticTwo.params256[1] = 0;\r\n        \r\n        contrat.updateToken(mysticOne,tokenIdOne,msg.sender);\r\n        contrat.updateToken(mysticTwo,tokenIdTwo,senderInvit);\r\n    }\r\n\r\n\r\n    /*FUNDS*/\r\n\r\n    function withdraw() public onlyOwner {\r\n        payable(msg.sender).transfer(address(this).balance);\r\n    }\r\n\r\n    function deposit(uint256 amount) payable public onlyOwner {\r\n        require(msg.value == amount);\r\n    }\r\n\r\n    function getBalance() public view returns (uint256)  {\r\n        return address(this).balance;\r\n    }\r\n\r\n}\r\n\r\n\r\n\r\n\r\n\r\n\r\n\r\n\r\n\r\n\r\ncontract TokenDelegable is ERC721, Ownable{\r\n    struct  Mystic {\r\n        bool inSell;\r\n        bool egg;\r\n        uint8[] params8;//parts \r\n        uint256[] params256;//params\r\n    }\r\n\r\n    address adressDelegateContract;\r\n    mapping( string => uint ) paramsContract;\r\n    mapping( uint256 => Mystic ) private _tokenDetails;\r\n\r\n    constructor(string memory name, string memory symbol) ERC721(name, symbol){\r\n        paramsContract[\"nextId\"] = 0;\r\n        paramsContract[\"nbrMystic\"] = 0;\r\n     }\r\n\r\n    function mint(address sender, uint8[] memory params8, uint256[] memory params256) external payable {\r\n        require(msg.sender == adressDelegateContract,\"Not good delegate contract\");\r\n        _tokenDetails[paramsContract[\"nextId\"]] = Mystic(false,true,params8,params256);\r\n        _safeMint(sender, paramsContract[\"nextId\"]);\r\n        paramsContract[\"nextId\"]++;\r\n        paramsContract[\"nbrMystic\"]++;\r\n    }\r\n    \r\n    function burn(uint256 tokenId) public{\r\n        require(msg.sender == adressDelegateContract,\"Not good delegate contract\");\r\n        _burn(tokenId);\r\n        paramsContract[\"nbrMystic\"]--;\r\n    }\r\n\r\n    function transfer(address from, address to ,uint256 tokenId) external {\r\n        require(msg.sender == adressDelegateContract,\"Not good delegate contract\");\r\n        _safeTransfer(from, to, tokenId, \"\");\r\n    }\r\n\r\n    function getTokenDetails(uint256 tokenId) external view returns (Mystic memory){\r\n        require(msg.sender == adressDelegateContract,\"Not good delegate contract\");\r\n        return _tokenDetails[tokenId];\r\n    }\r\n\r\n    function getAllTokensForUser(address user) external view returns (uint256[] memory){\r\n        require(msg.sender == adressDelegateContract,\"Not good delegate contract\");\r\n        uint256 tokenCount = balanceOf(user);\r\n        if(tokenCount == 0){\r\n            return new uint256[](0);\r\n        }\r\n        else{\r\n            uint[] memory result = new uint256[](tokenCount);\r\n            uint256 totalMystics = paramsContract[\"nextId\"];\r\n            uint256 resultIndex = 0;\r\n            uint256 i;\r\n            for(i = 0; i < totalMystics; i++){\r\n                if(ownerOf(i) == user){\r\n                    result[resultIndex] = i;\r\n                    resultIndex++;\r\n                }\r\n            }\r\n            return result;\r\n        }\r\n    }\r\n\r\n    function getOwnerOf(uint256 tokenId) external view returns (address) {\r\n        return ownerOf(tokenId);\r\n    }\r\n\r\n    function updateToken(Mystic memory mysticTemp,uint256 tokenId,address owner) external {\r\n        require(ownerOf(tokenId) == owner,\"Not Your mystic\");\r\n        _tokenDetails[tokenId] = mysticTemp;\r\n    }\r\n\r\n    function setParamsContract(string memory keyParams, uint valueParams) external onlyOwner {\r\n        paramsContract[keyParams] = valueParams;\r\n    }\r\n\r\n    function getParamsContract(string memory keyParams) external view returns (uint){\r\n        return paramsContract[keyParams];\r\n    }\r\n\r\n    function setAdressDelegateContract(address _adress) external onlyOwner {\r\n        adressDelegateContract = _adress;\r\n    }\r\n\r\n}\r\n\r\n",
  "sourcePath": "C:\\laragon\\www\\nftWithFlo\\contracts\\TokenDelegate.sol",
  "compiler": {
    "name": "solc",
    "version": "0.8.0+commit.c7dfd78e.Emscripten.clang"
  },
  "schemaVersion": "3.4.4",
  "updatedAt": "2022-01-16T16:38:35.287Z",
  "devdoc": {
    "kind": "dev",
    "methods": {
      "approve(address,uint256)": {
        "details": "See {IERC721-approve}."
      },
      "balanceOf(address)": {
        "details": "See {IERC721-balanceOf}."
      },
      "getApproved(uint256)": {
        "details": "See {IERC721-getApproved}."
      },
      "isApprovedForAll(address,address)": {
        "details": "See {IERC721-isApprovedForAll}."
      },
      "name()": {
        "details": "See {IERC721Metadata-name}."
      },
      "owner()": {
        "details": "Returns the address of the current owner."
      },
      "ownerOf(uint256)": {
        "details": "See {IERC721-ownerOf}."
      },
      "renounceOwnership()": {
        "details": "Leaves the contract without owner. It will not be possible to call `onlyOwner` functions anymore. Can only be called by the current owner. NOTE: Renouncing ownership will leave the contract without an owner, thereby removing any functionality that is only available to the owner."
      },
      "safeTransferFrom(address,address,uint256)": {
        "details": "See {IERC721-safeTransferFrom}."
      },
      "safeTransferFrom(address,address,uint256,bytes)": {
        "details": "See {IERC721-safeTransferFrom}."
      },
      "setApprovalForAll(address,bool)": {
        "details": "See {IERC721-setApprovalForAll}."
      },
      "supportsInterface(bytes4)": {
        "details": "See {IERC165-supportsInterface}."
      },
      "symbol()": {
        "details": "See {IERC721Metadata-symbol}."
      },
      "tokenURI(uint256)": {
        "details": "See {IERC721Metadata-tokenURI}."
      },
      "transferFrom(address,address,uint256)": {
        "details": "See {IERC721-transferFrom}."
      },
      "transferOwnership(address)": {
        "details": "Transfers ownership of the contract to a new account (`newOwner`). Can only be called by the current owner."
      }
    },
    "version": 1
  },
  "userdoc": {
    "kind": "user",
    "methods": {},
    "version": 1
  }
}