{
	"contractName": "Token",
	"abi": [
		{
			"inputs": [
				{
					"internalType": "string",
					"name": "name",
					"type": "string"
				},
				{
					"internalType": "string",
					"name": "symbol",
					"type": "string"
				}
			],
			"stateMutability": "nonpayable",
			"type": "constructor"
		},
		{
			"anonymous": false,
			"inputs": [
				{
					"indexed": true,
					"internalType": "address",
					"name": "owner",
					"type": "address"
				},
				{
					"indexed": true,
					"internalType": "address",
					"name": "approved",
					"type": "address"
				},
				{
					"indexed": true,
					"internalType": "uint256",
					"name": "tokenId",
					"type": "uint256"
				}
			],
			"name": "Approval",
			"type": "event"
		},
		{
			"anonymous": false,
			"inputs": [
				{
					"indexed": true,
					"internalType": "address",
					"name": "owner",
					"type": "address"
				},
				{
					"indexed": true,
					"internalType": "address",
					"name": "operator",
					"type": "address"
				},
				{
					"indexed": false,
					"internalType": "bool",
					"name": "approved",
					"type": "bool"
				}
			],
			"name": "ApprovalForAll",
			"type": "event"
		},
		{
			"anonymous": false,
			"inputs": [
				{
					"indexed": true,
					"internalType": "address",
					"name": "previousOwner",
					"type": "address"
				},
				{
					"indexed": true,
					"internalType": "address",
					"name": "newOwner",
					"type": "address"
				}
			],
			"name": "OwnershipTransferred",
			"type": "event"
		},
		{
			"anonymous": false,
			"inputs": [
				{
					"indexed": true,
					"internalType": "address",
					"name": "from",
					"type": "address"
				},
				{
					"indexed": true,
					"internalType": "address",
					"name": "to",
					"type": "address"
				},
				{
					"indexed": true,
					"internalType": "uint256",
					"name": "tokenId",
					"type": "uint256"
				}
			],
			"name": "Transfer",
			"type": "event"
		},
		{
			"inputs": [
				{
					"internalType": "address",
					"name": "to",
					"type": "address"
				},
				{
					"internalType": "uint256",
					"name": "tokenId",
					"type": "uint256"
				}
			],
			"name": "approve",
			"outputs": [],
			"stateMutability": "nonpayable",
			"type": "function"
		},
		{
			"inputs": [
				{
					"internalType": "address",
					"name": "owner",
					"type": "address"
				}
			],
			"name": "balanceOf",
			"outputs": [
				{
					"internalType": "uint256",
					"name": "",
					"type": "uint256"
				}
			],
			"stateMutability": "view",
			"type": "function",
			"constant": true
		},
		{
			"inputs": [
				{
					"internalType": "uint256",
					"name": "tokenId",
					"type": "uint256"
				}
			],
			"name": "getApproved",
			"outputs": [
				{
					"internalType": "address",
					"name": "",
					"type": "address"
				}
			],
			"stateMutability": "view",
			"type": "function",
			"constant": true
		},
		{
			"inputs": [
				{
					"internalType": "address",
					"name": "owner",
					"type": "address"
				},
				{
					"internalType": "address",
					"name": "operator",
					"type": "address"
				}
			],
			"name": "isApprovedForAll",
			"outputs": [
				{
					"internalType": "bool",
					"name": "",
					"type": "bool"
				}
			],
			"stateMutability": "view",
			"type": "function",
			"constant": true
		},
		{
			"inputs": [],
			"name": "name",
			"outputs": [
				{
					"internalType": "string",
					"name": "",
					"type": "string"
				}
			],
			"stateMutability": "view",
			"type": "function",
			"constant": true
		},
		{
			"inputs": [],
			"name": "owner",
			"outputs": [
				{
					"internalType": "address",
					"name": "",
					"type": "address"
				}
			],
			"stateMutability": "view",
			"type": "function",
			"constant": true
		},
		{
			"inputs": [
				{
					"internalType": "uint256",
					"name": "tokenId",
					"type": "uint256"
				}
			],
			"name": "ownerOf",
			"outputs": [
				{
					"internalType": "address",
					"name": "",
					"type": "address"
				}
			],
			"stateMutability": "view",
			"type": "function",
			"constant": true
		},
		{
			"inputs": [],
			"name": "renounceOwnership",
			"outputs": [],
			"stateMutability": "nonpayable",
			"type": "function"
		},
		{
			"inputs": [
				{
					"internalType": "address",
					"name": "from",
					"type": "address"
				},
				{
					"internalType": "address",
					"name": "to",
					"type": "address"
				},
				{
					"internalType": "uint256",
					"name": "tokenId",
					"type": "uint256"
				}
			],
			"name": "safeTransferFrom",
			"outputs": [],
			"stateMutability": "nonpayable",
			"type": "function"
		},
		{
			"inputs": [
				{
					"internalType": "address",
					"name": "from",
					"type": "address"
				},
				{
					"internalType": "address",
					"name": "to",
					"type": "address"
				},
				{
					"internalType": "uint256",
					"name": "tokenId",
					"type": "uint256"
				},
				{
					"internalType": "bytes",
					"name": "_data",
					"type": "bytes"
				}
			],
			"name": "safeTransferFrom",
			"outputs": [],
			"stateMutability": "nonpayable",
			"type": "function"
		},
		{
			"inputs": [
				{
					"internalType": "address",
					"name": "operator",
					"type": "address"
				},
				{
					"internalType": "bool",
					"name": "approved",
					"type": "bool"
				}
			],
			"name": "setApprovalForAll",
			"outputs": [],
			"stateMutability": "nonpayable",
			"type": "function"
		},
		{
			"inputs": [
				{
					"internalType": "bytes4",
					"name": "interfaceId",
					"type": "bytes4"
				}
			],
			"name": "supportsInterface",
			"outputs": [
				{
					"internalType": "bool",
					"name": "",
					"type": "bool"
				}
			],
			"stateMutability": "view",
			"type": "function",
			"constant": true
		},
		{
			"inputs": [],
			"name": "symbol",
			"outputs": [
				{
					"internalType": "string",
					"name": "",
					"type": "string"
				}
			],
			"stateMutability": "view",
			"type": "function",
			"constant": true
		},
		{
			"inputs": [
				{
					"internalType": "uint256",
					"name": "tokenId",
					"type": "uint256"
				}
			],
			"name": "tokenURI",
			"outputs": [
				{
					"internalType": "string",
					"name": "",
					"type": "string"
				}
			],
			"stateMutability": "view",
			"type": "function",
			"constant": true
		},
		{
			"inputs": [
				{
					"internalType": "address",
					"name": "from",
					"type": "address"
				},
				{
					"internalType": "address",
					"name": "to",
					"type": "address"
				},
				{
					"internalType": "uint256",
					"name": "tokenId",
					"type": "uint256"
				}
			],
			"name": "transferFrom",
			"outputs": [],
			"stateMutability": "nonpayable",
			"type": "function"
		},
		{
			"inputs": [
				{
					"internalType": "address",
					"name": "newOwner",
					"type": "address"
				}
			],
			"name": "transferOwnership",
			"outputs": [],
			"stateMutability": "nonpayable",
			"type": "function"
		},
		{
			"inputs": [
				{
					"internalType": "uint8",
					"name": "price",
					"type": "uint8"
				},
				{
					"internalType": "uint8[]",
					"name": "parts",
					"type": "uint8[]"
				}
			],
			"name": "mint",
			"outputs": [],
			"stateMutability": "nonpayable",
			"type": "function"
		},
		{
			"inputs": [
				{
					"internalType": "uint8[]",
					"name": "partsOne",
					"type": "uint8[]"
				},
				{
					"internalType": "uint256",
					"name": "tokenIdOne",
					"type": "uint256"
				},
				{
					"internalType": "uint8[]",
					"name": "partsTwo",
					"type": "uint8[]"
				},
				{
					"internalType": "address",
					"name": "senderInvit",
					"type": "address"
				},
				{
					"internalType": "uint256",
					"name": "tokenIdTwo",
					"type": "uint256"
				}
			],
			"name": "reproduce",
			"outputs": [],
			"stateMutability": "nonpayable",
			"type": "function"
		},
		{
			"inputs": [
				{
					"internalType": "uint256",
					"name": "tokenId",
					"type": "uint256"
				}
			],
			"name": "getTokenDetails",
			"outputs": [
				{
					"components": [
						{
							"internalType": "uint8",
							"name": "price",
							"type": "uint8"
						},
						{
							"internalType": "uint8",
							"name": "numberReproduce",
							"type": "uint8"
						},
						{
							"internalType": "uint8",
							"name": "tokenIdReproducable",
							"type": "uint8"
						},
						{
							"internalType": "uint8",
							"name": "mother",
							"type": "uint8"
						},
						{
							"internalType": "uint8",
							"name": "father",
							"type": "uint8"
						},
						{
							"internalType": "uint8[]",
							"name": "parts",
							"type": "uint8[]"
						},
						{
							"internalType": "bool",
							"name": "inSell",
							"type": "bool"
						},
						{
							"internalType": "bool",
							"name": "egg",
							"type": "bool"
						},
						{
							"internalType": "uint256",
							"name": "createdAt",
							"type": "uint256"
						}
					],
					"internalType": "struct Token.Mystic",
					"name": "",
					"type": "tuple"
				}
			],
			"stateMutability": "view",
			"type": "function",
			"constant": true
		},
		{
			"inputs": [
				{
					"internalType": "address",
					"name": "user",
					"type": "address"
				}
			],
			"name": "getAllTokensForUser",
			"outputs": [
				{
					"internalType": "uint256[]",
					"name": "",
					"type": "uint256[]"
				}
			],
			"stateMutability": "view",
			"type": "function",
			"constant": true
		},
		{
			"inputs": [
				{
					"internalType": "address",
					"name": "contactAddr",
					"type": "address"
				},
				{
					"internalType": "uint256",
					"name": "tokenId",
					"type": "uint256"
				},
				{
					"internalType": "uint256",
					"name": "amount",
					"type": "uint256"
				},
				{
					"internalType": "bool",
					"name": "purchase",
					"type": "bool"
				}
			],
			"name": "purchaseAndTransfer",
			"outputs": [],
			"stateMutability": "payable",
			"type": "function",
			"payable": true
		},
		{
			"inputs": [
				{
					"internalType": "uint256",
					"name": "tokenId",
					"type": "uint256"
				},
				{
					"internalType": "bool",
					"name": "sellable",
					"type": "bool"
				},
				{
					"internalType": "bool",
					"name": "egg",
					"type": "bool"
				},
				{
					"internalType": "uint8",
					"name": "tokenIdReproducable",
					"type": "uint8"
				}
			],
			"name": "paramsMystic",
			"outputs": [],
			"stateMutability": "nonpayable",
			"type": "function"
		}
	],
	"bytecode": "0x60806040526000600755600060085560006009553480156200002057600080fd5b5060405162004cea38038062004cea833981810160405281019062000046919062000294565b818181600090805190602001906200006092919062000172565b5080600190805190602001906200007992919062000172565b5050506200009c62000090620000a460201b60201c565b620000ac60201b60201c565b505062000438565b600033905090565b6000600660009054906101000a900473ffffffffffffffffffffffffffffffffffffffff16905081600660006101000a81548173ffffffffffffffffffffffffffffffffffffffff021916908373ffffffffffffffffffffffffffffffffffffffff1602179055508173ffffffffffffffffffffffffffffffffffffffff168173ffffffffffffffffffffffffffffffffffffffff167f8be0079c531659141344cd1fd0a4f28419497f9722a3daafe3b4186f6b6457e060405160405180910390a35050565b8280546200018090620003a4565b90600052602060002090601f016020900481019282620001a45760008555620001f0565b82601f10620001bf57805160ff1916838001178555620001f0565b82800160010185558215620001f0579182015b82811115620001ef578251825591602001919060010190620001d2565b5b509050620001ff919062000203565b5090565b5b808211156200021e57600081600090555060010162000204565b5090565b60006200023962000233846200033b565b62000307565b9050828152602081018484840111156200025257600080fd5b6200025f8482856200036e565b509392505050565b600082601f8301126200027957600080fd5b81516200028b84826020860162000222565b91505092915050565b60008060408385031215620002a857600080fd5b600083015167ffffffffffffffff811115620002c357600080fd5b620002d18582860162000267565b925050602083015167ffffffffffffffff811115620002ef57600080fd5b620002fd8582860162000267565b9150509250929050565b6000604051905081810181811067ffffffffffffffff8211171562000331576200033062000409565b5b8060405250919050565b600067ffffffffffffffff82111562000359576200035862000409565b5b601f19601f8301169050602081019050919050565b60005b838110156200038e57808201518184015260208101905062000371565b838111156200039e576000848401525b50505050565b60006002820490506001821680620003bd57607f821691505b60208210811415620003d457620003d3620003da565b5b50919050565b7f4e487b7100000000000000000000000000000000000000000000000000000000600052602260045260246000fd5b7f4e487b7100000000000000000000000000000000000000000000000000000000600052604160045260246000fd5b6148a280620004486000396000f3fe6080604052600436106101355760003560e01c806382de8fe9116100ab578063c1e037281161006f578063c1e0372814610422578063c87b56dd1461045f578063ddef2b391461049c578063e144c76f146104c5578063e985e9c5146104e1578063f2fde38b1461051e57610135565b806382de8fe91461033d5780638da5cb5b1461037a57806395d89b41146103a5578063a22cb465146103d0578063b88d4fde146103f957610135565b8063340350a0116100fd578063340350a01461023157806342842e0e1461025a5780636352211e1461028357806370a08231146102c0578063715018a6146102fd5780638082d3301461031457610135565b806301ffc9a71461013a57806306fdde0314610177578063081812fc146101a2578063095ea7b3146101df57806323b872dd14610208575b600080fd5b34801561014657600080fd5b50610161600480360381019061015c91906133c0565b610547565b60405161016e9190613fd5565b60405180910390f35b34801561018357600080fd5b5061018c610629565b6040516101999190613ff0565b60405180910390f35b3480156101ae57600080fd5b506101c960048036038101906101c49190613412565b6106bb565b6040516101d69190613f4c565b60405180910390f35b3480156101eb57600080fd5b506102066004803603810190610201919061327a565b610740565b005b34801561021457600080fd5b5061022f600480360381019061022a9190613174565b610858565b005b34801561023d57600080fd5b506102586004803603810190610253919061349e565b6108b8565b005b34801561026657600080fd5b50610281600480360381019061027c9190613174565b610a76565b005b34801561028f57600080fd5b506102aa60048036038101906102a59190613412565b610a96565b6040516102b79190613f4c565b60405180910390f35b3480156102cc57600080fd5b506102e760048036038101906102e2919061310f565b610b48565b6040516102f49190614314565b60405180910390f35b34801561030957600080fd5b50610312610c00565b005b34801561032057600080fd5b5061033b60048036038101906103369190613319565b610c88565b005b34801561034957600080fd5b50610364600480360381019061035f919061310f565b611592565b6040516103719190613fb3565b60405180910390f35b34801561038657600080fd5b5061038f61175a565b60405161039c9190613f4c565b60405180910390f35b3480156103b157600080fd5b506103ba611784565b6040516103c79190613ff0565b60405180910390f35b3480156103dc57600080fd5b506103f760048036038101906103f2919061323e565b611816565b005b34801561040557600080fd5b50610420600480360381019061041b91906131c3565b61182c565b005b34801561042e57600080fd5b5061044960048036038101906104449190613412565b61188e565b60405161045691906142f2565b60405180910390f35b34801561046b57600080fd5b5061048660048036038101906104819190613412565b611a0b565b6040516104939190613ff0565b60405180910390f35b3480156104a857600080fd5b506104c360048036038101906104be919061343b565b611ab2565b005b6104df60048036038101906104da91906132b6565b611c03565b005b3480156104ed57600080fd5b5061050860048036038101906105039190613138565b611fca565b6040516105159190613fd5565b60405180910390f35b34801561052a57600080fd5b506105456004803603810190610540919061310f565b61205e565b005b60007f80ac58cd000000000000000000000000000000000000000000000000000000007bffffffffffffffffffffffffffffffffffffffffffffffffffffffff1916827bffffffffffffffffffffffffffffffffffffffffffffffffffffffff1916148061061257507f5b5e139f000000000000000000000000000000000000000000000000000000007bffffffffffffffffffffffffffffffffffffffffffffffffffffffff1916827bffffffffffffffffffffffffffffffffffffffffffffffffffffffff1916145b80610622575061062182612156565b5b9050919050565b60606000805461063890614680565b80601f016020809104026020016040519081016040528092919081815260200182805461066490614680565b80156106b15780601f10610686576101008083540402835291602001916106b1565b820191906000526020600020905b81548152906001019060200180831161069457829003601f168201915b5050505050905090565b60006106c6826121c0565b610705576040517f08c379a00000000000000000000000000000000000000000000000000000000081526004016106fc90614192565b60405180910390fd5b6004600083815260200190815260200160002060009054906101000a900473ffffffffffffffffffffffffffffffffffffffff169050919050565b600061074b82610a96565b90508073ffffffffffffffffffffffffffffffffffffffff168373ffffffffffffffffffffffffffffffffffffffff1614156107bc576040517f08c379a00000000000000000000000000000000000000000000000000000000081526004016107b390614232565b60405180910390fd5b8073ffffffffffffffffffffffffffffffffffffffff166107db61222c565b73ffffffffffffffffffffffffffffffffffffffff16148061080a57506108098161080461222c565b611fca565b5b610849576040517f08c379a0000000000000000000000000000000000000000000000000000000008152600401610840906140f2565b60405180910390fd5b6108538383612234565b505050565b61086961086361222c565b826122ed565b6108a8576040517f08c379a000000000000000000000000000000000000000000000000000000000815260040161089f906142b2565b60405180910390fd5b6108b38383836123cb565b505050565b6040518061012001604052808360ff168152602001600060ff168152602001600060ff168152602001600060ff168152602001600060ff16815260200182815260200160001515815260200160011515815260200142815250600a6000600754815260200190815260200160002060008201518160000160006101000a81548160ff021916908360ff16021790555060208201518160000160016101000a81548160ff021916908360ff16021790555060408201518160000160026101000a81548160ff021916908360ff16021790555060608201518160000160036101000a81548160ff021916908360ff16021790555060808201518160000160046101000a81548160ff021916908360ff16021790555060a08201518160010190805190602001906109e7929190612e70565b5060c08201518160020160006101000a81548160ff02191690831515021790555060e08201518160020160016101000a81548160ff0219169083151502179055506101008201518160030155905050610a4233600754612627565b60076000815480929190610a55906146b2565b919050555060086000815480929190610a6d906146b2565b91905055505050565b610a918383836040518060200160405280600081525061182c565b505050565b6000806002600084815260200190815260200160002060009054906101000a900473ffffffffffffffffffffffffffffffffffffffff169050600073ffffffffffffffffffffffffffffffffffffffff168173ffffffffffffffffffffffffffffffffffffffff161415610b3f576040517f08c379a0000000000000000000000000000000000000000000000000000000008152600401610b3690614132565b60405180910390fd5b80915050919050565b60008073ffffffffffffffffffffffffffffffffffffffff168273ffffffffffffffffffffffffffffffffffffffff161415610bb9576040517f08c379a0000000000000000000000000000000000000000000000000000000008152600401610bb090614112565b60405180910390fd5b600360008373ffffffffffffffffffffffffffffffffffffffff1673ffffffffffffffffffffffffffffffffffffffff168152602001908152602001600020549050919050565b610c0861222c565b73ffffffffffffffffffffffffffffffffffffffff16610c2661175a565b73ffffffffffffffffffffffffffffffffffffffff1614610c7c576040517f08c379a0000000000000000000000000000000000000000000000000000000008152600401610c73906141b2565b60405180910390fd5b610c866000612645565b565b6000600a60008681526020019081526020016000206003015414158015610cc657506000600a60008381526020019081526020016000206003015414155b610d05576040517f08c379a0000000000000000000000000000000000000000000000000000000008152600401610cfc90614032565b60405180910390fd5b600a600082815260200190815260200160002060000160039054906101000a900460ff1660ff168414158015610d615750600a600082815260200190815260200160002060000160049054906101000a900460ff1660ff168414155b8015610d935750600a600085815260200190815260200160002060000160039054906101000a900460ff1660ff168114155b8015610dc55750600a600085815260200190815260200160002060000160049054906101000a900460ff1660ff168414155b8015610e1d5750600a600082815260200190815260200160002060000160049054906101000a900460ff1660ff16600a600086815260200190815260200160002060000160049054906101000a900460ff1660ff1614155b8015610e755750600a600082815260200190815260200160002060000160039054906101000a900460ff1660ff16600a600086815260200190815260200160002060000160049054906101000a900460ff1660ff1614155b8015610ecd5750600a600082815260200190815260200160002060000160049054906101000a900460ff1660ff16600a600086815260200190815260200160002060000160039054906101000a900460ff1660ff1614155b8015610f255750600a600082815260200190815260200160002060000160039054906101000a900460ff1660ff16600a600086815260200190815260200160002060000160039054906101000a900460ff1660ff1614155b80610fec57506000600a600083815260200190815260200160002060000160039054906101000a900460ff1660ff16148015610f8757506000600a600083815260200190815260200160002060000160049054906101000a900460ff1660ff16145b8015610fb957506000600a600086815260200190815260200160002060000160039054906101000a900460ff1660ff16145b8015610feb57506000600a600086815260200190815260200160002060000160049054906101000a900460ff1660ff16145b5b61102b576040517f08c379a000000000000000000000000000000000000000000000000000000000815260040161102290614292565b60405180910390fd5b83600a600083815260200190815260200160002060000160029054906101000a900460ff1660ff1614801561109357503373ffffffffffffffffffffffffffffffffffffffff1661107b85610a96565b73ffffffffffffffffffffffffffffffffffffffff16145b80156110d257508173ffffffffffffffffffffffffffffffffffffffff166110ba82610a96565b73ffffffffffffffffffffffffffffffffffffffff16145b801561110457506003600a600083815260200190815260200160002060000160019054906101000a900460ff1660ff16105b801561113657506003600a600086815260200190815260200160002060000160019054906101000a900460ff1660ff16105b611175576040517f08c379a000000000000000000000000000000000000000000000000000000000815260040161116c90614272565b60405180910390fd5b604051806101200160405280600a600087815260200190815260200160002060000160009054906101000a900460ff1660ff1681526020016001600a600088815260200190815260200160002060000160019054906101000a900460ff166111dd91906144c7565b60ff168152602001600060ff168152602001600060ff168152602001600060ff16815260200186815260200160001515815260200160011515815260200142815250600a6000600754815260200190815260200160002060008201518160000160006101000a81548160ff021916908360ff16021790555060208201518160000160016101000a81548160ff021916908360ff16021790555060408201518160000160026101000a81548160ff021916908360ff16021790555060608201518160000160036101000a81548160ff021916908360ff16021790555060808201518160000160046101000a81548160ff021916908360ff16021790555060a08201518160010190805190602001906112f5929190612e70565b5060c08201518160020160006101000a81548160ff02191690831515021790555060e08201518160020160016101000a81548160ff021916908315150217905550610100820151816003015590505061135033600754612627565b60076000815480929190611363906146b2565b9190505550604051806101200160405280600a600084815260200190815260200160002060000160009054906101000a900460ff1660ff1681526020016001600a600085815260200190815260200160002060000160019054906101000a900460ff166113d091906144c7565b60ff168152602001600060ff168152602001600060ff168152602001600060ff16815260200184815260200160001515815260200160011515815260200142815250600a6000600754815260200190815260200160002060008201518160000160006101000a81548160ff021916908360ff16021790555060208201518160000160016101000a81548160ff021916908360ff16021790555060408201518160000160026101000a81548160ff021916908360ff16021790555060608201518160000160036101000a81548160ff021916908360ff16021790555060808201518160000160046101000a81548160ff021916908360ff16021790555060a08201518160010190805190602001906114e8929190612e70565b5060c08201518160020160006101000a81548160ff02191690831515021790555060e08201518160020160016101000a81548160ff021916908315150217905550610100820151816003015590505061154382600754612627565b60076000815480929190611556906146b2565b91905055506000600a600083815260200190815260200160002060000160026101000a81548160ff021916908360ff1602179055505050505050565b6060600061159f83610b48565b9050600081141561162257600067ffffffffffffffff8111156115eb577f4e487b7100000000000000000000000000000000000000000000000000000000600052604160045260246000fd5b6040519080825280602002602001820160405280156116195781602001602082028036833780820191505090505b50915050611755565b60008167ffffffffffffffff811115611664577f4e487b7100000000000000000000000000000000000000000000000000000000600052604160045260246000fd5b6040519080825280602002602001820160405280156116925781602001602082028036833780820191505090505b509050600060075490506000805b8281101561174c578673ffffffffffffffffffffffffffffffffffffffff166116c882610a96565b73ffffffffffffffffffffffffffffffffffffffff161415611739578084838151811061171e577f4e487b7100000000000000000000000000000000000000000000000000000000600052603260045260246000fd5b6020026020010181815250508180611735906146b2565b9250505b8080611744906146b2565b9150506116a0565b83955050505050505b919050565b6000600660009054906101000a900473ffffffffffffffffffffffffffffffffffffffff16905090565b60606001805461179390614680565b80601f01602080910402602001604051908101604052809291908181526020018280546117bf90614680565b801561180c5780601f106117e15761010080835404028352916020019161180c565b820191906000526020600020905b8154815290600101906020018083116117ef57829003601f168201915b5050505050905090565b61182861182161222c565b838361270b565b5050565b61183d61183761222c565b836122ed565b61187c576040517f08c379a0000000000000000000000000000000000000000000000000000000008152600401611873906142b2565b60405180910390fd5b61188884848484612878565b50505050565b611896612f17565b600a6000838152602001908152602001600020604051806101200160405290816000820160009054906101000a900460ff1660ff1660ff1681526020016000820160019054906101000a900460ff1660ff1660ff1681526020016000820160029054906101000a900460ff1660ff1660ff1681526020016000820160039054906101000a900460ff1660ff1660ff1681526020016000820160049054906101000a900460ff1660ff1660ff168152602001600182018054806020026020016040519081016040528092919081815260200182805480156119bb57602002820191906000526020600020906000905b82829054906101000a900460ff1660ff16815260200190600101906020826000010492830192600103820291508084116119845790505b505050505081526020016002820160009054906101000a900460ff161515151581526020016002820160019054906101000a900460ff161515151581526020016003820154815250509050919050565b6060611a16826121c0565b611a55576040517f08c379a0000000000000000000000000000000000000000000000000000000008152600401611a4c90614212565b60405180910390fd5b6000611a5f6128d4565b90506000815111611a7f5760405180602001604052806000815250611aaa565b80611a89846128eb565b604051602001611a9a929190613f28565b6040516020818303038152906040525b915050919050565b3373ffffffffffffffffffffffffffffffffffffffff16611ad285610a96565b73ffffffffffffffffffffffffffffffffffffffff1614611b28576040517f08c379a0000000000000000000000000000000000000000000000000000000008152600401611b1f906142d2565b60405180910390fd5b82600a600086815260200190815260200160002060020160006101000a81548160ff021916908315150217905550811515600a600086815260200190815260200160002060020160019054906101000a900460ff16151514611ba05742600a6000868152602001908152602001600020600301819055505b81600a600086815260200190815260200160002060020160016101000a81548160ff02191690831515021790555080600a600086815260200190815260200160002060000160026101000a81548160ff021916908360ff16021790555050505050565b34600954611c119190614471565b6009819055506000600a6000858152602001908152602001600020604051806101200160405290816000820160009054906101000a900460ff1660ff1660ff1681526020016000820160019054906101000a900460ff1660ff1660ff1681526020016000820160029054906101000a900460ff1660ff1660ff1681526020016000820160039054906101000a900460ff1660ff1660ff1681526020016000820160049054906101000a900460ff1660ff1660ff16815260200160018201805480602002602001604051908101604052809291908181526020018280548015611d3e57602002820191906000526020600020906000905b82829054906101000a900460ff1660ff1681526020019060010190602082600001049283019260010382029150808411611d075790505b505050505081526020016002820160009054906101000a900460ff161515151581526020016002820160019054906101000a900460ff16151515158152602001600382015481525050905060008314611de75782816000015160ff16611da4919061452f565b341015611de6576040517f08c379a0000000000000000000000000000000000000000000000000000000008152600401611ddd906141f2565b60405180910390fd5b5b81611df25784611df4565b335b73ffffffffffffffffffffffffffffffffffffffff16611e1385610a96565b73ffffffffffffffffffffffffffffffffffffffff161415611e6a576040517f08c379a0000000000000000000000000000000000000000000000000000000008152600401611e6190614152565b60405180910390fd5b600060075490506000805b82811015611f1a5784611e885787611e8a565b335b73ffffffffffffffffffffffffffffffffffffffff16611ea982610a96565b73ffffffffffffffffffffffffffffffffffffffff16148015611ef3575060001515600a600083815260200190815260200160002060020160019054906101000a900460ff161515145b15611f07578180611f03906146b2565b9250505b8080611f12906146b2565b915050611e75565b6001821115611f5e576040517f08c379a0000000000000000000000000000000000000000000000000000000008152600401611f5590614252565b60405180910390fd5b6000600a600083815260200190815260200160002060020160006101000a81548160ff021916908315150217905550611fc085611f9b5733611f9d565b885b86611fa85789611faa565b335b8960405180602001604052806000815250612878565b5050505050505050565b6000600560008473ffffffffffffffffffffffffffffffffffffffff1673ffffffffffffffffffffffffffffffffffffffff16815260200190815260200160002060008373ffffffffffffffffffffffffffffffffffffffff1673ffffffffffffffffffffffffffffffffffffffff16815260200190815260200160002060009054906101000a900460ff16905092915050565b61206661222c565b73ffffffffffffffffffffffffffffffffffffffff1661208461175a565b73ffffffffffffffffffffffffffffffffffffffff16146120da576040517f08c379a00000000000000000000000000000000000000000000000000000000081526004016120d1906141b2565b60405180910390fd5b600073ffffffffffffffffffffffffffffffffffffffff168173ffffffffffffffffffffffffffffffffffffffff16141561214a576040517f08c379a000000000000000000000000000000000000000000000000000000000815260040161214190614052565b60405180910390fd5b61215381612645565b50565b60007f01ffc9a7000000000000000000000000000000000000000000000000000000007bffffffffffffffffffffffffffffffffffffffffffffffffffffffff1916827bffffffffffffffffffffffffffffffffffffffffffffffffffffffff1916149050919050565b60008073ffffffffffffffffffffffffffffffffffffffff166002600084815260200190815260200160002060009054906101000a900473ffffffffffffffffffffffffffffffffffffffff1673ffffffffffffffffffffffffffffffffffffffff1614159050919050565b600033905090565b816004600083815260200190815260200160002060006101000a81548173ffffffffffffffffffffffffffffffffffffffff021916908373ffffffffffffffffffffffffffffffffffffffff160217905550808273ffffffffffffffffffffffffffffffffffffffff166122a783610a96565b73ffffffffffffffffffffffffffffffffffffffff167f8c5be1e5ebec7d5bd14f71427d1e84f3dd0314c0f7b2291e5b200ac8c7c3b92560405160405180910390a45050565b60006122f8826121c0565b612337576040517f08c379a000000000000000000000000000000000000000000000000000000000815260040161232e906140d2565b60405180910390fd5b600061234283610a96565b90508073ffffffffffffffffffffffffffffffffffffffff168473ffffffffffffffffffffffffffffffffffffffff1614806123b157508373ffffffffffffffffffffffffffffffffffffffff16612399846106bb565b73ffffffffffffffffffffffffffffffffffffffff16145b806123c257506123c18185611fca565b5b91505092915050565b8273ffffffffffffffffffffffffffffffffffffffff166123eb82610a96565b73ffffffffffffffffffffffffffffffffffffffff1614612441576040517f08c379a0000000000000000000000000000000000000000000000000000000008152600401612438906141d2565b60405180910390fd5b600073ffffffffffffffffffffffffffffffffffffffff168273ffffffffffffffffffffffffffffffffffffffff1614156124b1576040517f08c379a00000000000000000000000000000000000000000000000000000000081526004016124a890614092565b60405180910390fd5b6124bc838383612a98565b6124c7600082612234565b6001600360008573ffffffffffffffffffffffffffffffffffffffff1673ffffffffffffffffffffffffffffffffffffffff16815260200190815260200160002060008282546125179190614589565b925050819055506001600360008473ffffffffffffffffffffffffffffffffffffffff1673ffffffffffffffffffffffffffffffffffffffff168152602001908152602001600020600082825461256e9190614471565b92505081905550816002600083815260200190815260200160002060006101000a81548173ffffffffffffffffffffffffffffffffffffffff021916908373ffffffffffffffffffffffffffffffffffffffff160217905550808273ffffffffffffffffffffffffffffffffffffffff168473ffffffffffffffffffffffffffffffffffffffff167fddf252ad1be2c89b69c2b068fc378daa952ba7f163c4a11628f55a4df523b3ef60405160405180910390a4505050565b612641828260405180602001604052806000815250612a9d565b5050565b6000600660009054906101000a900473ffffffffffffffffffffffffffffffffffffffff16905081600660006101000a81548173ffffffffffffffffffffffffffffffffffffffff021916908373ffffffffffffffffffffffffffffffffffffffff1602179055508173ffffffffffffffffffffffffffffffffffffffff168173ffffffffffffffffffffffffffffffffffffffff167f8be0079c531659141344cd1fd0a4f28419497f9722a3daafe3b4186f6b6457e060405160405180910390a35050565b8173ffffffffffffffffffffffffffffffffffffffff168373ffffffffffffffffffffffffffffffffffffffff16141561277a576040517f08c379a0000000000000000000000000000000000000000000000000000000008152600401612771906140b2565b60405180910390fd5b80600560008573ffffffffffffffffffffffffffffffffffffffff1673ffffffffffffffffffffffffffffffffffffffff16815260200190815260200160002060008473ffffffffffffffffffffffffffffffffffffffff1673ffffffffffffffffffffffffffffffffffffffff16815260200190815260200160002060006101000a81548160ff0219169083151502179055508173ffffffffffffffffffffffffffffffffffffffff168373ffffffffffffffffffffffffffffffffffffffff167f17307eab39ab6107e8899845ad3d59bd9653f200f220920489ca2b5937696c318360405161286b9190613fd5565b60405180910390a3505050565b6128838484846123cb565b61288f84848484612af8565b6128ce576040517f08c379a00000000000000000000000000000000000000000000000000000000081526004016128c590614012565b60405180910390fd5b50505050565b606060405180602001604052806000815250905090565b60606000821415612933576040518060400160405280600181526020017f30000000000000000000000000000000000000000000000000000000000000008152509050612a93565b600082905060005b6000821461296557808061294e906146b2565b915050600a8261295e91906144fe565b915061293b565b60008167ffffffffffffffff8111156129a7577f4e487b7100000000000000000000000000000000000000000000000000000000600052604160045260246000fd5b6040519080825280601f01601f1916602001820160405280156129d95781602001600182028036833780820191505090505b5090505b60008514612a8c576001826129f29190614589565b9150600a85612a0191906146fb565b6030612a0d9190614471565b60f81b818381518110612a49577f4e487b7100000000000000000000000000000000000000000000000000000000600052603260045260246000fd5b60200101907effffffffffffffffffffffffffffffffffffffffffffffffffffffffffffff1916908160001a905350600a85612a8591906144fe565b94506129dd565b8093505050505b919050565b505050565b612aa78383612c8f565b612ab46000848484612af8565b612af3576040517f08c379a0000000000000000000000000000000000000000000000000000000008152600401612aea90614012565b60405180910390fd5b505050565b6000612b198473ffffffffffffffffffffffffffffffffffffffff16612e5d565b15612c82578373ffffffffffffffffffffffffffffffffffffffff1663150b7a02612b4261222c565b8786866040518563ffffffff1660e01b8152600401612b649493929190613f67565b602060405180830381600087803b158015612b7e57600080fd5b505af1925050508015612baf57506040513d601f19601f82011682018060405250810190612bac91906133e9565b60015b612c32573d8060008114612bdf576040519150601f19603f3d011682016040523d82523d6000602084013e612be4565b606091505b50600081511415612c2a576040517f08c379a0000000000000000000000000000000000000000000000000000000008152600401612c2190614012565b60405180910390fd5b805181602001fd5b63150b7a0260e01b7bffffffffffffffffffffffffffffffffffffffffffffffffffffffff1916817bffffffffffffffffffffffffffffffffffffffffffffffffffffffff191614915050612c87565b600190505b949350505050565b600073ffffffffffffffffffffffffffffffffffffffff168273ffffffffffffffffffffffffffffffffffffffff161415612cff576040517f08c379a0000000000000000000000000000000000000000000000000000000008152600401612cf690614172565b60405180910390fd5b612d08816121c0565b15612d48576040517f08c379a0000000000000000000000000000000000000000000000000000000008152600401612d3f90614072565b60405180910390fd5b612d5460008383612a98565b6001600360008473ffffffffffffffffffffffffffffffffffffffff1673ffffffffffffffffffffffffffffffffffffffff1681526020019081526020016000206000828254612da49190614471565b92505081905550816002600083815260200190815260200160002060006101000a81548173ffffffffffffffffffffffffffffffffffffffff021916908373ffffffffffffffffffffffffffffffffffffffff160217905550808273ffffffffffffffffffffffffffffffffffffffff16600073ffffffffffffffffffffffffffffffffffffffff167fddf252ad1be2c89b69c2b068fc378daa952ba7f163c4a11628f55a4df523b3ef60405160405180910390a45050565b600080823b905060008111915050919050565b82805482825590600052602060002090601f01602090048101928215612f065791602002820160005b83821115612ed757835183826101000a81548160ff021916908360ff1602179055509260200192600101602081600001049283019260010302612e99565b8015612f045782816101000a81549060ff0219169055600101602081600001049283019260010302612ed7565b505b509050612f139190612f76565b5090565b604051806101200160405280600060ff168152602001600060ff168152602001600060ff168152602001600060ff168152602001600060ff16815260200160608152602001600015158152602001600015158152602001600081525090565b5b80821115612f8f576000816000905550600101612f77565b5090565b6000612fa6612fa184614360565b61432f565b90508083825260208201905082856020860282011115612fc557600080fd5b60005b85811015612ff55781612fdb88826130fa565b845260208401935060208301925050600181019050612fc8565b5050509392505050565b600061301261300d8461438c565b61432f565b90508281526020810184848401111561302a57600080fd5b61303584828561463e565b509392505050565b60008135905061304c816147f9565b92915050565b600082601f83011261306357600080fd5b8135613073848260208601612f93565b91505092915050565b60008135905061308b81614810565b92915050565b6000813590506130a081614827565b92915050565b6000815190506130b581614827565b92915050565b600082601f8301126130cc57600080fd5b81356130dc848260208601612fff565b91505092915050565b6000813590506130f48161483e565b92915050565b60008135905061310981614855565b92915050565b60006020828403121561312157600080fd5b600061312f8482850161303d565b91505092915050565b6000806040838503121561314b57600080fd5b60006131598582860161303d565b925050602061316a8582860161303d565b9150509250929050565b60008060006060848603121561318957600080fd5b60006131978682870161303d565b93505060206131a88682870161303d565b92505060406131b9868287016130e5565b9150509250925092565b600080600080608085870312156131d957600080fd5b60006131e78782880161303d565b94505060206131f88782880161303d565b9350506040613209878288016130e5565b925050606085013567ffffffffffffffff81111561322657600080fd5b613232878288016130bb565b91505092959194509250565b6000806040838503121561325157600080fd5b600061325f8582860161303d565b92505060206132708582860161307c565b9150509250929050565b6000806040838503121561328d57600080fd5b600061329b8582860161303d565b92505060206132ac858286016130e5565b9150509250929050565b600080600080608085870312156132cc57600080fd5b60006132da8782880161303d565b94505060206132eb878288016130e5565b93505060406132fc878288016130e5565b925050606061330d8782880161307c565b91505092959194509250565b600080600080600060a0868803121561333157600080fd5b600086013567ffffffffffffffff81111561334b57600080fd5b61335788828901613052565b9550506020613368888289016130e5565b945050604086013567ffffffffffffffff81111561338557600080fd5b61339188828901613052565b93505060606133a28882890161303d565b92505060806133b3888289016130e5565b9150509295509295909350565b6000602082840312156133d257600080fd5b60006133e084828501613091565b91505092915050565b6000602082840312156133fb57600080fd5b6000613409848285016130a6565b91505092915050565b60006020828403121561342457600080fd5b6000613432848285016130e5565b91505092915050565b6000806000806080858703121561345157600080fd5b600061345f878288016130e5565b94505060206134708782880161307c565b93505060406134818782880161307c565b9250506060613492878288016130fa565b91505092959194509250565b600080604083850312156134b157600080fd5b60006134bf858286016130fa565b925050602083013567ffffffffffffffff8111156134dc57600080fd5b6134e885828601613052565b9150509250929050565b60006134fe8383613efb565b60208301905092915050565b60006135168383613f19565b60208301905092915050565b61352b816145bd565b82525050565b600061353c826143dc565b6135468185614422565b9350613551836143bc565b8060005b8381101561358257815161356988826134f2565b975061357483614408565b925050600181019050613555565b5085935050505092915050565b600061359a826143e7565b6135a48185614433565b93506135af836143cc565b8060005b838110156135e05781516135c7888261350a565b97506135d283614415565b9250506001810190506135b3565b5085935050505092915050565b6135f6816145cf565b82525050565b613605816145cf565b82525050565b6000613616826143f2565b6136208185614444565b935061363081856020860161464d565b613639816147e8565b840191505092915050565b600061364f826143fd565b6136598185614455565b935061366981856020860161464d565b613672816147e8565b840191505092915050565b6000613688826143fd565b6136928185614466565b93506136a281856020860161464d565b80840191505092915050565b60006136bb603283614455565b91507f4552433732313a207472616e7366657220746f206e6f6e20455243373231526560008301527f63656976657220696d706c656d656e74657200000000000000000000000000006020830152604082019050919050565b6000613721601083614455565b91507f4d7973746963206e6f74206578697374000000000000000000000000000000006000830152602082019050919050565b6000613761602683614455565b91507f4f776e61626c653a206e6577206f776e657220697320746865207a65726f206160008301527f64647265737300000000000000000000000000000000000000000000000000006020830152604082019050919050565b60006137c7601c83614455565b91507f4552433732313a20746f6b656e20616c7265616479206d696e746564000000006000830152602082019050919050565b6000613807602483614455565b91507f4552433732313a207472616e7366657220746f20746865207a65726f2061646460008301527f72657373000000000000000000000000000000000000000000000000000000006020830152604082019050919050565b600061386d601983614455565b91507f4552433732313a20617070726f766520746f2063616c6c6572000000000000006000830152602082019050919050565b60006138ad602c83614455565b91507f4552433732313a206f70657261746f7220717565727920666f72206e6f6e657860008301527f697374656e7420746f6b656e00000000000000000000000000000000000000006020830152604082019050919050565b6000613913603883614455565b91507f4552433732313a20617070726f76652063616c6c6572206973206e6f74206f7760008301527f6e6572206e6f7220617070726f76656420666f7220616c6c00000000000000006020830152604082019050919050565b6000613979602a83614455565b91507f4552433732313a2062616c616e636520717565727920666f7220746865207a6560008301527f726f2061646472657373000000000000000000000000000000000000000000006020830152604082019050919050565b60006139df602983614455565b91507f4552433732313a206f776e657220717565727920666f72206e6f6e657869737460008301527f656e7420746f6b656e00000000000000000000000000000000000000000000006020830152604082019050919050565b6000613a45600d83614455565b91507f416c7265616479204f776e6564000000000000000000000000000000000000006000830152602082019050919050565b6000613a85602083614455565b91507f4552433732313a206d696e7420746f20746865207a65726f20616464726573736000830152602082019050919050565b6000613ac5602c83614455565b91507f4552433732313a20617070726f76656420717565727920666f72206e6f6e657860008301527f697374656e7420746f6b656e00000000000000000000000000000000000000006020830152604082019050919050565b6000613b2b602083614455565b91507f4f776e61626c653a2063616c6c6572206973206e6f7420746865206f776e65726000830152602082019050919050565b6000613b6b602983614455565b91507f4552433732313a207472616e73666572206f6620746f6b656e2074686174206960008301527f73206e6f74206f776e00000000000000000000000000000000000000000000006020830152604082019050919050565b6000613bd1601783614455565b91507f496e73756666696369656e7420666f6e64732073656e740000000000000000006000830152602082019050919050565b6000613c11602f83614455565b91507f4552433732314d657461646174613a2055524920717565727920666f72206e6f60008301527f6e6578697374656e7420746f6b656e00000000000000000000000000000000006020830152604082019050919050565b6000613c77602183614455565b91507f4552433732313a20617070726f76616c20746f2063757272656e74206f776e6560008301527f72000000000000000000000000000000000000000000000000000000000000006020830152604082019050919050565b6000613cdd601583614455565b91507f416c726561647920686176652061206d797374696300000000000000000000006000830152602082019050919050565b6000613d1d601783614455565b91507f546f6f206d616e7920726570726f647563652074696d650000000000000000006000830152602082019050919050565b6000613d5d601283614455565b91507f506172656e746c7920746f6f20636c6f736500000000000000000000000000006000830152602082019050919050565b6000613d9d603183614455565b91507f4552433732313a207472616e736665722063616c6c6572206973206e6f74206f60008301527f776e6572206e6f7220617070726f7665640000000000000000000000000000006020830152604082019050919050565b6000613e03600f83614455565b91507f4e6f7420596f7572206d797374696300000000000000000000000000000000006000830152602082019050919050565b600061012083016000830151613e4f6000860182613f19565b506020830151613e626020860182613f19565b506040830151613e756040860182613f19565b506060830151613e886060860182613f19565b506080830151613e9b6080860182613f19565b5060a083015184820360a0860152613eb3828261358f565b91505060c0830151613ec860c08601826135ed565b5060e0830151613edb60e08601826135ed565b50610100830151613ef0610100860182613efb565b508091505092915050565b613f0481614627565b82525050565b613f1381614627565b82525050565b613f2281614631565b82525050565b6000613f34828561367d565b9150613f40828461367d565b91508190509392505050565b6000602082019050613f616000830184613522565b92915050565b6000608082019050613f7c6000830187613522565b613f896020830186613522565b613f966040830185613f0a565b8181036060830152613fa8818461360b565b905095945050505050565b60006020820190508181036000830152613fcd8184613531565b905092915050565b6000602082019050613fea60008301846135fc565b92915050565b6000602082019050818103600083015261400a8184613644565b905092915050565b6000602082019050818103600083015261402b816136ae565b9050919050565b6000602082019050818103600083015261404b81613714565b9050919050565b6000602082019050818103600083015261406b81613754565b9050919050565b6000602082019050818103600083015261408b816137ba565b9050919050565b600060208201905081810360008301526140ab816137fa565b9050919050565b600060208201905081810360008301526140cb81613860565b9050919050565b600060208201905081810360008301526140eb816138a0565b9050919050565b6000602082019050818103600083015261410b81613906565b9050919050565b6000602082019050818103600083015261412b8161396c565b9050919050565b6000602082019050818103600083015261414b816139d2565b9050919050565b6000602082019050818103600083015261416b81613a38565b9050919050565b6000602082019050818103600083015261418b81613a78565b9050919050565b600060208201905081810360008301526141ab81613ab8565b9050919050565b600060208201905081810360008301526141cb81613b1e565b9050919050565b600060208201905081810360008301526141eb81613b5e565b9050919050565b6000602082019050818103600083015261420b81613bc4565b9050919050565b6000602082019050818103600083015261422b81613c04565b9050919050565b6000602082019050818103600083015261424b81613c6a565b9050919050565b6000602082019050818103600083015261426b81613cd0565b9050919050565b6000602082019050818103600083015261428b81613d10565b9050919050565b600060208201905081810360008301526142ab81613d50565b9050919050565b600060208201905081810360008301526142cb81613d90565b9050919050565b600060208201905081810360008301526142eb81613df6565b9050919050565b6000602082019050818103600083015261430c8184613e36565b905092915050565b60006020820190506143296000830184613f0a565b92915050565b6000604051905081810181811067ffffffffffffffff82111715614356576143556147b9565b5b8060405250919050565b600067ffffffffffffffff82111561437b5761437a6147b9565b5b602082029050602081019050919050565b600067ffffffffffffffff8211156143a7576143a66147b9565b5b601f19601f8301169050602081019050919050565b6000819050602082019050919050565b6000819050602082019050919050565b600081519050919050565b600081519050919050565b600081519050919050565b600081519050919050565b6000602082019050919050565b6000602082019050919050565b600082825260208201905092915050565b600082825260208201905092915050565b600082825260208201905092915050565b600082825260208201905092915050565b600081905092915050565b600061447c82614627565b915061448783614627565b9250827fffffffffffffffffffffffffffffffffffffffffffffffffffffffffffffffff038211156144bc576144bb61472c565b5b828201905092915050565b60006144d282614631565b91506144dd83614631565b92508260ff038211156144f3576144f261472c565b5b828201905092915050565b600061450982614627565b915061451483614627565b9250826145245761452361475b565b5b828204905092915050565b600061453a82614627565b915061454583614627565b9250817fffffffffffffffffffffffffffffffffffffffffffffffffffffffffffffffff048311821515161561457e5761457d61472c565b5b828202905092915050565b600061459482614627565b915061459f83614627565b9250828210156145b2576145b161472c565b5b828203905092915050565b60006145c882614607565b9050919050565b60008115159050919050565b60007fffffffff0000000000000000000000000000000000000000000000000000000082169050919050565b600073ffffffffffffffffffffffffffffffffffffffff82169050919050565b6000819050919050565b600060ff82169050919050565b82818337600083830152505050565b60005b8381101561466b578082015181840152602081019050614650565b8381111561467a576000848401525b50505050565b6000600282049050600182168061469857607f821691505b602082108114156146ac576146ab61478a565b5b50919050565b60006146bd82614627565b91507fffffffffffffffffffffffffffffffffffffffffffffffffffffffffffffffff8214156146f0576146ef61472c565b5b600182019050919050565b600061470682614627565b915061471183614627565b9250826147215761472061475b565b5b828206905092915050565b7f4e487b7100000000000000000000000000000000000000000000000000000000600052601160045260246000fd5b7f4e487b7100000000000000000000000000000000000000000000000000000000600052601260045260246000fd5b7f4e487b7100000000000000000000000000000000000000000000000000000000600052602260045260246000fd5b7f4e487b7100000000000000000000000000000000000000000000000000000000600052604160045260246000fd5b6000601f19601f8301169050919050565b614802816145bd565b811461480d57600080fd5b50565b614819816145cf565b811461482457600080fd5b50565b614830816145db565b811461483b57600080fd5b50565b61484781614627565b811461485257600080fd5b50565b61485e81614631565b811461486957600080fd5b5056fea26469706673582212201457c6f68809211b03105e6d8fa4e88980b7b8d916fe81a030612ee2f1b2222164736f6c63430008000033",
	"immutableReferences": {},
	"source": "pragma solidity 0.8.0;\r\n\r\nimport '../node_modules/@openzeppelin/contracts/token/ERC721/ERC721.sol';\r\nimport '../node_modules/@openzeppelin/contracts/access/Ownable.sol';\r\n\r\ncontract Token is ERC721, Ownable{\r\n    /**\r\n    Ici on crer l'objet Token avec lequel on remplira des variables\r\n     */\r\n    struct  Mystic {\r\n        uint8 price;\r\n        uint8 numberReproduce;\r\n        uint8 tokenIdReproducable;\r\n        uint8 mother;\r\n        uint8 father;\r\n        uint8[] parts;\r\n        bool inSell;\r\n        bool egg;\r\n        uint256 createdAt;\r\n    }\r\n    \r\n    uint256 nextId = 0;//Le premier Id token et on incrmente a chaque cration\r\n    uint256 nbrMystic = 0;//Le nombre total de token\r\n    uint256 balance = 0;//Le nombre d'eth envoy sur le contrat\r\n\r\n    mapping( uint256 => Mystic ) private _tokenDetails;\r\n\r\n    constructor(string memory name, string memory symbol) ERC721(name, symbol){ }\r\n\r\n    /**\r\n    Fonction de cration de token\r\n     */\r\n    function mint(uint8 price, uint8[] memory parts) public  {//onlyOwner\r\n        _tokenDetails[nextId] = Mystic(price,0,0,0,0,parts,false,true,block.timestamp);\r\n        _safeMint(msg.sender, nextId);\r\n        nextId++;nbrMystic++;\r\n    }\r\n\r\n    /**\r\n    Quand meurs de veillesse ou jeter le burn\r\n     */\r\n    // function burn(uint256 tokenId) public{\r\n    //     _burn(tokenId);\r\n    //     nbrMystic--;\r\n    // }\r\n    \r\n    /*\r\n    faire l'alatoire depuis le front et mttre dans parts one et parts two\r\n    */\r\n    function reproduce( uint8[] memory partsOne, uint256 tokenIdOne, uint8[] memory partsTwo, address senderInvit, uint256 tokenIdTwo) public {\r\n        require(_tokenDetails[tokenIdOne].createdAt != 0 && _tokenDetails[tokenIdTwo].createdAt != 0,\"Mystic not exist\");\r\n        require((tokenIdOne != _tokenDetails[tokenIdTwo].mother && tokenIdOne != _tokenDetails[tokenIdTwo].father && tokenIdTwo != _tokenDetails[tokenIdOne].mother && tokenIdOne != _tokenDetails[tokenIdOne].father && _tokenDetails[tokenIdOne].father != _tokenDetails[tokenIdTwo].father && _tokenDetails[tokenIdOne].father != _tokenDetails[tokenIdTwo].mother && _tokenDetails[tokenIdOne].mother != _tokenDetails[tokenIdTwo].father && _tokenDetails[tokenIdOne].mother != _tokenDetails[tokenIdTwo].mother) || (_tokenDetails[tokenIdTwo].mother == 0 && _tokenDetails[tokenIdTwo].father == 0 && _tokenDetails[tokenIdOne].mother == 0 && _tokenDetails[tokenIdOne].father == 0) ,\"Parently too close\");\r\n        require(_tokenDetails[tokenIdTwo].tokenIdReproducable == tokenIdOne && ownerOf(tokenIdOne) == msg.sender && ownerOf(tokenIdTwo) == senderInvit && _tokenDetails[tokenIdTwo].numberReproduce < 3 && _tokenDetails[tokenIdOne].numberReproduce < 3 ,\"Too many reproduce time\");\r\n        //require(_tokenDetails[tokenIdTwo].createdAt != 0,\"Mystic not exist\");\r\n        \r\n        _tokenDetails[nextId] = Mystic(_tokenDetails[tokenIdOne].price,_tokenDetails[tokenIdOne].numberReproduce+1,0,0,0,partsOne,false,true,block.timestamp);\r\n        _safeMint(msg.sender, nextId);\r\n        nextId++;\r\n\r\n        _tokenDetails[nextId] = Mystic(_tokenDetails[tokenIdTwo].price,_tokenDetails[tokenIdTwo].numberReproduce+1,0,0,0,partsTwo,false,true,block.timestamp);\r\n        _safeMint(senderInvit, nextId);\r\n        nextId++;\r\n        _tokenDetails[tokenIdTwo].tokenIdReproducable = 0;\r\n    }\r\n\r\n    /**\r\n    Rcuprer le token et ces variable grace a son token id\r\n     */\r\n    function getTokenDetails(uint256 tokenId) public view returns (Mystic memory){\r\n        return _tokenDetails[tokenId];\r\n    }\r\n\r\n    function getAllTokensForUser(address user) public view returns (uint256[] memory){\r\n        uint256 tokenCount = balanceOf(user);\r\n        if(tokenCount == 0){\r\n            return new uint256[](0);\r\n        }\r\n        else{\r\n            uint[] memory result = new uint256[](tokenCount);\r\n            uint256 totalMystics = nextId;\r\n            uint256 resultIndex = 0;\r\n            uint256 i;\r\n            for(i = 0; i < totalMystics; i++){\r\n                if(ownerOf(i) == user){\r\n                    result[resultIndex] = i;\r\n                    resultIndex++;\r\n                }\r\n            }\r\n            return result;\r\n        }\r\n    }\r\n\r\n    /*function transfer(address to, uint256 tokenId) public {\r\n        require(_tokenDetails[tokenId].createdAt != 0,\"Mystic not exist\");\r\n        require(ownerOf(tokenId) == msg.sender,\"Not Your mystic\");\r\n        require(ownerOf(tokenId) != to, \"User already owned this mystic\");\r\n        uint256 tokenCount = balanceOf(to);\r\n        if(tokenCount == 0){\r\n            _safeTransfer(msg.sender, to, tokenId, \"\");\r\n        }\r\n        else{\r\n            uint[] memory result = new uint256[](tokenCount);\r\n            uint256 totalMystics = nextId;\r\n            uint256 resultIndex = 0;\r\n            uint256 i;\r\n            for(i = 0; i < totalMystics; i++){\r\n                if(ownerOf(i) == to && _tokenDetails[i].egg == false){\r\n                    resultIndex++;\r\n                }\r\n            }\r\n            require(resultIndex <= 1, \"User already have a mystic\");\r\n            _safeTransfer(msg.sender, to, tokenId, \"\");\r\n        }\r\n    }\r\n\r\n    function purchase(address contactAddr, uint256 tokenId, uint256 amount) external payable {\r\n        balance = balance+msg.value;\r\n        Mystic memory mystic = _tokenDetails[tokenId];\r\n        require(msg.value >= mystic.price * amount, \"insufficient fonds sent\");\r\n        require(ownerOf(tokenId) != msg.sender, \"Already Owned\");\r\n        uint256 tokenCount = balanceOf(msg.sender);\r\n        if(tokenCount == 0){\r\n            _safeTransfer(contactAddr, msg.sender, tokenId, \"\");\r\n        }\r\n        else{\r\n            uint[] memory result = new uint256[](tokenCount);\r\n            uint256 totalMystics = nextId;\r\n            uint256 resultIndex = 0;\r\n            uint256 i;\r\n            for(i = 0; i < totalMystics; i++){\r\n                if(ownerOf(i) == msg.sender && _tokenDetails[i].egg == false){\r\n                    resultIndex++;\r\n                }\r\n            }\r\n            require(resultIndex <= 1, \"Already have a mystic\");\r\n            _safeTransfer(contactAddr, msg.sender, tokenId, \"\");\r\n        }\r\n    }*/\r\n\r\n    /**\r\n    Fonction de transfer ou d'achat d'un token d'un compte user a un autre en passant par metamask, ultra secure\r\n    Et comme tu le vois au dessus, y avais les mmes fonctions sauf que pour l'opti je les ai transformer en une fonction plus lgre\r\n     */\r\n    function purchaseAndTransfer(address contactAddr, uint256 tokenId, uint256 amount,bool purchase) external payable {\r\n        balance = balance+msg.value;\r\n        Mystic memory mystic = _tokenDetails[tokenId];\r\n        if(amount != 0) require(msg.value >= mystic.price * amount, \"Insufficient fonds sent\");\r\n        require(ownerOf(tokenId) != (purchase?msg.sender:contactAddr), \"Already Owned\");\r\n        //uint256 tokenCount = balanceOf((purchase?msg.sender:contactAddr));\r\n        //uint[] memory result = new uint256[](tokenCount);\r\n        uint256 totalMystics = nextId;\r\n        uint256 resultIndex = 0;\r\n        uint256 i;\r\n        for(i = 0; i < totalMystics; i++){\r\n            if(ownerOf(i) == (purchase?msg.sender:contactAddr) && _tokenDetails[i].egg == false){\r\n                resultIndex++;\r\n            }\r\n        }\r\n        require(resultIndex <= 1, \"Already have a mystic\");\r\n        _tokenDetails[i].inSell=false;\r\n        _safeTransfer((purchase?contactAddr:msg.sender), (purchase?msg.sender:contactAddr), tokenId, \"\");\r\n    }\r\n\r\n\r\n    /**\r\n    a c'est pour modifier la variable qui contient le token id avec lequel le joueur veux reproduire son token\r\n    En vrai ont pourrais la bouger dans params ce sera plus leger pour le contrat\r\n     */\r\n    // function addSubInvitation(uint256 tokenId, uint8 tokenIdReproducable, bool add) public {\r\n    //     if(ownerOf(tokenId) == msg.sender) _tokenDetails[tokenId].tokenIdReproducable = (add?tokenIdReproducable:0);\r\n    // }\r\n\r\n    /**\r\n    Modifier les paramtre d'un token en utilisant son id\r\n     */\r\n    function paramsMystic(uint256 tokenId,bool sellable,bool egg, uint8 tokenIdReproducable) public {\r\n        require(ownerOf(tokenId) == msg.sender,\"Not Your mystic\");\r\n        _tokenDetails[tokenId].inSell = sellable;\r\n        if(_tokenDetails[tokenId].egg != egg) _tokenDetails[tokenId].createdAt = block.timestamp;\r\n        _tokenDetails[tokenId].egg = egg;\r\n        _tokenDetails[tokenId].tokenIdReproducable = tokenIdReproducable;\r\n    }\r\n\r\n}",
	"sourcePath": "C:\\laragon\\www\\nftWithFlo\\contracts\\Token.sol",
	"compiler": {
		"name": "solc",
		"version": "0.8.0+commit.c7dfd78e.Emscripten.clang"
	},
	"schemaVersion": "3.4.4",
	"updatedAt": "2022-01-12T10:07:39.171Z",
	"networkType": "ethereum",
	"devdoc": {
		"kind": "dev",
		"methods": {
			"approve(address,uint256)": {
				"details": "See {IERC721-approve}."
			},
			"balanceOf(address)": {
				"details": "See {IERC721-balanceOf}."
			},
			"getApproved(uint256)": {
				"details": "See {IERC721-getApproved}."
			},
			"isApprovedForAll(address,address)": {
				"details": "See {IERC721-isApprovedForAll}."
			},
			"name()": {
				"details": "See {IERC721Metadata-name}."
			},
			"owner()": {
				"details": "Returns the address of the current owner."
			},
			"ownerOf(uint256)": {
				"details": "See {IERC721-ownerOf}."
			},
			"renounceOwnership()": {
				"details": "Leaves the contract without owner. It will not be possible to call `onlyOwner` functions anymore. Can only be called by the current owner. NOTE: Renouncing ownership will leave the contract without an owner, thereby removing any functionality that is only available to the owner."
			},
			"safeTransferFrom(address,address,uint256)": {
				"details": "See {IERC721-safeTransferFrom}."
			},
			"safeTransferFrom(address,address,uint256,bytes)": {
				"details": "See {IERC721-safeTransferFrom}."
			},
			"setApprovalForAll(address,bool)": {
				"details": "See {IERC721-setApprovalForAll}."
			},
			"supportsInterface(bytes4)": {
				"details": "See {IERC165-supportsInterface}."
			},
			"symbol()": {
				"details": "See {IERC721Metadata-symbol}."
			},
			"tokenURI(uint256)": {
				"details": "See {IERC721Metadata-tokenURI}."
			},
			"transferFrom(address,address,uint256)": {
				"details": "See {IERC721-transferFrom}."
			},
			"transferOwnership(address)": {
				"details": "Transfers ownership of the contract to a new account (`newOwner`). Can only be called by the current owner."
			}
		},
		"version": 1
	},
	"userdoc": {
		"kind": "user",
		"methods": {
			"getTokenDetails(uint256)": {
				"notice": "Rcuprer le token et ces variable grace a son token id"
			},
			"mint(uint8,uint8[])": {
				"notice": "Fonction de cration de token"
			},
			"paramsMystic(uint256,bool,bool,uint8)": {
				"notice": "Modifier les paramtre d'un token en utilisant son id"
			},
			"purchaseAndTransfer(address,uint256,uint256,bool)": {
				"notice": "Fonction de transfer ou d'achat d'un token d'un compte user a un autre en passant par metamask, ultra secure Et comme tu le vois au dessus, y avais les mmes fonctions sauf que pour l'opti je les ai transformer en une fonction plus lgre"
			},
			"reproduce(uint8[],uint256,uint8[],address,uint256)": {
				"notice": "Quand meurs de veillesse ou jeter le burn"
			}
		},
		"version": 1
	}
}