{
  "contractName": "DelegateContract",
  "abi": [
    {
      "inputs": [
        {
          "internalType": "address",
          "name": "_addressContract",
          "type": "address"
        }
      ],
      "stateMutability": "nonpayable",
      "type": "constructor"
    },
    {
      "anonymous": false,
      "inputs": [
        {
          "indexed": true,
          "internalType": "address",
          "name": "previousOwner",
          "type": "address"
        },
        {
          "indexed": true,
          "internalType": "address",
          "name": "newOwner",
          "type": "address"
        }
      ],
      "name": "OwnershipTransferred",
      "type": "event"
    },
    {
      "inputs": [],
      "name": "owner",
      "outputs": [
        {
          "internalType": "address",
          "name": "",
          "type": "address"
        }
      ],
      "stateMutability": "view",
      "type": "function",
      "constant": true
    },
    {
      "inputs": [],
      "name": "renounceOwnership",
      "outputs": [],
      "stateMutability": "nonpayable",
      "type": "function"
    },
    {
      "inputs": [
        {
          "internalType": "address",
          "name": "newOwner",
          "type": "address"
        }
      ],
      "name": "transferOwnership",
      "outputs": [],
      "stateMutability": "nonpayable",
      "type": "function"
    },
    {
      "inputs": [
        {
          "internalType": "uint256",
          "name": "price",
          "type": "uint256"
        },
        {
          "internalType": "uint8",
          "name": "typeEgg",
          "type": "uint8"
        }
      ],
      "name": "priceEgg",
      "outputs": [],
      "stateMutability": "nonpayable",
      "type": "function"
    },
    {
      "inputs": [
        {
          "internalType": "uint8",
          "name": "maxNumber",
          "type": "uint8"
        }
      ],
      "name": "random",
      "outputs": [
        {
          "internalType": "uint8",
          "name": "",
          "type": "uint8"
        }
      ],
      "stateMutability": "nonpayable",
      "type": "function"
    },
    {
      "inputs": [
        {
          "internalType": "string",
          "name": "keyParams",
          "type": "string"
        },
        {
          "internalType": "uint256",
          "name": "valueParams",
          "type": "uint256"
        }
      ],
      "name": "setParamsDelegate",
      "outputs": [],
      "stateMutability": "nonpayable",
      "type": "function"
    },
    {
      "inputs": [
        {
          "internalType": "uint8",
          "name": "typeMint",
          "type": "uint8"
        }
      ],
      "name": "mintDelegate",
      "outputs": [],
      "stateMutability": "payable",
      "type": "function",
      "payable": true
    },
    {
      "inputs": [
        {
          "internalType": "uint256",
          "name": "tokenId",
          "type": "uint256"
        },
        {
          "internalType": "bool",
          "name": "sellable",
          "type": "bool"
        },
        {
          "internalType": "bool",
          "name": "egg",
          "type": "bool"
        },
        {
          "internalType": "uint8",
          "name": "tokenIdReproducable",
          "type": "uint8"
        }
      ],
      "name": "paramsMystic",
      "outputs": [],
      "stateMutability": "nonpayable",
      "type": "function"
    },
    {
      "inputs": [
        {
          "internalType": "address",
          "name": "contactAddr",
          "type": "address"
        },
        {
          "internalType": "uint256",
          "name": "tokenId",
          "type": "uint256"
        },
        {
          "internalType": "uint256",
          "name": "amount",
          "type": "uint256"
        },
        {
          "internalType": "bool",
          "name": "purchase",
          "type": "bool"
        }
      ],
      "name": "purchaseAndTransfer",
      "outputs": [],
      "stateMutability": "payable",
      "type": "function",
      "payable": true
    },
    {
      "inputs": [
        {
          "internalType": "uint8[]",
          "name": "partsOne",
          "type": "uint8[]"
        },
        {
          "internalType": "uint256",
          "name": "tokenIdOne",
          "type": "uint256"
        },
        {
          "internalType": "uint8[]",
          "name": "partsTwo",
          "type": "uint8[]"
        },
        {
          "internalType": "address",
          "name": "senderInvit",
          "type": "address"
        },
        {
          "internalType": "uint256",
          "name": "tokenIdTwo",
          "type": "uint256"
        }
      ],
      "name": "reproduce",
      "outputs": [],
      "stateMutability": "nonpayable",
      "type": "function"
    },
    {
      "inputs": [],
      "name": "withdraw",
      "outputs": [],
      "stateMutability": "nonpayable",
      "type": "function"
    },
    {
      "inputs": [
        {
          "internalType": "uint256",
          "name": "amount",
          "type": "uint256"
        }
      ],
      "name": "deposit",
      "outputs": [],
      "stateMutability": "payable",
      "type": "function",
      "payable": true
    },
    {
      "inputs": [],
      "name": "getBalance",
      "outputs": [
        {
          "internalType": "uint256",
          "name": "",
          "type": "uint256"
        }
      ],
      "stateMutability": "view",
      "type": "function",
      "constant": true
    }
  ],
  "bytecode": "0x60806040523480156200001157600080fd5b5060405162004ab738038062004ab783398181016040528101906200003791906200026a565b620000576200004b6200017060201b60201c565b6200017860201b60201c565b80600160006101000a81548173ffffffffffffffffffffffffffffffffffffffff021916908373ffffffffffffffffffffffffffffffffffffffff160217905550600160009054906101000a900473ffffffffffffffffffffffffffffffffffffffff1673ffffffffffffffffffffffffffffffffffffffff1663f26bf0b76040518163ffffffff1660e01b8152600401620000f3906200035d565b60206040518083038186803b1580156200010c57600080fd5b505afa15801562000121573d6000803e3d6000fd5b505050506040513d601f19601f8201168201806040525081019062000147919062000296565b6002604051620001579062000346565b908152602001604051809103902081905550506200040d565b600033905090565b60008060009054906101000a900473ffffffffffffffffffffffffffffffffffffffff169050816000806101000a81548173ffffffffffffffffffffffffffffffffffffffff021916908373ffffffffffffffffffffffffffffffffffffffff1602179055508173ffffffffffffffffffffffffffffffffffffffff168173ffffffffffffffffffffffffffffffffffffffff167f8be0079c531659141344cd1fd0a4f28419497f9722a3daafe3b4186f6b6457e060405160405180910390a35050565b6000815190506200024d81620003d9565b92915050565b6000815190506200026481620003f3565b92915050565b6000602082840312156200027d57600080fd5b60006200028d848285016200023c565b91505092915050565b600060208284031215620002a957600080fd5b6000620002b98482850162000253565b91505092915050565b6000620002d16006836200037f565b91507f6e657874496400000000000000000000000000000000000000000000000000006000830152602082019050919050565b60006200031360068362000390565b91507f6e657874496400000000000000000000000000000000000000000000000000006000830152600682019050919050565b6000620003538262000304565b9150819050919050565b600060208201905081810360008301526200037881620002c2565b9050919050565b600082825260208201905092915050565b600081905092915050565b6000620003a882620003af565b9050919050565b600073ffffffffffffffffffffffffffffffffffffffff82169050919050565b6000819050919050565b620003e4816200039b565b8114620003f057600080fd5b50565b620003fe81620003cf565b81146200040a57600080fd5b50565b61469a806200041d6000396000f3fe6080604052600436106100c25760003560e01c80638da5cb5b1161007f578063ddef2b3911610059578063ddef2b39146101fe578063e0e0e2d314610227578063e144c76f14610264578063f2fde38b14610280576100c2565b80638da5cb5b1461019b578063b5580723146101c6578063b6b55f25146101e2576100c2565b806312065fe0146100c75780633a2ef8fc146100f25780633ccfd60b1461011b5780634ba34b4814610132578063715018a61461015b5780638082d33014610172575b600080fd5b3480156100d357600080fd5b506100dc6102a9565b6040516100e991906141e3565b60405180910390f35b3480156100fe57600080fd5b50610119600480360381019061011491906136b9565b6102b1565b005b34801561012757600080fd5b5061013061034a565b005b34801561013e57600080fd5b50610159600480360381019061015491906137da565b61040f565b005b34801561016757600080fd5b50610170610519565b005b34801561017e57600080fd5b5061019960048036038101906101949190613612565b6105a1565b005b3480156101a757600080fd5b506101b06120f3565b6040516101bd9190613f9e565b60405180910390f35b6101e060048036038101906101db9190613816565b61211c565b005b6101fc60048036038101906101f7919061374e565b612887565b005b34801561020a57600080fd5b5061022560048036038101906102209190613777565b612912565b005b34801561023357600080fd5b5061024e60048036038101906102499190613816565b612b0b565b60405161025b91906141fe565b60405180910390f35b61027e6004803603810190610279919061356e565b612ba3565b005b34801561028c57600080fd5b506102a760048036038101906102a2919061351c565b612fe2565b005b600047905090565b6000600160009054906101000a900473ffffffffffffffffffffffffffffffffffffffff1690508073ffffffffffffffffffffffffffffffffffffffff16633cb1194484846040518363ffffffff1660e01b8152600401610313929190614035565b600060405180830381600087803b15801561032d57600080fd5b505af1158015610341573d6000803e3d6000fd5b50505050505050565b6103526130da565b73ffffffffffffffffffffffffffffffffffffffff166103706120f3565b73ffffffffffffffffffffffffffffffffffffffff16146103c6576040517f08c379a00000000000000000000000000000000000000000000000000000000081526004016103bd906140e5565b60405180910390fd5b3373ffffffffffffffffffffffffffffffffffffffff166108fc479081150290604051600060405180830381858888f1935050505015801561040c573d6000803e3d6000fd5b50565b6104176130da565b73ffffffffffffffffffffffffffffffffffffffff166104356120f3565b73ffffffffffffffffffffffffffffffffffffffff161461048b576040517f08c379a0000000000000000000000000000000000000000000000000000000008152600401610482906140e5565b60405180910390fd5b60018160ff1614156104b9578160026040516104a690613f37565b9081526020016040518091039020819055505b60028160ff1614156104e7578160026040516104d490613ef8565b9081526020016040518091039020819055505b60038160ff1614156105155781600260405161050290613f4c565b9081526020016040518091039020819055505b5050565b6105216130da565b73ffffffffffffffffffffffffffffffffffffffff1661053f6120f3565b73ffffffffffffffffffffffffffffffffffffffff1614610595576040517f08c379a000000000000000000000000000000000000000000000000000000000815260040161058c906140e5565b60405180910390fd5b61059f60006130e2565b565b6000600160009054906101000a900473ffffffffffffffffffffffffffffffffffffffff16905060008173ffffffffffffffffffffffffffffffffffffffff1663c1e03728876040518263ffffffff1660e01b815260040161060391906141e3565b60006040518083038186803b15801561061b57600080fd5b505afa15801561062f573d6000803e3d6000fd5b505050506040513d6000823e3d601f19601f82011682018060405250810190610658919061370d565b905060008273ffffffffffffffffffffffffffffffffffffffff1663c1e03728856040518263ffffffff1660e01b815260040161069591906141e3565b60006040518083038186803b1580156106ad57600080fd5b505afa1580156106c1573d6000803e3d6000fd5b505050506040513d6000823e3d601f19601f820116820180604052508101906106ea919061370d565b90506000826060015160008151811061072c577f4e487b7100000000000000000000000000000000000000000000000000000000600052603260045260246000fd5b60200260200101511415801561078857506000816060015160008151811061077d577f4e487b7100000000000000000000000000000000000000000000000000000000600052603260045260246000fd5b602002602001015114155b6107c7576040517f08c379a00000000000000000000000000000000000000000000000000000000081526004016107be90614065565b60405180910390fd5b8060600151600381518110610805577f4e487b7100000000000000000000000000000000000000000000000000000000600052603260045260246000fd5b6020026020010151871415801561086157508060600151600481518110610855577f4e487b7100000000000000000000000000000000000000000000000000000000600052603260045260246000fd5b60200260200101518714155b80156108b2575081606001516003815181106108a6577f4e487b7100000000000000000000000000000000000000000000000000000000600052603260045260246000fd5b60200260200101518414155b8015610903575081606001516004815181106108f7577f4e487b7100000000000000000000000000000000000000000000000000000000600052603260045260246000fd5b60200260200101518714155b801561099957508060600151600481518110610948577f4e487b7100000000000000000000000000000000000000000000000000000000600052603260045260246000fd5b6020026020010151826060015160048151811061098e577f4e487b7100000000000000000000000000000000000000000000000000000000600052603260045260246000fd5b602002602001015114155b8015610a2f575080606001516003815181106109de577f4e487b7100000000000000000000000000000000000000000000000000000000600052603260045260246000fd5b60200260200101518260600151600481518110610a24577f4e487b7100000000000000000000000000000000000000000000000000000000600052603260045260246000fd5b602002602001015114155b8015610ac557508060600151600481518110610a74577f4e487b7100000000000000000000000000000000000000000000000000000000600052603260045260246000fd5b60200260200101518260600151600381518110610aba577f4e487b7100000000000000000000000000000000000000000000000000000000600052603260045260246000fd5b602002602001015114155b8015610b5b57508060600151600381518110610b0a577f4e487b7100000000000000000000000000000000000000000000000000000000600052603260045260246000fd5b60200260200101518260600151600381518110610b50577f4e487b7100000000000000000000000000000000000000000000000000000000600052603260045260246000fd5b602002602001015114155b80610c9e575060008160600151600381518110610ba1577f4e487b7100000000000000000000000000000000000000000000000000000000600052603260045260246000fd5b6020026020010151148015610bfb575060008160600151600481518110610bf1577f4e487b7100000000000000000000000000000000000000000000000000000000600052603260045260246000fd5b6020026020010151145b8015610c4c575060008260600151600381518110610c42577f4e487b7100000000000000000000000000000000000000000000000000000000600052603260045260246000fd5b6020026020010151145b8015610c9d575060008260600151600481518110610c93577f4e487b7100000000000000000000000000000000000000000000000000000000600052603260045260246000fd5b6020026020010151145b5b610cdd576040517f08c379a0000000000000000000000000000000000000000000000000000000008152600401610cd490614185565b60405180910390fd5b868160600151600281518110610d1c577f4e487b7100000000000000000000000000000000000000000000000000000000600052603260045260246000fd5b6020026020010151148015610de457503373ffffffffffffffffffffffffffffffffffffffff168373ffffffffffffffffffffffffffffffffffffffff166383638710896040518263ffffffff1660e01b8152600401610d7c91906141e3565b60206040518083038186803b158015610d9457600080fd5b505afa158015610da8573d6000803e3d6000fd5b505050506040513d601f19601f82011682018060405250810190610dcc9190613545565b73ffffffffffffffffffffffffffffffffffffffff16145b8015610ea357508473ffffffffffffffffffffffffffffffffffffffff168373ffffffffffffffffffffffffffffffffffffffff166383638710866040518263ffffffff1660e01b8152600401610e3b91906141e3565b60206040518083038186803b158015610e5357600080fd5b505afa158015610e67573d6000803e3d6000fd5b505050506040513d601f19601f82011682018060405250810190610e8b9190613545565b73ffffffffffffffffffffffffffffffffffffffff16145b8015610ef4575060038160600151600581518110610eea577f4e487b7100000000000000000000000000000000000000000000000000000000600052603260045260246000fd5b6020026020010151105b8015610f45575060038260600151600581518110610f3b577f4e487b7100000000000000000000000000000000000000000000000000000000600052603260045260246000fd5b6020026020010151105b610f84576040517f08c379a0000000000000000000000000000000000000000000000000000000008152600401610f7b90614165565b60405180910390fd5b6000600667ffffffffffffffff811115610fc7577f4e487b7100000000000000000000000000000000000000000000000000000000600052604160045260246000fd5b604051908082528060200260200182016040528015610ff55781602001602082028036833780820191505090505b5090506000600a67ffffffffffffffff81111561103b577f4e487b7100000000000000000000000000000000000000000000000000000000600052604160045260246000fd5b6040519080825280602002602001820160405280156110695781602001602082028036833780820191505090505b50905060006110786002612b0b565b60ff16146110cb5782604001516000815181106110be577f4e487b7100000000000000000000000000000000000000000000000000000000600052603260045260246000fd5b6020026020010151611112565b8360400151600081518110611109577f4e487b7100000000000000000000000000000000000000000000000000000000600052603260045260246000fd5b60200260200101515b8260008151811061114c577f4e487b7100000000000000000000000000000000000000000000000000000000600052603260045260246000fd5b602002602001019060ff16908160ff1681525050600061116c6002612b0b565b60ff16146111bf5782604001516001815181106111b2577f4e487b7100000000000000000000000000000000000000000000000000000000600052603260045260246000fd5b6020026020010151611206565b83604001516001815181106111fd577f4e487b7100000000000000000000000000000000000000000000000000000000600052603260045260246000fd5b60200260200101515b82600181518110611240577f4e487b7100000000000000000000000000000000000000000000000000000000600052603260045260246000fd5b602002602001019060ff16908160ff168152505060006112606002612b0b565b60ff16146112b35782604001516002815181106112a6577f4e487b7100000000000000000000000000000000000000000000000000000000600052603260045260246000fd5b60200260200101516112fa565b83604001516002815181106112f1577f4e487b7100000000000000000000000000000000000000000000000000000000600052603260045260246000fd5b60200260200101515b82600281518110611334577f4e487b7100000000000000000000000000000000000000000000000000000000600052603260045260246000fd5b602002602001019060ff16908160ff168152505060006113546002612b0b565b60ff16146113a757826040015160038151811061139a577f4e487b7100000000000000000000000000000000000000000000000000000000600052603260045260246000fd5b60200260200101516113ee565b83604001516003815181106113e5577f4e487b7100000000000000000000000000000000000000000000000000000000600052603260045260246000fd5b60200260200101515b82600381518110611428577f4e487b7100000000000000000000000000000000000000000000000000000000600052603260045260246000fd5b602002602001019060ff16908160ff168152505060006114486002612b0b565b60ff161461149b57826040015160048151811061148e577f4e487b7100000000000000000000000000000000000000000000000000000000600052603260045260246000fd5b60200260200101516114e2565b83604001516004815181106114d9577f4e487b7100000000000000000000000000000000000000000000000000000000600052603260045260246000fd5b60200260200101515b8260048151811061151c577f4e487b7100000000000000000000000000000000000000000000000000000000600052603260045260246000fd5b602002602001019060ff16908160ff1681525050600061153c6002612b0b565b60ff161461158f578260400151600581518110611582577f4e487b7100000000000000000000000000000000000000000000000000000000600052603260045260246000fd5b60200260200101516115d6565b83604001516005815181106115cd577f4e487b7100000000000000000000000000000000000000000000000000000000600052603260045260246000fd5b60200260200101515b82600581518110611610577f4e487b7100000000000000000000000000000000000000000000000000000000600052603260045260246000fd5b602002602001019060ff16908160ff1681525050428160008151811061165f577f4e487b7100000000000000000000000000000000000000000000000000000000600052603260045260246000fd5b60200260200101818152505083606001516001815181106116a9577f4e487b7100000000000000000000000000000000000000000000000000000000600052603260045260246000fd5b6020026020010151816001815181106116eb577f4e487b7100000000000000000000000000000000000000000000000000000000600052603260045260246000fd5b602002602001018181525050600081600281518110611733577f4e487b7100000000000000000000000000000000000000000000000000000000600052603260045260246000fd5b602002602001018181525050888160038151811061177a577f4e487b7100000000000000000000000000000000000000000000000000000000600052603260045260246000fd5b60200260200101818152505085816004815181106117c1577f4e487b7100000000000000000000000000000000000000000000000000000000600052603260045260246000fd5b602002602001018181525050600081600581518110611809577f4e487b7100000000000000000000000000000000000000000000000000000000600052603260045260246000fd5b6020026020010181815250508473ffffffffffffffffffffffffffffffffffffffff1663ea4edda23384846040518463ffffffff1660e01b815260040161185293929190613ff0565b600060405180830381600087803b15801561186c57600080fd5b505af1158015611880573d6000803e3d6000fd5b50505050600260405161189290613f0d565b908152602001604051809103902060008154809291906118b1906144b5565b919050555060006118c26002612b0b565b60ff1614611915578260400151600081518110611908577f4e487b7100000000000000000000000000000000000000000000000000000000600052603260045260246000fd5b602002602001015161195c565b8360400151600081518110611953577f4e487b7100000000000000000000000000000000000000000000000000000000600052603260045260246000fd5b60200260200101515b82600081518110611996577f4e487b7100000000000000000000000000000000000000000000000000000000600052603260045260246000fd5b602002602001019060ff16908160ff168152505060006119b66002612b0b565b60ff1614611a095782604001516001815181106119fc577f4e487b7100000000000000000000000000000000000000000000000000000000600052603260045260246000fd5b6020026020010151611a50565b8360400151600181518110611a47577f4e487b7100000000000000000000000000000000000000000000000000000000600052603260045260246000fd5b60200260200101515b82600181518110611a8a577f4e487b7100000000000000000000000000000000000000000000000000000000600052603260045260246000fd5b602002602001019060ff16908160ff16815250506000611aaa6002612b0b565b60ff1614611afd578260400151600281518110611af0577f4e487b7100000000000000000000000000000000000000000000000000000000600052603260045260246000fd5b6020026020010151611b44565b8360400151600281518110611b3b577f4e487b7100000000000000000000000000000000000000000000000000000000600052603260045260246000fd5b60200260200101515b82600281518110611b7e577f4e487b7100000000000000000000000000000000000000000000000000000000600052603260045260246000fd5b602002602001019060ff16908160ff16815250506000611b9e6002612b0b565b60ff1614611bf1578260400151600381518110611be4577f4e487b7100000000000000000000000000000000000000000000000000000000600052603260045260246000fd5b6020026020010151611c38565b8360400151600381518110611c2f577f4e487b7100000000000000000000000000000000000000000000000000000000600052603260045260246000fd5b60200260200101515b82600381518110611c72577f4e487b7100000000000000000000000000000000000000000000000000000000600052603260045260246000fd5b602002602001019060ff16908160ff16815250506000611c926002612b0b565b60ff1614611ce5578260400151600481518110611cd8577f4e487b7100000000000000000000000000000000000000000000000000000000600052603260045260246000fd5b6020026020010151611d2c565b8360400151600481518110611d23577f4e487b7100000000000000000000000000000000000000000000000000000000600052603260045260246000fd5b60200260200101515b82600481518110611d66577f4e487b7100000000000000000000000000000000000000000000000000000000600052603260045260246000fd5b602002602001019060ff16908160ff16815250506000611d866002612b0b565b60ff1614611dd9578260400151600581518110611dcc577f4e487b7100000000000000000000000000000000000000000000000000000000600052603260045260246000fd5b6020026020010151611e20565b8360400151600581518110611e17577f4e487b7100000000000000000000000000000000000000000000000000000000600052603260045260246000fd5b60200260200101515b82600581518110611e5a577f4e487b7100000000000000000000000000000000000000000000000000000000600052603260045260246000fd5b602002602001019060ff16908160ff16815250508473ffffffffffffffffffffffffffffffffffffffff1663ea4edda28884846040518463ffffffff1660e01b8152600401611eab93929190613ff0565b600060405180830381600087803b158015611ec557600080fd5b505af1158015611ed9573d6000803e3d6000fd5b505050506002604051611eeb90613f0d565b90815260200160405180910390206000815480929190611f0a906144b5565b91905055508360600151600581518110611f4d577f4e487b7100000000000000000000000000000000000000000000000000000000600052603260045260246000fd5b602002602001018051809190611f62906144b5565b815250508260600151600581518110611fa4577f4e487b7100000000000000000000000000000000000000000000000000000000600052603260045260246000fd5b602002602001018051809190611fb9906144b5565b8152505060008360600151600181518110611ffd577f4e487b7100000000000000000000000000000000000000000000000000000000600052603260045260246000fd5b6020026020010181815250508473ffffffffffffffffffffffffffffffffffffffff16635105d171858b336040518463ffffffff1660e01b8152600401612046939291906141a5565b600060405180830381600087803b15801561206057600080fd5b505af1158015612074573d6000803e3d6000fd5b505050508473ffffffffffffffffffffffffffffffffffffffff16635105d17184888a6040518463ffffffff1660e01b81526004016120b5939291906141a5565b600060405180830381600087803b1580156120cf57600080fd5b505af11580156120e3573d6000803e3d6000fd5b5050505050505050505050505050565b60008060009054906101000a900473ffffffffffffffffffffffffffffffffffffffff16905090565b600060018260ff161480612133575060028260ff16145b80612141575060038260ff16145b612180576040517f08c379a0000000000000000000000000000000000000000000000000000000008152600401612177906140a5565b60405180910390fd5b60018260ff1614156121f057600260405161219a90613f37565b9081526020016040518091039020543410156121eb576040517f08c379a00000000000000000000000000000000000000000000000000000000081526004016121e290614105565b60405180910390fd5b600890505b60028260ff16141561226057600260405161220a90613ef8565b90815260200160405180910390205434101561225b576040517f08c379a000000000000000000000000000000000000000000000000000000000815260040161225290614105565b60405180910390fd5b600490505b60038260ff1614156122d057600260405161227a90613f4c565b9081526020016040518091039020543410156122cb576040517f08c379a00000000000000000000000000000000000000000000000000000000081526004016122c290614105565b60405180910390fd5b600090505b6000600667ffffffffffffffff811115612313577f4e487b7100000000000000000000000000000000000000000000000000000000600052604160045260246000fd5b6040519080825280602002602001820160405280156123415781602001602082028036833780820191505090505b5090506000600a67ffffffffffffffff811115612387577f4e487b7100000000000000000000000000000000000000000000000000000000600052604160045260246000fd5b6040519080825280602002602001820160405280156123b55781602001602082028036833780820191505090505b509050826123c36004612b0b565b6123cd919061438d565b82600081518110612407577f4e487b7100000000000000000000000000000000000000000000000000000000600052603260045260246000fd5b602002602001019060ff16908160ff1681525050826124266004612b0b565b612430919061438d565b8260018151811061246a577f4e487b7100000000000000000000000000000000000000000000000000000000600052603260045260246000fd5b602002602001019060ff16908160ff1681525050826124896004612b0b565b612493919061438d565b826002815181106124cd577f4e487b7100000000000000000000000000000000000000000000000000000000600052603260045260246000fd5b602002602001019060ff16908160ff1681525050826124ec6004612b0b565b6124f6919061438d565b82600381518110612530577f4e487b7100000000000000000000000000000000000000000000000000000000600052603260045260246000fd5b602002602001019060ff16908160ff16815250508261254f6004612b0b565b612559919061438d565b82600481518110612593577f4e487b7100000000000000000000000000000000000000000000000000000000600052603260045260246000fd5b602002602001019060ff16908160ff1681525050826125b26004612b0b565b6125bc919061438d565b826005815181106125f6577f4e487b7100000000000000000000000000000000000000000000000000000000600052603260045260246000fd5b602002602001019060ff16908160ff16815250504281600081518110612645577f4e487b7100000000000000000000000000000000000000000000000000000000600052603260045260246000fd5b602002602001018181525050348160018151811061268c577f4e487b7100000000000000000000000000000000000000000000000000000000600052603260045260246000fd5b6020026020010181815250506000816002815181106126d4577f4e487b7100000000000000000000000000000000000000000000000000000000600052603260045260246000fd5b60200260200101818152505060008160038151811061271c577f4e487b7100000000000000000000000000000000000000000000000000000000600052603260045260246000fd5b602002602001018181525050600081600481518110612764577f4e487b7100000000000000000000000000000000000000000000000000000000600052603260045260246000fd5b6020026020010181815250506000816005815181106127ac577f4e487b7100000000000000000000000000000000000000000000000000000000600052603260045260246000fd5b60200260200101818152505060026040516127c690613f0d565b908152602001604051809103902060008154809291906127e5906144b5565b91905055506000600160009054906101000a900473ffffffffffffffffffffffffffffffffffffffff1690508073ffffffffffffffffffffffffffffffffffffffff1663ea4edda23385856040518463ffffffff1660e01b815260040161284e93929190613ff0565b600060405180830381600087803b15801561286857600080fd5b505af115801561287c573d6000803e3d6000fd5b505050505050505050565b61288f6130da565b73ffffffffffffffffffffffffffffffffffffffff166128ad6120f3565b73ffffffffffffffffffffffffffffffffffffffff1614612903576040517f08c379a00000000000000000000000000000000000000000000000000000000081526004016128fa906140e5565b60405180910390fd5b80341461290f57600080fd5b50565b6000600160009054906101000a900473ffffffffffffffffffffffffffffffffffffffff16905060008173ffffffffffffffffffffffffffffffffffffffff1663c1e03728876040518263ffffffff1660e01b815260040161297491906141e3565b60006040518083038186803b15801561298c57600080fd5b505afa1580156129a0573d6000803e3d6000fd5b505050506040513d6000823e3d601f19601f820116820180604052508101906129c9919061370d565b9050848160000190151590811515815250508315158160200151151514612a3657428160600151600081518110612a29577f4e487b7100000000000000000000000000000000000000000000000000000000600052603260045260246000fd5b6020026020010181815250505b838160200190151590811515815250508260ff168160600151600181518110612a88577f4e487b7100000000000000000000000000000000000000000000000000000000600052603260045260246000fd5b6020026020010181815250508173ffffffffffffffffffffffffffffffffffffffff16635105d1718288336040518463ffffffff1660e01b8152600401612ad1939291906141a5565b600060405180830381600087803b158015612aeb57600080fd5b505af1158015612aff573d6000803e3d6000fd5b50505050505050505050565b6000808260ff1642336002604051612b2290613f22565b908152602001604051809103902054604051602001612b4393929190613f61565b6040516020818303038152906040528051906020012060001c612b66919061452c565b90506002604051612b7690613f22565b90815260200160405180910390206000815480929190612b95906144b5565b919050555080915050919050565b6000600160009054906101000a900473ffffffffffffffffffffffffffffffffffffffff16905060008173ffffffffffffffffffffffffffffffffffffffff1663c1e03728866040518263ffffffff1660e01b8152600401612c0591906141e3565b60006040518083038186803b158015612c1d57600080fd5b505afa158015612c31573d6000803e3d6000fd5b505050506040513d6000823e3d601f19601f82011682018060405250810190612c5a919061370d565b905060008414612cf857838160600151600181518110612ca3577f4e487b7100000000000000000000000000000000000000000000000000000000600052603260045260246000fd5b6020026020010151612cb591906143c4565b341015612cf7576040517f08c379a0000000000000000000000000000000000000000000000000000000008152600401612cee90614125565b60405180910390fd5b5b82612d035785612d05565b335b73ffffffffffffffffffffffffffffffffffffffff168273ffffffffffffffffffffffffffffffffffffffff166383638710876040518263ffffffff1660e01b8152600401612d5491906141e3565b60206040518083038186803b158015612d6c57600080fd5b505afa158015612d80573d6000803e3d6000fd5b505050506040513d601f19601f82011682018060405250810190612da49190613545565b73ffffffffffffffffffffffffffffffffffffffff161415612dfb576040517f08c379a0000000000000000000000000000000000000000000000000000000008152600401612df2906140c5565b60405180910390fd5b60008273ffffffffffffffffffffffffffffffffffffffff166382de8fe9336040518263ffffffff1660e01b8152600401612e369190613f9e565b60006040518083038186803b158015612e4e57600080fd5b505afa158015612e62573d6000803e3d6000fd5b505050506040513d6000823e3d601f19601f82011682018060405250810190612e8b91906135d1565b9050600181511115612ed2576040517f08c379a0000000000000000000000000000000000000000000000000000000008152600401612ec990614145565b60405180910390fd5b60008260000190151590811515815250508273ffffffffffffffffffffffffffffffffffffffff16635105d1718388336040518463ffffffff1660e01b8152600401612f20939291906141a5565b600060405180830381600087803b158015612f3a57600080fd5b505af1158015612f4e573d6000803e3d6000fd5b505050508273ffffffffffffffffffffffffffffffffffffffff1663beabacc885612f795733612f7b565b885b86612f865789612f88565b335b896040518463ffffffff1660e01b8152600401612fa793929190613fb9565b600060405180830381600087803b158015612fc157600080fd5b505af1158015612fd5573d6000803e3d6000fd5b5050505050505050505050565b612fea6130da565b73ffffffffffffffffffffffffffffffffffffffff166130086120f3565b73ffffffffffffffffffffffffffffffffffffffff161461305e576040517f08c379a0000000000000000000000000000000000000000000000000000000008152600401613055906140e5565b60405180910390fd5b600073ffffffffffffffffffffffffffffffffffffffff168173ffffffffffffffffffffffffffffffffffffffff1614156130ce576040517f08c379a00000000000000000000000000000000000000000000000000000000081526004016130c590614085565b60405180910390fd5b6130d7816130e2565b50565b600033905090565b60008060009054906101000a900473ffffffffffffffffffffffffffffffffffffffff169050816000806101000a81548173ffffffffffffffffffffffffffffffffffffffff021916908373ffffffffffffffffffffffffffffffffffffffff1602179055508173ffffffffffffffffffffffffffffffffffffffff168173ffffffffffffffffffffffffffffffffffffffff167f8be0079c531659141344cd1fd0a4f28419497f9722a3daafe3b4186f6b6457e060405160405180910390a35050565b60006131b96131b48461424a565b614219565b905080838252602082019050828560208602820111156131d857600080fd5b60005b8581101561320857816131ee88826134dd565b8452602084019350602083019250506001810190506131db565b5050509392505050565b600061322561322084614276565b614219565b9050808382526020820190508285602086028201111561324457600080fd5b60005b85811015613274578161325a88826134f2565b845260208401935060208301925050600181019050613247565b5050509392505050565b600061329161328c84614276565b614219565b905080838252602082019050828560208602820111156132b057600080fd5b60005b858110156132e057816132c68882613507565b8452602084019350602083019250506001810190506132b3565b5050509392505050565b60006132fd6132f8846142a2565b614219565b90508281526020810184848401111561331557600080fd5b613320848285614473565b509392505050565b60008135905061333781614608565b92915050565b60008151905061334c81614608565b92915050565b600082601f83011261336357600080fd5b81516133738482602086016131a6565b91505092915050565b600082601f83011261338d57600080fd5b813561339d848260208601613212565b91505092915050565b600082601f8301126133b757600080fd5b81516133c784826020860161327e565b91505092915050565b6000813590506133df8161461f565b92915050565b6000815190506133f48161461f565b92915050565b600082601f83011261340b57600080fd5b813561341b8482602086016132ea565b91505092915050565b60006080828403121561343657600080fd5b6134406080614219565b90506000613450848285016133e5565b6000830152506020613464848285016133e5565b602083015250604082015167ffffffffffffffff81111561348457600080fd5b613490848285016133a6565b604083015250606082015167ffffffffffffffff8111156134b057600080fd5b6134bc84828501613352565b60608301525092915050565b6000813590506134d781614636565b92915050565b6000815190506134ec81614636565b92915050565b6000813590506135018161464d565b92915050565b6000815190506135168161464d565b92915050565b60006020828403121561352e57600080fd5b600061353c84828501613328565b91505092915050565b60006020828403121561355757600080fd5b60006135658482850161333d565b91505092915050565b6000806000806080858703121561358457600080fd5b600061359287828801613328565b94505060206135a3878288016134c8565b93505060406135b4878288016134c8565b92505060606135c5878288016133d0565b91505092959194509250565b6000602082840312156135e357600080fd5b600082015167ffffffffffffffff8111156135fd57600080fd5b61360984828501613352565b91505092915050565b600080600080600060a0868803121561362a57600080fd5b600086013567ffffffffffffffff81111561364457600080fd5b6136508882890161337c565b9550506020613661888289016134c8565b945050604086013567ffffffffffffffff81111561367e57600080fd5b61368a8882890161337c565b935050606061369b88828901613328565b92505060806136ac888289016134c8565b9150509295509295909350565b600080604083850312156136cc57600080fd5b600083013567ffffffffffffffff8111156136e657600080fd5b6136f2858286016133fa565b9250506020613703858286016134c8565b9150509250929050565b60006020828403121561371f57600080fd5b600082015167ffffffffffffffff81111561373957600080fd5b61374584828501613424565b91505092915050565b60006020828403121561376057600080fd5b600061376e848285016134c8565b91505092915050565b6000806000806080858703121561378d57600080fd5b600061379b878288016134c8565b94505060206137ac878288016133d0565b93505060406137bd878288016133d0565b92505060606137ce878288016134f2565b91505092959194509250565b600080604083850312156137ed57600080fd5b60006137fb858286016134c8565b925050602061380c858286016134f2565b9150509250929050565b60006020828403121561382857600080fd5b6000613836848285016134f2565b91505092915050565b600061384b8383613ea5565b60208301905092915050565b60006138638383613eda565b60208301905092915050565b6138788161441e565b82525050565b61388f61388a8261441e565b6144fe565b82525050565b60006138a0826142f2565b6138aa818561432d565b93506138b5836142d2565b8060005b838110156138e65781516138cd888261383f565b97506138d883614313565b9250506001810190506138b9565b5085935050505092915050565b60006138fe826142f2565b613908818561433e565b9350613913836142d2565b8060005b8381101561394457815161392b888261383f565b975061393683614313565b925050600181019050613917565b5085935050505092915050565b600061395c826142fd565b613966818561434f565b9350613971836142e2565b8060005b838110156139a25781516139898882613857565b975061399483614320565b925050600181019050613975565b5085935050505092915050565b60006139ba826142fd565b6139c48185614360565b93506139cf836142e2565b8060005b83811015613a005781516139e78882613857565b97506139f283614320565b9250506001810190506139d3565b5085935050505092915050565b613a1681614430565b82525050565b6000613a2782614308565b613a318185614371565b9350613a41818560208601614482565b613a4a816145ea565b840191505092915050565b6000613a62601083614371565b91507f4d7973746963206e6f74206578697374000000000000000000000000000000006000830152602082019050919050565b6000613aa2602683614371565b91507f4f776e61626c653a206e6577206f776e657220697320746865207a65726f206160008301527f64647265737300000000000000000000000000000000000000000000000000006020830152604082019050919050565b6000613b08600b83614382565b91507f707269636545676754776f0000000000000000000000000000000000000000006000830152600b82019050919050565b6000613b48600683614382565b91507f6e657874496400000000000000000000000000000000000000000000000000006000830152600682019050919050565b6000613b88600d83614371565b91507f54797065206e6f7420676f6f64000000000000000000000000000000000000006000830152602082019050919050565b6000613bc8600583614382565b91507f6e6f6e63650000000000000000000000000000000000000000000000000000006000830152600582019050919050565b6000613c08600d83614371565b91507f416c7265616479204f776e6564000000000000000000000000000000000000006000830152602082019050919050565b6000613c48600b83614382565b91507f70726963654567674f6e650000000000000000000000000000000000000000006000830152600b82019050919050565b6000613c88602083614371565b91507f4f776e61626c653a2063616c6c6572206973206e6f7420746865206f776e65726000830152602082019050919050565b6000613cc8601183614371565b91507f4d6f7265204554482072657175697265640000000000000000000000000000006000830152602082019050919050565b6000613d08601783614371565b91507f496e73756666696369656e7420666f6e64732073656e740000000000000000006000830152602082019050919050565b6000613d48601583614371565b91507f416c726561647920686176652061206d797374696300000000000000000000006000830152602082019050919050565b6000613d88600d83614382565b91507f70726963654567675468726565000000000000000000000000000000000000006000830152600d82019050919050565b6000613dc8601783614371565b91507f546f6f206d616e7920726570726f647563652074696d650000000000000000006000830152602082019050919050565b6000613e08601283614371565b91507f506172656e746c7920746f6f20636c6f736500000000000000000000000000006000830152602082019050919050565b6000608083016000830151613e536000860182613a0d565b506020830151613e666020860182613a0d565b5060408301518482036040860152613e7e8282613951565b91505060608301518482036060860152613e988282613895565b9150508091505092915050565b613eae8161445c565b82525050565b613ebd8161445c565b82525050565b613ed4613ecf8261445c565b614522565b82525050565b613ee381614466565b82525050565b613ef281614466565b82525050565b6000613f0382613afb565b9150819050919050565b6000613f1882613b3b565b9150819050919050565b6000613f2d82613bbb565b9150819050919050565b6000613f4282613c3b565b9150819050919050565b6000613f5782613d7b565b9150819050919050565b6000613f6d8286613ec3565b602082019150613f7d828561387e565b601482019150613f8d8284613ec3565b602082019150819050949350505050565b6000602082019050613fb3600083018461386f565b92915050565b6000606082019050613fce600083018661386f565b613fdb602083018561386f565b613fe86040830184613eb4565b949350505050565b6000606082019050614005600083018661386f565b818103602083015261401781856139af565b9050818103604083015261402b81846138f3565b9050949350505050565b6000604082019050818103600083015261404f8185613a1c565b905061405e6020830184613eb4565b9392505050565b6000602082019050818103600083015261407e81613a55565b9050919050565b6000602082019050818103600083015261409e81613a95565b9050919050565b600060208201905081810360008301526140be81613b7b565b9050919050565b600060208201905081810360008301526140de81613bfb565b9050919050565b600060208201905081810360008301526140fe81613c7b565b9050919050565b6000602082019050818103600083015261411e81613cbb565b9050919050565b6000602082019050818103600083015261413e81613cfb565b9050919050565b6000602082019050818103600083015261415e81613d3b565b9050919050565b6000602082019050818103600083015261417e81613dbb565b9050919050565b6000602082019050818103600083015261419e81613dfb565b9050919050565b600060608201905081810360008301526141bf8186613e3b565b90506141ce6020830185613eb4565b6141db604083018461386f565b949350505050565b60006020820190506141f86000830184613eb4565b92915050565b60006020820190506142136000830184613ee9565b92915050565b6000604051905081810181811067ffffffffffffffff821117156142405761423f6145bb565b5b8060405250919050565b600067ffffffffffffffff821115614265576142646145bb565b5b602082029050602081019050919050565b600067ffffffffffffffff821115614291576142906145bb565b5b602082029050602081019050919050565b600067ffffffffffffffff8211156142bd576142bc6145bb565b5b601f19601f8301169050602081019050919050565b6000819050602082019050919050565b6000819050602082019050919050565b600081519050919050565b600081519050919050565b600081519050919050565b6000602082019050919050565b6000602082019050919050565b600082825260208201905092915050565b600082825260208201905092915050565b600082825260208201905092915050565b600082825260208201905092915050565b600082825260208201905092915050565b600081905092915050565b600061439882614466565b91506143a383614466565b92508260ff038211156143b9576143b861455d565b5b828201905092915050565b60006143cf8261445c565b91506143da8361445c565b9250817fffffffffffffffffffffffffffffffffffffffffffffffffffffffffffffffff04831182151516156144135761441261455d565b5b828202905092915050565b60006144298261443c565b9050919050565b60008115159050919050565b600073ffffffffffffffffffffffffffffffffffffffff82169050919050565b6000819050919050565b600060ff82169050919050565b82818337600083830152505050565b60005b838110156144a0578082015181840152602081019050614485565b838111156144af576000848401525b50505050565b60006144c08261445c565b91507fffffffffffffffffffffffffffffffffffffffffffffffffffffffffffffffff8214156144f3576144f261455d565b5b600182019050919050565b600061450982614510565b9050919050565b600061451b826145fb565b9050919050565b6000819050919050565b60006145378261445c565b91506145428361445c565b9250826145525761455161458c565b5b828206905092915050565b7f4e487b7100000000000000000000000000000000000000000000000000000000600052601160045260246000fd5b7f4e487b7100000000000000000000000000000000000000000000000000000000600052601260045260246000fd5b7f4e487b7100000000000000000000000000000000000000000000000000000000600052604160045260246000fd5b6000601f19601f8301169050919050565b60008160601b9050919050565b6146118161441e565b811461461c57600080fd5b50565b61462881614430565b811461463357600080fd5b50565b61463f8161445c565b811461464a57600080fd5b50565b61465681614466565b811461466157600080fd5b5056fea264697066735822122065b772f5ef26ef0b5cee337f3f48b0326d556da3aff0e6d517e8e9f07904535764736f6c63430008000033",
  "immutableReferences": {},
  "source": "pragma solidity 0.8.0;\r\n\r\nimport '../node_modules/@openzeppelin/contracts/token/ERC721/ERC721.sol';\r\nimport '../node_modules/@openzeppelin/contracts/access/Ownable.sol';\r\n\r\ncontract DelegateContract is Ownable {\r\n\r\n    constructor(address _addressContract) {\r\n        addressContract = _addressContract;\r\n        paramsContract[\"nextId\"] = TokenDelegable(addressContract).getParamsContract(\"nextId\");\r\n     }\r\n\r\n    address addressContract;\r\n    mapping( string => uint ) paramsContract;\r\n\r\n    function priceEgg(uint256 price, uint8 typeEgg) public onlyOwner {\r\n        if(typeEgg==1) paramsContract[\"priceEggOne\"] = price;\r\n        if(typeEgg==2) paramsContract[\"priceEggTwo\"] = price;\r\n        if(typeEgg==3) paramsContract[\"priceEggThree\"] = price;\r\n    }\r\n\r\n    function random(uint8 maxNumber) public returns (uint8) {\r\n        uint256 randomnumber = uint256(keccak256(abi.encodePacked(block.timestamp, msg.sender, paramsContract[\"nonce\"]))) % maxNumber;\r\n        randomnumber = randomnumber ;\r\n        paramsContract[\"nonce\"]++;\r\n        return uint8(randomnumber);\r\n    }\r\n\r\n    function setParamsDelegate(string memory keyParams, uint256 valueParams ) external {\r\n        TokenDelegable contrat = TokenDelegable(addressContract);\r\n        contrat.setParamsContract(keyParams, valueParams);\r\n    }\r\n\r\n    function mintDelegate(uint8 typeMint) public payable{\r\n\r\n        uint8 bonus = 0;\r\n        require(typeMint == 1 || typeMint == 2 || typeMint == 3,\"Type not good\");\r\n        if(typeMint == 1){require(msg.value >= paramsContract[\"priceEggOne\"],\"More ETH required\");bonus = 8;}\r\n        if(typeMint == 2){require(msg.value >= paramsContract[\"priceEggTwo\"],\"More ETH required\");bonus = 4;}\r\n        if(typeMint == 3){require(msg.value >= paramsContract[\"priceEggThree\"],\"More ETH required\");bonus = 0;}\r\n        uint8[] memory randomParts = new uint8[](6);\r\n        uint256[] memory randomParams = new uint256[](10);\r\n        randomParts[0] = random(4)+bonus;\r\n        randomParts[1] = random(4)+bonus;\r\n        randomParts[2] = random(4)+bonus;\r\n        randomParts[3] = random(4)+bonus;\r\n        randomParts[4] = random(4)+bonus;\r\n        randomParts[5] = random(4)+bonus;\r\n        randomParams[0] = block.timestamp;\r\n        randomParams[1] = msg.value;\r\n        randomParams[2] = 0;//idreproduce\r\n        randomParams[3] = 0;//mother\r\n        randomParams[4] = 0;//father\r\n        randomParams[5] = 0;//nbrreproduce\r\n        //_tokenDetails[nextId] = Mystic(0,0,0,randomParts,false,true,block.timestamp,msg.value,0);\r\n        //_safeMint(msg.sender, nextId);\r\n        paramsContract[\"nextId\"]++;\r\n\r\n        TokenDelegable contrat = TokenDelegable(addressContract);\r\n        contrat.mint(msg.sender, randomParts, randomParams);\r\n    }\r\n\r\n    \r\n    function paramsMystic(uint256 tokenId,bool sellable,bool egg, uint8 tokenIdReproducable) public {\r\n        \r\n        TokenDelegable contrat = TokenDelegable(addressContract);\r\n        TokenDelegable.Mystic memory mysticTemp =  contrat.getTokenDetails(tokenId);\r\n        mysticTemp.inSell = sellable;\r\n        if(mysticTemp.egg != egg) mysticTemp.params256[0] = block.timestamp;\r\n        mysticTemp.egg = egg;\r\n        mysticTemp.params256[1] = tokenIdReproducable;\r\n\r\n        contrat.updateToken(mysticTemp,tokenId,msg.sender);\r\n    }\r\n\r\n    function purchaseAndTransfer(address contactAddr, uint256 tokenId, uint256 amount,bool purchase) external payable {\r\n        TokenDelegable contrat = TokenDelegable(addressContract);\r\n        TokenDelegable.Mystic memory mystic =  contrat.getTokenDetails(tokenId);\r\n        if(amount != 0) require(msg.value >= mystic.params256[1] * amount, \"Insufficient fonds sent\");\r\n        require(contrat.getOwnerOf(tokenId) != (purchase?msg.sender:contactAddr), \"Already Owned\");\r\n        uint256[] memory resultIndex = contrat.getAllTokensForUser(msg.sender);\r\n        require(resultIndex.length <= 1, \"Already have a mystic\");\r\n        mystic.inSell=false;\r\n        contrat.updateToken(mystic,tokenId,msg.sender);\r\n        contrat.transfer((purchase?contactAddr:msg.sender), (purchase?msg.sender:contactAddr), tokenId);\r\n    }\r\n\r\n    \r\n    /*\r\n    faire l'alatoire depuis le front et mttre dans parts one et parts two\r\n    */\r\n    function reproduce( uint8[] memory partsOne, uint256 tokenIdOne, uint8[] memory partsTwo, address senderInvit, uint256 tokenIdTwo) public {\r\n\r\n        TokenDelegable contrat = TokenDelegable(addressContract);\r\n        TokenDelegable.Mystic memory mysticOne =  contrat.getTokenDetails(tokenIdOne);\r\n        TokenDelegable.Mystic memory mysticTwo =  contrat.getTokenDetails(tokenIdTwo);\r\n\r\n        require(mysticOne.params256[0] != 0 && mysticTwo.params256[0] != 0,\"Mystic not exist\");\r\n        require((tokenIdOne != mysticTwo.params256[3] && tokenIdOne != mysticTwo.params256[4] && tokenIdTwo != mysticOne.params256[3] && tokenIdOne != mysticOne.params256[4] && mysticOne.params256[4] != mysticTwo.params256[4] && mysticOne.params256[4] != mysticTwo.params256[3] && mysticOne.params256[3] != mysticTwo.params256[4] && mysticOne.params256[3] != mysticTwo.params256[3]) || (mysticTwo.params256[3] == 0 && mysticTwo.params256[4] == 0 && mysticOne.params256[3] == 0 && mysticOne.params256[4] == 0) ,\"Parently too close\");\r\n        require(mysticTwo.params256[2] == tokenIdOne && contrat.getOwnerOf(tokenIdOne) == msg.sender && contrat.getOwnerOf(tokenIdTwo) == senderInvit && mysticTwo.params256[5] < 3 && mysticOne.params256[5] < 3 ,\"Too many reproduce time\");\r\n\r\n        \r\n        uint8[] memory randomParts = new uint8[](6);\r\n        uint256[] memory randomParams = new uint256[](10);\r\n        randomParts[0] = random(2)==0?mysticOne.params8[0]:mysticTwo.params8[0];\r\n        randomParts[1] = random(2)==0?mysticOne.params8[1]:mysticTwo.params8[1];\r\n        randomParts[2] = random(2)==0?mysticOne.params8[2]:mysticTwo.params8[2];\r\n        randomParts[3] = random(2)==0?mysticOne.params8[3]:mysticTwo.params8[3];\r\n        randomParts[4] = random(2)==0?mysticOne.params8[4]:mysticTwo.params8[4];\r\n        randomParts[5] = random(2)==0?mysticOne.params8[5]:mysticTwo.params8[5];\r\n        randomParams[0] = block.timestamp;\r\n        randomParams[1] = mysticOne.params256[1];\r\n        randomParams[2] = 0;//idreproduce\r\n        randomParams[3] = tokenIdOne;//mother\r\n        randomParams[4] = tokenIdTwo;//father\r\n        randomParams[5] = 0;//nbrreproduce\r\n\r\n        \r\n        contrat.mint(msg.sender, randomParts, randomParams);paramsContract[\"nextId\"]++;\r\n        randomParts[0] = random(2)==0?mysticOne.params8[0]:mysticTwo.params8[0];\r\n        randomParts[1] = random(2)==0?mysticOne.params8[1]:mysticTwo.params8[1];\r\n        randomParts[2] = random(2)==0?mysticOne.params8[2]:mysticTwo.params8[2];\r\n        randomParts[3] = random(2)==0?mysticOne.params8[3]:mysticTwo.params8[3];\r\n        randomParts[4] = random(2)==0?mysticOne.params8[4]:mysticTwo.params8[4];\r\n        randomParts[5] = random(2)==0?mysticOne.params8[5]:mysticTwo.params8[5];\r\n        contrat.mint(senderInvit, randomParts, randomParams);paramsContract[\"nextId\"]++;\r\n        \r\n        mysticOne.params256[5]++;\r\n        mysticTwo.params256[5]++;\r\n        mysticTwo.params256[1] = 0;\r\n        \r\n        contrat.updateToken(mysticOne,tokenIdOne,msg.sender);\r\n        contrat.updateToken(mysticTwo,tokenIdTwo,senderInvit);\r\n    }\r\n\r\n\r\n    /*FUNDS*/\r\n\r\n    function withdraw() public onlyOwner {\r\n        payable(msg.sender).transfer(address(this).balance);\r\n    }\r\n\r\n    function deposit(uint256 amount) payable public onlyOwner {\r\n        require(msg.value == amount);\r\n    }\r\n\r\n    function getBalance() public view returns (uint256)  {\r\n        return address(this).balance;\r\n    }\r\n\r\n}\r\n\r\n\r\n\r\n\r\n\r\n\r\n\r\n\r\n\r\n\r\ncontract TokenDelegable is ERC721, Ownable{\r\n    struct  Mystic {\r\n        bool inSell;\r\n        bool egg;\r\n        uint8[] params8;//parts \r\n        uint256[] params256;//params\r\n    }\r\n\r\n    address adressDelegateContract;\r\n    mapping( string => uint ) paramsContract;\r\n    mapping( uint256 => Mystic ) private _tokenDetails;\r\n\r\n    constructor(string memory name, string memory symbol) ERC721(name, symbol){\r\n        paramsContract[\"nextId\"] = 0;\r\n        paramsContract[\"nbrMystic\"] = 0;\r\n    }\r\n\r\n    modifier byDelegate() {\r\n        require(msg.sender == adressDelegateContract,\"Not good delegate contract\");\r\n        _;\r\n    }\r\n\r\n    function mint(address sender, uint8[] memory params8, uint256[] memory params256) external payable {\r\n        _tokenDetails[paramsContract[\"nextId\"]] = Mystic(false,true,params8,params256);\r\n        _safeMint(sender, paramsContract[\"nextId\"]);\r\n        paramsContract[\"nextId\"]++;\r\n        paramsContract[\"nbrMystic\"]++;\r\n    }\r\n    \r\n    function burn(uint256 tokenId) public byDelegate {\r\n        _burn(tokenId);\r\n        paramsContract[\"nbrMystic\"]--;\r\n    }\r\n\r\n    function transfer(address from, address to ,uint256 tokenId) external byDelegate {\r\n        _safeTransfer(from, to, tokenId, \"\");\r\n    }\r\n\r\n    function getTokenDetails(uint256 tokenId) external view returns (Mystic memory){\r\n        return _tokenDetails[tokenId];\r\n    }\r\n\r\n    function getAllTokensForUser(address user) external view returns (uint256[] memory){\r\n        uint256 tokenCount = balanceOf(user);\r\n        if(tokenCount == 0){\r\n            return new uint256[](0);\r\n        }\r\n        else{\r\n            uint[] memory result = new uint256[](tokenCount);\r\n            uint256 totalMystics = paramsContract[\"nextId\"];\r\n            uint256 resultIndex = 0;\r\n            uint256 i;\r\n            for(i = 0; i < totalMystics; i++){\r\n                if(ownerOf(i) == user){\r\n                    result[resultIndex] = i;\r\n                    resultIndex++;\r\n                }\r\n            }\r\n            return result;\r\n        }\r\n    }\r\n\r\n    function getOwnerOf(uint256 tokenId) external view returns (address) {\r\n        return ownerOf(tokenId);\r\n    }\r\n\r\n    function updateToken(Mystic memory mysticTemp,uint256 tokenId,address owner) external byDelegate {\r\n        require(ownerOf(tokenId) == owner,\"Not Your mystic\");\r\n        _tokenDetails[tokenId] = mysticTemp;\r\n    }\r\n\r\n    function setParamsContract(string memory keyParams, uint valueParams) external onlyOwner {\r\n        paramsContract[keyParams] = valueParams;\r\n    }\r\n\r\n    function getParamsContract(string memory keyParams) external view returns (uint){\r\n        return paramsContract[keyParams];\r\n    }\r\n\r\n    function setAdressDelegateContract(address _adress) external onlyOwner {\r\n        adressDelegateContract = _adress;\r\n    }\r\n\r\n}\r\n\r\n",
  "sourcePath": "C:\\laragon\\www\\nftWithFlo\\contracts\\TokenDelegable.sol",
  "compiler": {
    "name": "solc",
    "version": "0.8.0+commit.c7dfd78e.Emscripten.clang"
  },
  "schemaVersion": "3.4.4",
  "updatedAt": "2022-01-16T17:18:14.904Z",
  "networkType": "ethereum",
  "devdoc": {
    "kind": "dev",
    "methods": {
      "owner()": {
        "details": "Returns the address of the current owner."
      },
      "renounceOwnership()": {
        "details": "Leaves the contract without owner. It will not be possible to call `onlyOwner` functions anymore. Can only be called by the current owner. NOTE: Renouncing ownership will leave the contract without an owner, thereby removing any functionality that is only available to the owner."
      },
      "transferOwnership(address)": {
        "details": "Transfers ownership of the contract to a new account (`newOwner`). Can only be called by the current owner."
      }
    },
    "version": 1
  },
  "userdoc": {
    "kind": "user",
    "methods": {},
    "version": 1
  }
}