{
  "contractName": "DelegateContract",
  "abi": [
    {
      "inputs": [
        {
          "internalType": "address",
          "name": "_addressContract",
          "type": "address"
        }
      ],
      "stateMutability": "nonpayable",
      "type": "constructor"
    },
    {
      "anonymous": false,
      "inputs": [
        {
          "indexed": true,
          "internalType": "address",
          "name": "previousOwner",
          "type": "address"
        },
        {
          "indexed": true,
          "internalType": "address",
          "name": "newOwner",
          "type": "address"
        }
      ],
      "name": "OwnershipTransferred",
      "type": "event"
    },
    {
      "inputs": [],
      "name": "owner",
      "outputs": [
        {
          "internalType": "address",
          "name": "",
          "type": "address"
        }
      ],
      "stateMutability": "view",
      "type": "function",
      "constant": true
    },
    {
      "inputs": [],
      "name": "renounceOwnership",
      "outputs": [],
      "stateMutability": "nonpayable",
      "type": "function"
    },
    {
      "inputs": [
        {
          "internalType": "address",
          "name": "newOwner",
          "type": "address"
        }
      ],
      "name": "transferOwnership",
      "outputs": [],
      "stateMutability": "nonpayable",
      "type": "function"
    },
    {
      "inputs": [
        {
          "internalType": "string",
          "name": "keyParams",
          "type": "string"
        },
        {
          "internalType": "uint256",
          "name": "valueParams",
          "type": "uint256"
        }
      ],
      "name": "setParamsContract",
      "outputs": [],
      "stateMutability": "nonpayable",
      "type": "function"
    },
    {
      "inputs": [
        {
          "internalType": "string",
          "name": "keyParams",
          "type": "string"
        }
      ],
      "name": "getParamsContract",
      "outputs": [
        {
          "internalType": "uint256",
          "name": "",
          "type": "uint256"
        }
      ],
      "stateMutability": "view",
      "type": "function",
      "constant": true
    },
    {
      "inputs": [
        {
          "internalType": "uint8",
          "name": "maxNumber",
          "type": "uint8"
        }
      ],
      "name": "random",
      "outputs": [
        {
          "internalType": "uint8",
          "name": "",
          "type": "uint8"
        }
      ],
      "stateMutability": "nonpayable",
      "type": "function"
    },
    {
      "inputs": [
        {
          "internalType": "string",
          "name": "keyParams",
          "type": "string"
        },
        {
          "internalType": "uint256",
          "name": "valueParams",
          "type": "uint256"
        }
      ],
      "name": "setParamsDelegate",
      "outputs": [],
      "stateMutability": "nonpayable",
      "type": "function"
    },
    {
      "inputs": [
        {
          "internalType": "uint8",
          "name": "typeMint",
          "type": "uint8"
        }
      ],
      "name": "mintDelegate",
      "outputs": [],
      "stateMutability": "payable",
      "type": "function",
      "payable": true
    },
    {
      "inputs": [
        {
          "internalType": "uint256",
          "name": "tokenId",
          "type": "uint256"
        },
        {
          "internalType": "bool",
          "name": "sellable",
          "type": "bool"
        },
        {
          "internalType": "bool",
          "name": "egg",
          "type": "bool"
        },
        {
          "internalType": "uint256",
          "name": "tokenIdReproducable",
          "type": "uint256"
        }
      ],
      "name": "paramsMystic",
      "outputs": [],
      "stateMutability": "nonpayable",
      "type": "function"
    },
    {
      "inputs": [
        {
          "internalType": "address",
          "name": "contactAddr",
          "type": "address"
        },
        {
          "internalType": "uint256",
          "name": "tokenId",
          "type": "uint256"
        }
      ],
      "name": "purchase",
      "outputs": [],
      "stateMutability": "payable",
      "type": "function",
      "payable": true
    },
    {
      "inputs": [
        {
          "internalType": "address",
          "name": "user",
          "type": "address"
        }
      ],
      "name": "getAllTokensForUser",
      "outputs": [
        {
          "internalType": "uint256[]",
          "name": "",
          "type": "uint256[]"
        }
      ],
      "stateMutability": "view",
      "type": "function",
      "constant": true
    },
    {
      "inputs": [
        {
          "internalType": "uint256",
          "name": "tokenId",
          "type": "uint256"
        }
      ],
      "name": "getTokenDetails",
      "outputs": [
        {
          "components": [
            {
              "internalType": "bool",
              "name": "inSell",
              "type": "bool"
            },
            {
              "internalType": "bool",
              "name": "egg",
              "type": "bool"
            },
            {
              "internalType": "uint8[]",
              "name": "params8",
              "type": "uint8[]"
            },
            {
              "internalType": "uint256[]",
              "name": "params256",
              "type": "uint256[]"
            }
          ],
          "internalType": "struct TokenDelegable.Mystic",
          "name": "",
          "type": "tuple"
        }
      ],
      "stateMutability": "view",
      "type": "function",
      "constant": true
    },
    {
      "inputs": [
        {
          "internalType": "uint256",
          "name": "tokenIdOne",
          "type": "uint256"
        },
        {
          "internalType": "address",
          "name": "senderInvit",
          "type": "address"
        },
        {
          "internalType": "uint256",
          "name": "tokenIdTwo",
          "type": "uint256"
        }
      ],
      "name": "reproduce",
      "outputs": [],
      "stateMutability": "nonpayable",
      "type": "function"
    },
    {
      "inputs": [],
      "name": "withdraw",
      "outputs": [],
      "stateMutability": "nonpayable",
      "type": "function"
    },
    {
      "inputs": [
        {
          "internalType": "uint256",
          "name": "amount",
          "type": "uint256"
        }
      ],
      "name": "deposit",
      "outputs": [],
      "stateMutability": "payable",
      "type": "function",
      "payable": true
    },
    {
      "inputs": [],
      "name": "getBalance",
      "outputs": [
        {
          "internalType": "uint256",
          "name": "",
          "type": "uint256"
        }
      ],
      "stateMutability": "view",
      "type": "function",
      "constant": true
    }
  ],
  "bytecode": "0x60806040523480156200001157600080fd5b50604051620052e8380380620052e8833981810160405281019062000037919062000357565b620000576200004b6200025d60201b60201c565b6200026560201b60201c565b80600160006101000a81548173ffffffffffffffffffffffffffffffffffffffff021916908373ffffffffffffffffffffffffffffffffffffffff160217905550600160009054906101000a900473ffffffffffffffffffffffffffffffffffffffff1673ffffffffffffffffffffffffffffffffffffffff1663f26bf0b76040518163ffffffff1660e01b8152600401620000f39062000660565b60206040518083038186803b1580156200010c57600080fd5b505afa15801562000121573d6000803e3d6000fd5b505050506040513d601f19601f8201168201806040525081019062000147919062000383565b6002604051620001579062000604565b90815260200160405180910390208190555067016345785d8a0000600260405162000182906200061b565b90815260200160405180910390208190555066470de4df8200006002604051620001ac90620005ed565b908152602001604051809103902081905550662386f26fc100006002604051620001d69062000632565b90815260200160405180910390208190555060646002604051620001fa90620005d6565b90815260200160405180910390208190555061038460026040516200021f90620005bf565b9081526020016040518091039020819055506123286002604051620002449062000649565b9081526020016040518091039020819055505062000710565b600033905090565b60008060009054906101000a900473ffffffffffffffffffffffffffffffffffffffff169050816000806101000a81548173ffffffffffffffffffffffffffffffffffffffff021916908373ffffffffffffffffffffffffffffffffffffffff1602179055508173ffffffffffffffffffffffffffffffffffffffff168173ffffffffffffffffffffffffffffffffffffffff167f8be0079c531659141344cd1fd0a4f28419497f9722a3daafe3b4186f6b6457e060405160405180910390a35050565b6000815190506200033a81620006dc565b92915050565b6000815190506200035181620006f6565b92915050565b6000602082840312156200036a57600080fd5b60006200037a8482850162000329565b91505092915050565b6000602082840312156200039657600080fd5b6000620003a68482850162000340565b91505092915050565b6000620003be600c8362000693565b91507f65676754776f52656d61696e00000000000000000000000000000000000000006000830152600c82019050919050565b600062000400600c8362000693565b91507f6567674f6e6552656d61696e00000000000000000000000000000000000000006000830152600c82019050919050565b600062000442600b8362000693565b91507f707269636545676754776f0000000000000000000000000000000000000000006000830152600b82019050919050565b60006200048460068362000682565b91507f6e657874496400000000000000000000000000000000000000000000000000006000830152602082019050919050565b6000620004c660068362000693565b91507f6e657874496400000000000000000000000000000000000000000000000000006000830152600682019050919050565b600062000508600b8362000693565b91507f70726963654567674f6e650000000000000000000000000000000000000000006000830152600b82019050919050565b60006200054a600d8362000693565b91507f70726963654567675468726565000000000000000000000000000000000000006000830152600d82019050919050565b60006200058c600e8362000693565b91507f656767546872656552656d61696e0000000000000000000000000000000000006000830152600e82019050919050565b6000620005cc82620003af565b9150819050919050565b6000620005e382620003f1565b9150819050919050565b6000620005fa8262000433565b9150819050919050565b60006200061182620004b7565b9150819050919050565b60006200062882620004f9565b9150819050919050565b60006200063f826200053b565b9150819050919050565b600062000656826200057d565b9150819050919050565b600060208201905081810360008301526200067b8162000475565b9050919050565b600082825260208201905092915050565b600081905092915050565b6000620006ab82620006b2565b9050919050565b600073ffffffffffffffffffffffffffffffffffffffff82169050919050565b6000819050919050565b620006e7816200069e565b8114620006f357600080fd5b50565b6200070181620006d2565b81146200070d57600080fd5b50565b614bc880620007206000396000f3fe6080604052600436106100f35760003560e01c80638de932221161008a578063c1e0372811610059578063c1e03728146102b1578063e0e0e2d3146102ee578063f26bf0b71461032b578063f2fde38b14610368576100f3565b80638de9322214610234578063b06d1d8d14610250578063b558072314610279578063b6b55f2514610295576100f3565b80634c44bea9116100c65780634c44bea91461018c578063715018a6146101b557806382de8fe9146101cc5780638da5cb5b14610209576100f3565b806312065fe0146100f85780633a2ef8fc146101235780633cb119441461014c5780633ccfd60b14610175575b600080fd5b34801561010457600080fd5b5061010d610391565b60405161011a9190614741565b60405180910390f35b34801561012f57600080fd5b5061014a60048036038101906101459190613a19565b610399565b005b34801561015857600080fd5b50610173600480360381019061016e9190613a19565b610432565b005b34801561018157600080fd5b5061018a6104d5565b005b34801561019857600080fd5b506101b360048036038101906101ae9190613ad7565b61059a565b005b3480156101c157600080fd5b506101ca6120ea565b005b3480156101d857600080fd5b506101f360048036038101906101ee9190613909565b612172565b604051610200919061452f565b60405180910390f35b34801561021557600080fd5b5061021e612231565b60405161022b9190614498565b60405180910390f35b61024e6004803603810190610249919061395b565b61225a565b005b34801561025c57600080fd5b5061027760048036038101906102729190613b26565b61265f565b005b610293600480360381019061028e9190613b89565b612855565b005b6102af60048036038101906102aa9190613aae565b613229565b005b3480156102bd57600080fd5b506102d860048036038101906102d39190613aae565b6132b4565b6040516102e591906146e1565b60405180910390f35b3480156102fa57600080fd5b5061031560048036038101906103109190613b89565b613379565b604051610322919061475c565b60405180910390f35b34801561033757600080fd5b50610352600480360381019061034d91906139d8565b613411565b60405161035f9190614741565b60405180910390f35b34801561037457600080fd5b5061038f600480360381019061038a9190613909565b613439565b005b600047905090565b6000600160009054906101000a900473ffffffffffffffffffffffffffffffffffffffff1690508073ffffffffffffffffffffffffffffffffffffffff16633cb1194484846040518363ffffffff1660e01b81526004016103fb929190614551565b600060405180830381600087803b15801561041557600080fd5b505af1158015610429573d6000803e3d6000fd5b50505050505050565b61043a613531565b73ffffffffffffffffffffffffffffffffffffffff16610458612231565b73ffffffffffffffffffffffffffffffffffffffff16146104ae576040517f08c379a00000000000000000000000000000000000000000000000000000000081526004016104a590614621565b60405180910390fd5b806002836040516104bf919061439c565b9081526020016040518091039020819055505050565b6104dd613531565b73ffffffffffffffffffffffffffffffffffffffff166104fb612231565b73ffffffffffffffffffffffffffffffffffffffff1614610551576040517f08c379a000000000000000000000000000000000000000000000000000000000815260040161054890614621565b60405180910390fd5b3373ffffffffffffffffffffffffffffffffffffffff166108fc479081150290604051600060405180830381858888f19350505050158015610597573d6000803e3d6000fd5b50565b6000600160009054906101000a900473ffffffffffffffffffffffffffffffffffffffff16905060008173ffffffffffffffffffffffffffffffffffffffff1663c1e03728866040518263ffffffff1660e01b81526004016105fc9190614741565b60006040518083038186803b15801561061457600080fd5b505afa158015610628573d6000803e3d6000fd5b505050506040513d6000823e3d601f19601f820116820180604052508101906106519190613a6d565b905060008273ffffffffffffffffffffffffffffffffffffffff1663c1e03728856040518263ffffffff1660e01b815260040161068e9190614741565b60006040518083038186803b1580156106a657600080fd5b505afa1580156106ba573d6000803e3d6000fd5b505050506040513d6000823e3d601f19601f820116820180604052508101906106e39190613a6d565b905060008260600151600081518110610725577f4e487b7100000000000000000000000000000000000000000000000000000000600052603260045260246000fd5b602002602001015114158015610781575060008160600151600081518110610776577f4e487b7100000000000000000000000000000000000000000000000000000000600052603260045260246000fd5b602002602001015114155b6107c0576040517f08c379a00000000000000000000000000000000000000000000000000000000081526004016107b790614581565b60405180910390fd5b80606001516003815181106107fe577f4e487b7100000000000000000000000000000000000000000000000000000000600052603260045260246000fd5b6020026020010151861415801561085a5750806060015160048151811061084e577f4e487b7100000000000000000000000000000000000000000000000000000000600052603260045260246000fd5b60200260200101518614155b80156108ab5750816060015160038151811061089f577f4e487b7100000000000000000000000000000000000000000000000000000000600052603260045260246000fd5b60200260200101518414155b80156108fc575081606001516004815181106108f0577f4e487b7100000000000000000000000000000000000000000000000000000000600052603260045260246000fd5b60200260200101518614155b801561099257508060600151600481518110610941577f4e487b7100000000000000000000000000000000000000000000000000000000600052603260045260246000fd5b60200260200101518260600151600481518110610987577f4e487b7100000000000000000000000000000000000000000000000000000000600052603260045260246000fd5b602002602001015114155b8015610a28575080606001516003815181106109d7577f4e487b7100000000000000000000000000000000000000000000000000000000600052603260045260246000fd5b60200260200101518260600151600481518110610a1d577f4e487b7100000000000000000000000000000000000000000000000000000000600052603260045260246000fd5b602002602001015114155b8015610abe57508060600151600481518110610a6d577f4e487b7100000000000000000000000000000000000000000000000000000000600052603260045260246000fd5b60200260200101518260600151600381518110610ab3577f4e487b7100000000000000000000000000000000000000000000000000000000600052603260045260246000fd5b602002602001015114155b8015610b5457508060600151600381518110610b03577f4e487b7100000000000000000000000000000000000000000000000000000000600052603260045260246000fd5b60200260200101518260600151600381518110610b49577f4e487b7100000000000000000000000000000000000000000000000000000000600052603260045260246000fd5b602002602001015114155b80610c97575060008160600151600381518110610b9a577f4e487b7100000000000000000000000000000000000000000000000000000000600052603260045260246000fd5b6020026020010151148015610bf4575060008160600151600481518110610bea577f4e487b7100000000000000000000000000000000000000000000000000000000600052603260045260246000fd5b6020026020010151145b8015610c45575060008260600151600381518110610c3b577f4e487b7100000000000000000000000000000000000000000000000000000000600052603260045260246000fd5b6020026020010151145b8015610c96575060008260600151600481518110610c8c577f4e487b7100000000000000000000000000000000000000000000000000000000600052603260045260246000fd5b6020026020010151145b5b610cd6576040517f08c379a0000000000000000000000000000000000000000000000000000000008152600401610ccd906146c1565b60405180910390fd5b858160600151600281518110610d15577f4e487b7100000000000000000000000000000000000000000000000000000000600052603260045260246000fd5b6020026020010151148015610ddd57503373ffffffffffffffffffffffffffffffffffffffff168373ffffffffffffffffffffffffffffffffffffffff166383638710886040518263ffffffff1660e01b8152600401610d759190614741565b60206040518083038186803b158015610d8d57600080fd5b505afa158015610da1573d6000803e3d6000fd5b505050506040513d601f19601f82011682018060405250810190610dc59190613932565b73ffffffffffffffffffffffffffffffffffffffff16145b8015610e9c57508473ffffffffffffffffffffffffffffffffffffffff168373ffffffffffffffffffffffffffffffffffffffff166383638710866040518263ffffffff1660e01b8152600401610e349190614741565b60206040518083038186803b158015610e4c57600080fd5b505afa158015610e60573d6000803e3d6000fd5b505050506040513d601f19601f82011682018060405250810190610e849190613932565b73ffffffffffffffffffffffffffffffffffffffff16145b8015610eed575060038160600151600581518110610ee3577f4e487b7100000000000000000000000000000000000000000000000000000000600052603260045260246000fd5b6020026020010151105b8015610f3e575060038260600151600581518110610f34577f4e487b7100000000000000000000000000000000000000000000000000000000600052603260045260246000fd5b6020026020010151105b610f7d576040517f08c379a0000000000000000000000000000000000000000000000000000000008152600401610f74906146a1565b60405180910390fd5b6000600667ffffffffffffffff811115610fc0577f4e487b7100000000000000000000000000000000000000000000000000000000600052604160045260246000fd5b604051908082528060200260200182016040528015610fee5781602001602082028036833780820191505090505b5090506000600a67ffffffffffffffff811115611034577f4e487b7100000000000000000000000000000000000000000000000000000000600052604160045260246000fd5b6040519080825280602002602001820160405280156110625781602001602082028036833780820191505090505b50905060006110716002613379565b60ff16146110c45782604001516000815181106110b7577f4e487b7100000000000000000000000000000000000000000000000000000000600052603260045260246000fd5b602002602001015161110b565b8360400151600081518110611102577f4e487b7100000000000000000000000000000000000000000000000000000000600052603260045260246000fd5b60200260200101515b82600081518110611145577f4e487b7100000000000000000000000000000000000000000000000000000000600052603260045260246000fd5b602002602001019060ff16908160ff168152505060006111656002613379565b60ff16146111b85782604001516001815181106111ab577f4e487b7100000000000000000000000000000000000000000000000000000000600052603260045260246000fd5b60200260200101516111ff565b83604001516001815181106111f6577f4e487b7100000000000000000000000000000000000000000000000000000000600052603260045260246000fd5b60200260200101515b82600181518110611239577f4e487b7100000000000000000000000000000000000000000000000000000000600052603260045260246000fd5b602002602001019060ff16908160ff168152505060006112596002613379565b60ff16146112ac57826040015160028151811061129f577f4e487b7100000000000000000000000000000000000000000000000000000000600052603260045260246000fd5b60200260200101516112f3565b83604001516002815181106112ea577f4e487b7100000000000000000000000000000000000000000000000000000000600052603260045260246000fd5b60200260200101515b8260028151811061132d577f4e487b7100000000000000000000000000000000000000000000000000000000600052603260045260246000fd5b602002602001019060ff16908160ff1681525050600061134d6002613379565b60ff16146113a0578260400151600381518110611393577f4e487b7100000000000000000000000000000000000000000000000000000000600052603260045260246000fd5b60200260200101516113e7565b83604001516003815181106113de577f4e487b7100000000000000000000000000000000000000000000000000000000600052603260045260246000fd5b60200260200101515b82600381518110611421577f4e487b7100000000000000000000000000000000000000000000000000000000600052603260045260246000fd5b602002602001019060ff16908160ff168152505060006114416002613379565b60ff1614611494578260400151600481518110611487577f4e487b7100000000000000000000000000000000000000000000000000000000600052603260045260246000fd5b60200260200101516114db565b83604001516004815181106114d2577f4e487b7100000000000000000000000000000000000000000000000000000000600052603260045260246000fd5b60200260200101515b82600481518110611515577f4e487b7100000000000000000000000000000000000000000000000000000000600052603260045260246000fd5b602002602001019060ff16908160ff168152505060006115356002613379565b60ff161461158857826040015160058151811061157b577f4e487b7100000000000000000000000000000000000000000000000000000000600052603260045260246000fd5b60200260200101516115cf565b83604001516005815181106115c6577f4e487b7100000000000000000000000000000000000000000000000000000000600052603260045260246000fd5b60200260200101515b82600581518110611609577f4e487b7100000000000000000000000000000000000000000000000000000000600052603260045260246000fd5b602002602001019060ff16908160ff16815250504281600081518110611658577f4e487b7100000000000000000000000000000000000000000000000000000000600052603260045260246000fd5b60200260200101818152505083606001516001815181106116a2577f4e487b7100000000000000000000000000000000000000000000000000000000600052603260045260246000fd5b6020026020010151816001815181106116e4577f4e487b7100000000000000000000000000000000000000000000000000000000600052603260045260246000fd5b60200260200101818152505060008160028151811061172c577f4e487b7100000000000000000000000000000000000000000000000000000000600052603260045260246000fd5b6020026020010181815250508781600381518110611773577f4e487b7100000000000000000000000000000000000000000000000000000000600052603260045260246000fd5b60200260200101818152505085816004815181106117ba577f4e487b7100000000000000000000000000000000000000000000000000000000600052603260045260246000fd5b602002602001018181525050600081600581518110611802577f4e487b7100000000000000000000000000000000000000000000000000000000600052603260045260246000fd5b6020026020010181815250508473ffffffffffffffffffffffffffffffffffffffff1663ea4edda23384846040518463ffffffff1660e01b815260040161184b939291906144ea565b600060405180830381600087803b15801561186557600080fd5b505af1158015611879573d6000803e3d6000fd5b50505050600260405161188b906143f2565b908152602001604051809103902060008154809291906118aa906149e3565b919050555060006118bb6002613379565b60ff161461190e578260400151600081518110611901577f4e487b7100000000000000000000000000000000000000000000000000000000600052603260045260246000fd5b6020026020010151611955565b836040015160008151811061194c577f4e487b7100000000000000000000000000000000000000000000000000000000600052603260045260246000fd5b60200260200101515b8260008151811061198f577f4e487b7100000000000000000000000000000000000000000000000000000000600052603260045260246000fd5b602002602001019060ff16908160ff168152505060006119af6002613379565b60ff1614611a025782604001516001815181106119f5577f4e487b7100000000000000000000000000000000000000000000000000000000600052603260045260246000fd5b6020026020010151611a49565b8360400151600181518110611a40577f4e487b7100000000000000000000000000000000000000000000000000000000600052603260045260246000fd5b60200260200101515b82600181518110611a83577f4e487b7100000000000000000000000000000000000000000000000000000000600052603260045260246000fd5b602002602001019060ff16908160ff16815250506000611aa36002613379565b60ff1614611af6578260400151600281518110611ae9577f4e487b7100000000000000000000000000000000000000000000000000000000600052603260045260246000fd5b6020026020010151611b3d565b8360400151600281518110611b34577f4e487b7100000000000000000000000000000000000000000000000000000000600052603260045260246000fd5b60200260200101515b82600281518110611b77577f4e487b7100000000000000000000000000000000000000000000000000000000600052603260045260246000fd5b602002602001019060ff16908160ff16815250506000611b976002613379565b60ff1614611bea578260400151600381518110611bdd577f4e487b7100000000000000000000000000000000000000000000000000000000600052603260045260246000fd5b6020026020010151611c31565b8360400151600381518110611c28577f4e487b7100000000000000000000000000000000000000000000000000000000600052603260045260246000fd5b60200260200101515b82600381518110611c6b577f4e487b7100000000000000000000000000000000000000000000000000000000600052603260045260246000fd5b602002602001019060ff16908160ff16815250506000611c8b6002613379565b60ff1614611cde578260400151600481518110611cd1577f4e487b7100000000000000000000000000000000000000000000000000000000600052603260045260246000fd5b6020026020010151611d25565b8360400151600481518110611d1c577f4e487b7100000000000000000000000000000000000000000000000000000000600052603260045260246000fd5b60200260200101515b82600481518110611d5f577f4e487b7100000000000000000000000000000000000000000000000000000000600052603260045260246000fd5b602002602001019060ff16908160ff16815250506000611d7f6002613379565b60ff1614611dd2578260400151600581518110611dc5577f4e487b7100000000000000000000000000000000000000000000000000000000600052603260045260246000fd5b6020026020010151611e19565b8360400151600581518110611e10577f4e487b7100000000000000000000000000000000000000000000000000000000600052603260045260246000fd5b60200260200101515b82600581518110611e53577f4e487b7100000000000000000000000000000000000000000000000000000000600052603260045260246000fd5b602002602001019060ff16908160ff16815250508473ffffffffffffffffffffffffffffffffffffffff1663ea4edda28884846040518463ffffffff1660e01b8152600401611ea4939291906144ea565b600060405180830381600087803b158015611ebe57600080fd5b505af1158015611ed2573d6000803e3d6000fd5b505050506002604051611ee4906143f2565b90815260200160405180910390206000815480929190611f03906149e3565b91905055508360600151600581518110611f46577f4e487b7100000000000000000000000000000000000000000000000000000000600052603260045260246000fd5b602002602001018051809190611f5b906149e3565b815250508260600151600581518110611f9d577f4e487b7100000000000000000000000000000000000000000000000000000000600052603260045260246000fd5b602002602001018051809190611fb2906149e3565b8152505060008360600151600181518110611ff6577f4e487b7100000000000000000000000000000000000000000000000000000000600052603260045260246000fd5b6020026020010181815250508473ffffffffffffffffffffffffffffffffffffffff16635105d171858a336040518463ffffffff1660e01b815260040161203f93929190614703565b600060405180830381600087803b15801561205957600080fd5b505af115801561206d573d6000803e3d6000fd5b505050508473ffffffffffffffffffffffffffffffffffffffff16635105d17184888a6040518463ffffffff1660e01b81526004016120ae93929190614703565b600060405180830381600087803b1580156120c857600080fd5b505af11580156120dc573d6000803e3d6000fd5b505050505050505050505050565b6120f2613531565b73ffffffffffffffffffffffffffffffffffffffff16612110612231565b73ffffffffffffffffffffffffffffffffffffffff1614612166576040517f08c379a000000000000000000000000000000000000000000000000000000000815260040161215d90614621565b60405180910390fd5b6121706000613539565b565b60606000600160009054906101000a900473ffffffffffffffffffffffffffffffffffffffff1690508073ffffffffffffffffffffffffffffffffffffffff166382de8fe9846040518263ffffffff1660e01b81526004016121d49190614498565b60006040518083038186803b1580156121ec57600080fd5b505afa158015612200573d6000803e3d6000fd5b505050506040513d6000823e3d601f19601f820116820180604052508101906122299190613997565b915050919050565b60008060009054906101000a900473ffffffffffffffffffffffffffffffffffffffff16905090565b6000600160009054906101000a900473ffffffffffffffffffffffffffffffffffffffff16905060008173ffffffffffffffffffffffffffffffffffffffff1663c1e03728846040518263ffffffff1660e01b81526004016122bc9190614741565b60006040518083038186803b1580156122d457600080fd5b505afa1580156122e8573d6000803e3d6000fd5b505050506040513d6000823e3d601f19601f820116820180604052508101906123119190613a6d565b90508060600151600181518110612351577f4e487b7100000000000000000000000000000000000000000000000000000000600052603260045260246000fd5b602002602001015134101561239b576040517f08c379a000000000000000000000000000000000000000000000000000000000815260040161239290614661565b60405180910390fd5b3373ffffffffffffffffffffffffffffffffffffffff168273ffffffffffffffffffffffffffffffffffffffff166383638710856040518263ffffffff1660e01b81526004016123eb9190614741565b60206040518083038186803b15801561240357600080fd5b505afa158015612417573d6000803e3d6000fd5b505050506040513d601f19601f8201168201806040525081019061243b9190613932565b73ffffffffffffffffffffffffffffffffffffffff161415612492576040517f08c379a000000000000000000000000000000000000000000000000000000000815260040161248990614601565b60405180910390fd5b60008273ffffffffffffffffffffffffffffffffffffffff166382de8fe9336040518263ffffffff1660e01b81526004016124cd9190614498565b60006040518083038186803b1580156124e557600080fd5b505afa1580156124f9573d6000803e3d6000fd5b505050506040513d6000823e3d601f19601f820116820180604052508101906125229190613997565b9050600181511115612569576040517f08c379a000000000000000000000000000000000000000000000000000000000815260040161256090614681565b60405180910390fd5b60008260000190151590811515815250508273ffffffffffffffffffffffffffffffffffffffff16635105d1718386336040518463ffffffff1660e01b81526004016125b793929190614703565b600060405180830381600087803b1580156125d157600080fd5b505af11580156125e5573d6000803e3d6000fd5b505050508273ffffffffffffffffffffffffffffffffffffffff1663beabacc88633876040518463ffffffff1660e01b8152600401612626939291906144b3565b600060405180830381600087803b15801561264057600080fd5b505af1158015612654573d6000803e3d6000fd5b505050505050505050565b6000600160009054906101000a900473ffffffffffffffffffffffffffffffffffffffff16905060008173ffffffffffffffffffffffffffffffffffffffff1663c1e03728876040518263ffffffff1660e01b81526004016126c19190614741565b60006040518083038186803b1580156126d957600080fd5b505afa1580156126ed573d6000803e3d6000fd5b505050506040513d6000823e3d601f19601f820116820180604052508101906127169190613a6d565b905084816000019015159081151581525050831515816020015115151461278357428160600151600081518110612776577f4e487b7100000000000000000000000000000000000000000000000000000000600052603260045260246000fd5b6020026020010181815250505b838160200190151590811515815250508281606001516001815181106127d2577f4e487b7100000000000000000000000000000000000000000000000000000000600052603260045260246000fd5b6020026020010181815250508173ffffffffffffffffffffffffffffffffffffffff16635105d1718288336040518463ffffffff1660e01b815260040161281b93929190614703565b600060405180830381600087803b15801561283557600080fd5b505af1158015612849573d6000803e3d6000fd5b50505050505050505050565b6000808260ff16148061286b575060018260ff16145b80612879575060028260ff16145b6128b8576040517f08c379a00000000000000000000000000000000000000000000000000000000081526004016128af906145e1565b60405180910390fd5b60008260ff1614156129bd5760026040516128d29061441c565b908152602001604051809103902054341015612923576040517f08c379a000000000000000000000000000000000000000000000000000000000815260040161291a90614641565b60405180910390fd5b60006002604051612933906143c8565b90815260200160405180910390205411612982576040517f08c379a0000000000000000000000000000000000000000000000000000000008152600401612979906145c1565b60405180910390fd5b600890506002604051612994906143c8565b908152602001604051809103902060008154809291906129b3906149b9565b9190505550612bc5565b60018260ff161415612ac25760026040516129d7906143dd565b908152602001604051809103902054341015612a28576040517f08c379a0000000000000000000000000000000000000000000000000000000008152600401612a1f90614641565b60405180910390fd5b60006002604051612a38906143b3565b90815260200160405180910390205411612a87576040517f08c379a0000000000000000000000000000000000000000000000000000000008152600401612a7e906145c1565b60405180910390fd5b600490506002604051612a99906143b3565b90815260200160405180910390206000815480929190612ab8906149b9565b9190505550612bc4565b60028260ff161415612bc3576002604051612adc90614431565b908152602001604051809103902054341015612b2d576040517f08c379a0000000000000000000000000000000000000000000000000000000008152600401612b2490614641565b60405180910390fd5b60006002604051612b3d90614446565b90815260200160405180910390205411612b8c576040517f08c379a0000000000000000000000000000000000000000000000000000000008152600401612b83906145c1565b60405180910390fd5b600090506002604051612b9e90614446565b90815260200160405180910390206000815480929190612bbd906149b9565b91905055505b5b5b6000600667ffffffffffffffff811115612c08577f4e487b7100000000000000000000000000000000000000000000000000000000600052604160045260246000fd5b604051908082528060200260200182016040528015612c365781602001602082028036833780820191505090505b5090506000600a67ffffffffffffffff811115612c7c577f4e487b7100000000000000000000000000000000000000000000000000000000600052604160045260246000fd5b604051908082528060200260200182016040528015612caa5781602001602082028036833780820191505090505b50905082612cb86004613379565b612cc291906148eb565b82600081518110612cfc577f4e487b7100000000000000000000000000000000000000000000000000000000600052603260045260246000fd5b602002602001019060ff16908160ff168152505082612d1b6004613379565b612d2591906148eb565b82600181518110612d5f577f4e487b7100000000000000000000000000000000000000000000000000000000600052603260045260246000fd5b602002602001019060ff16908160ff168152505082612d7e6004613379565b612d8891906148eb565b82600281518110612dc2577f4e487b7100000000000000000000000000000000000000000000000000000000600052603260045260246000fd5b602002602001019060ff16908160ff168152505082612de16004613379565b612deb91906148eb565b82600381518110612e25577f4e487b7100000000000000000000000000000000000000000000000000000000600052603260045260246000fd5b602002602001019060ff16908160ff168152505082612e446004613379565b612e4e91906148eb565b82600481518110612e88577f4e487b7100000000000000000000000000000000000000000000000000000000600052603260045260246000fd5b602002602001019060ff16908160ff168152505082612ea76004613379565b612eb191906148eb565b82600581518110612eeb577f4e487b7100000000000000000000000000000000000000000000000000000000600052603260045260246000fd5b602002602001019060ff16908160ff16815250504281600081518110612f3a577f4e487b7100000000000000000000000000000000000000000000000000000000600052603260045260246000fd5b6020026020010181815250503481600181518110612f81577f4e487b7100000000000000000000000000000000000000000000000000000000600052603260045260246000fd5b602002602001018181525050600081600281518110612fc9577f4e487b7100000000000000000000000000000000000000000000000000000000600052603260045260246000fd5b602002602001018181525050600081600381518110613011577f4e487b7100000000000000000000000000000000000000000000000000000000600052603260045260246000fd5b602002602001018181525050600081600481518110613059577f4e487b7100000000000000000000000000000000000000000000000000000000600052603260045260246000fd5b6020026020010181815250506000816005815181106130a1577f4e487b7100000000000000000000000000000000000000000000000000000000600052603260045260246000fd5b60200260200101818152505060026040516130bb906143f2565b90815260200160405180910390205481600681518110613104577f4e487b7100000000000000000000000000000000000000000000000000000000600052603260045260246000fd5b6020026020010181815250508360ff168160078151811061314e577f4e487b7100000000000000000000000000000000000000000000000000000000600052603260045260246000fd5b6020026020010181815250506002604051613168906143f2565b90815260200160405180910390206000815480929190613187906149e3565b91905055506000600160009054906101000a900473ffffffffffffffffffffffffffffffffffffffff1690508073ffffffffffffffffffffffffffffffffffffffff1663ea4edda23385856040518463ffffffff1660e01b81526004016131f0939291906144ea565b600060405180830381600087803b15801561320a57600080fd5b505af115801561321e573d6000803e3d6000fd5b505050505050505050565b613231613531565b73ffffffffffffffffffffffffffffffffffffffff1661324f612231565b73ffffffffffffffffffffffffffffffffffffffff16146132a5576040517f08c379a000000000000000000000000000000000000000000000000000000000815260040161329c90614621565b60405180910390fd5b8034146132b157600080fd5b50565b6132bc6135fd565b6000600160009054906101000a900473ffffffffffffffffffffffffffffffffffffffff1690508073ffffffffffffffffffffffffffffffffffffffff1663c1e03728846040518263ffffffff1660e01b815260040161331c9190614741565b60006040518083038186803b15801561333457600080fd5b505afa158015613348573d6000803e3d6000fd5b505050506040513d6000823e3d601f19601f820116820180604052508101906133719190613a6d565b915050919050565b6000808260ff164233600260405161339090614407565b9081526020016040518091039020546040516020016133b19392919061445b565b6040516020818303038152906040528051906020012060001c6133d49190614a5a565b905060026040516133e490614407565b90815260200160405180910390206000815480929190613403906149e3565b919050555080915050919050565b6000600282604051613423919061439c565b9081526020016040518091039020549050919050565b613441613531565b73ffffffffffffffffffffffffffffffffffffffff1661345f612231565b73ffffffffffffffffffffffffffffffffffffffff16146134b5576040517f08c379a00000000000000000000000000000000000000000000000000000000081526004016134ac90614621565b60405180910390fd5b600073ffffffffffffffffffffffffffffffffffffffff168173ffffffffffffffffffffffffffffffffffffffff161415613525576040517f08c379a000000000000000000000000000000000000000000000000000000000815260040161351c906145a1565b60405180910390fd5b61352e81613539565b50565b600033905090565b60008060009054906101000a900473ffffffffffffffffffffffffffffffffffffffff169050816000806101000a81548173ffffffffffffffffffffffffffffffffffffffff021916908373ffffffffffffffffffffffffffffffffffffffff1602179055508173ffffffffffffffffffffffffffffffffffffffff168173ffffffffffffffffffffffffffffffffffffffff167f8be0079c531659141344cd1fd0a4f28419497f9722a3daafe3b4186f6b6457e060405160405180910390a35050565b604051806080016040528060001515815260200160001515815260200160608152602001606081525090565b600061363c613637846147a8565b614777565b9050808382526020820190508285602086028201111561365b57600080fd5b60005b8581101561368b578161367188826138ca565b84526020840193506020830192505060018101905061365e565b5050509392505050565b60006136a86136a3846147d4565b614777565b905080838252602082019050828560208602820111156136c757600080fd5b60005b858110156136f757816136dd88826138f4565b8452602084019350602083019250506001810190506136ca565b5050509392505050565b600061371461370f84614800565b614777565b90508281526020810184848401111561372c57600080fd5b613737848285614977565b509392505050565b60008135905061374e81614b36565b92915050565b60008151905061376381614b36565b92915050565b600082601f83011261377a57600080fd5b815161378a848260208601613629565b91505092915050565b600082601f8301126137a457600080fd5b81516137b4848260208601613695565b91505092915050565b6000813590506137cc81614b4d565b92915050565b6000815190506137e181614b4d565b92915050565b600082601f8301126137f857600080fd5b8135613808848260208601613701565b91505092915050565b60006080828403121561382357600080fd5b61382d6080614777565b9050600061383d848285016137d2565b6000830152506020613851848285016137d2565b602083015250604082015167ffffffffffffffff81111561387157600080fd5b61387d84828501613793565b604083015250606082015167ffffffffffffffff81111561389d57600080fd5b6138a984828501613769565b60608301525092915050565b6000813590506138c481614b64565b92915050565b6000815190506138d981614b64565b92915050565b6000813590506138ee81614b7b565b92915050565b60008151905061390381614b7b565b92915050565b60006020828403121561391b57600080fd5b60006139298482850161373f565b91505092915050565b60006020828403121561394457600080fd5b600061395284828501613754565b91505092915050565b6000806040838503121561396e57600080fd5b600061397c8582860161373f565b925050602061398d858286016138b5565b9150509250929050565b6000602082840312156139a957600080fd5b600082015167ffffffffffffffff8111156139c357600080fd5b6139cf84828501613769565b91505092915050565b6000602082840312156139ea57600080fd5b600082013567ffffffffffffffff811115613a0457600080fd5b613a10848285016137e7565b91505092915050565b60008060408385031215613a2c57600080fd5b600083013567ffffffffffffffff811115613a4657600080fd5b613a52858286016137e7565b9250506020613a63858286016138b5565b9150509250929050565b600060208284031215613a7f57600080fd5b600082015167ffffffffffffffff811115613a9957600080fd5b613aa584828501613811565b91505092915050565b600060208284031215613ac057600080fd5b6000613ace848285016138b5565b91505092915050565b600080600060608486031215613aec57600080fd5b6000613afa868287016138b5565b9350506020613b0b8682870161373f565b9250506040613b1c868287016138b5565b9150509250925092565b60008060008060808587031215613b3c57600080fd5b6000613b4a878288016138b5565b9450506020613b5b878288016137bd565b9350506040613b6c878288016137bd565b9250506060613b7d878288016138b5565b91505092959194509250565b600060208284031215613b9b57600080fd5b6000613ba9848285016138df565b91505092915050565b6000613bbe8383614349565b60208301905092915050565b6000613bd6838361437e565b60208301905092915050565b613beb81614922565b82525050565b613c02613bfd82614922565b614a2c565b82525050565b6000613c1382614850565b613c1d818561488b565b9350613c2883614830565b8060005b83811015613c59578151613c408882613bb2565b9750613c4b83614871565b925050600181019050613c2c565b5085935050505092915050565b6000613c7182614850565b613c7b818561489c565b9350613c8683614830565b8060005b83811015613cb7578151613c9e8882613bb2565b9750613ca983614871565b925050600181019050613c8a565b5085935050505092915050565b6000613ccf8261485b565b613cd981856148ad565b9350613ce483614840565b8060005b83811015613d15578151613cfc8882613bca565b9750613d078361487e565b925050600181019050613ce8565b5085935050505092915050565b6000613d2d8261485b565b613d3781856148be565b9350613d4283614840565b8060005b83811015613d73578151613d5a8882613bca565b9750613d658361487e565b925050600181019050613d46565b5085935050505092915050565b613d8981614934565b82525050565b6000613d9a82614866565b613da481856148cf565b9350613db4818560208601614986565b613dbd81614b18565b840191505092915050565b6000613dd382614866565b613ddd81856148e0565b9350613ded818560208601614986565b80840191505092915050565b6000613e06600c836148e0565b91507f65676754776f52656d61696e00000000000000000000000000000000000000006000830152600c82019050919050565b6000613e466010836148cf565b91507f4d7973746963206e6f74206578697374000000000000000000000000000000006000830152602082019050919050565b6000613e866026836148cf565b91507f4f776e61626c653a206e6577206f776e657220697320746865207a65726f206160008301527f64647265737300000000000000000000000000000000000000000000000000006020830152604082019050919050565b6000613eec600c836148e0565b91507f6567674f6e6552656d61696e00000000000000000000000000000000000000006000830152600c82019050919050565b6000613f2c6011836148cf565b91507f4e6f20656767732072656d61696e696e670000000000000000000000000000006000830152602082019050919050565b6000613f6c600b836148e0565b91507f707269636545676754776f0000000000000000000000000000000000000000006000830152600b82019050919050565b6000613fac6006836148e0565b91507f6e657874496400000000000000000000000000000000000000000000000000006000830152600682019050919050565b6000613fec600d836148cf565b91507f54797065206e6f7420676f6f64000000000000000000000000000000000000006000830152602082019050919050565b600061402c6005836148e0565b91507f6e6f6e63650000000000000000000000000000000000000000000000000000006000830152600582019050919050565b600061406c600d836148cf565b91507f416c7265616479204f776e6564000000000000000000000000000000000000006000830152602082019050919050565b60006140ac600b836148e0565b91507f70726963654567674f6e650000000000000000000000000000000000000000006000830152600b82019050919050565b60006140ec6020836148cf565b91507f4f776e61626c653a2063616c6c6572206973206e6f7420746865206f776e65726000830152602082019050919050565b600061412c6011836148cf565b91507f4d6f7265204554482072657175697265640000000000000000000000000000006000830152602082019050919050565b600061416c6017836148cf565b91507f496e73756666696369656e7420666f6e64732073656e740000000000000000006000830152602082019050919050565b60006141ac6015836148cf565b91507f416c726561647920686176652061206d797374696300000000000000000000006000830152602082019050919050565b60006141ec600d836148e0565b91507f70726963654567675468726565000000000000000000000000000000000000006000830152600d82019050919050565b600061422c6017836148cf565b91507f546f6f206d616e7920726570726f647563652074696d650000000000000000006000830152602082019050919050565b600061426c6012836148cf565b91507f506172656e746c7920746f6f20636c6f736500000000000000000000000000006000830152602082019050919050565b60006142ac600e836148e0565b91507f656767546872656552656d61696e0000000000000000000000000000000000006000830152600e82019050919050565b60006080830160008301516142f76000860182613d80565b50602083015161430a6020860182613d80565b50604083015184820360408601526143228282613cc4565b9150506060830151848203606086015261433c8282613c08565b9150508091505092915050565b61435281614960565b82525050565b61436181614960565b82525050565b61437861437382614960565b614a50565b82525050565b6143878161496a565b82525050565b6143968161496a565b82525050565b60006143a88284613dc8565b915081905092915050565b60006143be82613df9565b9150819050919050565b60006143d382613edf565b9150819050919050565b60006143e882613f5f565b9150819050919050565b60006143fd82613f9f565b9150819050919050565b60006144128261401f565b9150819050919050565b60006144278261409f565b9150819050919050565b600061443c826141df565b9150819050919050565b60006144518261429f565b9150819050919050565b60006144678286614367565b6020820191506144778285613bf1565b6014820191506144878284614367565b602082019150819050949350505050565b60006020820190506144ad6000830184613be2565b92915050565b60006060820190506144c86000830186613be2565b6144d56020830185613be2565b6144e26040830184614358565b949350505050565b60006060820190506144ff6000830186613be2565b81810360208301526145118185613d22565b905081810360408301526145258184613c66565b9050949350505050565b600060208201905081810360008301526145498184613c66565b905092915050565b6000604082019050818103600083015261456b8185613d8f565b905061457a6020830184614358565b9392505050565b6000602082019050818103600083015261459a81613e39565b9050919050565b600060208201905081810360008301526145ba81613e79565b9050919050565b600060208201905081810360008301526145da81613f1f565b9050919050565b600060208201905081810360008301526145fa81613fdf565b9050919050565b6000602082019050818103600083015261461a8161405f565b9050919050565b6000602082019050818103600083015261463a816140df565b9050919050565b6000602082019050818103600083015261465a8161411f565b9050919050565b6000602082019050818103600083015261467a8161415f565b9050919050565b6000602082019050818103600083015261469a8161419f565b9050919050565b600060208201905081810360008301526146ba8161421f565b9050919050565b600060208201905081810360008301526146da8161425f565b9050919050565b600060208201905081810360008301526146fb81846142df565b905092915050565b6000606082019050818103600083015261471d81866142df565b905061472c6020830185614358565b6147396040830184613be2565b949350505050565b60006020820190506147566000830184614358565b92915050565b6000602082019050614771600083018461438d565b92915050565b6000604051905081810181811067ffffffffffffffff8211171561479e5761479d614ae9565b5b8060405250919050565b600067ffffffffffffffff8211156147c3576147c2614ae9565b5b602082029050602081019050919050565b600067ffffffffffffffff8211156147ef576147ee614ae9565b5b602082029050602081019050919050565b600067ffffffffffffffff82111561481b5761481a614ae9565b5b601f19601f8301169050602081019050919050565b6000819050602082019050919050565b6000819050602082019050919050565b600081519050919050565b600081519050919050565b600081519050919050565b6000602082019050919050565b6000602082019050919050565b600082825260208201905092915050565b600082825260208201905092915050565b600082825260208201905092915050565b600082825260208201905092915050565b600082825260208201905092915050565b600081905092915050565b60006148f68261496a565b91506149018361496a565b92508260ff0382111561491757614916614a8b565b5b828201905092915050565b600061492d82614940565b9050919050565b60008115159050919050565b600073ffffffffffffffffffffffffffffffffffffffff82169050919050565b6000819050919050565b600060ff82169050919050565b82818337600083830152505050565b60005b838110156149a4578082015181840152602081019050614989565b838111156149b3576000848401525b50505050565b60006149c482614960565b915060008214156149d8576149d7614a8b565b5b600182039050919050565b60006149ee82614960565b91507fffffffffffffffffffffffffffffffffffffffffffffffffffffffffffffffff821415614a2157614a20614a8b565b5b600182019050919050565b6000614a3782614a3e565b9050919050565b6000614a4982614b29565b9050919050565b6000819050919050565b6000614a6582614960565b9150614a7083614960565b925082614a8057614a7f614aba565b5b828206905092915050565b7f4e487b7100000000000000000000000000000000000000000000000000000000600052601160045260246000fd5b7f4e487b7100000000000000000000000000000000000000000000000000000000600052601260045260246000fd5b7f4e487b7100000000000000000000000000000000000000000000000000000000600052604160045260246000fd5b6000601f19601f8301169050919050565b60008160601b9050919050565b614b3f81614922565b8114614b4a57600080fd5b50565b614b5681614934565b8114614b6157600080fd5b50565b614b6d81614960565b8114614b7857600080fd5b50565b614b848161496a565b8114614b8f57600080fd5b5056fea264697066735822122033c793560ca2988a992202fe7495707ba99e8c2ebfd2bcc19597beffb8359dc364736f6c63430008000033",
  "immutableReferences": {},
  "source": "pragma solidity 0.8.0;\r\n\r\nimport '../node_modules/@openzeppelin/contracts/token/ERC721/ERC721.sol';\r\nimport '../node_modules/@openzeppelin/contracts/access/Ownable.sol';\r\n\r\ncontract DelegateContract is Ownable {\r\n\r\n    constructor(address _addressContract) {\r\n        addressContract = _addressContract;\r\n        paramsContract[\"nextId\"] = TokenDelegable(addressContract).getParamsContract(\"nextId\");\r\n        paramsContract[\"priceEggOne\"] = 100000000000000000;\r\n        paramsContract[\"priceEggTwo\"] = 20000000000000000;\r\n        paramsContract[\"priceEggThree\"] = 10000000000000000;\r\n        \r\n        paramsContract[\"eggOneRemain\"] = 100;\r\n        paramsContract[\"eggTwoRemain\"] = 900;\r\n        paramsContract[\"eggThreeRemain\"] = 9000;\r\n     }\r\n\r\n    address addressContract;\r\n    mapping( string => uint ) paramsContract;\r\n\r\n    function setParamsContract(string memory keyParams, uint valueParams) external onlyOwner {\r\n        paramsContract[keyParams] = valueParams;\r\n    }\r\n\r\n    function getParamsContract(string memory keyParams) external view returns (uint256){\r\n        return paramsContract[keyParams];\r\n    }\r\n\r\n    function random(uint8 maxNumber) public returns (uint8) {\r\n        uint256 randomnumber = uint256(keccak256(abi.encodePacked(block.timestamp, msg.sender, paramsContract[\"nonce\"]))) % maxNumber;\r\n        randomnumber = randomnumber ;\r\n        paramsContract[\"nonce\"]++;\r\n        return uint8(randomnumber);\r\n    }\r\n\r\n    function setParamsDelegate(string memory keyParams, uint256 valueParams ) external {\r\n        TokenDelegable contrat = TokenDelegable(addressContract);\r\n        contrat.setParamsContract(keyParams, valueParams);\r\n    }\r\n\r\n    function mintDelegate(uint8 typeMint) public payable{\r\n\r\n        uint8 bonus = 0;\r\n        require(typeMint == 0 || typeMint == 1 || typeMint == 2,\"Type not good\");\r\n        if(typeMint == 0){\r\n            require(msg.value >= paramsContract[\"priceEggOne\"],\"More ETH required\");\r\n            require(paramsContract[\"eggOneRemain\"] > 0,\"No eggs remaining\");\r\n            bonus = 8;\r\n            paramsContract[\"eggOneRemain\"]--;\r\n        }else if(typeMint == 1){\r\n            require(msg.value >= paramsContract[\"priceEggTwo\"],\"More ETH required\");\r\n            require(paramsContract[\"eggTwoRemain\"] > 0,\"No eggs remaining\");\r\n            bonus = 4;\r\n            paramsContract[\"eggTwoRemain\"]--;\r\n        }else if(typeMint == 2){\r\n            require(msg.value >= paramsContract[\"priceEggThree\"],\"More ETH required\");\r\n            require(paramsContract[\"eggThreeRemain\"] > 0,\"No eggs remaining\");\r\n            bonus = 0;\r\n            paramsContract[\"eggThreeRemain\"]--;\r\n        }\r\n        uint8[] memory randomParts = new uint8[](6);\r\n        uint256[] memory randomParams = new uint256[](10);\r\n        randomParts[0] = random(4)+bonus;\r\n        randomParts[1] = random(4)+bonus;\r\n        randomParts[2] = random(4)+bonus;\r\n        randomParts[3] = random(4)+bonus;\r\n        randomParts[4] = random(4)+bonus;\r\n        randomParts[5] = random(4)+bonus;\r\n        randomParams[0] = block.timestamp;\r\n        randomParams[1] = msg.value;\r\n        randomParams[2] = 0;//idreproduce\r\n        randomParams[3] = 0;//mother\r\n        randomParams[4] = 0;//father\r\n        randomParams[5] = 0;//nbrreproduce\r\n        randomParams[6] = paramsContract[\"nextId\"];//tokenId\r\n        randomParams[7] = typeMint;//type\r\n        paramsContract[\"nextId\"]++;\r\n\r\n        TokenDelegable contrat = TokenDelegable(addressContract);\r\n        contrat.mint(msg.sender, randomParts, randomParams);\r\n    }\r\n\r\n    \r\n    function paramsMystic(uint256 tokenId,bool sellable,bool egg, uint256 tokenIdReproducable) public {\r\n        \r\n        TokenDelegable contrat = TokenDelegable(addressContract);\r\n        TokenDelegable.Mystic memory mysticTemp =  contrat.getTokenDetails(tokenId);\r\n        mysticTemp.inSell = sellable;\r\n        if(mysticTemp.egg != egg) mysticTemp.params256[0] = block.timestamp;\r\n        mysticTemp.egg = egg;\r\n        mysticTemp.params256[1] = tokenIdReproducable;\r\n\r\n        contrat.updateToken(mysticTemp,tokenId,msg.sender);\r\n    }\r\n\r\n    /*function purchaseAndTransfer(address contactAddr, uint256 tokenId,bool purchase) external payable {\r\n        TokenDelegable contrat = TokenDelegable(addressContract);\r\n        TokenDelegable.Mystic memory mystic =  contrat.getTokenDetails(tokenId);\r\n        require(msg.value >= mystic.params256[1], \"Insufficient fonds sent\");\r\n        require(contrat.getOwnerOf(tokenId) != (purchase?msg.sender:contactAddr), \"Already Owned\");\r\n        uint256[] memory resultIndex = contrat.getAllTokensForUser(msg.sender);\r\n        require(resultIndex.length <= 1, \"Already have a mystic\");\r\n        mystic.inSell=false;\r\n        contrat.updateToken(mystic,tokenId,msg.sender);\r\n        contrat.transfer((purchase?contactAddr:msg.sender), (purchase?msg.sender:contactAddr), tokenId);\r\n    }*/\r\n\r\n    function purchase(address contactAddr, uint256 tokenId) external payable {\r\n        TokenDelegable contrat = TokenDelegable(addressContract);\r\n        TokenDelegable.Mystic memory mystic =  contrat.getTokenDetails(tokenId);\r\n        require(msg.value >= mystic.params256[1], \"Insufficient fonds sent\");\r\n        require(contrat.getOwnerOf(tokenId) != msg.sender, \"Already Owned\");\r\n        uint256[] memory resultIndex = contrat.getAllTokensForUser(msg.sender);\r\n        require(resultIndex.length <= 1, \"Already have a mystic\");\r\n        mystic.inSell=false;\r\n        contrat.updateToken(mystic,tokenId,msg.sender);\r\n        contrat.transfer(contactAddr, msg.sender, tokenId);\r\n    }\r\n\r\n    function getAllTokensForUser(address user) external view returns (uint256[] memory){\r\n        TokenDelegable contrat = TokenDelegable(addressContract);\r\n        return contrat.getAllTokensForUser(user);\r\n    }\r\n\r\n    function getTokenDetails(uint256 tokenId) external view returns (TokenDelegable.Mystic memory){\r\n        TokenDelegable contrat = TokenDelegable(addressContract);\r\n        return contrat.getTokenDetails(tokenId);\r\n    }\r\n\r\n    \r\n    /*\r\n    faire l'alatoire depuis le front et mttre dans parts one et parts two\r\n    */\r\n    function reproduce( uint256 tokenIdOne, address senderInvit, uint256 tokenIdTwo) public {\r\n\r\n        TokenDelegable contrat = TokenDelegable(addressContract);\r\n        TokenDelegable.Mystic memory mysticOne =  contrat.getTokenDetails(tokenIdOne);\r\n        TokenDelegable.Mystic memory mysticTwo =  contrat.getTokenDetails(tokenIdTwo);\r\n\r\n        require(mysticOne.params256[0] != 0 && mysticTwo.params256[0] != 0,\"Mystic not exist\");\r\n        require((tokenIdOne != mysticTwo.params256[3] && tokenIdOne != mysticTwo.params256[4] && tokenIdTwo != mysticOne.params256[3] && tokenIdOne != mysticOne.params256[4] && mysticOne.params256[4] != mysticTwo.params256[4] && mysticOne.params256[4] != mysticTwo.params256[3] && mysticOne.params256[3] != mysticTwo.params256[4] && mysticOne.params256[3] != mysticTwo.params256[3]) || (mysticTwo.params256[3] == 0 && mysticTwo.params256[4] == 0 && mysticOne.params256[3] == 0 && mysticOne.params256[4] == 0) ,\"Parently too close\");\r\n        require(mysticTwo.params256[2] == tokenIdOne && contrat.getOwnerOf(tokenIdOne) == msg.sender && contrat.getOwnerOf(tokenIdTwo) == senderInvit && mysticTwo.params256[5] < 3 && mysticOne.params256[5] < 3 ,\"Too many reproduce time\");\r\n\r\n        \r\n        uint8[] memory randomParts = new uint8[](6);\r\n        uint256[] memory randomParams = new uint256[](10);\r\n        randomParts[0] = random(2)==0?mysticOne.params8[0]:mysticTwo.params8[0];\r\n        randomParts[1] = random(2)==0?mysticOne.params8[1]:mysticTwo.params8[1];\r\n        randomParts[2] = random(2)==0?mysticOne.params8[2]:mysticTwo.params8[2];\r\n        randomParts[3] = random(2)==0?mysticOne.params8[3]:mysticTwo.params8[3];\r\n        randomParts[4] = random(2)==0?mysticOne.params8[4]:mysticTwo.params8[4];\r\n        randomParts[5] = random(2)==0?mysticOne.params8[5]:mysticTwo.params8[5];\r\n        randomParams[0] = block.timestamp;\r\n        randomParams[1] = mysticOne.params256[1];\r\n        randomParams[2] = 0;//idreproduce\r\n        randomParams[3] = tokenIdOne;//mother\r\n        randomParams[4] = tokenIdTwo;//father\r\n        randomParams[5] = 0;//nbrreproduce\r\n\r\n        \r\n        contrat.mint(msg.sender, randomParts, randomParams);paramsContract[\"nextId\"]++;\r\n        randomParts[0] = random(2)==0?mysticOne.params8[0]:mysticTwo.params8[0];\r\n        randomParts[1] = random(2)==0?mysticOne.params8[1]:mysticTwo.params8[1];\r\n        randomParts[2] = random(2)==0?mysticOne.params8[2]:mysticTwo.params8[2];\r\n        randomParts[3] = random(2)==0?mysticOne.params8[3]:mysticTwo.params8[3];\r\n        randomParts[4] = random(2)==0?mysticOne.params8[4]:mysticTwo.params8[4];\r\n        randomParts[5] = random(2)==0?mysticOne.params8[5]:mysticTwo.params8[5];\r\n        contrat.mint(senderInvit, randomParts, randomParams);paramsContract[\"nextId\"]++;\r\n        \r\n        mysticOne.params256[5]++;\r\n        mysticTwo.params256[5]++;\r\n        mysticTwo.params256[1] = 0;\r\n        \r\n        contrat.updateToken(mysticOne,tokenIdOne,msg.sender);\r\n        contrat.updateToken(mysticTwo,tokenIdTwo,senderInvit);\r\n    }\r\n\r\n\r\n    /*FUNDS*/\r\n\r\n    function withdraw() public onlyOwner {\r\n        payable(msg.sender).transfer(address(this).balance);\r\n    }\r\n\r\n    function deposit(uint256 amount) payable public onlyOwner {\r\n        require(msg.value == amount);\r\n    }\r\n\r\n    function getBalance() public view returns (uint256)  {\r\n        return address(this).balance;\r\n    }\r\n\r\n}\r\n\r\n\r\n\r\n\r\n\r\n\r\n\r\n\r\n\r\n\r\ncontract TokenDelegable is ERC721, Ownable{\r\n    struct  Mystic {\r\n        bool inSell;\r\n        bool egg;\r\n        uint8[] params8;//parts \r\n        uint256[] params256;//params\r\n    }\r\n\r\n    address adressDelegateContract;\r\n    mapping( string => uint ) paramsContract;\r\n    mapping( uint256 => Mystic ) private _tokenDetails;\r\n\r\n    constructor(string memory name, string memory symbol) ERC721(name, symbol){\r\n        paramsContract[\"nextId\"] = 0;\r\n        paramsContract[\"nbrMystic\"] = 0;\r\n    }\r\n\r\n    modifier byDelegate() {\r\n        require(msg.sender == adressDelegateContract,\"Not good delegate contract\");\r\n        _;\r\n    }\r\n\r\n    function mint(address sender, uint8[] memory params8, uint256[] memory params256) external payable {\r\n        _tokenDetails[paramsContract[\"nextId\"]] = Mystic(false,true,params8,params256);\r\n        _safeMint(sender, paramsContract[\"nextId\"]);\r\n        paramsContract[\"nextId\"]++;\r\n        paramsContract[\"nbrMystic\"]++;\r\n    }\r\n    \r\n    function burn(uint256 tokenId) public byDelegate {\r\n        _burn(tokenId);\r\n        paramsContract[\"nbrMystic\"]--;\r\n    }\r\n\r\n    function transfer(address from, address to ,uint256 tokenId) external byDelegate {\r\n        _safeTransfer(from, to, tokenId, \"\");\r\n    }\r\n\r\n    function getTokenDetails(uint256 tokenId) external view returns (Mystic memory){\r\n        return _tokenDetails[tokenId];\r\n    }\r\n\r\n    function getAllTokensForUser(address user) external view returns (uint256[] memory){\r\n        uint256 tokenCount = balanceOf(user);\r\n        if(tokenCount == 0){\r\n            return new uint256[](0);\r\n        }\r\n        else{\r\n            uint[] memory result = new uint256[](tokenCount);\r\n            uint256 totalMystics = paramsContract[\"nextId\"];\r\n            uint256 resultIndex = 0;\r\n            uint256 i;\r\n            for(i = 0; i < totalMystics; i++){\r\n                if(ownerOf(i) == user){\r\n                    result[resultIndex] = i;\r\n                    resultIndex++;\r\n                }\r\n            }\r\n            return result;\r\n        }\r\n    }\r\n\r\n    function getOwnerOf(uint256 tokenId) external view returns (address) {\r\n        return ownerOf(tokenId);\r\n    }\r\n\r\n    function updateToken(Mystic memory mysticTemp,uint256 tokenId,address owner) external byDelegate {\r\n        require(ownerOf(tokenId) == owner,\"Not Your mystic\");\r\n        _tokenDetails[tokenId] = mysticTemp;\r\n    }\r\n\r\n    function setParamsContract(string memory keyParams, uint valueParams) external onlyOwner {\r\n        paramsContract[keyParams] = valueParams;\r\n    }\r\n\r\n    function getParamsContract(string memory keyParams) external view returns (uint){\r\n        return paramsContract[keyParams];\r\n    }\r\n\r\n    function setAdressDelegateContract(address _adress) external onlyOwner {\r\n        adressDelegateContract = _adress;\r\n    }\r\n\r\n}\r\n\r\n",
  "sourcePath": "C:\\laragon\\www\\nftWithFlo\\contracts\\TokenDelegable.sol",
  "compiler": {
    "name": "solc",
    "version": "0.8.0+commit.c7dfd78e.Emscripten.clang"
  },
  "schemaVersion": "3.4.4",
  "updatedAt": "2022-01-16T21:58:05.187Z",
  "networkType": "ethereum",
  "devdoc": {
    "kind": "dev",
    "methods": {
      "owner()": {
        "details": "Returns the address of the current owner."
      },
      "renounceOwnership()": {
        "details": "Leaves the contract without owner. It will not be possible to call `onlyOwner` functions anymore. Can only be called by the current owner. NOTE: Renouncing ownership will leave the contract without an owner, thereby removing any functionality that is only available to the owner."
      },
      "transferOwnership(address)": {
        "details": "Transfers ownership of the contract to a new account (`newOwner`). Can only be called by the current owner."
      }
    },
    "version": 1
  },
  "userdoc": {
    "kind": "user",
    "methods": {},
    "version": 1
  }
}