{
  "contractName": "TokenDelegable",
  "abi": [
    {
      "inputs": [
        {
          "internalType": "string",
          "name": "name",
          "type": "string"
        },
        {
          "internalType": "string",
          "name": "symbol",
          "type": "string"
        }
      ],
      "stateMutability": "nonpayable",
      "type": "constructor"
    },
    {
      "anonymous": false,
      "inputs": [
        {
          "indexed": true,
          "internalType": "address",
          "name": "owner",
          "type": "address"
        },
        {
          "indexed": true,
          "internalType": "address",
          "name": "approved",
          "type": "address"
        },
        {
          "indexed": true,
          "internalType": "uint256",
          "name": "tokenId",
          "type": "uint256"
        }
      ],
      "name": "Approval",
      "type": "event"
    },
    {
      "anonymous": false,
      "inputs": [
        {
          "indexed": true,
          "internalType": "address",
          "name": "owner",
          "type": "address"
        },
        {
          "indexed": true,
          "internalType": "address",
          "name": "operator",
          "type": "address"
        },
        {
          "indexed": false,
          "internalType": "bool",
          "name": "approved",
          "type": "bool"
        }
      ],
      "name": "ApprovalForAll",
      "type": "event"
    },
    {
      "anonymous": false,
      "inputs": [
        {
          "indexed": true,
          "internalType": "address",
          "name": "previousOwner",
          "type": "address"
        },
        {
          "indexed": true,
          "internalType": "address",
          "name": "newOwner",
          "type": "address"
        }
      ],
      "name": "OwnershipTransferred",
      "type": "event"
    },
    {
      "anonymous": false,
      "inputs": [
        {
          "indexed": true,
          "internalType": "address",
          "name": "from",
          "type": "address"
        },
        {
          "indexed": true,
          "internalType": "address",
          "name": "to",
          "type": "address"
        },
        {
          "indexed": true,
          "internalType": "uint256",
          "name": "tokenId",
          "type": "uint256"
        }
      ],
      "name": "Transfer",
      "type": "event"
    },
    {
      "inputs": [
        {
          "internalType": "address",
          "name": "to",
          "type": "address"
        },
        {
          "internalType": "uint256",
          "name": "tokenId",
          "type": "uint256"
        }
      ],
      "name": "approve",
      "outputs": [],
      "stateMutability": "nonpayable",
      "type": "function"
    },
    {
      "inputs": [
        {
          "internalType": "address",
          "name": "owner",
          "type": "address"
        }
      ],
      "name": "balanceOf",
      "outputs": [
        {
          "internalType": "uint256",
          "name": "",
          "type": "uint256"
        }
      ],
      "stateMutability": "view",
      "type": "function",
      "constant": true
    },
    {
      "inputs": [
        {
          "internalType": "uint256",
          "name": "tokenId",
          "type": "uint256"
        }
      ],
      "name": "getApproved",
      "outputs": [
        {
          "internalType": "address",
          "name": "",
          "type": "address"
        }
      ],
      "stateMutability": "view",
      "type": "function",
      "constant": true
    },
    {
      "inputs": [
        {
          "internalType": "address",
          "name": "owner",
          "type": "address"
        },
        {
          "internalType": "address",
          "name": "operator",
          "type": "address"
        }
      ],
      "name": "isApprovedForAll",
      "outputs": [
        {
          "internalType": "bool",
          "name": "",
          "type": "bool"
        }
      ],
      "stateMutability": "view",
      "type": "function",
      "constant": true
    },
    {
      "inputs": [],
      "name": "name",
      "outputs": [
        {
          "internalType": "string",
          "name": "",
          "type": "string"
        }
      ],
      "stateMutability": "view",
      "type": "function",
      "constant": true
    },
    {
      "inputs": [],
      "name": "owner",
      "outputs": [
        {
          "internalType": "address",
          "name": "",
          "type": "address"
        }
      ],
      "stateMutability": "view",
      "type": "function",
      "constant": true
    },
    {
      "inputs": [
        {
          "internalType": "uint256",
          "name": "tokenId",
          "type": "uint256"
        }
      ],
      "name": "ownerOf",
      "outputs": [
        {
          "internalType": "address",
          "name": "",
          "type": "address"
        }
      ],
      "stateMutability": "view",
      "type": "function",
      "constant": true
    },
    {
      "inputs": [],
      "name": "renounceOwnership",
      "outputs": [],
      "stateMutability": "nonpayable",
      "type": "function"
    },
    {
      "inputs": [
        {
          "internalType": "address",
          "name": "from",
          "type": "address"
        },
        {
          "internalType": "address",
          "name": "to",
          "type": "address"
        },
        {
          "internalType": "uint256",
          "name": "tokenId",
          "type": "uint256"
        }
      ],
      "name": "safeTransferFrom",
      "outputs": [],
      "stateMutability": "nonpayable",
      "type": "function"
    },
    {
      "inputs": [
        {
          "internalType": "address",
          "name": "from",
          "type": "address"
        },
        {
          "internalType": "address",
          "name": "to",
          "type": "address"
        },
        {
          "internalType": "uint256",
          "name": "tokenId",
          "type": "uint256"
        },
        {
          "internalType": "bytes",
          "name": "_data",
          "type": "bytes"
        }
      ],
      "name": "safeTransferFrom",
      "outputs": [],
      "stateMutability": "nonpayable",
      "type": "function"
    },
    {
      "inputs": [
        {
          "internalType": "address",
          "name": "operator",
          "type": "address"
        },
        {
          "internalType": "bool",
          "name": "approved",
          "type": "bool"
        }
      ],
      "name": "setApprovalForAll",
      "outputs": [],
      "stateMutability": "nonpayable",
      "type": "function"
    },
    {
      "inputs": [
        {
          "internalType": "bytes4",
          "name": "interfaceId",
          "type": "bytes4"
        }
      ],
      "name": "supportsInterface",
      "outputs": [
        {
          "internalType": "bool",
          "name": "",
          "type": "bool"
        }
      ],
      "stateMutability": "view",
      "type": "function",
      "constant": true
    },
    {
      "inputs": [],
      "name": "symbol",
      "outputs": [
        {
          "internalType": "string",
          "name": "",
          "type": "string"
        }
      ],
      "stateMutability": "view",
      "type": "function",
      "constant": true
    },
    {
      "inputs": [
        {
          "internalType": "uint256",
          "name": "tokenId",
          "type": "uint256"
        }
      ],
      "name": "tokenURI",
      "outputs": [
        {
          "internalType": "string",
          "name": "",
          "type": "string"
        }
      ],
      "stateMutability": "view",
      "type": "function",
      "constant": true
    },
    {
      "inputs": [
        {
          "internalType": "address",
          "name": "from",
          "type": "address"
        },
        {
          "internalType": "address",
          "name": "to",
          "type": "address"
        },
        {
          "internalType": "uint256",
          "name": "tokenId",
          "type": "uint256"
        }
      ],
      "name": "transferFrom",
      "outputs": [],
      "stateMutability": "nonpayable",
      "type": "function"
    },
    {
      "inputs": [
        {
          "internalType": "address",
          "name": "newOwner",
          "type": "address"
        }
      ],
      "name": "transferOwnership",
      "outputs": [],
      "stateMutability": "nonpayable",
      "type": "function"
    },
    {
      "inputs": [
        {
          "internalType": "address",
          "name": "sender",
          "type": "address"
        },
        {
          "internalType": "uint8[]",
          "name": "params8",
          "type": "uint8[]"
        },
        {
          "internalType": "uint256[]",
          "name": "params256",
          "type": "uint256[]"
        }
      ],
      "name": "mint",
      "outputs": [],
      "stateMutability": "payable",
      "type": "function",
      "payable": true
    },
    {
      "inputs": [
        {
          "internalType": "uint256",
          "name": "tokenId",
          "type": "uint256"
        }
      ],
      "name": "burn",
      "outputs": [],
      "stateMutability": "nonpayable",
      "type": "function"
    },
    {
      "inputs": [
        {
          "internalType": "address",
          "name": "from",
          "type": "address"
        },
        {
          "internalType": "address",
          "name": "to",
          "type": "address"
        },
        {
          "internalType": "uint256",
          "name": "tokenId",
          "type": "uint256"
        }
      ],
      "name": "transfer",
      "outputs": [],
      "stateMutability": "nonpayable",
      "type": "function"
    },
    {
      "inputs": [
        {
          "internalType": "uint256",
          "name": "tokenId",
          "type": "uint256"
        }
      ],
      "name": "getTokenDetails",
      "outputs": [
        {
          "components": [
            {
              "internalType": "bool",
              "name": "inSell",
              "type": "bool"
            },
            {
              "internalType": "bool",
              "name": "egg",
              "type": "bool"
            },
            {
              "internalType": "uint8[]",
              "name": "params8",
              "type": "uint8[]"
            },
            {
              "internalType": "uint256[]",
              "name": "params256",
              "type": "uint256[]"
            }
          ],
          "internalType": "struct TokenDelegable.Mystic",
          "name": "",
          "type": "tuple"
        }
      ],
      "stateMutability": "view",
      "type": "function",
      "constant": true
    },
    {
      "inputs": [
        {
          "internalType": "address",
          "name": "user",
          "type": "address"
        }
      ],
      "name": "getAllTokensForUser",
      "outputs": [
        {
          "internalType": "uint256[]",
          "name": "",
          "type": "uint256[]"
        }
      ],
      "stateMutability": "view",
      "type": "function",
      "constant": true
    },
    {
      "inputs": [
        {
          "internalType": "uint256",
          "name": "tokenId",
          "type": "uint256"
        }
      ],
      "name": "getOwnerOf",
      "outputs": [
        {
          "internalType": "address",
          "name": "",
          "type": "address"
        }
      ],
      "stateMutability": "view",
      "type": "function",
      "constant": true
    },
    {
      "inputs": [
        {
          "components": [
            {
              "internalType": "bool",
              "name": "inSell",
              "type": "bool"
            },
            {
              "internalType": "bool",
              "name": "egg",
              "type": "bool"
            },
            {
              "internalType": "uint8[]",
              "name": "params8",
              "type": "uint8[]"
            },
            {
              "internalType": "uint256[]",
              "name": "params256",
              "type": "uint256[]"
            }
          ],
          "internalType": "struct TokenDelegable.Mystic",
          "name": "mysticTemp",
          "type": "tuple"
        },
        {
          "internalType": "uint256",
          "name": "tokenId",
          "type": "uint256"
        },
        {
          "internalType": "address",
          "name": "owner",
          "type": "address"
        }
      ],
      "name": "updateToken",
      "outputs": [],
      "stateMutability": "nonpayable",
      "type": "function"
    },
    {
      "inputs": [
        {
          "internalType": "string",
          "name": "keyParams",
          "type": "string"
        },
        {
          "internalType": "uint256",
          "name": "valueParams",
          "type": "uint256"
        }
      ],
      "name": "setParamsContract",
      "outputs": [],
      "stateMutability": "nonpayable",
      "type": "function"
    },
    {
      "inputs": [
        {
          "internalType": "string",
          "name": "keyParams",
          "type": "string"
        }
      ],
      "name": "getParamsContract",
      "outputs": [
        {
          "internalType": "uint256",
          "name": "",
          "type": "uint256"
        }
      ],
      "stateMutability": "view",
      "type": "function",
      "constant": true
    },
    {
      "inputs": [
        {
          "internalType": "address",
          "name": "_adress",
          "type": "address"
        }
      ],
      "name": "setAdressDelegateContract",
      "outputs": [],
      "stateMutability": "nonpayable",
      "type": "function"
    }
  ],
  "bytecode": "0x60806040523480156200001157600080fd5b5060405162004678380380620046788339818101604052810190620000379190620002cd565b8181816000908051906020019062000051929190620001ab565b5080600190805190602001906200006a929190620001ab565b5050506200008d62000081620000dd60201b60201c565b620000e560201b60201c565b600060086040516200009f90620003db565b90815260200160405180910390208190555060006008604051620000c390620003c4565b90815260200160405180910390208190555050506200052e565b600033905090565b6000600660009054906101000a900473ffffffffffffffffffffffffffffffffffffffff16905081600660006101000a81548173ffffffffffffffffffffffffffffffffffffffff021916908373ffffffffffffffffffffffffffffffffffffffff1602179055508173ffffffffffffffffffffffffffffffffffffffff168173ffffffffffffffffffffffffffffffffffffffff167f8be0079c531659141344cd1fd0a4f28419497f9722a3daafe3b4186f6b6457e060405160405180910390a35050565b828054620001b9906200049a565b90600052602060002090601f016020900481019282620001dd576000855562000229565b82601f10620001f857805160ff191683800117855562000229565b8280016001018555821562000229579182015b82811115620002285782518255916020019190600101906200020b565b5b5090506200023891906200023c565b5090565b5b80821115620002575760008160009055506001016200023d565b5090565b6000620002726200026c8462000426565b620003f2565b9050828152602081018484840111156200028b57600080fd5b6200029884828562000464565b509392505050565b600082601f830112620002b257600080fd5b8151620002c48482602086016200025b565b91505092915050565b60008060408385031215620002e157600080fd5b600083015167ffffffffffffffff811115620002fc57600080fd5b6200030a85828601620002a0565b925050602083015167ffffffffffffffff8111156200032857600080fd5b6200033685828601620002a0565b9150509250929050565b60006200034f60098362000459565b91507f6e62724d797374696300000000000000000000000000000000000000000000006000830152600982019050919050565b60006200039160068362000459565b91507f6e657874496400000000000000000000000000000000000000000000000000006000830152600682019050919050565b6000620003d18262000340565b9150819050919050565b6000620003e88262000382565b9150819050919050565b6000604051905081810181811067ffffffffffffffff821117156200041c576200041b620004ff565b5b8060405250919050565b600067ffffffffffffffff821115620004445762000443620004ff565b5b601f19601f8301169050602081019050919050565b600081905092915050565b60005b838110156200048457808201518184015260208101905062000467565b8381111562000494576000848401525b50505050565b60006002820490506001821680620004b357607f821691505b60208210811415620004ca57620004c9620004d0565b5b50919050565b7f4e487b7100000000000000000000000000000000000000000000000000000000600052602260045260246000fd5b7f4e487b7100000000000000000000000000000000000000000000000000000000600052604160045260246000fd5b61413a806200053e6000396000f3fe6080604052600436106101815760003560e01c806382de8fe9116100d1578063beabacc81161008a578063e985e9c511610064578063e985e9c5146105a0578063ea4edda2146105dd578063f26bf0b7146105f9578063f2fde38b1461063657610181565b8063beabacc8146104fd578063c1e0372814610526578063c87b56dd1461056357610181565b806382de8fe9146103db57806383638710146104185780638da5cb5b1461045557806395d89b4114610480578063a22cb465146104ab578063b88d4fde146104d457610181565b806342842e0e1161013e5780635105d171116101185780635105d171146103215780636352211e1461034a57806370a0823114610387578063715018a6146103c457610181565b806342842e0e146102a657806342966c68146102cf57806348972034146102f857610181565b806301ffc9a71461018657806306fdde03146101c3578063081812fc146101ee578063095ea7b31461022b57806323b872dd146102545780633cb119441461027d575b600080fd5b34801561019257600080fd5b506101ad60048036038101906101a89190612d29565b61065f565b6040516101ba9190613907565b60405180910390f35b3480156101cf57600080fd5b506101d8610741565b6040516101e59190613922565b60405180910390f35b3480156101fa57600080fd5b5061021560048036038101906102109190612e77565b6107d3565b604051610222919061387e565b60405180910390f35b34801561023757600080fd5b50610252600480360381019061024d9190612ced565b610858565b005b34801561026057600080fd5b5061027b60048036038101906102769190612b68565b610970565b005b34801561028957600080fd5b506102a4600480360381019061029f9190612dbc565b6109d0565b005b3480156102b257600080fd5b506102cd60048036038101906102c89190612b68565b610a73565b005b3480156102db57600080fd5b506102f660048036038101906102f19190612e77565b610a93565b005b34801561030457600080fd5b5061031f600480360381019061031a9190612b03565b610b61565b005b34801561032d57600080fd5b5061034860048036038101906103439190612e10565b610c21565b005b34801561035657600080fd5b50610371600480360381019061036c9190612e77565b610dbd565b60405161037e919061387e565b60405180910390f35b34801561039357600080fd5b506103ae60048036038101906103a99190612b03565b610e6f565b6040516103bb9190613ba6565b60405180910390f35b3480156103d057600080fd5b506103d9610f27565b005b3480156103e757600080fd5b5061040260048036038101906103fd9190612b03565b610faf565b60405161040f91906138e5565b60405180910390f35b34801561042457600080fd5b5061043f600480360381019061043a9190612e77565b611191565b60405161044c919061387e565b60405180910390f35b34801561046157600080fd5b5061046a6111a3565b604051610477919061387e565b60405180910390f35b34801561048c57600080fd5b506104956111cd565b6040516104a29190613922565b60405180910390f35b3480156104b757600080fd5b506104d260048036038101906104cd9190612cb1565b61125f565b005b3480156104e057600080fd5b506104fb60048036038101906104f69190612bb7565b611275565b005b34801561050957600080fd5b50610524600480360381019061051f9190612b68565b6112d7565b005b34801561053257600080fd5b5061054d60048036038101906105489190612e77565b611387565b60405161055a9190613b84565b60405180910390f35b34801561056f57600080fd5b5061058a60048036038101906105859190612e77565b6114c0565b6040516105979190613922565b60405180910390f35b3480156105ac57600080fd5b506105c760048036038101906105c29190612b2c565b611567565b6040516105d49190613907565b60405180910390f35b6105f760048036038101906105f29190612c32565b6115fb565b005b34801561060557600080fd5b50610620600480360381019061061b9190612d7b565b61175d565b60405161062d9190613ba6565b60405180910390f35b34801561064257600080fd5b5061065d60048036038101906106589190612b03565b611785565b005b60007f80ac58cd000000000000000000000000000000000000000000000000000000007bffffffffffffffffffffffffffffffffffffffffffffffffffffffff1916827bffffffffffffffffffffffffffffffffffffffffffffffffffffffff1916148061072a57507f5b5e139f000000000000000000000000000000000000000000000000000000007bffffffffffffffffffffffffffffffffffffffffffffffffffffffff1916827bffffffffffffffffffffffffffffffffffffffffffffffffffffffff1916145b8061073a57506107398261187d565b5b9050919050565b60606000805461075090613f18565b80601f016020809104026020016040519081016040528092919081815260200182805461077c90613f18565b80156107c95780601f1061079e576101008083540402835291602001916107c9565b820191906000526020600020905b8154815290600101906020018083116107ac57829003601f168201915b5050505050905090565b60006107de826118e7565b61081d576040517f08c379a000000000000000000000000000000000000000000000000000000000815260040161081490613aa4565b60405180910390fd5b6004600083815260200190815260200160002060009054906101000a900473ffffffffffffffffffffffffffffffffffffffff169050919050565b600061086382610dbd565b90508073ffffffffffffffffffffffffffffffffffffffff168373ffffffffffffffffffffffffffffffffffffffff1614156108d4576040517f08c379a00000000000000000000000000000000000000000000000000000000081526004016108cb90613b24565b60405180910390fd5b8073ffffffffffffffffffffffffffffffffffffffff166108f3611953565b73ffffffffffffffffffffffffffffffffffffffff16148061092257506109218161091c611953565b611567565b5b610961576040517f08c379a000000000000000000000000000000000000000000000000000000000815260040161095890613a24565b60405180910390fd5b61096b838361195b565b505050565b61098161097b611953565b82611a14565b6109c0576040517f08c379a00000000000000000000000000000000000000000000000000000000081526004016109b790613b44565b60405180910390fd5b6109cb838383611af2565b505050565b6109d8611953565b73ffffffffffffffffffffffffffffffffffffffff166109f66111a3565b73ffffffffffffffffffffffffffffffffffffffff1614610a4c576040517f08c379a0000000000000000000000000000000000000000000000000000000008152600401610a4390613ac4565b60405180910390fd5b80600883604051610a5d9190613819565b9081526020016040518091039020819055505050565b610a8e83838360405180602001604052806000815250611275565b505050565b600760009054906101000a900473ffffffffffffffffffffffffffffffffffffffff1673ffffffffffffffffffffffffffffffffffffffff163373ffffffffffffffffffffffffffffffffffffffff1614610b23576040517f08c379a0000000000000000000000000000000000000000000000000000000008152600401610b1a906139a4565b60405180910390fd5b610b2c81611d4e565b6008604051610b3a90613854565b90815260200160405180910390206000815480929190610b5990613eee565b919050555050565b610b69611953565b73ffffffffffffffffffffffffffffffffffffffff16610b876111a3565b73ffffffffffffffffffffffffffffffffffffffff1614610bdd576040517f08c379a0000000000000000000000000000000000000000000000000000000008152600401610bd490613ac4565b60405180910390fd5b80600760006101000a81548173ffffffffffffffffffffffffffffffffffffffff021916908373ffffffffffffffffffffffffffffffffffffffff16021790555050565b600760009054906101000a900473ffffffffffffffffffffffffffffffffffffffff1673ffffffffffffffffffffffffffffffffffffffff163373ffffffffffffffffffffffffffffffffffffffff1614610cb1576040517f08c379a0000000000000000000000000000000000000000000000000000000008152600401610ca8906139a4565b60405180910390fd5b8073ffffffffffffffffffffffffffffffffffffffff16610cd183610dbd565b73ffffffffffffffffffffffffffffffffffffffff1614610d27576040517f08c379a0000000000000000000000000000000000000000000000000000000008152600401610d1e90613b64565b60405180910390fd5b826009600084815260200190815260200160002060008201518160000160006101000a81548160ff02191690831515021790555060208201518160000160016101000a81548160ff0219169083151502179055506040820151816001019080519060200190610d979291906126a8565b506060820151816002019080519060200190610db492919061274f565b50905050505050565b6000806002600084815260200190815260200160002060009054906101000a900473ffffffffffffffffffffffffffffffffffffffff169050600073ffffffffffffffffffffffffffffffffffffffff168173ffffffffffffffffffffffffffffffffffffffff161415610e66576040517f08c379a0000000000000000000000000000000000000000000000000000000008152600401610e5d90613a64565b60405180910390fd5b80915050919050565b60008073ffffffffffffffffffffffffffffffffffffffff168273ffffffffffffffffffffffffffffffffffffffff161415610ee0576040517f08c379a0000000000000000000000000000000000000000000000000000000008152600401610ed790613a44565b60405180910390fd5b600360008373ffffffffffffffffffffffffffffffffffffffff1673ffffffffffffffffffffffffffffffffffffffff168152602001908152602001600020549050919050565b610f2f611953565b73ffffffffffffffffffffffffffffffffffffffff16610f4d6111a3565b73ffffffffffffffffffffffffffffffffffffffff1614610fa3576040517f08c379a0000000000000000000000000000000000000000000000000000000008152600401610f9a90613ac4565b60405180910390fd5b610fad6000611e5f565b565b60606000610fbc83610e6f565b9050600081141561103f57600067ffffffffffffffff811115611008577f4e487b7100000000000000000000000000000000000000000000000000000000600052604160045260246000fd5b6040519080825280602002602001820160405280156110365781602001602082028036833780820191505090505b5091505061118c565b60008167ffffffffffffffff811115611081577f4e487b7100000000000000000000000000000000000000000000000000000000600052604160045260246000fd5b6040519080825280602002602001820160405280156110af5781602001602082028036833780820191505090505b509050600060086040516110c290613869565b90815260200160405180910390205490506000805b82811015611183578673ffffffffffffffffffffffffffffffffffffffff166110ff82610dbd565b73ffffffffffffffffffffffffffffffffffffffff1614156111705780848381518110611155577f4e487b7100000000000000000000000000000000000000000000000000000000600052603260045260246000fd5b602002602001018181525050818061116c90613f4a565b9250505b808061117b90613f4a565b9150506110d7565b83955050505050505b919050565b600061119c82610dbd565b9050919050565b6000600660009054906101000a900473ffffffffffffffffffffffffffffffffffffffff16905090565b6060600180546111dc90613f18565b80601f016020809104026020016040519081016040528092919081815260200182805461120890613f18565b80156112555780601f1061122a57610100808354040283529160200191611255565b820191906000526020600020905b81548152906001019060200180831161123857829003601f168201915b5050505050905090565b61127161126a611953565b8383611f25565b5050565b611286611280611953565b83611a14565b6112c5576040517f08c379a00000000000000000000000000000000000000000000000000000000081526004016112bc90613b44565b60405180910390fd5b6112d184848484612092565b50505050565b600760009054906101000a900473ffffffffffffffffffffffffffffffffffffffff1673ffffffffffffffffffffffffffffffffffffffff163373ffffffffffffffffffffffffffffffffffffffff1614611367576040517f08c379a000000000000000000000000000000000000000000000000000000000815260040161135e906139a4565b60405180910390fd5b61138283838360405180602001604052806000815250612092565b505050565b61138f61279c565b600960008381526020019081526020016000206040518060800160405290816000820160009054906101000a900460ff161515151581526020016000820160019054906101000a900460ff161515151581526020016001820180548060200260200160405190810160405280929190818152602001828054801561145857602002820191906000526020600020906000905b82829054906101000a900460ff1660ff16815260200190600101906020826000010492830192600103820291508084116114215790505b50505050508152602001600282018054806020026020016040519081016040528092919081815260200182805480156114b057602002820191906000526020600020905b81548152602001906001019080831161149c575b5050505050815250509050919050565b60606114cb826118e7565b61150a576040517f08c379a000000000000000000000000000000000000000000000000000000000815260040161150190613b04565b60405180910390fd5b60006115146120ee565b90506000815111611534576040518060200160405280600081525061155f565b8061153e84612105565b60405160200161154f929190613830565b6040516020818303038152906040525b915050919050565b6000600560008473ffffffffffffffffffffffffffffffffffffffff1673ffffffffffffffffffffffffffffffffffffffff16815260200190815260200160002060008373ffffffffffffffffffffffffffffffffffffffff1673ffffffffffffffffffffffffffffffffffffffff16815260200190815260200160002060009054906101000a900460ff16905092915050565b60405180608001604052806000151581526020016001151581526020018381526020018281525060096000600860405161163490613869565b908152602001604051809103902054815260200190815260200160002060008201518160000160006101000a81548160ff02191690831515021790555060208201518160000160016101000a81548160ff02191690831515021790555060408201518160010190805190602001906116ad9291906126a8565b5060608201518160020190805190602001906116ca92919061274f565b509050506116f48360086040516116e090613869565b9081526020016040518091039020546122b2565b600860405161170290613869565b9081526020016040518091039020600081548092919061172190613f4a565b9190505550600860405161173490613854565b9081526020016040518091039020600081548092919061175390613f4a565b9190505550505050565b600060088260405161176f9190613819565b9081526020016040518091039020549050919050565b61178d611953565b73ffffffffffffffffffffffffffffffffffffffff166117ab6111a3565b73ffffffffffffffffffffffffffffffffffffffff1614611801576040517f08c379a00000000000000000000000000000000000000000000000000000000081526004016117f890613ac4565b60405180910390fd5b600073ffffffffffffffffffffffffffffffffffffffff168173ffffffffffffffffffffffffffffffffffffffff161415611871576040517f08c379a000000000000000000000000000000000000000000000000000000000815260040161186890613964565b60405180910390fd5b61187a81611e5f565b50565b60007f01ffc9a7000000000000000000000000000000000000000000000000000000007bffffffffffffffffffffffffffffffffffffffffffffffffffffffff1916827bffffffffffffffffffffffffffffffffffffffffffffffffffffffff1916149050919050565b60008073ffffffffffffffffffffffffffffffffffffffff166002600084815260200190815260200160002060009054906101000a900473ffffffffffffffffffffffffffffffffffffffff1673ffffffffffffffffffffffffffffffffffffffff1614159050919050565b600033905090565b816004600083815260200190815260200160002060006101000a81548173ffffffffffffffffffffffffffffffffffffffff021916908373ffffffffffffffffffffffffffffffffffffffff160217905550808273ffffffffffffffffffffffffffffffffffffffff166119ce83610dbd565b73ffffffffffffffffffffffffffffffffffffffff167f8c5be1e5ebec7d5bd14f71427d1e84f3dd0314c0f7b2291e5b200ac8c7c3b92560405160405180910390a45050565b6000611a1f826118e7565b611a5e576040517f08c379a0000000000000000000000000000000000000000000000000000000008152600401611a5590613a04565b60405180910390fd5b6000611a6983610dbd565b90508073ffffffffffffffffffffffffffffffffffffffff168473ffffffffffffffffffffffffffffffffffffffff161480611ad857508373ffffffffffffffffffffffffffffffffffffffff16611ac0846107d3565b73ffffffffffffffffffffffffffffffffffffffff16145b80611ae95750611ae88185611567565b5b91505092915050565b8273ffffffffffffffffffffffffffffffffffffffff16611b1282610dbd565b73ffffffffffffffffffffffffffffffffffffffff1614611b68576040517f08c379a0000000000000000000000000000000000000000000000000000000008152600401611b5f90613ae4565b60405180910390fd5b600073ffffffffffffffffffffffffffffffffffffffff168273ffffffffffffffffffffffffffffffffffffffff161415611bd8576040517f08c379a0000000000000000000000000000000000000000000000000000000008152600401611bcf906139c4565b60405180910390fd5b611be38383836122d0565b611bee60008261195b565b6001600360008573ffffffffffffffffffffffffffffffffffffffff1673ffffffffffffffffffffffffffffffffffffffff1681526020019081526020016000206000828254611c3e9190613df7565b925050819055506001600360008473ffffffffffffffffffffffffffffffffffffffff1673ffffffffffffffffffffffffffffffffffffffff1681526020019081526020016000206000828254611c959190613d70565b92505081905550816002600083815260200190815260200160002060006101000a81548173ffffffffffffffffffffffffffffffffffffffff021916908373ffffffffffffffffffffffffffffffffffffffff160217905550808273ffffffffffffffffffffffffffffffffffffffff168473ffffffffffffffffffffffffffffffffffffffff167fddf252ad1be2c89b69c2b068fc378daa952ba7f163c4a11628f55a4df523b3ef60405160405180910390a4505050565b6000611d5982610dbd565b9050611d67816000846122d0565b611d7260008361195b565b6001600360008373ffffffffffffffffffffffffffffffffffffffff1673ffffffffffffffffffffffffffffffffffffffff1681526020019081526020016000206000828254611dc29190613df7565b925050819055506002600083815260200190815260200160002060006101000a81549073ffffffffffffffffffffffffffffffffffffffff021916905581600073ffffffffffffffffffffffffffffffffffffffff168273ffffffffffffffffffffffffffffffffffffffff167fddf252ad1be2c89b69c2b068fc378daa952ba7f163c4a11628f55a4df523b3ef60405160405180910390a45050565b6000600660009054906101000a900473ffffffffffffffffffffffffffffffffffffffff16905081600660006101000a81548173ffffffffffffffffffffffffffffffffffffffff021916908373ffffffffffffffffffffffffffffffffffffffff1602179055508173ffffffffffffffffffffffffffffffffffffffff168173ffffffffffffffffffffffffffffffffffffffff167f8be0079c531659141344cd1fd0a4f28419497f9722a3daafe3b4186f6b6457e060405160405180910390a35050565b8173ffffffffffffffffffffffffffffffffffffffff168373ffffffffffffffffffffffffffffffffffffffff161415611f94576040517f08c379a0000000000000000000000000000000000000000000000000000000008152600401611f8b906139e4565b60405180910390fd5b80600560008573ffffffffffffffffffffffffffffffffffffffff1673ffffffffffffffffffffffffffffffffffffffff16815260200190815260200160002060008473ffffffffffffffffffffffffffffffffffffffff1673ffffffffffffffffffffffffffffffffffffffff16815260200190815260200160002060006101000a81548160ff0219169083151502179055508173ffffffffffffffffffffffffffffffffffffffff168373ffffffffffffffffffffffffffffffffffffffff167f17307eab39ab6107e8899845ad3d59bd9653f200f220920489ca2b5937696c31836040516120859190613907565b60405180910390a3505050565b61209d848484611af2565b6120a9848484846122d5565b6120e8576040517f08c379a00000000000000000000000000000000000000000000000000000000081526004016120df90613944565b60405180910390fd5b50505050565b606060405180602001604052806000815250905090565b6060600082141561214d576040518060400160405280600181526020017f300000000000000000000000000000000000000000000000000000000000000081525090506122ad565b600082905060005b6000821461217f57808061216890613f4a565b915050600a826121789190613dc6565b9150612155565b60008167ffffffffffffffff8111156121c1577f4e487b7100000000000000000000000000000000000000000000000000000000600052604160045260246000fd5b6040519080825280601f01601f1916602001820160405280156121f35781602001600182028036833780820191505090505b5090505b600085146122a65760018261220c9190613df7565b9150600a8561221b9190613f93565b60306122279190613d70565b60f81b818381518110612263577f4e487b7100000000000000000000000000000000000000000000000000000000600052603260045260246000fd5b60200101907effffffffffffffffffffffffffffffffffffffffffffffffffffffffffffff1916908160001a905350600a8561229f9190613dc6565b94506121f7565b8093505050505b919050565b6122cc82826040518060200160405280600081525061246c565b5050565b505050565b60006122f68473ffffffffffffffffffffffffffffffffffffffff166124c7565b1561245f578373ffffffffffffffffffffffffffffffffffffffff1663150b7a0261231f611953565b8786866040518563ffffffff1660e01b81526004016123419493929190613899565b602060405180830381600087803b15801561235b57600080fd5b505af192505050801561238c57506040513d601f19601f820116820180604052508101906123899190612d52565b60015b61240f573d80600081146123bc576040519150601f19603f3d011682016040523d82523d6000602084013e6123c1565b606091505b50600081511415612407576040517f08c379a00000000000000000000000000000000000000000000000000000000081526004016123fe90613944565b60405180910390fd5b805181602001fd5b63150b7a0260e01b7bffffffffffffffffffffffffffffffffffffffffffffffffffffffff1916817bffffffffffffffffffffffffffffffffffffffffffffffffffffffff191614915050612464565b600190505b949350505050565b61247683836124da565b61248360008484846122d5565b6124c2576040517f08c379a00000000000000000000000000000000000000000000000000000000081526004016124b990613944565b60405180910390fd5b505050565b600080823b905060008111915050919050565b600073ffffffffffffffffffffffffffffffffffffffff168273ffffffffffffffffffffffffffffffffffffffff16141561254a576040517f08c379a000000000000000000000000000000000000000000000000000000000815260040161254190613a84565b60405180910390fd5b612553816118e7565b15612593576040517f08c379a000000000000000000000000000000000000000000000000000000000815260040161258a90613984565b60405180910390fd5b61259f600083836122d0565b6001600360008473ffffffffffffffffffffffffffffffffffffffff1673ffffffffffffffffffffffffffffffffffffffff16815260200190815260200160002060008282546125ef9190613d70565b92505081905550816002600083815260200190815260200160002060006101000a81548173ffffffffffffffffffffffffffffffffffffffff021916908373ffffffffffffffffffffffffffffffffffffffff160217905550808273ffffffffffffffffffffffffffffffffffffffff16600073ffffffffffffffffffffffffffffffffffffffff167fddf252ad1be2c89b69c2b068fc378daa952ba7f163c4a11628f55a4df523b3ef60405160405180910390a45050565b82805482825590600052602060002090601f0160209004810192821561273e5791602002820160005b8382111561270f57835183826101000a81548160ff021916908360ff16021790555092602001926001016020816000010492830192600103026126d1565b801561273c5782816101000a81549060ff021916905560010160208160000104928301926001030261270f565b505b50905061274b91906127c8565b5090565b82805482825590600052602060002090810192821561278b579160200282015b8281111561278a57825182559160200191906001019061276f565b5b50905061279891906127c8565b5090565b604051806080016040528060001515815260200160001515815260200160608152602001606081525090565b5b808211156127e15760008160009055506001016127c9565b5090565b60006127f86127f384613bf2565b613bc1565b9050808382526020820190508285602086028201111561281757600080fd5b60005b85811015612847578161282d8882612ad9565b84526020840193506020830192505060018101905061281a565b5050509392505050565b600061286461285f84613c1e565b613bc1565b9050808382526020820190508285602086028201111561288357600080fd5b60005b858110156128b357816128998882612aee565b845260208401935060208301925050600181019050612886565b5050509392505050565b60006128d06128cb84613c4a565b613bc1565b9050828152602081018484840111156128e857600080fd5b6128f3848285613eac565b509392505050565b600061290e61290984613c7a565b613bc1565b90508281526020810184848401111561292657600080fd5b612931848285613eac565b509392505050565b60008135905061294881614091565b92915050565b600082601f83011261295f57600080fd5b813561296f8482602086016127e5565b91505092915050565b600082601f83011261298957600080fd5b8135612999848260208601612851565b91505092915050565b6000813590506129b1816140a8565b92915050565b6000813590506129c6816140bf565b92915050565b6000815190506129db816140bf565b92915050565b600082601f8301126129f257600080fd5b8135612a028482602086016128bd565b91505092915050565b600082601f830112612a1c57600080fd5b8135612a2c8482602086016128fb565b91505092915050565b600060808284031215612a4757600080fd5b612a516080613bc1565b90506000612a61848285016129a2565b6000830152506020612a75848285016129a2565b602083015250604082013567ffffffffffffffff811115612a9557600080fd5b612aa184828501612978565b604083015250606082013567ffffffffffffffff811115612ac157600080fd5b612acd8482850161294e565b60608301525092915050565b600081359050612ae8816140d6565b92915050565b600081359050612afd816140ed565b92915050565b600060208284031215612b1557600080fd5b6000612b2384828501612939565b91505092915050565b60008060408385031215612b3f57600080fd5b6000612b4d85828601612939565b9250506020612b5e85828601612939565b9150509250929050565b600080600060608486031215612b7d57600080fd5b6000612b8b86828701612939565b9350506020612b9c86828701612939565b9250506040612bad86828701612ad9565b9150509250925092565b60008060008060808587031215612bcd57600080fd5b6000612bdb87828801612939565b9450506020612bec87828801612939565b9350506040612bfd87828801612ad9565b925050606085013567ffffffffffffffff811115612c1a57600080fd5b612c26878288016129e1565b91505092959194509250565b600080600060608486031215612c4757600080fd5b6000612c5586828701612939565b935050602084013567ffffffffffffffff811115612c7257600080fd5b612c7e86828701612978565b925050604084013567ffffffffffffffff811115612c9b57600080fd5b612ca78682870161294e565b9150509250925092565b60008060408385031215612cc457600080fd5b6000612cd285828601612939565b9250506020612ce3858286016129a2565b9150509250929050565b60008060408385031215612d0057600080fd5b6000612d0e85828601612939565b9250506020612d1f85828601612ad9565b9150509250929050565b600060208284031215612d3b57600080fd5b6000612d49848285016129b7565b91505092915050565b600060208284031215612d6457600080fd5b6000612d72848285016129cc565b91505092915050565b600060208284031215612d8d57600080fd5b600082013567ffffffffffffffff811115612da757600080fd5b612db384828501612a0b565b91505092915050565b60008060408385031215612dcf57600080fd5b600083013567ffffffffffffffff811115612de957600080fd5b612df585828601612a0b565b9250506020612e0685828601612ad9565b9150509250929050565b600080600060608486031215612e2557600080fd5b600084013567ffffffffffffffff811115612e3f57600080fd5b612e4b86828701612a35565b9350506020612e5c86828701612ad9565b9250506040612e6d86828701612939565b9150509250925092565b600060208284031215612e8957600080fd5b6000612e9784828501612ad9565b91505092915050565b6000612eac83836137ec565b60208301905092915050565b6000612ec4838361380a565b60208301905092915050565b612ed981613e2b565b82525050565b6000612eea82613cca565b612ef48185613d10565b9350612eff83613caa565b8060005b83811015612f30578151612f178882612ea0565b9750612f2283613cf6565b925050600181019050612f03565b5085935050505092915050565b6000612f4882613cca565b612f528185613d21565b9350612f5d83613caa565b8060005b83811015612f8e578151612f758882612ea0565b9750612f8083613cf6565b925050600181019050612f61565b5085935050505092915050565b6000612fa682613cd5565b612fb08185613d32565b9350612fbb83613cba565b8060005b83811015612fec578151612fd38882612eb8565b9750612fde83613d03565b925050600181019050612fbf565b5085935050505092915050565b61300281613e3d565b82525050565b61301181613e3d565b82525050565b600061302282613ce0565b61302c8185613d43565b935061303c818560208601613ebb565b61304581614080565b840191505092915050565b600061305b82613ceb565b6130658185613d54565b9350613075818560208601613ebb565b61307e81614080565b840191505092915050565b600061309482613ceb565b61309e8185613d65565b93506130ae818560208601613ebb565b80840191505092915050565b60006130c7603283613d54565b91507f4552433732313a207472616e7366657220746f206e6f6e20455243373231526560008301527f63656976657220696d706c656d656e74657200000000000000000000000000006020830152604082019050919050565b600061312d602683613d54565b91507f4f776e61626c653a206e6577206f776e657220697320746865207a65726f206160008301527f64647265737300000000000000000000000000000000000000000000000000006020830152604082019050919050565b6000613193601c83613d54565b91507f4552433732313a20746f6b656e20616c7265616479206d696e746564000000006000830152602082019050919050565b60006131d3600983613d65565b91507f6e62724d797374696300000000000000000000000000000000000000000000006000830152600982019050919050565b6000613213601a83613d54565b91507f4e6f7420676f6f642064656c656761746520636f6e74726163740000000000006000830152602082019050919050565b6000613253602483613d54565b91507f4552433732313a207472616e7366657220746f20746865207a65726f2061646460008301527f72657373000000000000000000000000000000000000000000000000000000006020830152604082019050919050565b60006132b9601983613d54565b91507f4552433732313a20617070726f766520746f2063616c6c6572000000000000006000830152602082019050919050565b60006132f9600683613d65565b91507f6e657874496400000000000000000000000000000000000000000000000000006000830152600682019050919050565b6000613339602c83613d54565b91507f4552433732313a206f70657261746f7220717565727920666f72206e6f6e657860008301527f697374656e7420746f6b656e00000000000000000000000000000000000000006020830152604082019050919050565b600061339f603883613d54565b91507f4552433732313a20617070726f76652063616c6c6572206973206e6f74206f7760008301527f6e6572206e6f7220617070726f76656420666f7220616c6c00000000000000006020830152604082019050919050565b6000613405602a83613d54565b91507f4552433732313a2062616c616e636520717565727920666f7220746865207a6560008301527f726f2061646472657373000000000000000000000000000000000000000000006020830152604082019050919050565b600061346b602983613d54565b91507f4552433732313a206f776e657220717565727920666f72206e6f6e657869737460008301527f656e7420746f6b656e00000000000000000000000000000000000000000000006020830152604082019050919050565b60006134d1602083613d54565b91507f4552433732313a206d696e7420746f20746865207a65726f20616464726573736000830152602082019050919050565b6000613511602c83613d54565b91507f4552433732313a20617070726f76656420717565727920666f72206e6f6e657860008301527f697374656e7420746f6b656e00000000000000000000000000000000000000006020830152604082019050919050565b6000613577602083613d54565b91507f4f776e61626c653a2063616c6c6572206973206e6f7420746865206f776e65726000830152602082019050919050565b60006135b7602983613d54565b91507f4552433732313a207472616e73666572206f6620746f6b656e2074686174206960008301527f73206e6f74206f776e00000000000000000000000000000000000000000000006020830152604082019050919050565b600061361d602f83613d54565b91507f4552433732314d657461646174613a2055524920717565727920666f72206e6f60008301527f6e6578697374656e7420746f6b656e00000000000000000000000000000000006020830152604082019050919050565b6000613683602183613d54565b91507f4552433732313a20617070726f76616c20746f2063757272656e74206f776e6560008301527f72000000000000000000000000000000000000000000000000000000000000006020830152604082019050919050565b60006136e9603183613d54565b91507f4552433732313a207472616e736665722063616c6c6572206973206e6f74206f60008301527f776e6572206e6f7220617070726f7665640000000000000000000000000000006020830152604082019050919050565b600061374f600f83613d54565b91507f4e6f7420596f7572206d797374696300000000000000000000000000000000006000830152602082019050919050565b600060808301600083015161379a6000860182612ff9565b5060208301516137ad6020860182612ff9565b50604083015184820360408601526137c58282612f9b565b915050606083015184820360608601526137df8282612edf565b9150508091505092915050565b6137f581613e95565b82525050565b61380481613e95565b82525050565b61381381613e9f565b82525050565b60006138258284613089565b915081905092915050565b600061383c8285613089565b91506138488284613089565b91508190509392505050565b600061385f826131c6565b9150819050919050565b6000613874826132ec565b9150819050919050565b60006020820190506138936000830184612ed0565b92915050565b60006080820190506138ae6000830187612ed0565b6138bb6020830186612ed0565b6138c860408301856137fb565b81810360608301526138da8184613017565b905095945050505050565b600060208201905081810360008301526138ff8184612f3d565b905092915050565b600060208201905061391c6000830184613008565b92915050565b6000602082019050818103600083015261393c8184613050565b905092915050565b6000602082019050818103600083015261395d816130ba565b9050919050565b6000602082019050818103600083015261397d81613120565b9050919050565b6000602082019050818103600083015261399d81613186565b9050919050565b600060208201905081810360008301526139bd81613206565b9050919050565b600060208201905081810360008301526139dd81613246565b9050919050565b600060208201905081810360008301526139fd816132ac565b9050919050565b60006020820190508181036000830152613a1d8161332c565b9050919050565b60006020820190508181036000830152613a3d81613392565b9050919050565b60006020820190508181036000830152613a5d816133f8565b9050919050565b60006020820190508181036000830152613a7d8161345e565b9050919050565b60006020820190508181036000830152613a9d816134c4565b9050919050565b60006020820190508181036000830152613abd81613504565b9050919050565b60006020820190508181036000830152613add8161356a565b9050919050565b60006020820190508181036000830152613afd816135aa565b9050919050565b60006020820190508181036000830152613b1d81613610565b9050919050565b60006020820190508181036000830152613b3d81613676565b9050919050565b60006020820190508181036000830152613b5d816136dc565b9050919050565b60006020820190508181036000830152613b7d81613742565b9050919050565b60006020820190508181036000830152613b9e8184613782565b905092915050565b6000602082019050613bbb60008301846137fb565b92915050565b6000604051905081810181811067ffffffffffffffff82111715613be857613be7614051565b5b8060405250919050565b600067ffffffffffffffff821115613c0d57613c0c614051565b5b602082029050602081019050919050565b600067ffffffffffffffff821115613c3957613c38614051565b5b602082029050602081019050919050565b600067ffffffffffffffff821115613c6557613c64614051565b5b601f19601f8301169050602081019050919050565b600067ffffffffffffffff821115613c9557613c94614051565b5b601f19601f8301169050602081019050919050565b6000819050602082019050919050565b6000819050602082019050919050565b600081519050919050565b600081519050919050565b600081519050919050565b600081519050919050565b6000602082019050919050565b6000602082019050919050565b600082825260208201905092915050565b600082825260208201905092915050565b600082825260208201905092915050565b600082825260208201905092915050565b600082825260208201905092915050565b600081905092915050565b6000613d7b82613e95565b9150613d8683613e95565b9250827fffffffffffffffffffffffffffffffffffffffffffffffffffffffffffffffff03821115613dbb57613dba613fc4565b5b828201905092915050565b6000613dd182613e95565b9150613ddc83613e95565b925082613dec57613deb613ff3565b5b828204905092915050565b6000613e0282613e95565b9150613e0d83613e95565b925082821015613e2057613e1f613fc4565b5b828203905092915050565b6000613e3682613e75565b9050919050565b60008115159050919050565b60007fffffffff0000000000000000000000000000000000000000000000000000000082169050919050565b600073ffffffffffffffffffffffffffffffffffffffff82169050919050565b6000819050919050565b600060ff82169050919050565b82818337600083830152505050565b60005b83811015613ed9578082015181840152602081019050613ebe565b83811115613ee8576000848401525b50505050565b6000613ef982613e95565b91506000821415613f0d57613f0c613fc4565b5b600182039050919050565b60006002820490506001821680613f3057607f821691505b60208210811415613f4457613f43614022565b5b50919050565b6000613f5582613e95565b91507fffffffffffffffffffffffffffffffffffffffffffffffffffffffffffffffff821415613f8857613f87613fc4565b5b600182019050919050565b6000613f9e82613e95565b9150613fa983613e95565b925082613fb957613fb8613ff3565b5b828206905092915050565b7f4e487b7100000000000000000000000000000000000000000000000000000000600052601160045260246000fd5b7f4e487b7100000000000000000000000000000000000000000000000000000000600052601260045260246000fd5b7f4e487b7100000000000000000000000000000000000000000000000000000000600052602260045260246000fd5b7f4e487b7100000000000000000000000000000000000000000000000000000000600052604160045260246000fd5b6000601f19601f8301169050919050565b61409a81613e2b565b81146140a557600080fd5b50565b6140b181613e3d565b81146140bc57600080fd5b50565b6140c881613e49565b81146140d357600080fd5b50565b6140df81613e95565b81146140ea57600080fd5b50565b6140f681613e9f565b811461410157600080fd5b5056fea2646970667358221220143d849ab517d502fe8be9166438eee3565c667638c79800fb56f54a654cff9964736f6c63430008000033",
  "immutableReferences": {},
  "source": "pragma solidity 0.8.0;\r\n\r\nimport '../node_modules/@openzeppelin/contracts/token/ERC721/ERC721.sol';\r\nimport '../node_modules/@openzeppelin/contracts/access/Ownable.sol';\r\n\r\ncontract DelegateContract is Ownable {\r\n\r\n    constructor(address _addressContract) {\r\n        addressContract = _addressContract;\r\n        paramsContract[\"nextId\"] = TokenDelegable(addressContract).getParamsContract(\"nextId\");\r\n     }\r\n\r\n    address addressContract;\r\n    mapping( string => uint ) paramsContract;\r\n\r\n    function priceEgg(uint256 price, uint8 typeEgg) public onlyOwner {\r\n        if(typeEgg==1) paramsContract[\"priceEggOne\"] = price;\r\n        if(typeEgg==2) paramsContract[\"priceEggTwo\"] = price;\r\n        if(typeEgg==3) paramsContract[\"priceEggThree\"] = price;\r\n    }\r\n\r\n    function random(uint8 maxNumber) public returns (uint8) {\r\n        uint256 randomnumber = uint256(keccak256(abi.encodePacked(block.timestamp, msg.sender, paramsContract[\"nonce\"]))) % maxNumber;\r\n        randomnumber = randomnumber ;\r\n        paramsContract[\"nonce\"]++;\r\n        return uint8(randomnumber);\r\n    }\r\n\r\n    function setParamsDelegate(string memory keyParams, uint256 valueParams ) external {\r\n        TokenDelegable contrat = TokenDelegable(addressContract);\r\n        contrat.setParamsContract(keyParams, valueParams);\r\n    }\r\n\r\n    function mintDelegate(uint8 typeMint) public payable{\r\n\r\n        uint8 bonus = 0;\r\n        require(typeMint == 1 || typeMint == 2 || typeMint == 3,\"Type not good\");\r\n        if(typeMint == 1){require(msg.value >= paramsContract[\"priceEggOne\"],\"More ETH required\");bonus = 8;}\r\n        if(typeMint == 2){require(msg.value >= paramsContract[\"priceEggTwo\"],\"More ETH required\");bonus = 4;}\r\n        if(typeMint == 3){require(msg.value >= paramsContract[\"priceEggThree\"],\"More ETH required\");bonus = 0;}\r\n        uint8[] memory randomParts = new uint8[](6);\r\n        uint256[] memory randomParams = new uint256[](10);\r\n        randomParts[0] = random(4)+bonus;\r\n        randomParts[1] = random(4)+bonus;\r\n        randomParts[2] = random(4)+bonus;\r\n        randomParts[3] = random(4)+bonus;\r\n        randomParts[4] = random(4)+bonus;\r\n        randomParts[5] = random(4)+bonus;\r\n        randomParams[0] = block.timestamp;\r\n        randomParams[1] = msg.value;\r\n        randomParams[2] = 0;//idreproduce\r\n        randomParams[3] = 0;//mother\r\n        randomParams[4] = 0;//father\r\n        randomParams[5] = 0;//nbrreproduce\r\n        //_tokenDetails[nextId] = Mystic(0,0,0,randomParts,false,true,block.timestamp,msg.value,0);\r\n        //_safeMint(msg.sender, nextId);\r\n        paramsContract[\"nextId\"]++;\r\n\r\n        TokenDelegable contrat = TokenDelegable(addressContract);\r\n        contrat.mint(msg.sender, randomParts, randomParams);\r\n    }\r\n\r\n    \r\n    function paramsMystic(uint256 tokenId,bool sellable,bool egg, uint8 tokenIdReproducable) public {\r\n        \r\n        TokenDelegable contrat = TokenDelegable(addressContract);\r\n        TokenDelegable.Mystic memory mysticTemp =  contrat.getTokenDetails(tokenId);\r\n        mysticTemp.inSell = sellable;\r\n        if(mysticTemp.egg != egg) mysticTemp.params256[0] = block.timestamp;\r\n        mysticTemp.egg = egg;\r\n        mysticTemp.params256[1] = tokenIdReproducable;\r\n\r\n        contrat.updateToken(mysticTemp,tokenId,msg.sender);\r\n    }\r\n\r\n    function purchaseAndTransfer(address contactAddr, uint256 tokenId, uint256 amount,bool purchase) external payable {\r\n        TokenDelegable contrat = TokenDelegable(addressContract);\r\n        TokenDelegable.Mystic memory mystic =  contrat.getTokenDetails(tokenId);\r\n        if(amount != 0) require(msg.value >= mystic.params256[1] * amount, \"Insufficient fonds sent\");\r\n        require(contrat.getOwnerOf(tokenId) != (purchase?msg.sender:contactAddr), \"Already Owned\");\r\n        uint256[] memory resultIndex = contrat.getAllTokensForUser(msg.sender);\r\n        require(resultIndex.length <= 1, \"Already have a mystic\");\r\n        mystic.inSell=false;\r\n        contrat.updateToken(mystic,tokenId,msg.sender);\r\n        contrat.transfer((purchase?contactAddr:msg.sender), (purchase?msg.sender:contactAddr), tokenId);\r\n    }\r\n\r\n    \r\n    /*\r\n    faire l'alatoire depuis le front et mttre dans parts one et parts two\r\n    */\r\n    function reproduce( uint8[] memory partsOne, uint256 tokenIdOne, uint8[] memory partsTwo, address senderInvit, uint256 tokenIdTwo) public {\r\n\r\n        TokenDelegable contrat = TokenDelegable(addressContract);\r\n        TokenDelegable.Mystic memory mysticOne =  contrat.getTokenDetails(tokenIdOne);\r\n        TokenDelegable.Mystic memory mysticTwo =  contrat.getTokenDetails(tokenIdTwo);\r\n\r\n        require(mysticOne.params256[0] != 0 && mysticTwo.params256[0] != 0,\"Mystic not exist\");\r\n        require((tokenIdOne != mysticTwo.params256[3] && tokenIdOne != mysticTwo.params256[4] && tokenIdTwo != mysticOne.params256[3] && tokenIdOne != mysticOne.params256[4] && mysticOne.params256[4] != mysticTwo.params256[4] && mysticOne.params256[4] != mysticTwo.params256[3] && mysticOne.params256[3] != mysticTwo.params256[4] && mysticOne.params256[3] != mysticTwo.params256[3]) || (mysticTwo.params256[3] == 0 && mysticTwo.params256[4] == 0 && mysticOne.params256[3] == 0 && mysticOne.params256[4] == 0) ,\"Parently too close\");\r\n        require(mysticTwo.params256[2] == tokenIdOne && contrat.getOwnerOf(tokenIdOne) == msg.sender && contrat.getOwnerOf(tokenIdTwo) == senderInvit && mysticTwo.params256[5] < 3 && mysticOne.params256[5] < 3 ,\"Too many reproduce time\");\r\n\r\n        \r\n        uint8[] memory randomParts = new uint8[](6);\r\n        uint256[] memory randomParams = new uint256[](10);\r\n        randomParts[0] = random(2)==0?mysticOne.params8[0]:mysticTwo.params8[0];\r\n        randomParts[1] = random(2)==0?mysticOne.params8[1]:mysticTwo.params8[1];\r\n        randomParts[2] = random(2)==0?mysticOne.params8[2]:mysticTwo.params8[2];\r\n        randomParts[3] = random(2)==0?mysticOne.params8[3]:mysticTwo.params8[3];\r\n        randomParts[4] = random(2)==0?mysticOne.params8[4]:mysticTwo.params8[4];\r\n        randomParts[5] = random(2)==0?mysticOne.params8[5]:mysticTwo.params8[5];\r\n        randomParams[0] = block.timestamp;\r\n        randomParams[1] = mysticOne.params256[1];\r\n        randomParams[2] = 0;//idreproduce\r\n        randomParams[3] = tokenIdOne;//mother\r\n        randomParams[4] = tokenIdTwo;//father\r\n        randomParams[5] = 0;//nbrreproduce\r\n\r\n        \r\n        contrat.mint(msg.sender, randomParts, randomParams);paramsContract[\"nextId\"]++;\r\n        randomParts[0] = random(2)==0?mysticOne.params8[0]:mysticTwo.params8[0];\r\n        randomParts[1] = random(2)==0?mysticOne.params8[1]:mysticTwo.params8[1];\r\n        randomParts[2] = random(2)==0?mysticOne.params8[2]:mysticTwo.params8[2];\r\n        randomParts[3] = random(2)==0?mysticOne.params8[3]:mysticTwo.params8[3];\r\n        randomParts[4] = random(2)==0?mysticOne.params8[4]:mysticTwo.params8[4];\r\n        randomParts[5] = random(2)==0?mysticOne.params8[5]:mysticTwo.params8[5];\r\n        contrat.mint(senderInvit, randomParts, randomParams);paramsContract[\"nextId\"]++;\r\n        \r\n        mysticOne.params256[5]++;\r\n        mysticTwo.params256[5]++;\r\n        mysticTwo.params256[1] = 0;\r\n        \r\n        contrat.updateToken(mysticOne,tokenIdOne,msg.sender);\r\n        contrat.updateToken(mysticTwo,tokenIdTwo,senderInvit);\r\n    }\r\n\r\n\r\n    /*FUNDS*/\r\n\r\n    function withdraw() public onlyOwner {\r\n        payable(msg.sender).transfer(address(this).balance);\r\n    }\r\n\r\n    function deposit(uint256 amount) payable public onlyOwner {\r\n        require(msg.value == amount);\r\n    }\r\n\r\n    function getBalance() public view returns (uint256)  {\r\n        return address(this).balance;\r\n    }\r\n\r\n}\r\n\r\n\r\n\r\n\r\n\r\n\r\n\r\n\r\n\r\n\r\ncontract TokenDelegable is ERC721, Ownable{\r\n    struct  Mystic {\r\n        bool inSell;\r\n        bool egg;\r\n        uint8[] params8;//parts \r\n        uint256[] params256;//params\r\n    }\r\n\r\n    address adressDelegateContract;\r\n    mapping( string => uint ) paramsContract;\r\n    mapping( uint256 => Mystic ) private _tokenDetails;\r\n\r\n    constructor(string memory name, string memory symbol) ERC721(name, symbol){\r\n        paramsContract[\"nextId\"] = 0;\r\n        paramsContract[\"nbrMystic\"] = 0;\r\n    }\r\n\r\n    modifier byDelegate() {\r\n        require(msg.sender == adressDelegateContract,\"Not good delegate contract\");\r\n        _;\r\n    }\r\n\r\n    function mint(address sender, uint8[] memory params8, uint256[] memory params256) external payable {\r\n        _tokenDetails[paramsContract[\"nextId\"]] = Mystic(false,true,params8,params256);\r\n        _safeMint(sender, paramsContract[\"nextId\"]);\r\n        paramsContract[\"nextId\"]++;\r\n        paramsContract[\"nbrMystic\"]++;\r\n    }\r\n    \r\n    function burn(uint256 tokenId) public byDelegate {\r\n        _burn(tokenId);\r\n        paramsContract[\"nbrMystic\"]--;\r\n    }\r\n\r\n    function transfer(address from, address to ,uint256 tokenId) external byDelegate {\r\n        _safeTransfer(from, to, tokenId, \"\");\r\n    }\r\n\r\n    function getTokenDetails(uint256 tokenId) external view returns (Mystic memory){\r\n        return _tokenDetails[tokenId];\r\n    }\r\n\r\n    function getAllTokensForUser(address user) external view returns (uint256[] memory){\r\n        uint256 tokenCount = balanceOf(user);\r\n        if(tokenCount == 0){\r\n            return new uint256[](0);\r\n        }\r\n        else{\r\n            uint[] memory result = new uint256[](tokenCount);\r\n            uint256 totalMystics = paramsContract[\"nextId\"];\r\n            uint256 resultIndex = 0;\r\n            uint256 i;\r\n            for(i = 0; i < totalMystics; i++){\r\n                if(ownerOf(i) == user){\r\n                    result[resultIndex] = i;\r\n                    resultIndex++;\r\n                }\r\n            }\r\n            return result;\r\n        }\r\n    }\r\n\r\n    function getOwnerOf(uint256 tokenId) external view returns (address) {\r\n        return ownerOf(tokenId);\r\n    }\r\n\r\n    function updateToken(Mystic memory mysticTemp,uint256 tokenId,address owner) external byDelegate {\r\n        require(ownerOf(tokenId) == owner,\"Not Your mystic\");\r\n        _tokenDetails[tokenId] = mysticTemp;\r\n    }\r\n\r\n    function setParamsContract(string memory keyParams, uint valueParams) external onlyOwner {\r\n        paramsContract[keyParams] = valueParams;\r\n    }\r\n\r\n    function getParamsContract(string memory keyParams) external view returns (uint){\r\n        return paramsContract[keyParams];\r\n    }\r\n\r\n    function setAdressDelegateContract(address _adress) external onlyOwner {\r\n        adressDelegateContract = _adress;\r\n    }\r\n\r\n}\r\n\r\n",
  "sourcePath": "C:\\laragon\\www\\nftWithFlo\\contracts\\TokenDelegable.sol",
  "compiler": {
    "name": "solc",
    "version": "0.8.0+commit.c7dfd78e.Emscripten.clang"
  },
  "schemaVersion": "3.4.4",
  "updatedAt": "2022-01-16T17:18:14.833Z",
  "networkType": "ethereum",
  "devdoc": {
    "kind": "dev",
    "methods": {
      "approve(address,uint256)": {
        "details": "See {IERC721-approve}."
      },
      "balanceOf(address)": {
        "details": "See {IERC721-balanceOf}."
      },
      "getApproved(uint256)": {
        "details": "See {IERC721-getApproved}."
      },
      "isApprovedForAll(address,address)": {
        "details": "See {IERC721-isApprovedForAll}."
      },
      "name()": {
        "details": "See {IERC721Metadata-name}."
      },
      "owner()": {
        "details": "Returns the address of the current owner."
      },
      "ownerOf(uint256)": {
        "details": "See {IERC721-ownerOf}."
      },
      "renounceOwnership()": {
        "details": "Leaves the contract without owner. It will not be possible to call `onlyOwner` functions anymore. Can only be called by the current owner. NOTE: Renouncing ownership will leave the contract without an owner, thereby removing any functionality that is only available to the owner."
      },
      "safeTransferFrom(address,address,uint256)": {
        "details": "See {IERC721-safeTransferFrom}."
      },
      "safeTransferFrom(address,address,uint256,bytes)": {
        "details": "See {IERC721-safeTransferFrom}."
      },
      "setApprovalForAll(address,bool)": {
        "details": "See {IERC721-setApprovalForAll}."
      },
      "supportsInterface(bytes4)": {
        "details": "See {IERC165-supportsInterface}."
      },
      "symbol()": {
        "details": "See {IERC721Metadata-symbol}."
      },
      "tokenURI(uint256)": {
        "details": "See {IERC721Metadata-tokenURI}."
      },
      "transferFrom(address,address,uint256)": {
        "details": "See {IERC721-transferFrom}."
      },
      "transferOwnership(address)": {
        "details": "Transfers ownership of the contract to a new account (`newOwner`). Can only be called by the current owner."
      }
    },
    "version": 1
  },
  "userdoc": {
    "kind": "user",
    "methods": {},
    "version": 1
  }
}