{
  "contractName": "Token",
  "abi": [
    {
      "inputs": [
        {
          "internalType": "string",
          "name": "name",
          "type": "string"
        },
        {
          "internalType": "string",
          "name": "symbol",
          "type": "string"
        }
      ],
      "stateMutability": "nonpayable",
      "type": "constructor"
    },
    {
      "anonymous": false,
      "inputs": [
        {
          "indexed": true,
          "internalType": "address",
          "name": "owner",
          "type": "address"
        },
        {
          "indexed": true,
          "internalType": "address",
          "name": "approved",
          "type": "address"
        },
        {
          "indexed": true,
          "internalType": "uint256",
          "name": "tokenId",
          "type": "uint256"
        }
      ],
      "name": "Approval",
      "type": "event"
    },
    {
      "anonymous": false,
      "inputs": [
        {
          "indexed": true,
          "internalType": "address",
          "name": "owner",
          "type": "address"
        },
        {
          "indexed": true,
          "internalType": "address",
          "name": "operator",
          "type": "address"
        },
        {
          "indexed": false,
          "internalType": "bool",
          "name": "approved",
          "type": "bool"
        }
      ],
      "name": "ApprovalForAll",
      "type": "event"
    },
    {
      "anonymous": false,
      "inputs": [
        {
          "indexed": true,
          "internalType": "address",
          "name": "previousOwner",
          "type": "address"
        },
        {
          "indexed": true,
          "internalType": "address",
          "name": "newOwner",
          "type": "address"
        }
      ],
      "name": "OwnershipTransferred",
      "type": "event"
    },
    {
      "anonymous": false,
      "inputs": [
        {
          "indexed": true,
          "internalType": "address",
          "name": "from",
          "type": "address"
        },
        {
          "indexed": true,
          "internalType": "address",
          "name": "to",
          "type": "address"
        },
        {
          "indexed": true,
          "internalType": "uint256",
          "name": "tokenId",
          "type": "uint256"
        }
      ],
      "name": "Transfer",
      "type": "event"
    },
    {
      "inputs": [
        {
          "internalType": "address",
          "name": "to",
          "type": "address"
        },
        {
          "internalType": "uint256",
          "name": "tokenId",
          "type": "uint256"
        }
      ],
      "name": "approve",
      "outputs": [],
      "stateMutability": "nonpayable",
      "type": "function"
    },
    {
      "inputs": [
        {
          "internalType": "address",
          "name": "owner",
          "type": "address"
        }
      ],
      "name": "balanceOf",
      "outputs": [
        {
          "internalType": "uint256",
          "name": "",
          "type": "uint256"
        }
      ],
      "stateMutability": "view",
      "type": "function"
    },
    {
      "inputs": [
        {
          "internalType": "uint256",
          "name": "tokenId",
          "type": "uint256"
        }
      ],
      "name": "getApproved",
      "outputs": [
        {
          "internalType": "address",
          "name": "",
          "type": "address"
        }
      ],
      "stateMutability": "view",
      "type": "function"
    },
    {
      "inputs": [
        {
          "internalType": "address",
          "name": "owner",
          "type": "address"
        },
        {
          "internalType": "address",
          "name": "operator",
          "type": "address"
        }
      ],
      "name": "isApprovedForAll",
      "outputs": [
        {
          "internalType": "bool",
          "name": "",
          "type": "bool"
        }
      ],
      "stateMutability": "view",
      "type": "function"
    },
    {
      "inputs": [],
      "name": "name",
      "outputs": [
        {
          "internalType": "string",
          "name": "",
          "type": "string"
        }
      ],
      "stateMutability": "view",
      "type": "function"
    },
    {
      "inputs": [],
      "name": "owner",
      "outputs": [
        {
          "internalType": "address",
          "name": "",
          "type": "address"
        }
      ],
      "stateMutability": "view",
      "type": "function"
    },
    {
      "inputs": [
        {
          "internalType": "uint256",
          "name": "tokenId",
          "type": "uint256"
        }
      ],
      "name": "ownerOf",
      "outputs": [
        {
          "internalType": "address",
          "name": "",
          "type": "address"
        }
      ],
      "stateMutability": "view",
      "type": "function"
    },
    {
      "inputs": [],
      "name": "renounceOwnership",
      "outputs": [],
      "stateMutability": "nonpayable",
      "type": "function"
    },
    {
      "inputs": [
        {
          "internalType": "address",
          "name": "from",
          "type": "address"
        },
        {
          "internalType": "address",
          "name": "to",
          "type": "address"
        },
        {
          "internalType": "uint256",
          "name": "tokenId",
          "type": "uint256"
        }
      ],
      "name": "safeTransferFrom",
      "outputs": [],
      "stateMutability": "nonpayable",
      "type": "function"
    },
    {
      "inputs": [
        {
          "internalType": "address",
          "name": "from",
          "type": "address"
        },
        {
          "internalType": "address",
          "name": "to",
          "type": "address"
        },
        {
          "internalType": "uint256",
          "name": "tokenId",
          "type": "uint256"
        },
        {
          "internalType": "bytes",
          "name": "_data",
          "type": "bytes"
        }
      ],
      "name": "safeTransferFrom",
      "outputs": [],
      "stateMutability": "nonpayable",
      "type": "function"
    },
    {
      "inputs": [
        {
          "internalType": "address",
          "name": "operator",
          "type": "address"
        },
        {
          "internalType": "bool",
          "name": "approved",
          "type": "bool"
        }
      ],
      "name": "setApprovalForAll",
      "outputs": [],
      "stateMutability": "nonpayable",
      "type": "function"
    },
    {
      "inputs": [
        {
          "internalType": "bytes4",
          "name": "interfaceId",
          "type": "bytes4"
        }
      ],
      "name": "supportsInterface",
      "outputs": [
        {
          "internalType": "bool",
          "name": "",
          "type": "bool"
        }
      ],
      "stateMutability": "view",
      "type": "function"
    },
    {
      "inputs": [],
      "name": "symbol",
      "outputs": [
        {
          "internalType": "string",
          "name": "",
          "type": "string"
        }
      ],
      "stateMutability": "view",
      "type": "function"
    },
    {
      "inputs": [
        {
          "internalType": "uint256",
          "name": "tokenId",
          "type": "uint256"
        }
      ],
      "name": "tokenURI",
      "outputs": [
        {
          "internalType": "string",
          "name": "",
          "type": "string"
        }
      ],
      "stateMutability": "view",
      "type": "function"
    },
    {
      "inputs": [
        {
          "internalType": "address",
          "name": "from",
          "type": "address"
        },
        {
          "internalType": "address",
          "name": "to",
          "type": "address"
        },
        {
          "internalType": "uint256",
          "name": "tokenId",
          "type": "uint256"
        }
      ],
      "name": "transferFrom",
      "outputs": [],
      "stateMutability": "nonpayable",
      "type": "function"
    },
    {
      "inputs": [
        {
          "internalType": "address",
          "name": "newOwner",
          "type": "address"
        }
      ],
      "name": "transferOwnership",
      "outputs": [],
      "stateMutability": "nonpayable",
      "type": "function"
    },
    {
      "inputs": [
        {
          "internalType": "uint8",
          "name": "price",
          "type": "uint8"
        },
        {
          "internalType": "uint8[]",
          "name": "parts",
          "type": "uint8[]"
        }
      ],
      "name": "mint",
      "outputs": [],
      "stateMutability": "nonpayable",
      "type": "function"
    },
    {
      "inputs": [
        {
          "internalType": "uint8[]",
          "name": "partsOne",
          "type": "uint8[]"
        },
        {
          "internalType": "uint256",
          "name": "tokenIdOne",
          "type": "uint256"
        },
        {
          "internalType": "uint8[]",
          "name": "partsTwo",
          "type": "uint8[]"
        },
        {
          "internalType": "address",
          "name": "senderInvit",
          "type": "address"
        },
        {
          "internalType": "uint256",
          "name": "tokenIdTwo",
          "type": "uint256"
        }
      ],
      "name": "reproduce",
      "outputs": [],
      "stateMutability": "nonpayable",
      "type": "function"
    },
    {
      "inputs": [
        {
          "internalType": "uint256",
          "name": "tokenId",
          "type": "uint256"
        }
      ],
      "name": "getTokenDetails",
      "outputs": [
        {
          "components": [
            {
              "internalType": "uint8",
              "name": "price",
              "type": "uint8"
            },
            {
              "internalType": "uint8",
              "name": "numberReproduce",
              "type": "uint8"
            },
            {
              "internalType": "uint8[]",
              "name": "parts",
              "type": "uint8[]"
            },
            {
              "internalType": "uint8",
              "name": "tokenIdReproducable",
              "type": "uint8"
            },
            {
              "internalType": "bool",
              "name": "inSell",
              "type": "bool"
            },
            {
              "internalType": "bool",
              "name": "egg",
              "type": "bool"
            },
            {
              "internalType": "uint256",
              "name": "createdAt",
              "type": "uint256"
            }
          ],
          "internalType": "struct Token.Mystic",
          "name": "",
          "type": "tuple"
        }
      ],
      "stateMutability": "view",
      "type": "function"
    },
    {
      "inputs": [
        {
          "internalType": "uint256",
          "name": "tokenId",
          "type": "uint256"
        },
        {
          "internalType": "uint8",
          "name": "tokenIdReproducable",
          "type": "uint8"
        },
        {
          "internalType": "bool",
          "name": "add",
          "type": "bool"
        }
      ],
      "name": "addSubInvitation",
      "outputs": [],
      "stateMutability": "nonpayable",
      "type": "function"
    },
    {
      "inputs": [
        {
          "internalType": "address",
          "name": "user",
          "type": "address"
        }
      ],
      "name": "getAllTokensForUser",
      "outputs": [
        {
          "internalType": "uint256[]",
          "name": "",
          "type": "uint256[]"
        }
      ],
      "stateMutability": "view",
      "type": "function"
    },
    {
      "inputs": [
        {
          "internalType": "address",
          "name": "contactAddr",
          "type": "address"
        },
        {
          "internalType": "uint256",
          "name": "tokenId",
          "type": "uint256"
        },
        {
          "internalType": "uint256",
          "name": "amount",
          "type": "uint256"
        },
        {
          "internalType": "bool",
          "name": "purchase",
          "type": "bool"
        }
      ],
      "name": "purchaseAndTransfer",
      "outputs": [],
      "stateMutability": "payable",
      "type": "function"
    },
    {
      "inputs": [
        {
          "internalType": "uint256",
          "name": "tokenId",
          "type": "uint256"
        },
        {
          "internalType": "bool",
          "name": "sellable",
          "type": "bool"
        },
        {
          "internalType": "bool",
          "name": "egg",
          "type": "bool"
        }
      ],
      "name": "params",
      "outputs": [],
      "stateMutability": "nonpayable",
      "type": "function"
    }
  ],
  "bytecode": "0x60806040526001600755600060085560006009553480156200002057600080fd5b506040516200489138038062004891833981810160405281019062000046919062000294565b818181600090805190602001906200006092919062000172565b5080600190805190602001906200007992919062000172565b5050506200009c62000090620000a460201b60201c565b620000ac60201b60201c565b505062000438565b600033905090565b6000600660009054906101000a900473ffffffffffffffffffffffffffffffffffffffff16905081600660006101000a81548173ffffffffffffffffffffffffffffffffffffffff021916908373ffffffffffffffffffffffffffffffffffffffff1602179055508173ffffffffffffffffffffffffffffffffffffffff168173ffffffffffffffffffffffffffffffffffffffff167f8be0079c531659141344cd1fd0a4f28419497f9722a3daafe3b4186f6b6457e060405160405180910390a35050565b8280546200018090620003a4565b90600052602060002090601f016020900481019282620001a45760008555620001f0565b82601f10620001bf57805160ff1916838001178555620001f0565b82800160010185558215620001f0579182015b82811115620001ef578251825591602001919060010190620001d2565b5b509050620001ff919062000203565b5090565b5b808211156200021e57600081600090555060010162000204565b5090565b60006200023962000233846200033b565b62000307565b9050828152602081018484840111156200025257600080fd5b6200025f8482856200036e565b509392505050565b600082601f8301126200027957600080fd5b81516200028b84826020860162000222565b91505092915050565b60008060408385031215620002a857600080fd5b600083015167ffffffffffffffff811115620002c357600080fd5b620002d18582860162000267565b925050602083015167ffffffffffffffff811115620002ef57600080fd5b620002fd8582860162000267565b9150509250929050565b6000604051905081810181811067ffffffffffffffff8211171562000331576200033062000409565b5b8060405250919050565b600067ffffffffffffffff82111562000359576200035862000409565b5b601f19601f8301169050602081019050919050565b60005b838110156200038e57808201518184015260208101905062000371565b838111156200039e576000848401525b50505050565b60006002820490506001821680620003bd57607f821691505b60208210811415620003d457620003d3620003da565b5b50919050565b7f4e487b7100000000000000000000000000000000000000000000000000000000600052602260045260246000fd5b7f4e487b7100000000000000000000000000000000000000000000000000000000600052604160045260246000fd5b61444980620004486000396000f3fe6080604052600436106101405760003560e01c806382de8fe9116100b6578063c1e037281161006f578063c1e0372814610456578063c87b56dd14610493578063e144c76f146104d0578063e65ac0d8146104ec578063e985e9c514610515578063f2fde38b1461055257610140565b806382de8fe914610348578063851fb2bd146103855780638da5cb5b146103ae57806395d89b41146103d9578063a22cb46514610404578063b88d4fde1461042d57610140565b8063340350a011610108578063340350a01461023c57806342842e0e146102655780636352211e1461028e57806370a08231146102cb578063715018a6146103085780638082d3301461031f57610140565b806301ffc9a71461014557806306fdde0314610182578063081812fc146101ad578063095ea7b3146101ea57806323b872dd14610213575b600080fd5b34801561015157600080fd5b5061016c60048036038101906101679190613015565b61057b565b6040516101799190613bbc565b60405180910390f35b34801561018e57600080fd5b5061019761065d565b6040516101a49190613bd7565b60405180910390f35b3480156101b957600080fd5b506101d460048036038101906101cf9190613067565b6106ef565b6040516101e19190613b33565b60405180910390f35b3480156101f657600080fd5b50610211600480360381019061020c9190612ecf565b610774565b005b34801561021f57600080fd5b5061023a60048036038101906102359190612dc9565b61088c565b005b34801561024857600080fd5b50610263600480360381019061025e919061312e565b6108ec565b005b34801561027157600080fd5b5061028c60048036038101906102879190612dc9565b610a52565b005b34801561029a57600080fd5b506102b560048036038101906102b09190613067565b610a72565b6040516102c29190613b33565b60405180910390f35b3480156102d757600080fd5b506102f260048036038101906102ed9190612d64565b610b24565b6040516102ff9190613ebb565b60405180910390f35b34801561031457600080fd5b5061031d610bdc565b005b34801561032b57600080fd5b5061034660048036038101906103419190612f6e565b610c64565b005b34801561035457600080fd5b5061036f600480360381019061036a9190612d64565b611196565b60405161037c9190613b9a565b60405180910390f35b34801561039157600080fd5b506103ac60048036038101906103a79190613090565b61135e565b005b3480156103ba57600080fd5b506103c361147f565b6040516103d09190613b33565b60405180910390f35b3480156103e557600080fd5b506103ee6114a9565b6040516103fb9190613bd7565b60405180910390f35b34801561041057600080fd5b5061042b60048036038101906104269190612e93565b61153b565b005b34801561043957600080fd5b50610454600480360381019061044f9190612e18565b611551565b005b34801561046257600080fd5b5061047d60048036038101906104789190613067565b6115b3565b60405161048a9190613e99565b60405180910390f35b34801561049f57600080fd5b506104ba60048036038101906104b59190613067565b6116f5565b6040516104c79190613bd7565b60405180910390f35b6104ea60048036038101906104e59190612f0b565b61179c565b005b3480156104f857600080fd5b50610513600480360381019061050e91906130df565b611bb6565b005b34801561052157600080fd5b5061053c60048036038101906105379190612d8d565b611c34565b6040516105499190613bbc565b60405180910390f35b34801561055e57600080fd5b5061057960048036038101906105749190612d64565b611cc8565b005b60007f80ac58cd000000000000000000000000000000000000000000000000000000007bffffffffffffffffffffffffffffffffffffffffffffffffffffffff1916827bffffffffffffffffffffffffffffffffffffffffffffffffffffffff1916148061064657507f5b5e139f000000000000000000000000000000000000000000000000000000007bffffffffffffffffffffffffffffffffffffffffffffffffffffffff1916827bffffffffffffffffffffffffffffffffffffffffffffffffffffffff1916145b80610656575061065582611dc0565b5b9050919050565b60606000805461066c90614227565b80601f016020809104026020016040519081016040528092919081815260200182805461069890614227565b80156106e55780601f106106ba576101008083540402835291602001916106e5565b820191906000526020600020905b8154815290600101906020018083116106c857829003601f168201915b5050505050905090565b60006106fa82611e2a565b610739576040517f08c379a000000000000000000000000000000000000000000000000000000000815260040161073090613d79565b60405180910390fd5b6004600083815260200190815260200160002060009054906101000a900473ffffffffffffffffffffffffffffffffffffffff169050919050565b600061077f82610a72565b90508073ffffffffffffffffffffffffffffffffffffffff168373ffffffffffffffffffffffffffffffffffffffff1614156107f0576040517f08c379a00000000000000000000000000000000000000000000000000000000081526004016107e790613e19565b60405180910390fd5b8073ffffffffffffffffffffffffffffffffffffffff1661080f611e96565b73ffffffffffffffffffffffffffffffffffffffff16148061083e575061083d81610838611e96565b611c34565b5b61087d576040517f08c379a000000000000000000000000000000000000000000000000000000000815260040161087490613cd9565b60405180910390fd5b6108878383611e9e565b505050565b61089d610897611e96565b82611f57565b6108dc576040517f08c379a00000000000000000000000000000000000000000000000000000000081526004016108d390613e59565b60405180910390fd5b6108e7838383612035565b505050565b6040518060e001604052808360ff168152602001600060ff168152602001828152602001600060ff16815260200160001515815260200160011515815260200142815250600a6000600754815260200190815260200160002060008201518160000160006101000a81548160ff021916908360ff16021790555060208201518160000160016101000a81548160ff021916908360ff16021790555060408201518160010190805190602001906109a3929190612ada565b5060608201518160020160006101000a81548160ff021916908360ff16021790555060808201518160020160016101000a81548160ff02191690831515021790555060a08201518160020160026101000a81548160ff02191690831515021790555060c08201518160030155905050610a1e33600754612291565b60076000815480929190610a3190614259565b919050555060086000815480929190610a4990614259565b91905055505050565b610a6d83838360405180602001604052806000815250611551565b505050565b6000806002600084815260200190815260200160002060009054906101000a900473ffffffffffffffffffffffffffffffffffffffff169050600073ffffffffffffffffffffffffffffffffffffffff168173ffffffffffffffffffffffffffffffffffffffff161415610b1b576040517f08c379a0000000000000000000000000000000000000000000000000000000008152600401610b1290613d19565b60405180910390fd5b80915050919050565b60008073ffffffffffffffffffffffffffffffffffffffff168273ffffffffffffffffffffffffffffffffffffffff161415610b95576040517f08c379a0000000000000000000000000000000000000000000000000000000008152600401610b8c90613cf9565b60405180910390fd5b600360008373ffffffffffffffffffffffffffffffffffffffff1673ffffffffffffffffffffffffffffffffffffffff168152602001908152602001600020549050919050565b610be4611e96565b73ffffffffffffffffffffffffffffffffffffffff16610c0261147f565b73ffffffffffffffffffffffffffffffffffffffff1614610c58576040517f08c379a0000000000000000000000000000000000000000000000000000000008152600401610c4f90613d99565b60405180910390fd5b610c6260006122af565b565b6000600a6000868152602001908152602001600020600301541415610cbe576040517f08c379a0000000000000000000000000000000000000000000000000000000008152600401610cb590613c19565b60405180910390fd5b6000600a6000838152602001908152602001600020600301541415610d18576040517f08c379a0000000000000000000000000000000000000000000000000000000008152600401610d0f90613c19565b60405180910390fd5b83600a600083815260200190815260200160002060020160009054906101000a900460ff1660ff16148015610d8057503373ffffffffffffffffffffffffffffffffffffffff16610d6885610a72565b73ffffffffffffffffffffffffffffffffffffffff16145b8015610dbf57508173ffffffffffffffffffffffffffffffffffffffff16610da782610a72565b73ffffffffffffffffffffffffffffffffffffffff16145b8015610df157506003600a600083815260200190815260200160002060000160019054906101000a900460ff1660ff16105b8015610e2357506003600a600086815260200190815260200160002060000160019054906101000a900460ff1660ff16105b1561118f576040518060e00160405280600a600087815260200190815260200160002060000160009054906101000a900460ff1660ff1681526020016001600a600088815260200190815260200160002060000160019054906101000a900460ff16610e8f919061406e565b60ff168152602001868152602001600060ff16815260200160001515815260200160011515815260200142815250600a6000600754815260200190815260200160002060008201518160000160006101000a81548160ff021916908360ff16021790555060208201518160000160016101000a81548160ff021916908360ff1602179055506040820151816001019080519060200190610f30929190612ada565b5060608201518160020160006101000a81548160ff021916908360ff16021790555060808201518160020160016101000a81548160ff02191690831515021790555060a08201518160020160026101000a81548160ff02191690831515021790555060c08201518160030155905050610fab33600754612291565b60076000815480929190610fbe90614259565b91905055506040518060e00160405280600a600084815260200190815260200160002060000160009054906101000a900460ff1660ff1681526020016001600a600085815260200190815260200160002060000160019054906101000a900460ff1661102a919061406e565b60ff168152602001848152602001600060ff16815260200160001515815260200160011515815260200142815250600a6000600754815260200190815260200160002060008201518160000160006101000a81548160ff021916908360ff16021790555060208201518160000160016101000a81548160ff021916908360ff16021790555060408201518160010190805190602001906110cb929190612ada565b5060608201518160020160006101000a81548160ff021916908360ff16021790555060808201518160020160016101000a81548160ff02191690831515021790555060a08201518160020160026101000a81548160ff02191690831515021790555060c0820151816003015590505061114682600754612291565b6007600081548092919061115990614259565b91905055506000600a600083815260200190815260200160002060020160006101000a81548160ff021916908360ff1602179055505b5050505050565b606060006111a383610b24565b9050600081141561122657600067ffffffffffffffff8111156111ef577f4e487b7100000000000000000000000000000000000000000000000000000000600052604160045260246000fd5b60405190808252806020026020018201604052801561121d5781602001602082028036833780820191505090505b50915050611359565b60008167ffffffffffffffff811115611268577f4e487b7100000000000000000000000000000000000000000000000000000000600052604160045260246000fd5b6040519080825280602002602001820160405280156112965781602001602082028036833780820191505090505b509050600060075490506000805b82811015611350578673ffffffffffffffffffffffffffffffffffffffff166112cc82610a72565b73ffffffffffffffffffffffffffffffffffffffff16141561133d5780848381518110611322577f4e487b7100000000000000000000000000000000000000000000000000000000600052603260045260246000fd5b602002602001018181525050818061133990614259565b9250505b808061134890614259565b9150506112a4565b83955050505050505b919050565b3373ffffffffffffffffffffffffffffffffffffffff1661137e84610a72565b73ffffffffffffffffffffffffffffffffffffffff16146113d4576040517f08c379a00000000000000000000000000000000000000000000000000000000081526004016113cb90613e79565b60405180910390fd5b81600a600085815260200190815260200160002060020160016101000a81548160ff021916908315150217905550801515600a600085815260200190815260200160002060020160029054906101000a900460ff1615151461144c5742600a6000858152602001908152602001600020600301819055505b80600a600085815260200190815260200160002060020160026101000a81548160ff021916908315150217905550505050565b6000600660009054906101000a900473ffffffffffffffffffffffffffffffffffffffff16905090565b6060600180546114b890614227565b80601f01602080910402602001604051908101604052809291908181526020018280546114e490614227565b80156115315780601f1061150657610100808354040283529160200191611531565b820191906000526020600020905b81548152906001019060200180831161151457829003601f168201915b5050505050905090565b61154d611546611e96565b8383612375565b5050565b61156261155c611e96565b83611f57565b6115a1576040517f08c379a000000000000000000000000000000000000000000000000000000000815260040161159890613e59565b60405180910390fd5b6115ad848484846124e2565b50505050565b6115bb612b81565b600a60008381526020019081526020016000206040518060e00160405290816000820160009054906101000a900460ff1660ff1660ff1681526020016000820160019054906101000a900460ff1660ff1660ff1681526020016001820180548060200260200160405190810160405280929190818152602001828054801561168857602002820191906000526020600020906000905b82829054906101000a900460ff1660ff16815260200190600101906020826000010492830192600103820291508084116116515790505b505050505081526020016002820160009054906101000a900460ff1660ff1660ff1681526020016002820160019054906101000a900460ff161515151581526020016002820160029054906101000a900460ff161515151581526020016003820154815250509050919050565b606061170082611e2a565b61173f576040517f08c379a000000000000000000000000000000000000000000000000000000000815260040161173690613df9565b60405180910390fd5b600061174961253e565b905060008151116117695760405180602001604052806000815250611794565b8061177384612555565b604051602001611784929190613b0f565b6040516020818303038152906040525b915050919050565b346009546117aa9190614018565b6009819055506000600a60008581526020019081526020016000206040518060e00160405290816000820160009054906101000a900460ff1660ff1660ff1681526020016000820160019054906101000a900460ff1660ff1660ff1681526020016001820180548060200260200160405190810160405280929190818152602001828054801561187f57602002820191906000526020600020906000905b82829054906101000a900460ff1660ff16815260200190600101906020826000010492830192600103820291508084116118485790505b505050505081526020016002820160009054906101000a900460ff1660ff1660ff1681526020016002820160019054906101000a900460ff161515151581526020016002820160029054906101000a900460ff161515151581526020016003820154815250509050600083146119455782816000015160ff1661190291906140d6565b341015611944576040517f08c379a000000000000000000000000000000000000000000000000000000000815260040161193b90613dd9565b60405180910390fd5b5b816119505784611952565b335b73ffffffffffffffffffffffffffffffffffffffff1661197185610a72565b73ffffffffffffffffffffffffffffffffffffffff1614156119c8576040517f08c379a00000000000000000000000000000000000000000000000000000000081526004016119bf90613d39565b60405180910390fd5b60006119df836119d857866119da565b335b610b24565b905060008167ffffffffffffffff811115611a23577f4e487b7100000000000000000000000000000000000000000000000000000000600052604160045260246000fd5b604051908082528060200260200182016040528015611a515781602001602082028036833780820191505090505b509050600060075490506000805b82811015611b045786611a725789611a74565b335b73ffffffffffffffffffffffffffffffffffffffff16611a9382610a72565b73ffffffffffffffffffffffffffffffffffffffff16148015611add575060001515600a600083815260200190815260200160002060020160029054906101000a900460ff161515145b15611af1578180611aed90614259565b9250505b8080611afc90614259565b915050611a5f565b6001821115611b48576040517f08c379a0000000000000000000000000000000000000000000000000000000008152600401611b3f90613e39565b60405180910390fd5b6000600a600083815260200190815260200160002060020160016101000a81548160ff021916908315150217905550611baa87611b855733611b87565b8a5b88611b92578b611b94565b335b8b604051806020016040528060008152506124e2565b50505050505050505050565b3373ffffffffffffffffffffffffffffffffffffffff16611bd684610a72565b73ffffffffffffffffffffffffffffffffffffffff161415611c2f5780611bfe576000611c00565b815b600a600085815260200190815260200160002060020160006101000a81548160ff021916908360ff1602179055505b505050565b6000600560008473ffffffffffffffffffffffffffffffffffffffff1673ffffffffffffffffffffffffffffffffffffffff16815260200190815260200160002060008373ffffffffffffffffffffffffffffffffffffffff1673ffffffffffffffffffffffffffffffffffffffff16815260200190815260200160002060009054906101000a900460ff16905092915050565b611cd0611e96565b73ffffffffffffffffffffffffffffffffffffffff16611cee61147f565b73ffffffffffffffffffffffffffffffffffffffff1614611d44576040517f08c379a0000000000000000000000000000000000000000000000000000000008152600401611d3b90613d99565b60405180910390fd5b600073ffffffffffffffffffffffffffffffffffffffff168173ffffffffffffffffffffffffffffffffffffffff161415611db4576040517f08c379a0000000000000000000000000000000000000000000000000000000008152600401611dab90613c39565b60405180910390fd5b611dbd816122af565b50565b60007f01ffc9a7000000000000000000000000000000000000000000000000000000007bffffffffffffffffffffffffffffffffffffffffffffffffffffffff1916827bffffffffffffffffffffffffffffffffffffffffffffffffffffffff1916149050919050565b60008073ffffffffffffffffffffffffffffffffffffffff166002600084815260200190815260200160002060009054906101000a900473ffffffffffffffffffffffffffffffffffffffff1673ffffffffffffffffffffffffffffffffffffffff1614159050919050565b600033905090565b816004600083815260200190815260200160002060006101000a81548173ffffffffffffffffffffffffffffffffffffffff021916908373ffffffffffffffffffffffffffffffffffffffff160217905550808273ffffffffffffffffffffffffffffffffffffffff16611f1183610a72565b73ffffffffffffffffffffffffffffffffffffffff167f8c5be1e5ebec7d5bd14f71427d1e84f3dd0314c0f7b2291e5b200ac8c7c3b92560405160405180910390a45050565b6000611f6282611e2a565b611fa1576040517f08c379a0000000000000000000000000000000000000000000000000000000008152600401611f9890613cb9565b60405180910390fd5b6000611fac83610a72565b90508073ffffffffffffffffffffffffffffffffffffffff168473ffffffffffffffffffffffffffffffffffffffff16148061201b57508373ffffffffffffffffffffffffffffffffffffffff16612003846106ef565b73ffffffffffffffffffffffffffffffffffffffff16145b8061202c575061202b8185611c34565b5b91505092915050565b8273ffffffffffffffffffffffffffffffffffffffff1661205582610a72565b73ffffffffffffffffffffffffffffffffffffffff16146120ab576040517f08c379a00000000000000000000000000000000000000000000000000000000081526004016120a290613db9565b60405180910390fd5b600073ffffffffffffffffffffffffffffffffffffffff168273ffffffffffffffffffffffffffffffffffffffff16141561211b576040517f08c379a000000000000000000000000000000000000000000000000000000000815260040161211290613c79565b60405180910390fd5b612126838383612702565b612131600082611e9e565b6001600360008573ffffffffffffffffffffffffffffffffffffffff1673ffffffffffffffffffffffffffffffffffffffff16815260200190815260200160002060008282546121819190614130565b925050819055506001600360008473ffffffffffffffffffffffffffffffffffffffff1673ffffffffffffffffffffffffffffffffffffffff16815260200190815260200160002060008282546121d89190614018565b92505081905550816002600083815260200190815260200160002060006101000a81548173ffffffffffffffffffffffffffffffffffffffff021916908373ffffffffffffffffffffffffffffffffffffffff160217905550808273ffffffffffffffffffffffffffffffffffffffff168473ffffffffffffffffffffffffffffffffffffffff167fddf252ad1be2c89b69c2b068fc378daa952ba7f163c4a11628f55a4df523b3ef60405160405180910390a4505050565b6122ab828260405180602001604052806000815250612707565b5050565b6000600660009054906101000a900473ffffffffffffffffffffffffffffffffffffffff16905081600660006101000a81548173ffffffffffffffffffffffffffffffffffffffff021916908373ffffffffffffffffffffffffffffffffffffffff1602179055508173ffffffffffffffffffffffffffffffffffffffff168173ffffffffffffffffffffffffffffffffffffffff167f8be0079c531659141344cd1fd0a4f28419497f9722a3daafe3b4186f6b6457e060405160405180910390a35050565b8173ffffffffffffffffffffffffffffffffffffffff168373ffffffffffffffffffffffffffffffffffffffff1614156123e4576040517f08c379a00000000000000000000000000000000000000000000000000000000081526004016123db90613c99565b60405180910390fd5b80600560008573ffffffffffffffffffffffffffffffffffffffff1673ffffffffffffffffffffffffffffffffffffffff16815260200190815260200160002060008473ffffffffffffffffffffffffffffffffffffffff1673ffffffffffffffffffffffffffffffffffffffff16815260200190815260200160002060006101000a81548160ff0219169083151502179055508173ffffffffffffffffffffffffffffffffffffffff168373ffffffffffffffffffffffffffffffffffffffff167f17307eab39ab6107e8899845ad3d59bd9653f200f220920489ca2b5937696c31836040516124d59190613bbc565b60405180910390a3505050565b6124ed848484612035565b6124f984848484612762565b612538576040517f08c379a000000000000000000000000000000000000000000000000000000000815260040161252f90613bf9565b60405180910390fd5b50505050565b606060405180602001604052806000815250905090565b6060600082141561259d576040518060400160405280600181526020017f300000000000000000000000000000000000000000000000000000000000000081525090506126fd565b600082905060005b600082146125cf5780806125b890614259565b915050600a826125c891906140a5565b91506125a5565b60008167ffffffffffffffff811115612611577f4e487b7100000000000000000000000000000000000000000000000000000000600052604160045260246000fd5b6040519080825280601f01601f1916602001820160405280156126435781602001600182028036833780820191505090505b5090505b600085146126f65760018261265c9190614130565b9150600a8561266b91906142a2565b60306126779190614018565b60f81b8183815181106126b3577f4e487b7100000000000000000000000000000000000000000000000000000000600052603260045260246000fd5b60200101907effffffffffffffffffffffffffffffffffffffffffffffffffffffffffffff1916908160001a905350600a856126ef91906140a5565b9450612647565b8093505050505b919050565b505050565b61271183836128f9565b61271e6000848484612762565b61275d576040517f08c379a000000000000000000000000000000000000000000000000000000000815260040161275490613bf9565b60405180910390fd5b505050565b60006127838473ffffffffffffffffffffffffffffffffffffffff16612ac7565b156128ec578373ffffffffffffffffffffffffffffffffffffffff1663150b7a026127ac611e96565b8786866040518563ffffffff1660e01b81526004016127ce9493929190613b4e565b602060405180830381600087803b1580156127e857600080fd5b505af192505050801561281957506040513d601f19601f82011682018060405250810190612816919061303e565b60015b61289c573d8060008114612849576040519150601f19603f3d011682016040523d82523d6000602084013e61284e565b606091505b50600081511415612894576040517f08c379a000000000000000000000000000000000000000000000000000000000815260040161288b90613bf9565b60405180910390fd5b805181602001fd5b63150b7a0260e01b7bffffffffffffffffffffffffffffffffffffffffffffffffffffffff1916817bffffffffffffffffffffffffffffffffffffffffffffffffffffffff1916149150506128f1565b600190505b949350505050565b600073ffffffffffffffffffffffffffffffffffffffff168273ffffffffffffffffffffffffffffffffffffffff161415612969576040517f08c379a000000000000000000000000000000000000000000000000000000000815260040161296090613d59565b60405180910390fd5b61297281611e2a565b156129b2576040517f08c379a00000000000000000000000000000000000000000000000000000000081526004016129a990613c59565b60405180910390fd5b6129be60008383612702565b6001600360008473ffffffffffffffffffffffffffffffffffffffff1673ffffffffffffffffffffffffffffffffffffffff1681526020019081526020016000206000828254612a0e9190614018565b92505081905550816002600083815260200190815260200160002060006101000a81548173ffffffffffffffffffffffffffffffffffffffff021916908373ffffffffffffffffffffffffffffffffffffffff160217905550808273ffffffffffffffffffffffffffffffffffffffff16600073ffffffffffffffffffffffffffffffffffffffff167fddf252ad1be2c89b69c2b068fc378daa952ba7f163c4a11628f55a4df523b3ef60405160405180910390a45050565b600080823b905060008111915050919050565b82805482825590600052602060002090601f01602090048101928215612b705791602002820160005b83821115612b4157835183826101000a81548160ff021916908360ff1602179055509260200192600101602081600001049283019260010302612b03565b8015612b6e5782816101000a81549060ff0219169055600101602081600001049283019260010302612b41565b505b509050612b7d9190612bcb565b5090565b6040518060e00160405280600060ff168152602001600060ff16815260200160608152602001600060ff168152602001600015158152602001600015158152602001600081525090565b5b80821115612be4576000816000905550600101612bcc565b5090565b6000612bfb612bf684613f07565b613ed6565b90508083825260208201905082856020860282011115612c1a57600080fd5b60005b85811015612c4a5781612c308882612d4f565b845260208401935060208301925050600181019050612c1d565b5050509392505050565b6000612c67612c6284613f33565b613ed6565b905082815260208101848484011115612c7f57600080fd5b612c8a8482856141e5565b509392505050565b600081359050612ca1816143a0565b92915050565b600082601f830112612cb857600080fd5b8135612cc8848260208601612be8565b91505092915050565b600081359050612ce0816143b7565b92915050565b600081359050612cf5816143ce565b92915050565b600081519050612d0a816143ce565b92915050565b600082601f830112612d2157600080fd5b8135612d31848260208601612c54565b91505092915050565b600081359050612d49816143e5565b92915050565b600081359050612d5e816143fc565b92915050565b600060208284031215612d7657600080fd5b6000612d8484828501612c92565b91505092915050565b60008060408385031215612da057600080fd5b6000612dae85828601612c92565b9250506020612dbf85828601612c92565b9150509250929050565b600080600060608486031215612dde57600080fd5b6000612dec86828701612c92565b9350506020612dfd86828701612c92565b9250506040612e0e86828701612d3a565b9150509250925092565b60008060008060808587031215612e2e57600080fd5b6000612e3c87828801612c92565b9450506020612e4d87828801612c92565b9350506040612e5e87828801612d3a565b925050606085013567ffffffffffffffff811115612e7b57600080fd5b612e8787828801612d10565b91505092959194509250565b60008060408385031215612ea657600080fd5b6000612eb485828601612c92565b9250506020612ec585828601612cd1565b9150509250929050565b60008060408385031215612ee257600080fd5b6000612ef085828601612c92565b9250506020612f0185828601612d3a565b9150509250929050565b60008060008060808587031215612f2157600080fd5b6000612f2f87828801612c92565b9450506020612f4087828801612d3a565b9350506040612f5187828801612d3a565b9250506060612f6287828801612cd1565b91505092959194509250565b600080600080600060a08688031215612f8657600080fd5b600086013567ffffffffffffffff811115612fa057600080fd5b612fac88828901612ca7565b9550506020612fbd88828901612d3a565b945050604086013567ffffffffffffffff811115612fda57600080fd5b612fe688828901612ca7565b9350506060612ff788828901612c92565b925050608061300888828901612d3a565b9150509295509295909350565b60006020828403121561302757600080fd5b600061303584828501612ce6565b91505092915050565b60006020828403121561305057600080fd5b600061305e84828501612cfb565b91505092915050565b60006020828403121561307957600080fd5b600061308784828501612d3a565b91505092915050565b6000806000606084860312156130a557600080fd5b60006130b386828701612d3a565b93505060206130c486828701612cd1565b92505060406130d586828701612cd1565b9150509250925092565b6000806000606084860312156130f457600080fd5b600061310286828701612d3a565b935050602061311386828701612d4f565b925050604061312486828701612cd1565b9150509250925092565b6000806040838503121561314157600080fd5b600061314f85828601612d4f565b925050602083013567ffffffffffffffff81111561316c57600080fd5b61317885828601612ca7565b9150509250929050565b600061318e8383613ae2565b60208301905092915050565b60006131a68383613b00565b60208301905092915050565b6131bb81614164565b82525050565b60006131cc82613f83565b6131d68185613fc9565b93506131e183613f63565b8060005b838110156132125781516131f98882613182565b975061320483613faf565b9250506001810190506131e5565b5085935050505092915050565b600061322a82613f8e565b6132348185613fda565b935061323f83613f73565b8060005b83811015613270578151613257888261319a565b975061326283613fbc565b925050600181019050613243565b5085935050505092915050565b61328681614176565b82525050565b61329581614176565b82525050565b60006132a682613f99565b6132b08185613feb565b93506132c08185602086016141f4565b6132c98161438f565b840191505092915050565b60006132df82613fa4565b6132e98185613ffc565b93506132f98185602086016141f4565b6133028161438f565b840191505092915050565b600061331882613fa4565b613322818561400d565b93506133328185602086016141f4565b80840191505092915050565b600061334b603283613ffc565b91507f4552433732313a207472616e7366657220746f206e6f6e20455243373231526560008301527f63656976657220696d706c656d656e74657200000000000000000000000000006020830152604082019050919050565b60006133b1601083613ffc565b91507f4d7973746963206e6f74206578697374000000000000000000000000000000006000830152602082019050919050565b60006133f1602683613ffc565b91507f4f776e61626c653a206e6577206f776e657220697320746865207a65726f206160008301527f64647265737300000000000000000000000000000000000000000000000000006020830152604082019050919050565b6000613457601c83613ffc565b91507f4552433732313a20746f6b656e20616c7265616479206d696e746564000000006000830152602082019050919050565b6000613497602483613ffc565b91507f4552433732313a207472616e7366657220746f20746865207a65726f2061646460008301527f72657373000000000000000000000000000000000000000000000000000000006020830152604082019050919050565b60006134fd601983613ffc565b91507f4552433732313a20617070726f766520746f2063616c6c6572000000000000006000830152602082019050919050565b600061353d602c83613ffc565b91507f4552433732313a206f70657261746f7220717565727920666f72206e6f6e657860008301527f697374656e7420746f6b656e00000000000000000000000000000000000000006020830152604082019050919050565b60006135a3603883613ffc565b91507f4552433732313a20617070726f76652063616c6c6572206973206e6f74206f7760008301527f6e6572206e6f7220617070726f76656420666f7220616c6c00000000000000006020830152604082019050919050565b6000613609602a83613ffc565b91507f4552433732313a2062616c616e636520717565727920666f7220746865207a6560008301527f726f2061646472657373000000000000000000000000000000000000000000006020830152604082019050919050565b600061366f602983613ffc565b91507f4552433732313a206f776e657220717565727920666f72206e6f6e657869737460008301527f656e7420746f6b656e00000000000000000000000000000000000000000000006020830152604082019050919050565b60006136d5600d83613ffc565b91507f416c7265616479204f776e6564000000000000000000000000000000000000006000830152602082019050919050565b6000613715602083613ffc565b91507f4552433732313a206d696e7420746f20746865207a65726f20616464726573736000830152602082019050919050565b6000613755602c83613ffc565b91507f4552433732313a20617070726f76656420717565727920666f72206e6f6e657860008301527f697374656e7420746f6b656e00000000000000000000000000000000000000006020830152604082019050919050565b60006137bb602083613ffc565b91507f4f776e61626c653a2063616c6c6572206973206e6f7420746865206f776e65726000830152602082019050919050565b60006137fb602983613ffc565b91507f4552433732313a207472616e73666572206f6620746f6b656e2074686174206960008301527f73206e6f74206f776e00000000000000000000000000000000000000000000006020830152604082019050919050565b6000613861601783613ffc565b91507f496e73756666696369656e7420666f6e64732073656e740000000000000000006000830152602082019050919050565b60006138a1602f83613ffc565b91507f4552433732314d657461646174613a2055524920717565727920666f72206e6f60008301527f6e6578697374656e7420746f6b656e00000000000000000000000000000000006020830152604082019050919050565b6000613907602183613ffc565b91507f4552433732313a20617070726f76616c20746f2063757272656e74206f776e6560008301527f72000000000000000000000000000000000000000000000000000000000000006020830152604082019050919050565b600061396d601583613ffc565b91507f416c726561647920686176652061206d797374696300000000000000000000006000830152602082019050919050565b60006139ad603183613ffc565b91507f4552433732313a207472616e736665722063616c6c6572206973206e6f74206f60008301527f776e6572206e6f7220617070726f7665640000000000000000000000000000006020830152604082019050919050565b6000613a13600f83613ffc565b91507f4e6f7420596f7572206d797374696300000000000000000000000000000000006000830152602082019050919050565b600060e083016000830151613a5e6000860182613b00565b506020830151613a716020860182613b00565b5060408301518482036040860152613a89828261321f565b9150506060830151613a9e6060860182613b00565b506080830151613ab1608086018261327d565b5060a0830151613ac460a086018261327d565b5060c0830151613ad760c0860182613ae2565b508091505092915050565b613aeb816141ce565b82525050565b613afa816141ce565b82525050565b613b09816141d8565b82525050565b6000613b1b828561330d565b9150613b27828461330d565b91508190509392505050565b6000602082019050613b4860008301846131b2565b92915050565b6000608082019050613b6360008301876131b2565b613b7060208301866131b2565b613b7d6040830185613af1565b8181036060830152613b8f818461329b565b905095945050505050565b60006020820190508181036000830152613bb481846131c1565b905092915050565b6000602082019050613bd1600083018461328c565b92915050565b60006020820190508181036000830152613bf181846132d4565b905092915050565b60006020820190508181036000830152613c128161333e565b9050919050565b60006020820190508181036000830152613c32816133a4565b9050919050565b60006020820190508181036000830152613c52816133e4565b9050919050565b60006020820190508181036000830152613c728161344a565b9050919050565b60006020820190508181036000830152613c928161348a565b9050919050565b60006020820190508181036000830152613cb2816134f0565b9050919050565b60006020820190508181036000830152613cd281613530565b9050919050565b60006020820190508181036000830152613cf281613596565b9050919050565b60006020820190508181036000830152613d12816135fc565b9050919050565b60006020820190508181036000830152613d3281613662565b9050919050565b60006020820190508181036000830152613d52816136c8565b9050919050565b60006020820190508181036000830152613d7281613708565b9050919050565b60006020820190508181036000830152613d9281613748565b9050919050565b60006020820190508181036000830152613db2816137ae565b9050919050565b60006020820190508181036000830152613dd2816137ee565b9050919050565b60006020820190508181036000830152613df281613854565b9050919050565b60006020820190508181036000830152613e1281613894565b9050919050565b60006020820190508181036000830152613e32816138fa565b9050919050565b60006020820190508181036000830152613e5281613960565b9050919050565b60006020820190508181036000830152613e72816139a0565b9050919050565b60006020820190508181036000830152613e9281613a06565b9050919050565b60006020820190508181036000830152613eb38184613a46565b905092915050565b6000602082019050613ed06000830184613af1565b92915050565b6000604051905081810181811067ffffffffffffffff82111715613efd57613efc614360565b5b8060405250919050565b600067ffffffffffffffff821115613f2257613f21614360565b5b602082029050602081019050919050565b600067ffffffffffffffff821115613f4e57613f4d614360565b5b601f19601f8301169050602081019050919050565b6000819050602082019050919050565b6000819050602082019050919050565b600081519050919050565b600081519050919050565b600081519050919050565b600081519050919050565b6000602082019050919050565b6000602082019050919050565b600082825260208201905092915050565b600082825260208201905092915050565b600082825260208201905092915050565b600082825260208201905092915050565b600081905092915050565b6000614023826141ce565b915061402e836141ce565b9250827fffffffffffffffffffffffffffffffffffffffffffffffffffffffffffffffff03821115614063576140626142d3565b5b828201905092915050565b6000614079826141d8565b9150614084836141d8565b92508260ff0382111561409a576140996142d3565b5b828201905092915050565b60006140b0826141ce565b91506140bb836141ce565b9250826140cb576140ca614302565b5b828204905092915050565b60006140e1826141ce565b91506140ec836141ce565b9250817fffffffffffffffffffffffffffffffffffffffffffffffffffffffffffffffff0483118215151615614125576141246142d3565b5b828202905092915050565b600061413b826141ce565b9150614146836141ce565b925082821015614159576141586142d3565b5b828203905092915050565b600061416f826141ae565b9050919050565b60008115159050919050565b60007fffffffff0000000000000000000000000000000000000000000000000000000082169050919050565b600073ffffffffffffffffffffffffffffffffffffffff82169050919050565b6000819050919050565b600060ff82169050919050565b82818337600083830152505050565b60005b838110156142125780820151818401526020810190506141f7565b83811115614221576000848401525b50505050565b6000600282049050600182168061423f57607f821691505b6020821081141561425357614252614331565b5b50919050565b6000614264826141ce565b91507fffffffffffffffffffffffffffffffffffffffffffffffffffffffffffffffff821415614297576142966142d3565b5b600182019050919050565b60006142ad826141ce565b91506142b8836141ce565b9250826142c8576142c7614302565b5b828206905092915050565b7f4e487b7100000000000000000000000000000000000000000000000000000000600052601160045260246000fd5b7f4e487b7100000000000000000000000000000000000000000000000000000000600052601260045260246000fd5b7f4e487b7100000000000000000000000000000000000000000000000000000000600052602260045260246000fd5b7f4e487b7100000000000000000000000000000000000000000000000000000000600052604160045260246000fd5b6000601f19601f8301169050919050565b6143a981614164565b81146143b457600080fd5b50565b6143c081614176565b81146143cb57600080fd5b50565b6143d781614182565b81146143e257600080fd5b50565b6143ee816141ce565b81146143f957600080fd5b50565b614405816141d8565b811461441057600080fd5b5056fea2646970667358221220af41f5fccb188a562290ff7bdca998e4323c85a9147838a9c6af78935f0aa35164736f6c63430008000033",
  "immutableReferences": {},
  "source": "pragma solidity 0.8.0;\r\n\r\nimport '../node_modules/@openzeppelin/contracts/token/ERC721/ERC721.sol';\r\nimport '../node_modules/@openzeppelin/contracts/access/Ownable.sol';\r\n\r\ncontract Token is ERC721, Ownable{\r\n    /**\r\n    Ici on crer l'objet Token avec lequel on remplira des variables\r\n     */\r\n    struct  Mystic {\r\n        uint8 price;\r\n        uint8 numberReproduce;\r\n        uint8[] parts;\r\n        uint8 tokenIdReproducable;\r\n        bool inSell;\r\n        bool egg;\r\n        uint256 createdAt;\r\n    }\r\n    \r\n    uint256 nextId = 1;//Le premier Id token et on incrmente a chaque cration\r\n    uint256 nbrMystic = 0;//Le nombre total de token\r\n    uint256 balance = 0;//Le nombre d'eth envoy sur le contrat\r\n\r\n    mapping( uint256 => Mystic ) private _tokenDetails;\r\n\r\n    constructor(string memory name, string memory symbol) ERC721(name, symbol){ }\r\n\r\n    /**\r\n    Fonction de cration de token\r\n     */\r\n    function mint(uint8 price, uint8[] memory parts) public  {//onlyOwner\r\n        _tokenDetails[nextId] = Mystic(price,0,parts,0,false,true,block.timestamp);\r\n        _safeMint(msg.sender, nextId);\r\n        nextId++;nbrMystic++;\r\n    }\r\n\r\n    /**\r\n    Quand meurs de veillesse ou jeter le burn\r\n     */\r\n    // function burn(uint256 tokenId) public{\r\n    //     _burn(tokenId);\r\n    //     nbrMystic--;\r\n    // }\r\n    \r\n    /*\r\n    faire l'alatoire depuis le front et mttre dans parts one et parts two\r\n    */\r\n    function reproduce( uint8[] memory partsOne, uint256 tokenIdOne, uint8[] memory partsTwo, address senderInvit, uint256 tokenIdTwo) public {\r\n        require(_tokenDetails[tokenIdOne].createdAt != 0,\"Mystic not exist\");\r\n        require(_tokenDetails[tokenIdTwo].createdAt != 0,\"Mystic not exist\");\r\n        \r\n        if(_tokenDetails[tokenIdTwo].tokenIdReproducable == tokenIdOne && ownerOf(tokenIdOne) == msg.sender && ownerOf(tokenIdTwo) == senderInvit && _tokenDetails[tokenIdTwo].numberReproduce < 3 && _tokenDetails[tokenIdOne].numberReproduce < 3 ){\r\n            _tokenDetails[nextId] = Mystic(_tokenDetails[tokenIdOne].price,_tokenDetails[tokenIdOne].numberReproduce+1,partsOne,0,false,true,block.timestamp);\r\n            _safeMint(msg.sender, nextId);\r\n            nextId++;\r\n\r\n            _tokenDetails[nextId] = Mystic(_tokenDetails[tokenIdTwo].price,_tokenDetails[tokenIdTwo].numberReproduce+1,partsTwo,0,false,true,block.timestamp);\r\n            _safeMint(senderInvit, nextId);\r\n            nextId++;\r\n            _tokenDetails[tokenIdTwo].tokenIdReproducable = 0;\r\n        }\r\n    }\r\n\r\n    /**\r\n    Rcuprer le token et ces variable grace a son token id\r\n     */\r\n    function getTokenDetails(uint256 tokenId) public view returns (Mystic memory){\r\n        return _tokenDetails[tokenId];\r\n    }\r\n\r\n    /**\r\n    a c'est pour modifier la variable qui contient le token id avec lequel le joueur veux reproduire son token\r\n    En vrai ont pourrais la bouger dans params ce sera plus leger pour le contrat\r\n     */\r\n    function addSubInvitation(uint256 tokenId, uint8 tokenIdReproducable, bool add) public {\r\n        if(ownerOf(tokenId) == msg.sender) _tokenDetails[tokenId].tokenIdReproducable = (add?tokenIdReproducable:0);\r\n    }\r\n\r\n    function getAllTokensForUser(address user) public view returns (uint256[] memory){\r\n        uint256 tokenCount = balanceOf(user);\r\n        if(tokenCount == 0){\r\n            return new uint256[](0);\r\n        }\r\n        else{\r\n            uint[] memory result = new uint256[](tokenCount);\r\n            uint256 totalMystics = nextId;\r\n            uint256 resultIndex = 0;\r\n            uint256 i;\r\n            for(i = 0; i < totalMystics; i++){\r\n                if(ownerOf(i) == user){\r\n                    result[resultIndex] = i;\r\n                    resultIndex++;\r\n                }\r\n            }\r\n            return result;\r\n        }\r\n    }\r\n\r\n    /*function transfer(address to, uint256 tokenId) public {\r\n        require(_tokenDetails[tokenId].createdAt != 0,\"Mystic not exist\");\r\n        require(ownerOf(tokenId) == msg.sender,\"Not Your mystic\");\r\n        require(ownerOf(tokenId) != to, \"User already owned this mystic\");\r\n        uint256 tokenCount = balanceOf(to);\r\n        if(tokenCount == 0){\r\n            _safeTransfer(msg.sender, to, tokenId, \"\");\r\n        }\r\n        else{\r\n            uint[] memory result = new uint256[](tokenCount);\r\n            uint256 totalMystics = nextId;\r\n            uint256 resultIndex = 0;\r\n            uint256 i;\r\n            for(i = 0; i < totalMystics; i++){\r\n                if(ownerOf(i) == to && _tokenDetails[i].egg == false){\r\n                    resultIndex++;\r\n                }\r\n            }\r\n            require(resultIndex <= 1, \"User already have a mystic\");\r\n            _safeTransfer(msg.sender, to, tokenId, \"\");\r\n        }\r\n    }\r\n\r\n    function purchase(address contactAddr, uint256 tokenId, uint256 amount) external payable {\r\n        balance = balance+msg.value;\r\n        Mystic memory mystic = _tokenDetails[tokenId];\r\n        require(msg.value >= mystic.price * amount, \"insufficient fonds sent\");\r\n        require(ownerOf(tokenId) != msg.sender, \"Already Owned\");\r\n        uint256 tokenCount = balanceOf(msg.sender);\r\n        if(tokenCount == 0){\r\n            _safeTransfer(contactAddr, msg.sender, tokenId, \"\");\r\n        }\r\n        else{\r\n            uint[] memory result = new uint256[](tokenCount);\r\n            uint256 totalMystics = nextId;\r\n            uint256 resultIndex = 0;\r\n            uint256 i;\r\n            for(i = 0; i < totalMystics; i++){\r\n                if(ownerOf(i) == msg.sender && _tokenDetails[i].egg == false){\r\n                    resultIndex++;\r\n                }\r\n            }\r\n            require(resultIndex <= 1, \"Already have a mystic\");\r\n            _safeTransfer(contactAddr, msg.sender, tokenId, \"\");\r\n        }\r\n    }*/\r\n\r\n    /**\r\n    Fonction de transfer ou d'achat d'un token d'un compte user a un autre en passant par metamask, ultra secure\r\n    Et comme tu le vois au dessus, y avais les mmes fonctions sauf que pour l'opti je les ai transformer en une fonction plus lgre\r\n     */\r\n    function purchaseAndTransfer(address contactAddr, uint256 tokenId, uint256 amount,bool purchase) external payable {\r\n        balance = balance+msg.value;\r\n        Mystic memory mystic = _tokenDetails[tokenId];\r\n        if(amount != 0) require(msg.value >= mystic.price * amount, \"Insufficient fonds sent\");\r\n        require(ownerOf(tokenId) != (purchase?msg.sender:contactAddr), \"Already Owned\");\r\n        uint256 tokenCount = balanceOf((purchase?msg.sender:contactAddr));\r\n        uint[] memory result = new uint256[](tokenCount);\r\n        uint256 totalMystics = nextId;\r\n        uint256 resultIndex = 0;\r\n        uint256 i;\r\n        for(i = 0; i < totalMystics; i++){\r\n            if(ownerOf(i) == (purchase?msg.sender:contactAddr) && _tokenDetails[i].egg == false){\r\n                resultIndex++;\r\n            }\r\n        }\r\n        require(resultIndex <= 1, \"Already have a mystic\");\r\n        _tokenDetails[i].inSell=false;\r\n        _safeTransfer((purchase?contactAddr:msg.sender), (purchase?msg.sender:contactAddr), tokenId, \"\");\r\n    }\r\n\r\n    /**\r\n    Modifier les paramtre d'un token en utilisant son id\r\n     */\r\n    function params(uint256 tokenId,bool sellable,bool egg) public {\r\n        require(ownerOf(tokenId) == msg.sender,\"Not Your mystic\");\r\n        _tokenDetails[tokenId].inSell = sellable;\r\n        if(_tokenDetails[tokenId].egg != egg) _tokenDetails[tokenId].createdAt = block.timestamp;\r\n        _tokenDetails[tokenId].egg = egg;\r\n    }\r\n\r\n}",
  "sourcePath": "C:\\laragon\\www\\nftWithFlo\\contracts\\Token.sol",
  "compiler": {
    "name": "solc",
    "version": "0.8.0+commit.c7dfd78e.Emscripten.clang"
  },
  "schemaVersion": "3.4.4",
  "updatedAt": "2022-01-09T21:01:37.609Z",
  "devdoc": {
    "kind": "dev",
    "methods": {
      "approve(address,uint256)": {
        "details": "See {IERC721-approve}."
      },
      "balanceOf(address)": {
        "details": "See {IERC721-balanceOf}."
      },
      "getApproved(uint256)": {
        "details": "See {IERC721-getApproved}."
      },
      "isApprovedForAll(address,address)": {
        "details": "See {IERC721-isApprovedForAll}."
      },
      "name()": {
        "details": "See {IERC721Metadata-name}."
      },
      "owner()": {
        "details": "Returns the address of the current owner."
      },
      "ownerOf(uint256)": {
        "details": "See {IERC721-ownerOf}."
      },
      "renounceOwnership()": {
        "details": "Leaves the contract without owner. It will not be possible to call `onlyOwner` functions anymore. Can only be called by the current owner. NOTE: Renouncing ownership will leave the contract without an owner, thereby removing any functionality that is only available to the owner."
      },
      "safeTransferFrom(address,address,uint256)": {
        "details": "See {IERC721-safeTransferFrom}."
      },
      "safeTransferFrom(address,address,uint256,bytes)": {
        "details": "See {IERC721-safeTransferFrom}."
      },
      "setApprovalForAll(address,bool)": {
        "details": "See {IERC721-setApprovalForAll}."
      },
      "supportsInterface(bytes4)": {
        "details": "See {IERC165-supportsInterface}."
      },
      "symbol()": {
        "details": "See {IERC721Metadata-symbol}."
      },
      "tokenURI(uint256)": {
        "details": "See {IERC721Metadata-tokenURI}."
      },
      "transferFrom(address,address,uint256)": {
        "details": "See {IERC721-transferFrom}."
      },
      "transferOwnership(address)": {
        "details": "Transfers ownership of the contract to a new account (`newOwner`). Can only be called by the current owner."
      }
    },
    "version": 1
  },
  "userdoc": {
    "kind": "user",
    "methods": {
      "addSubInvitation(uint256,uint8,bool)": {
        "notice": "a c'est pour modifier la variable qui contient le token id avec lequel le joueur veux reproduire son token En vrai ont pourrais la bouger dans params ce sera plus leger pour le contrat"
      },
      "getTokenDetails(uint256)": {
        "notice": "Rcuprer le token et ces variable grace a son token id"
      },
      "mint(uint8,uint8[])": {
        "notice": "Fonction de cration de token"
      },
      "params(uint256,bool,bool)": {
        "notice": "Modifier les paramtre d'un token en utilisant son id"
      },
      "purchaseAndTransfer(address,uint256,uint256,bool)": {
        "notice": "Fonction de transfer ou d'achat d'un token d'un compte user a un autre en passant par metamask, ultra secure Et comme tu le vois au dessus, y avais les mmes fonctions sauf que pour l'opti je les ai transformer en une fonction plus lgre"
      },
      "reproduce(uint8[],uint256,uint8[],address,uint256)": {
        "notice": "Quand meurs de veillesse ou jeter le burn"
      }
    },
    "version": 1
  }
}